{"contracts/ZetaFarm.sol":{"ZetaFarm":{"abi":[{"inputs":[{"internalType":"contract IERC20","name":"_CAKE","type":"address"},{"internalType":"address","name":"_burnAdmin","type":"address"}],"stateMutability":"nonpayable","type":"constructor"},{"inputs":[],"name":"ReentrancyGuardReentrantCall","type":"error"},{"anonymous":false,"inputs":[{"indexed":true,"internalType":"uint256","name":"pid","type":"uint256"},{"indexed":false,"internalType":"uint256","name":"allocPoint","type":"uint256"},{"indexed":true,"internalType":"contract IERC20","name":"lpToken","type":"address"},{"indexed":false,"internalType":"bool","name":"isRegular","type":"bool"}],"name":"AddPool","type":"event"},{"anonymous":false,"inputs":[{"indexed":true,"internalType":"address","name":"user","type":"address"},{"indexed":true,"internalType":"uint256","name":"pid","type":"uint256"},{"indexed":false,"internalType":"uint256","name":"amount","type":"uint256"}],"name":"Deposit","type":"event"},{"anonymous":false,"inputs":[{"indexed":true,"internalType":"address","name":"user","type":"address"},{"indexed":true,"internalType":"uint256","name":"pid","type":"uint256"},{"indexed":false,"internalType":"uint256","name":"amount","type":"uint256"}],"name":"EmergencyWithdraw","type":"event"},{"anonymous":false,"inputs":[],"name":"Init","type":"event"},{"anonymous":false,"inputs":[{"indexed":true,"internalType":"address","name":"previousOwner","type":"address"},{"indexed":true,"internalType":"address","name":"newOwner","type":"address"}],"name":"OwnershipTransferred","type":"event"},{"anonymous":false,"inputs":[{"indexed":true,"internalType":"uint256","name":"pid","type":"uint256"},{"indexed":false,"internalType":"uint256","name":"allocPoint","type":"uint256"}],"name":"SetPool","type":"event"},{"anonymous":false,"inputs":[{"indexed":true,"internalType":"address","name":"boostContract","type":"address"}],"name":"UpdateBoostContract","type":"event"},{"anonymous":false,"inputs":[{"indexed":true,"internalType":"address","name":"user","type":"address"},{"indexed":false,"internalType":"uint256","name":"pid","type":"uint256"},{"indexed":false,"internalType":"uint256","name":"oldMultiplier","type":"uint256"},{"indexed":false,"internalType":"uint256","name":"newMultiplier","type":"uint256"}],"name":"UpdateBoostMultiplier","type":"event"},{"anonymous":false,"inputs":[{"indexed":true,"internalType":"address","name":"oldAdmin","type":"address"},{"indexed":true,"internalType":"address","name":"newAdmin","type":"address"}],"name":"UpdateBurnAdmin","type":"event"},{"anonymous":false,"inputs":[{"indexed":false,"internalType":"uint256","name":"burnRate","type":"uint256"},{"indexed":false,"internalType":"uint256","name":"regularFarmRate","type":"uint256"},{"indexed":false,"internalType":"uint256","name":"specialFarmRate","type":"uint256"}],"name":"UpdateCakeRate","type":"event"},{"anonymous":false,"inputs":[{"indexed":true,"internalType":"uint256","name":"pid","type":"uint256"},{"indexed":false,"internalType":"uint256","name":"lastRewardTimestamp","type":"uint256"},{"indexed":false,"internalType":"uint256","name":"lpSupply","type":"uint256"},{"indexed":false,"internalType":"uint256","name":"accCakePerShare","type":"uint256"}],"name":"UpdatePool","type":"event"},{"anonymous":false,"inputs":[{"indexed":true,"internalType":"address","name":"user","type":"address"},{"indexed":false,"internalType":"bool","name":"isValid","type":"bool"}],"name":"UpdateWhiteList","type":"event"},{"anonymous":false,"inputs":[{"indexed":true,"internalType":"address","name":"user","type":"address"},{"indexed":true,"internalType":"uint256","name":"pid","type":"uint256"},{"indexed":false,"internalType":"uint256","name":"amount","type":"uint256"}],"name":"Withdraw","type":"event"},{"inputs":[],"name":"ACC_CAKE_PRECISION","outputs":[{"internalType":"uint256","name":"","type":"uint256"}],"stateMutability":"view","type":"function"},{"inputs":[],"name":"BOOST_PRECISION","outputs":[{"internalType":"uint256","name":"","type":"uint256"}],"stateMutability":"view","type":"function"},{"inputs":[],"name":"CAKE","outputs":[{"internalType":"contract IERC20","name":"","type":"address"}],"stateMutability":"view","type":"function"},{"inputs":[],"name":"CAKE_RATE_TOTAL_PRECISION","outputs":[{"internalType":"uint256","name":"","type":"uint256"}],"stateMutability":"view","type":"function"},{"inputs":[],"name":"MASTERCHEF_CAKE_PER_SECOND","outputs":[{"internalType":"uint256","name":"","type":"uint256"}],"stateMutability":"view","type":"function"},{"inputs":[],"name":"MAX_BOOST_PRECISION","outputs":[{"internalType":"uint256","name":"","type":"uint256"}],"stateMutability":"view","type":"function"},{"inputs":[{"internalType":"uint256","name":"_allocPoint","type":"uint256"},{"internalType":"contract IERC20","name":"_lpToken","type":"address"},{"internalType":"bool","name":"_isRegular","type":"bool"},{"internalType":"bool","name":"_withUpdate","type":"bool"}],"name":"add","outputs":[],"stateMutability":"nonpayable","type":"function"},{"inputs":[],"name":"boostContract","outputs":[{"internalType":"address","name":"","type":"address"}],"stateMutability":"view","type":"function"},{"inputs":[],"name":"burnAdmin","outputs":[{"internalType":"address","name":"","type":"address"}],"stateMutability":"view","type":"function"},{"inputs":[{"internalType":"bool","name":"_withUpdate","type":"bool"}],"name":"burnCake","outputs":[],"stateMutability":"nonpayable","type":"function"},{"inputs":[],"name":"cakePerBlockToBurn","outputs":[{"internalType":"uint256","name":"amount","type":"uint256"}],"stateMutability":"view","type":"function"},{"inputs":[{"internalType":"bool","name":"_isRegular","type":"bool"}],"name":"cakePerSecond","outputs":[{"internalType":"uint256","name":"amount","type":"uint256"}],"stateMutability":"view","type":"function"},{"inputs":[],"name":"cakeRateToBurn","outputs":[{"internalType":"uint256","name":"","type":"uint256"}],"stateMutability":"view","type":"function"},{"inputs":[],"name":"cakeRateToRegularFarm","outputs":[{"internalType":"uint256","name":"","type":"uint256"}],"stateMutability":"view","type":"function"},{"inputs":[],"name":"cakeRateToSpecialFarm","outputs":[{"internalType":"uint256","name":"","type":"uint256"}],"stateMutability":"view","type":"function"},{"inputs":[{"internalType":"uint256","name":"_pid","type":"uint256"},{"internalType":"uint256","name":"_amount","type":"uint256"}],"name":"deposit","outputs":[],"stateMutability":"nonpayable","type":"function"},{"inputs":[{"internalType":"uint256","name":"_pid","type":"uint256"}],"name":"emergencyWithdraw","outputs":[],"stateMutability":"nonpayable","type":"function"},{"inputs":[{"internalType":"address","name":"_user","type":"address"},{"internalType":"uint256","name":"_pid","type":"uint256"}],"name":"getBoostMultiplier","outputs":[{"internalType":"uint256","name":"","type":"uint256"}],"stateMutability":"view","type":"function"},{"inputs":[],"name":"harvestFromMasterChef","outputs":[],"stateMutability":"nonpayable","type":"function"},{"inputs":[],"name":"lastBurnedTimestamp","outputs":[{"internalType":"uint256","name":"","type":"uint256"}],"stateMutability":"view","type":"function"},{"inputs":[{"internalType":"uint256","name":"","type":"uint256"}],"name":"lpToken","outputs":[{"internalType":"contract IERC20","name":"","type":"address"}],"stateMutability":"view","type":"function"},{"inputs":[],"name":"massUpdatePools","outputs":[],"stateMutability":"nonpayable","type":"function"},{"inputs":[],"name":"owner","outputs":[{"internalType":"address","name":"","type":"address"}],"stateMutability":"view","type":"function"},{"inputs":[{"internalType":"uint256","name":"_pid","type":"uint256"},{"internalType":"address","name":"_user","type":"address"}],"name":"pendingCake","outputs":[{"internalType":"uint256","name":"","type":"uint256"}],"stateMutability":"view","type":"function"},{"inputs":[{"internalType":"uint256","name":"","type":"uint256"}],"name":"poolInfo","outputs":[{"internalType":"uint256","name":"accCakePerShare","type":"uint256"},{"internalType":"uint256","name":"lastRewardTimestamp","type":"uint256"},{"internalType":"uint256","name":"allocPoint","type":"uint256"},{"internalType":"uint256","name":"totalBoostedShare","type":"uint256"},{"internalType":"bool","name":"isRegular","type":"bool"}],"stateMutability":"view","type":"function"},{"inputs":[],"name":"poolLength","outputs":[{"internalType":"uint256","name":"pools","type":"uint256"}],"stateMutability":"view","type":"function"},{"inputs":[],"name":"renounceOwnership","outputs":[],"stateMutability":"nonpayable","type":"function"},{"inputs":[{"internalType":"uint256","name":"_pid","type":"uint256"},{"internalType":"uint256","name":"_allocPoint","type":"uint256"},{"internalType":"bool","name":"_withUpdate","type":"bool"}],"name":"set","outputs":[],"stateMutability":"nonpayable","type":"function"},{"inputs":[],"name":"totalRegularAllocPoint","outputs":[{"internalType":"uint256","name":"","type":"uint256"}],"stateMutability":"view","type":"function"},{"inputs":[],"name":"totalSpecialAllocPoint","outputs":[{"internalType":"uint256","name":"","type":"uint256"}],"stateMutability":"view","type":"function"},{"inputs":[{"internalType":"address","name":"newOwner","type":"address"}],"name":"transferOwnership","outputs":[],"stateMutability":"nonpayable","type":"function"},{"inputs":[{"internalType":"address","name":"_newBoostContract","type":"address"}],"name":"updateBoostContract","outputs":[],"stateMutability":"nonpayable","type":"function"},{"inputs":[{"internalType":"address","name":"_user","type":"address"},{"internalType":"uint256","name":"_pid","type":"uint256"},{"internalType":"uint256","name":"_newMultiplier","type":"uint256"}],"name":"updateBoostMultiplier","outputs":[],"stateMutability":"nonpayable","type":"function"},{"inputs":[{"internalType":"address","name":"_newAdmin","type":"address"}],"name":"updateBurnAdmin","outputs":[],"stateMutability":"nonpayable","type":"function"},{"inputs":[{"internalType":"uint256","name":"_burnRate","type":"uint256"},{"internalType":"uint256","name":"_regularFarmRate","type":"uint256"},{"internalType":"uint256","name":"_specialFarmRate","type":"uint256"},{"internalType":"bool","name":"_withUpdate","type":"bool"}],"name":"updateCakeRate","outputs":[],"stateMutability":"nonpayable","type":"function"},{"inputs":[{"internalType":"uint256","name":"_pid","type":"uint256"}],"name":"updatePool","outputs":[{"components":[{"internalType":"uint256","name":"accCakePerShare","type":"uint256"},{"internalType":"uint256","name":"lastRewardTimestamp","type":"uint256"},{"internalType":"uint256","name":"allocPoint","type":"uint256"},{"internalType":"uint256","name":"totalBoostedShare","type":"uint256"},{"internalType":"bool","name":"isRegular","type":"bool"}],"internalType":"struct ZetaFarm.PoolInfo","name":"pool","type":"tuple"}],"stateMutability":"nonpayable","type":"function"},{"inputs":[{"internalType":"address","name":"_user","type":"address"},{"internalType":"bool","name":"_isValid","type":"bool"}],"name":"updateWhiteList","outputs":[],"stateMutability":"nonpayable","type":"function"},{"inputs":[{"internalType":"uint256","name":"","type":"uint256"},{"internalType":"address","name":"","type":"address"}],"name":"userInfo","outputs":[{"internalType":"uint256","name":"amount","type":"uint256"},{"internalType":"uint256","name":"rewardDebt","type":"uint256"},{"internalType":"uint256","name":"boostMultiplier","type":"uint256"}],"stateMutability":"view","type":"function"},{"inputs":[{"internalType":"address","name":"","type":"address"}],"name":"whiteList","outputs":[{"internalType":"bool","name":"","type":"bool"}],"stateMutability":"view","type":"function"},{"inputs":[{"internalType":"uint256","name":"_pid","type":"uint256"},{"internalType":"uint256","name":"_amount","type":"uint256"}],"name":"withdraw","outputs":[],"stateMutability":"nonpayable","type":"function"}],"evm":{"bytecode":{"linkReferences":{},"object":"60a06040526000600a5564a2fb405800600b556445d964b800600c553480156200002857600080fd5b5060405162002c4e38038062002c4e8339810160408190526200004b91620000d2565b600080546001600160a01b031916339081178255604051909182917f8be0079c531659141344cd1fd0a4f28419497f9722a3daafe3b4186f6b6457e0908290a350600180556001600160a01b03918216608052600280546001600160a01b0319169190921617905562000111565b6001600160a01b0381168114620000cf57600080fd5b50565b60008060408385031215620000e657600080fd5b8251620000f381620000b9565b60208401519092506200010681620000b9565b809150509250929050565b608051612b0562000149600039600081816103560152818161182a015281816122770152818161230401526123920152612b056000f3fe608060405234801561001057600080fd5b50600436106102485760003560e01c806378ed5d1f1161013b578063c33600a5116100b8578063dfcedeee1161007c578063dfcedeee1461056f578063e0f91f6c14610582578063e2bbb1581461058b578063e39e132314610550578063f2fde38b1461059e57600080fd5b8063c33600a514610521578063c40d337b14610534578063c507aeaa1461053d578063cc6db2da14610550578063dc6363df1461055c57600080fd5b806399d7e84a116100ff57806399d7e84a146104e15780639dcc1b5f146104ea5780639dd2fcc3146104f2578063aa47bc8e14610505578063ac1d06091461050e57600080fd5b806378ed5d1f1461044c57806381bdf98c1461045f578063859fb7f9146104725780638da5cb5b1461047b57806393f1a40b1461048c57600080fd5b80634ca6ef28116101c957806364482f791161018d57806364482f791461040257806369b0212814610415578063715018a6146104225780637398b7ea1461042a578063777a97f81461043957600080fd5b80634ca6ef28146103515780634f70b15a1461028657806351eb05a6146103905780635312ea8e146103e7578063630b5ba1146103fa57600080fd5b80631526fe27116102105780631526fe27146102b65780631ce06d57146102f35780632b0fc490146102fc578063372c12b11461030b578063441a3e701461033e57600080fd5b8063033186e81461024d578063041a84c914610273578063081e3eda146102885780630bb844bc146102905780631175a1dd146102a3575b600080fd5b61026061025b366004612749565b6105b1565b6040519081526020015b60405180910390f35b610286610281366004612775565b6105fa565b005b600454610260565b61028661029e3660046127aa565b61099d565b6102606102b13660046127c7565b610b14565b6102c96102c43660046127f7565b610ca5565b6040805195865260208601949094529284019190915260608301521515608082015260a00161026a565b610260600c5481565b6102606708eff296835a000081565b61032e6103193660046127aa565b60076020526000908152604090205460ff1681565b604051901515815260200161026a565b61028661034c366004612810565b610ce9565b6103787f000000000000000000000000000000000000000000000000000000000000000081565b6040516001600160a01b03909116815260200161026a565b6103a361039e3660046127f7565b610ec8565b60405161026a9190600060a0820190508251825260208301516020830152604083015160408301526060830151606083015260808301511515608083015292915050565b6102866103f53660046127f7565b6110b8565b6102866111b5565b610286610410366004612840565b61124d565b6102606501d1a94a200081565b6102866113ac565b610260670de0b6b3a764000081565b610286610447366004612879565b611420565b61037861045a3660046127f7565b6114a7565b600254610378906001600160a01b031681565b610260600d5481565b6000546001600160a01b0316610378565b6104c661049a3660046127c7565b600660209081526000928352604080842090915290825290208054600182015460029092015490919083565b6040805193845260208401929092529082015260600161026a565b61026060095481565b6102606114d1565b6102866105003660046127aa565b6114fe565b610260600b5481565b61028661051c366004612896565b611603565b61026061052f366004612879565b6116fd565b61026060085481565b61028661054b3660046128c4565b611751565b61026064e8d4a5100081565b61028661056a366004612917565b611a91565b600354610378906001600160a01b031681565b610260600a5481565b610286610599366004612810565b611c17565b6102866105ac3660046127aa565b611f61565b60008181526006602090815260408083206001600160a01b038616845290915281206002015464e8d4a5100081116105ee5764e8d4a510006105f0565b805b9150505b92915050565b6003546001600160a01b0316331461066b5760405162461bcd60e51b815260206004820152602960248201527f4f776e61626c653a2063616c6c6572206973206e6f742074686520626f6f73746044820152680818dbdb9d1c9858dd60ba1b60648201526084015b60405180910390fd5b610673611f94565b6001600160a01b0383166106de5760405162461bcd60e51b815260206004820152602c60248201527f4d61737465724368656656323a2054686520757365722061646472657373206d60448201526b1d5cdd081899481d985b1a5960a21b6064820152608401610662565b600482815481106106f1576106f161294d565b600091825260209091206004600590920201015460ff1661076d5760405162461bcd60e51b815260206004820152603060248201527f4d61737465724368656656323a204f6e6c7920726567756c6172206661726d2060448201526f18dbdd5b1908189948189bdbdcdd195960821b6064820152608401610662565b64e8d4a51000811015801561078857506501d1a94a20008111155b6107e75760405162461bcd60e51b815260206004820152602a60248201527f4d61737465724368656656323a20496e76616c6964206e657720626f6f73742060448201526936bab63a34b83634b2b960b11b6064820152608401610662565b60006107f283610ec8565b60008481526006602090815260408083206001600160a01b0389168452909152812091925061082186866105b1565b905061082e868683611fbe565b61086e670de0b6b3a7640000610862856000015161086864e8d4a510006108628a896000015461208b90919063ffffffff16565b9061210d565b9061208b565b600183015581546108ba9061088e9064e8d4a5100090610862908861208b565b83546108b4906108a99064e8d4a5100090610862908761208b565b606087015190612156565b90612198565b606084015260048054849190879081106108d6576108d661294d565b6000918252602080832084516005939093020191825583810151600183015560408085015160028085019190915560608087015160038601556080909601516004909401805460ff191694151594909417909355898452600682528084206001600160a01b038c1680865290835293819020909201889055815189815290810185905290810187905290917f01abd62439b64f6c5dab6f94d56099495bd0c094f9c21f98f4d3562a21edb4ba910160405180910390a250505061099860018055565b505050565b6000546001600160a01b031633146109c75760405162461bcd60e51b815260040161066290612963565b6001600160a01b038116610a345760405162461bcd60e51b815260206004820152602e60248201527f4d61737465724368656656323a204275726e2061646d696e206164647265737360448201526d081b5d5cdd081899481d985b1a5960921b6064820152608401610662565b6002546001600160a01b0390811690821603610ac25760405162461bcd60e51b815260206004820152604160248201527f4d61737465724368656656323a204275726e2061646d696e206164647265737360448201527f206973207468652073616d6520776974682063757272656e74206164647265736064820152607360f81b608482015260a401610662565b600280546001600160a01b038381166001600160a01b0319831681179093556040519116919082907fd146fe330fdddf682413850a35b28edfccd4c4b53cfee802fd24950de5be1dbe90600090a35050565b60008060048481548110610b2a57610b2a61294d565b600091825260208083206040805160a081018252600590940290910180548452600180820154858501908152600280840154878601526003840154606080890191825260049095015460ff16151560808901528c8952600687528589206001600160a01b038d168a528752978590208551948501865280548552928301549584019590955293015491810191909152825193519151929450929142118015610bd157508015155b15610c51576000610bef85602001514261215690919063ffffffff16565b90506000610c2a8660800151610c0757600954610c0b565b6008545b6108628860400151610868610c238b608001516116fd565b879061208b565b9050610c4c610c458461086284670de0b6b3a764000061208b565b8590612198565b935050505b6000610c7164e8d4a51000610862610c698a8c6105b1565b87519061208b565b6020850151909150610c9990610c93670de0b6b3a7640000610862858861208b565b90612156565b98975050505050505050565b60048181548110610cb557600080fd5b6000918252602090912060059091020180546001820154600283015460038401546004909401549294509092909160ff1685565b610cf1611f94565b6000610cfc83610ec8565b60008481526006602090815260408083203384529091529020805491925090831115610d635760405162461bcd60e51b81526020600482015260166024820152751dda5d1a191c985dce88125b9cdd59999a58da595b9d60521b6044820152606401610662565b6000610d6f33866105b1565b9050610d7c338683611fbe565b8315610dca578154610d8e9085612156565b8260000181905550610dca338560058881548110610dae57610dae61294d565b6000918252602090912001546001600160a01b031691906121f7565b610dfe670de0b6b3a7640000610862856000015161086864e8d4a5100061086287896000015461208b90919063ffffffff16565b6001830155610e4c610e1964e8d4a51000610862878561208b565b60048781548110610e2c57610e2c61294d565b90600052602060002090600502016003015461215690919063ffffffff16565b60048681548110610e5f57610e5f61294d565b90600052602060002090600502016003018190555084336001600160a01b03167ff279e6a1f5e320cca91135676d9cb6e44ca8a08c0b88342bcdb1144f6511b56886604051610eb091815260200190565b60405180910390a3505050610ec460018055565b5050565b610efc6040518060a00160405280600081526020016000815260200160008152602001600081526020016000151581525090565b60048281548110610f0f57610f0f61294d565b60009182526020918290206040805160a0810182526005909302909101805483526001810154938301849052600281015491830191909152600381015460608301526004015460ff161515608082015291504211156110b35760608101516080820151600090610f8157600954610f85565b6008545b9050600082118015610f975750600081115b15610ffd576000610fb584602001514261215690919063ffffffff16565b90506000610fd5836108628760400151610868610c238a608001516116fd565b9050610ff8610ff08561086284670de0b6b3a764000061208b565b865190612198565b855250505b426020840152600480548491908690811061101a5761101a61294d565b6000918252602091829020835160059290920201908155828201516001820155604080840151600283015560608085015160038401556080909401516004909201805460ff19169215159290921790915585820151865182519182529281018690529081019190915285917f3be3541fc42237d611b30329040bfa4569541d156560acdbbae57640d20b8f46910160405180910390a250505b919050565b6110c0611f94565b6000600482815481106110d5576110d561294d565b60009182526020808320858452600682526040808520338087529352842080548582556001820186905560059094029091019450929061112b9064e8d4a51000906108629061112490896105b1565b859061208b565b90508084600301541161113f57600061114e565b600384015461114e9082612156565b846003018190555061116e338360058881548110610dae57610dae61294d565b604051828152859033907fbb757047c2b5f3974fe26b7c10f732e7bce710b0952a71082702781e62ae05959060200160405180910390a3505050506111b260018055565b50565b60045460005b81811015610ec4576000600482815481106111d8576111d861294d565b60009182526020918290206040805160a08101825260059093029091018054835260018101549383019390935260028301549082018190526003830154606083015260049092015460ff161515608082015291501561123c5761123a82610ec8565b505b50611246816129ae565b90506111bb565b6000546001600160a01b031633146112775760405162461bcd60e51b815260040161066290612963565b61128083610ec8565b50801561128f5761128f6111b5565b600483815481106112a2576112a261294d565b600091825260209091206004600590920201015460ff1615611303576112fb826108b4600486815481106112d8576112d861294d565b90600052602060002090600502016002015460085461215690919063ffffffff16565b600855611344565b611340826108b46004868154811061131d5761131d61294d565b90600052602060002090600502016002015460095461215690919063ffffffff16565b6009555b81600484815481106113585761135861294d565b906000526020600020906005020160020181905550827fc0cfd54d2de2b55f1e6e108d3ec53ff0a1abe6055401d32c61e9433b747ef9f88360405161139f91815260200190565b60405180910390a2505050565b6000546001600160a01b031633146113d65760405162461bcd60e51b815260040161066290612963565b600080546040516001600160a01b03909116907f8be0079c531659141344cd1fd0a4f28419497f9722a3daafe3b4186f6b6457e0908390a3600080546001600160a01b0319169055565b6000546001600160a01b0316331461144a5760405162461bcd60e51b815260040161066290612963565b8015611458576114586111b5565b600061146f600d544261215690919063ffffffff16565b9050600061148561147e6114d1565b839061208b565b60025490915061149e906001600160a01b03168261225a565b505042600d5550565b600581815481106114b757600080fd5b6000918252602090912001546001600160a01b0316905081565b60006114f964e8d4a51000610862600a546708eff296835a000061208b90919063ffffffff16565b905090565b6000546001600160a01b031633146115285760405162461bcd60e51b815260040161066290612963565b6001600160a01b0381161580159061154e57506003546001600160a01b03828116911614155b6115b95760405162461bcd60e51b815260206004820152603660248201527f4d61737465724368656656323a204e657720626f6f737420636f6e7472616374604482015275081859191c995cdcc81b5d5cdd081899481d985b1a5960521b6064820152608401610662565b600380546001600160a01b0319166001600160a01b0383169081179091556040517f4c0c07d0b548b824a1b998eb4d11fccf1cfbc1e47edcdb309970ba88315eb30390600090a250565b6000546001600160a01b0316331461162d5760405162461bcd60e51b815260040161066290612963565b6001600160a01b03821661169e5760405162461bcd60e51b815260206004820152603260248201527f4d61737465724368656656323a20546865207768697465206c697374206164646044820152711c995cdcc81b5d5cdd081899481d985b1a5960721b6064820152608401610662565b6001600160a01b038216600081815260076020908152604091829020805460ff191685151590811790915591519182527fc551bbb22d0406dbfb8b6b7740cc521bcf44e1106029cf899c19b6a8e4c99d51910160405180910390a25050565b6000811561172b576105f464e8d4a51000610862600b546708eff296835a000061208b90919063ffffffff16565b6105f464e8d4a51000610862600c546708eff296835a000061208b90919063ffffffff16565b6000546001600160a01b0316331461177b5760405162461bcd60e51b815260040161066290612963565b6040516370a0823160e01b81523060048201526000906001600160a01b038516906370a0823190602401602060405180830381865afa1580156117c2573d6000803e3d6000fd5b505050506040513d601f19601f820116820180604052508101906117e691906129c7565b10156118285760405162461bcd60e51b81526020600482015260116024820152704e6f6e6520455243323020746f6b656e7360781b6044820152606401610662565b7f00000000000000000000000000000000000000000000000000000000000000006001600160a01b0316836001600160a01b0316036118b95760405162461bcd60e51b815260206004820152602760248201527f43414b4520746f6b656e2063616e277420626520616464656420746f206661726044820152666d20706f6f6c7360c81b6064820152608401610662565b80156118c7576118c76111b5565b81156118e2576008546118da9085612198565b6008556118f3565b6009546118ef9085612198565b6009555b60058054600180820183557f036b6384b5eca791c62761152d0c79bb0604c104a5fb6f4eb0703f3154bb3db090910180546001600160a01b0319166001600160a01b0387169081179091556040805160a081018252600080825242602083019081529282018a8152606083018281528915156080850190815260048054808a018255945293517f8a35acfbc15ff81a39ae7d344fd709f28e8600b4aa8c65c6b64bfe7fe36bd19b9389029384015593517f8a35acfbc15ff81a39ae7d344fd709f28e8600b4aa8c65c6b64bfe7fe36bd19c830155517f8a35acfbc15ff81a39ae7d344fd709f28e8600b4aa8c65c6b64bfe7fe36bd19d82015591517f8a35acfbc15ff81a39ae7d344fd709f28e8600b4aa8c65c6b64bfe7fe36bd19e830155517f8a35acfbc15ff81a39ae7d344fd709f28e8600b4aa8c65c6b64bfe7fe36bd19f909101805460ff19169115159190911790559154611a5191612156565b6040805187815285151560208201527f18caa0724a26384928efe604ae6ddc99c242548876259770fc88fcb7e719d8fa910160405180910390a350505050565b6000546001600160a01b03163314611abb5760405162461bcd60e51b815260040161066290612963565b600084118015611acb5750600083115b8015611ad75750600082115b611b3a5760405162461bcd60e51b815260206004820152602e60248201527f4d61737465724368656656323a2043616b652072617465206d7573742062652060448201526d067726561746572207468616e20360941b6064820152608401610662565b64e8d4a51000611b4e836108b48787612198565b14611ba95760405162461bcd60e51b815260206004820152602560248201527f4d61737465724368656656323a20546f74616c2072617465206d7573742062656044820152641018b2989960d91b6064820152608401610662565b8015611bb757611bb76111b5565b611bc16000611420565b600a849055600b839055600c82905560408051858152602081018590529081018390527fae2d2e7d1ae84564fc72227253ce0f36a007209f7fd5ec414dea80e5af2fb5b09060600160405180910390a150505050565b611c1f611f94565b6000611c2a83610ec8565b6000848152600660209081526040808320338452909152902060808201519192509080611c6657503360009081526007602052604090205460ff165b611ce35760405162461bcd60e51b815260206004820152604260248201527f4d61737465724368656656323a205468652061646472657373206973206e6f7460448201527f20617661696c61626c6520746f206465706f73697420696e207468697320706f6064820152611bdb60f21b608482015260a401610662565b6000611cef33866105b1565b825490915015611d0457611d04338683611fbe565b8315611e9157600060058681548110611d1f57611d1f61294d565b6000918252602090912001546040516370a0823160e01b81523060048201526001600160a01b03909116906370a0823190602401602060405180830381865afa158015611d70573d6000803e3d6000fd5b505050506040513d601f19601f82011682018060405250810190611d9491906129c7565b9050611dcc33308760058a81548110611daf57611daf61294d565b6000918252602090912001546001600160a01b03169291906123b9565b611e588160058881548110611de357611de361294d565b6000918252602090912001546040516370a0823160e01b81523060048201526001600160a01b03909116906370a0823190602401602060405180830381865afa158015611e34573d6000803e3d6000fd5b505050506040513d601f19601f82011682018060405250810190610c9391906129c7565b8354909550611e679086612198565b8355611e8a611e7f64e8d4a51000610862888661208b565b606086015190612198565b6060850152505b611ec5670de0b6b3a7640000610862856000015161086864e8d4a5100061086287896000015461208b90919063ffffffff16565b82600101819055508260048681548110611ee157611ee161294d565b60009182526020918290208351600592909202019081558282015160018201556040808401516002830155606084015160038301556080909301516004909101805460ff19169115159190911790559051858152869133917f90890809c654f11d6e72a28fa60149770a0d11ec6c92319d6ceb2bb0a4ea1a159101610eb0565b6000546001600160a01b03163314611f8b5760405162461bcd60e51b815260040161066290612963565b6111b2816123f7565b600260015403611fb757604051633ee5aeb560e01b815260040160405180910390fd5b6002600155565b60008281526006602090815260408083206001600160a01b038716845282528083208151606081018352815480825260018301549482019490945260029091015491810191909152919061201d9064e8d4a5100090610862908661208b565b9050600061205b670de0b6b3a7640000610862600488815481106120435761204361294d565b6000918252602090912060059091020154859061208b565b9050600061207684602001518361215690919063ffffffff16565b9050612082878261225a565b50505050505050565b60008260000361209d575060006105f4565b60006120a983856129e0565b9050826120b685836129f7565b146105ee5760405162461bcd60e51b815260206004820152602160248201527f536166654d6174683a206d756c7469706c69636174696f6e206f766572666c6f6044820152607760f81b6064820152608401610662565b600061214f83836040518060400160405280601a81526020017f536166654d6174683a206469766973696f6e206279207a65726f0000000000008152506124b7565b9392505050565b600061214f83836040518060400160405280601e81526020017f536166654d6174683a207375627472616374696f6e206f766572666c6f7700008152506124ee565b6000806121a58385612a19565b9050838110156105ee5760405162461bcd60e51b815260206004820152601b60248201527f536166654d6174683a206164646974696f6e206f766572666c6f7700000000006044820152606401610662565b6040516001600160a01b03831660248201526044810182905261099890849063a9059cbb60e01b906064015b60408051601f198184030181529190526020810180516001600160e01b03166001600160e01b03199093169290921790915261251f565b8015610ec4576040516370a0823160e01b815230600482015281907f00000000000000000000000000000000000000000000000000000000000000006001600160a01b0316906370a0823190602401602060405180830381865afa1580156122c6573d6000803e3d6000fd5b505050506040513d601f19601f820116820180604052508101906122ea91906129c7565b50506040516370a0823160e01b81523060048201526000907f00000000000000000000000000000000000000000000000000000000000000006001600160a01b0316906370a0823190602401602060405180830381865afa158015612353573d6000803e3d6000fd5b505050506040513d601f19601f8201168201806040525081019061237791906129c7565b905081811015612385578091505b6109986001600160a01b037f00000000000000000000000000000000000000000000000000000000000000001684846121f7565b6040516001600160a01b03808516602483015283166044820152606481018290526123f19085906323b872dd60e01b90608401612223565b50505050565b6001600160a01b03811661245c5760405162461bcd60e51b815260206004820152602660248201527f4f776e61626c653a206e6577206f776e657220697320746865207a65726f206160448201526564647265737360d01b6064820152608401610662565b600080546040516001600160a01b03808516939216917f8be0079c531659141344cd1fd0a4f28419497f9722a3daafe3b4186f6b6457e091a3600080546001600160a01b0319166001600160a01b0392909216919091179055565b600081836124d85760405162461bcd60e51b81526004016106629190612a50565b5060006124e584866129f7565b95945050505050565b600081848411156125125760405162461bcd60e51b81526004016106629190612a50565b5060006124e58486612a83565b6000612574826040518060400160405280602081526020017f5361666545524332303a206c6f772d6c6576656c2063616c6c206661696c6564815250856001600160a01b03166125f19092919063ffffffff16565b80519091501561099857808060200190518101906125929190612a96565b6109985760405162461bcd60e51b815260206004820152602a60248201527f5361666545524332303a204552433230206f7065726174696f6e20646964206e6044820152691bdd081cdd58d8d9595960b21b6064820152608401610662565b60606126008484600085612608565b949350505050565b6060612613856126fb565b61265f5760405162461bcd60e51b815260206004820152601d60248201527f416464726573733a2063616c6c20746f206e6f6e2d636f6e74726163740000006044820152606401610662565b600080866001600160a01b0316858760405161267b9190612ab3565b60006040518083038185875af1925050503d80600081146126b8576040519150601f19603f3d011682016040523d82523d6000602084013e6126bd565b606091505b509150915081156126d15791506126009050565b8051156126e15780518082602001fd5b8360405162461bcd60e51b81526004016106629190612a50565b6000813f7fc5d2460186f7233c927e7db2dcc703c0e500b653ca82273b7bfad8045d85a470818114801590612600575050151592915050565b6001600160a01b03811681146111b257600080fd5b6000806040838503121561275c57600080fd5b823561276781612734565b946020939093013593505050565b60008060006060848603121561278a57600080fd5b833561279581612734565b95602085013595506040909401359392505050565b6000602082840312156127bc57600080fd5b81356105ee81612734565b600080604083850312156127da57600080fd5b8235915060208301356127ec81612734565b809150509250929050565b60006020828403121561280957600080fd5b5035919050565b6000806040838503121561282357600080fd5b50508035926020909101359150565b80151581146111b257600080fd5b60008060006060848603121561285557600080fd5b8335925060208401359150604084013561286e81612832565b809150509250925092565b60006020828403121561288b57600080fd5b81356105ee81612832565b600080604083850312156128a957600080fd5b82356128b481612734565b915060208301356127ec81612832565b600080600080608085870312156128da57600080fd5b8435935060208501356128ec81612734565b925060408501356128fc81612832565b9150606085013561290c81612832565b939692955090935050565b6000806000806080858703121561292d57600080fd5b843593506020850135925060408501359150606085013561290c81612832565b634e487b7160e01b600052603260045260246000fd5b6020808252818101527f4f776e61626c653a2063616c6c6572206973206e6f7420746865206f776e6572604082015260600190565b634e487b7160e01b600052601160045260246000fd5b6000600182016129c0576129c0612998565b5060010190565b6000602082840312156129d957600080fd5b5051919050565b80820281158282048414176105f4576105f4612998565b600082612a1457634e487b7160e01b600052601260045260246000fd5b500490565b808201808211156105f4576105f4612998565b60005b83811015612a47578181015183820152602001612a2f565b50506000910152565b6020815260008251806020840152612a6f816040850160208701612a2c565b601f01601f19169190910160400192915050565b818103818111156105f4576105f4612998565b600060208284031215612aa857600080fd5b81516105ee81612832565b60008251612ac5818460208701612a2c565b919091019291505056fea26469706673582212206aa95ad775083d0a361afaf48f722d7e913294940830f20493a64cfea3d72dc264736f6c63430008140033","opcodes":"PUSH1 0xA0 PUSH1 0x40 MSTORE PUSH1 0x0 PUSH1 0xA SSTORE PUSH5 0xA2FB405800 PUSH1 0xB SSTORE PUSH5 0x45D964B800 PUSH1 0xC SSTORE CALLVALUE DUP1 ISZERO PUSH3 0x28 JUMPI PUSH1 0x0 DUP1 REVERT JUMPDEST POP PUSH1 0x40 MLOAD PUSH3 0x2C4E CODESIZE SUB DUP1 PUSH3 0x2C4E DUP4 CODECOPY DUP2 ADD PUSH1 0x40 DUP2 SWAP1 MSTORE PUSH3 0x4B SWAP2 PUSH3 0xD2 JUMP JUMPDEST PUSH1 0x0 DUP1 SLOAD PUSH1 0x1 PUSH1 0x1 PUSH1 0xA0 SHL SUB NOT AND CALLER SWAP1 DUP2 OR DUP3 SSTORE PUSH1 0x40 MLOAD SWAP1 SWAP2 DUP3 SWAP2 PUSH32 0x8BE0079C531659141344CD1FD0A4F28419497F9722A3DAAFE3B4186F6B6457E0 SWAP1 DUP3 SWAP1 LOG3 POP PUSH1 0x1 DUP1 SSTORE PUSH1 0x1 PUSH1 0x1 PUSH1 0xA0 SHL SUB SWAP2 DUP3 AND PUSH1 0x80 MSTORE PUSH1 0x2 DUP1 SLOAD PUSH1 0x1 PUSH1 0x1 PUSH1 0xA0 SHL SUB NOT AND SWAP2 SWAP1 SWAP3 AND OR SWAP1 SSTORE PUSH3 0x111 JUMP JUMPDEST PUSH1 0x1 PUSH1 0x1 PUSH1 0xA0 SHL SUB DUP2 AND DUP2 EQ PUSH3 0xCF JUMPI PUSH1 0x0 DUP1 REVERT JUMPDEST POP JUMP JUMPDEST PUSH1 0x0 DUP1 PUSH1 0x40 DUP4 DUP6 SUB SLT ISZERO PUSH3 0xE6 JUMPI PUSH1 0x0 DUP1 REVERT JUMPDEST DUP3 MLOAD PUSH3 0xF3 DUP2 PUSH3 0xB9 JUMP JUMPDEST PUSH1 0x20 DUP5 ADD MLOAD SWAP1 SWAP3 POP PUSH3 0x106 DUP2 PUSH3 0xB9 JUMP JUMPDEST DUP1 SWAP2 POP POP SWAP3 POP SWAP3 SWAP1 POP JUMP JUMPDEST PUSH1 0x80 MLOAD PUSH2 0x2B05 PUSH3 0x149 PUSH1 0x0 CODECOPY PUSH1 0x0 DUP2 DUP2 PUSH2 0x356 ADD MSTORE DUP2 DUP2 PUSH2 0x182A ADD MSTORE DUP2 DUP2 PUSH2 0x2277 ADD MSTORE DUP2 DUP2 PUSH2 0x2304 ADD MSTORE PUSH2 0x2392 ADD MSTORE PUSH2 0x2B05 PUSH1 0x0 RETURN INVALID PUSH1 0x80 PUSH1 0x40 MSTORE CALLVALUE DUP1 ISZERO PUSH2 0x10 JUMPI PUSH1 0x0 DUP1 REVERT JUMPDEST POP PUSH1 0x4 CALLDATASIZE LT PUSH2 0x248 JUMPI PUSH1 0x0 CALLDATALOAD PUSH1 0xE0 SHR DUP1 PUSH4 0x78ED5D1F GT PUSH2 0x13B JUMPI DUP1 PUSH4 0xC33600A5 GT PUSH2 0xB8 JUMPI DUP1 PUSH4 0xDFCEDEEE GT PUSH2 0x7C JUMPI DUP1 PUSH4 0xDFCEDEEE EQ PUSH2 0x56F JUMPI DUP1 PUSH4 0xE0F91F6C EQ PUSH2 0x582 JUMPI DUP1 PUSH4 0xE2BBB158 EQ PUSH2 0x58B JUMPI DUP1 PUSH4 0xE39E1323 EQ PUSH2 0x550 JUMPI DUP1 PUSH4 0xF2FDE38B EQ PUSH2 0x59E JUMPI PUSH1 0x0 DUP1 REVERT JUMPDEST DUP1 PUSH4 0xC33600A5 EQ PUSH2 0x521 JUMPI DUP1 PUSH4 0xC40D337B EQ PUSH2 0x534 JUMPI DUP1 PUSH4 0xC507AEAA EQ PUSH2 0x53D JUMPI DUP1 PUSH4 0xCC6DB2DA EQ PUSH2 0x550 JUMPI DUP1 PUSH4 0xDC6363DF EQ PUSH2 0x55C JUMPI PUSH1 0x0 DUP1 REVERT JUMPDEST DUP1 PUSH4 0x99D7E84A GT PUSH2 0xFF JUMPI DUP1 PUSH4 0x99D7E84A EQ PUSH2 0x4E1 JUMPI DUP1 PUSH4 0x9DCC1B5F EQ PUSH2 0x4EA JUMPI DUP1 PUSH4 0x9DD2FCC3 EQ PUSH2 0x4F2 JUMPI DUP1 PUSH4 0xAA47BC8E EQ PUSH2 0x505 JUMPI DUP1 PUSH4 0xAC1D0609 EQ PUSH2 0x50E JUMPI PUSH1 0x0 DUP1 REVERT JUMPDEST DUP1 PUSH4 0x78ED5D1F EQ PUSH2 0x44C JUMPI DUP1 PUSH4 0x81BDF98C EQ PUSH2 0x45F JUMPI DUP1 PUSH4 0x859FB7F9 EQ PUSH2 0x472 JUMPI DUP1 PUSH4 0x8DA5CB5B EQ PUSH2 0x47B JUMPI DUP1 PUSH4 0x93F1A40B EQ PUSH2 0x48C JUMPI PUSH1 0x0 DUP1 REVERT JUMPDEST DUP1 PUSH4 0x4CA6EF28 GT PUSH2 0x1C9 JUMPI DUP1 PUSH4 0x64482F79 GT PUSH2 0x18D JUMPI DUP1 PUSH4 0x64482F79 EQ PUSH2 0x402 JUMPI DUP1 PUSH4 0x69B02128 EQ PUSH2 0x415 JUMPI DUP1 PUSH4 0x715018A6 EQ PUSH2 0x422 JUMPI DUP1 PUSH4 0x7398B7EA EQ PUSH2 0x42A JUMPI DUP1 PUSH4 0x777A97F8 EQ PUSH2 0x439 JUMPI PUSH1 0x0 DUP1 REVERT JUMPDEST DUP1 PUSH4 0x4CA6EF28 EQ PUSH2 0x351 JUMPI DUP1 PUSH4 0x4F70B15A EQ PUSH2 0x286 JUMPI DUP1 PUSH4 0x51EB05A6 EQ PUSH2 0x390 JUMPI DUP1 PUSH4 0x5312EA8E EQ PUSH2 0x3E7 JUMPI DUP1 PUSH4 0x630B5BA1 EQ PUSH2 0x3FA JUMPI PUSH1 0x0 DUP1 REVERT JUMPDEST DUP1 PUSH4 0x1526FE27 GT PUSH2 0x210 JUMPI DUP1 PUSH4 0x1526FE27 EQ PUSH2 0x2B6 JUMPI DUP1 PUSH4 0x1CE06D57 EQ PUSH2 0x2F3 JUMPI DUP1 PUSH4 0x2B0FC490 EQ PUSH2 0x2FC JUMPI DUP1 PUSH4 0x372C12B1 EQ PUSH2 0x30B JUMPI DUP1 PUSH4 0x441A3E70 EQ PUSH2 0x33E JUMPI PUSH1 0x0 DUP1 REVERT JUMPDEST DUP1 PUSH4 0x33186E8 EQ PUSH2 0x24D JUMPI DUP1 PUSH4 0x41A84C9 EQ PUSH2 0x273 JUMPI DUP1 PUSH4 0x81E3EDA EQ PUSH2 0x288 JUMPI DUP1 PUSH4 0xBB844BC EQ PUSH2 0x290 JUMPI DUP1 PUSH4 0x1175A1DD EQ PUSH2 0x2A3 JUMPI JUMPDEST PUSH1 0x0 DUP1 REVERT JUMPDEST PUSH2 0x260 PUSH2 0x25B CALLDATASIZE PUSH1 0x4 PUSH2 0x2749 JUMP JUMPDEST PUSH2 0x5B1 JUMP JUMPDEST PUSH1 0x40 MLOAD SWAP1 DUP2 MSTORE PUSH1 0x20 ADD JUMPDEST PUSH1 0x40 MLOAD DUP1 SWAP2 SUB SWAP1 RETURN JUMPDEST PUSH2 0x286 PUSH2 0x281 CALLDATASIZE PUSH1 0x4 PUSH2 0x2775 JUMP JUMPDEST PUSH2 0x5FA JUMP JUMPDEST STOP JUMPDEST PUSH1 0x4 SLOAD PUSH2 0x260 JUMP JUMPDEST PUSH2 0x286 PUSH2 0x29E CALLDATASIZE PUSH1 0x4 PUSH2 0x27AA JUMP JUMPDEST PUSH2 0x99D JUMP JUMPDEST PUSH2 0x260 PUSH2 0x2B1 CALLDATASIZE PUSH1 0x4 PUSH2 0x27C7 JUMP JUMPDEST PUSH2 0xB14 JUMP JUMPDEST PUSH2 0x2C9 PUSH2 0x2C4 CALLDATASIZE PUSH1 0x4 PUSH2 0x27F7 JUMP JUMPDEST PUSH2 0xCA5 JUMP JUMPDEST PUSH1 0x40 DUP1 MLOAD SWAP6 DUP7 MSTORE PUSH1 0x20 DUP7 ADD SWAP5 SWAP1 SWAP5 MSTORE SWAP3 DUP5 ADD SWAP2 SWAP1 SWAP2 MSTORE PUSH1 0x60 DUP4 ADD MSTORE ISZERO ISZERO PUSH1 0x80 DUP3 ADD MSTORE PUSH1 0xA0 ADD PUSH2 0x26A JUMP JUMPDEST PUSH2 0x260 PUSH1 0xC SLOAD DUP2 JUMP JUMPDEST PUSH2 0x260 PUSH8 0x8EFF296835A0000 DUP2 JUMP JUMPDEST PUSH2 0x32E PUSH2 0x319 CALLDATASIZE PUSH1 0x4 PUSH2 0x27AA JUMP JUMPDEST PUSH1 0x7 PUSH1 0x20 MSTORE PUSH1 0x0 SWAP1 DUP2 MSTORE PUSH1 0x40 SWAP1 KECCAK256 SLOAD PUSH1 0xFF AND DUP2 JUMP JUMPDEST PUSH1 0x40 MLOAD SWAP1 ISZERO ISZERO DUP2 MSTORE PUSH1 0x20 ADD PUSH2 0x26A JUMP JUMPDEST PUSH2 0x286 PUSH2 0x34C CALLDATASIZE PUSH1 0x4 PUSH2 0x2810 JUMP JUMPDEST PUSH2 0xCE9 JUMP JUMPDEST PUSH2 0x378 PUSH32 0x0 DUP2 JUMP JUMPDEST PUSH1 0x40 MLOAD PUSH1 0x1 PUSH1 0x1 PUSH1 0xA0 SHL SUB SWAP1 SWAP2 AND DUP2 MSTORE PUSH1 0x20 ADD PUSH2 0x26A JUMP JUMPDEST PUSH2 0x3A3 PUSH2 0x39E CALLDATASIZE PUSH1 0x4 PUSH2 0x27F7 JUMP JUMPDEST PUSH2 0xEC8 JUMP JUMPDEST PUSH1 0x40 MLOAD PUSH2 0x26A SWAP2 SWAP1 PUSH1 0x0 PUSH1 0xA0 DUP3 ADD SWAP1 POP DUP3 MLOAD DUP3 MSTORE PUSH1 0x20 DUP4 ADD MLOAD PUSH1 0x20 DUP4 ADD MSTORE PUSH1 0x40 DUP4 ADD MLOAD PUSH1 0x40 DUP4 ADD MSTORE PUSH1 0x60 DUP4 ADD MLOAD PUSH1 0x60 DUP4 ADD MSTORE PUSH1 0x80 DUP4 ADD MLOAD ISZERO ISZERO PUSH1 0x80 DUP4 ADD MSTORE SWAP3 SWAP2 POP POP JUMP JUMPDEST PUSH2 0x286 PUSH2 0x3F5 CALLDATASIZE PUSH1 0x4 PUSH2 0x27F7 JUMP JUMPDEST PUSH2 0x10B8 JUMP JUMPDEST PUSH2 0x286 PUSH2 0x11B5 JUMP JUMPDEST PUSH2 0x286 PUSH2 0x410 CALLDATASIZE PUSH1 0x4 PUSH2 0x2840 JUMP JUMPDEST PUSH2 0x124D JUMP JUMPDEST PUSH2 0x260 PUSH6 0x1D1A94A2000 DUP2 JUMP JUMPDEST PUSH2 0x286 PUSH2 0x13AC JUMP JUMPDEST PUSH2 0x260 PUSH8 0xDE0B6B3A7640000 DUP2 JUMP JUMPDEST PUSH2 0x286 PUSH2 0x447 CALLDATASIZE PUSH1 0x4 PUSH2 0x2879 JUMP JUMPDEST PUSH2 0x1420 JUMP JUMPDEST PUSH2 0x378 PUSH2 0x45A CALLDATASIZE PUSH1 0x4 PUSH2 0x27F7 JUMP JUMPDEST PUSH2 0x14A7 JUMP JUMPDEST PUSH1 0x2 SLOAD PUSH2 0x378 SWAP1 PUSH1 0x1 PUSH1 0x1 PUSH1 0xA0 SHL SUB AND DUP2 JUMP JUMPDEST PUSH2 0x260 PUSH1 0xD SLOAD DUP2 JUMP JUMPDEST PUSH1 0x0 SLOAD PUSH1 0x1 PUSH1 0x1 PUSH1 0xA0 SHL SUB AND PUSH2 0x378 JUMP JUMPDEST PUSH2 0x4C6 PUSH2 0x49A CALLDATASIZE PUSH1 0x4 PUSH2 0x27C7 JUMP JUMPDEST PUSH1 0x6 PUSH1 0x20 SWAP1 DUP2 MSTORE PUSH1 0x0 SWAP3 DUP4 MSTORE PUSH1 0x40 DUP1 DUP5 KECCAK256 SWAP1 SWAP2 MSTORE SWAP1 DUP3 MSTORE SWAP1 KECCAK256 DUP1 SLOAD PUSH1 0x1 DUP3 ADD SLOAD PUSH1 0x2 SWAP1 SWAP3 ADD SLOAD SWAP1 SWAP2 SWAP1 DUP4 JUMP JUMPDEST PUSH1 0x40 DUP1 MLOAD SWAP4 DUP5 MSTORE PUSH1 0x20 DUP5 ADD SWAP3 SWAP1 SWAP3 MSTORE SWAP1 DUP3 ADD MSTORE PUSH1 0x60 ADD PUSH2 0x26A JUMP JUMPDEST PUSH2 0x260 PUSH1 0x9 SLOAD DUP2 JUMP JUMPDEST PUSH2 0x260 PUSH2 0x14D1 JUMP JUMPDEST PUSH2 0x286 PUSH2 0x500 CALLDATASIZE PUSH1 0x4 PUSH2 0x27AA JUMP JUMPDEST PUSH2 0x14FE JUMP JUMPDEST PUSH2 0x260 PUSH1 0xB SLOAD DUP2 JUMP JUMPDEST PUSH2 0x286 PUSH2 0x51C CALLDATASIZE PUSH1 0x4 PUSH2 0x2896 JUMP JUMPDEST PUSH2 0x1603 JUMP JUMPDEST PUSH2 0x260 PUSH2 0x52F CALLDATASIZE PUSH1 0x4 PUSH2 0x2879 JUMP JUMPDEST PUSH2 0x16FD JUMP JUMPDEST PUSH2 0x260 PUSH1 0x8 SLOAD DUP2 JUMP JUMPDEST PUSH2 0x286 PUSH2 0x54B CALLDATASIZE PUSH1 0x4 PUSH2 0x28C4 JUMP JUMPDEST PUSH2 0x1751 JUMP JUMPDEST PUSH2 0x260 PUSH5 0xE8D4A51000 DUP2 JUMP JUMPDEST PUSH2 0x286 PUSH2 0x56A CALLDATASIZE PUSH1 0x4 PUSH2 0x2917 JUMP JUMPDEST PUSH2 0x1A91 JUMP JUMPDEST PUSH1 0x3 SLOAD PUSH2 0x378 SWAP1 PUSH1 0x1 PUSH1 0x1 PUSH1 0xA0 SHL SUB AND DUP2 JUMP JUMPDEST PUSH2 0x260 PUSH1 0xA SLOAD DUP2 JUMP JUMPDEST PUSH2 0x286 PUSH2 0x599 CALLDATASIZE PUSH1 0x4 PUSH2 0x2810 JUMP JUMPDEST PUSH2 0x1C17 JUMP JUMPDEST PUSH2 0x286 PUSH2 0x5AC CALLDATASIZE PUSH1 0x4 PUSH2 0x27AA JUMP JUMPDEST PUSH2 0x1F61 JUMP JUMPDEST PUSH1 0x0 DUP2 DUP2 MSTORE PUSH1 0x6 PUSH1 0x20 SWAP1 DUP2 MSTORE PUSH1 0x40 DUP1 DUP4 KECCAK256 PUSH1 0x1 PUSH1 0x1 PUSH1 0xA0 SHL SUB DUP7 AND DUP5 MSTORE SWAP1 SWAP2 MSTORE DUP2 KECCAK256 PUSH1 0x2 ADD SLOAD PUSH5 0xE8D4A51000 DUP2 GT PUSH2 0x5EE JUMPI PUSH5 0xE8D4A51000 PUSH2 0x5F0 JUMP JUMPDEST DUP1 JUMPDEST SWAP2 POP POP JUMPDEST SWAP3 SWAP2 POP POP JUMP JUMPDEST PUSH1 0x3 SLOAD PUSH1 0x1 PUSH1 0x1 PUSH1 0xA0 SHL SUB AND CALLER EQ PUSH2 0x66B JUMPI PUSH1 0x40 MLOAD PUSH3 0x461BCD PUSH1 0xE5 SHL DUP2 MSTORE PUSH1 0x20 PUSH1 0x4 DUP3 ADD MSTORE PUSH1 0x29 PUSH1 0x24 DUP3 ADD MSTORE PUSH32 0x4F776E61626C653A2063616C6C6572206973206E6F742074686520626F6F7374 PUSH1 0x44 DUP3 ADD MSTORE PUSH9 0x818DBDB9D1C9858DD PUSH1 0xBA SHL PUSH1 0x64 DUP3 ADD MSTORE PUSH1 0x84 ADD JUMPDEST PUSH1 0x40 MLOAD DUP1 SWAP2 SUB SWAP1 REVERT JUMPDEST PUSH2 0x673 PUSH2 0x1F94 JUMP JUMPDEST PUSH1 0x1 PUSH1 0x1 PUSH1 0xA0 SHL SUB DUP4 AND PUSH2 0x6DE JUMPI PUSH1 0x40 MLOAD PUSH3 0x461BCD PUSH1 0xE5 SHL DUP2 MSTORE PUSH1 0x20 PUSH1 0x4 DUP3 ADD MSTORE PUSH1 0x2C PUSH1 0x24 DUP3 ADD MSTORE PUSH32 0x4D61737465724368656656323A2054686520757365722061646472657373206D PUSH1 0x44 DUP3 ADD MSTORE PUSH12 0x1D5CDD081899481D985B1A59 PUSH1 0xA2 SHL PUSH1 0x64 DUP3 ADD MSTORE PUSH1 0x84 ADD PUSH2 0x662 JUMP JUMPDEST PUSH1 0x4 DUP3 DUP2 SLOAD DUP2 LT PUSH2 0x6F1 JUMPI PUSH2 0x6F1 PUSH2 0x294D JUMP JUMPDEST PUSH1 0x0 SWAP2 DUP3 MSTORE PUSH1 0x20 SWAP1 SWAP2 KECCAK256 PUSH1 0x4 PUSH1 0x5 SWAP1 SWAP3 MUL ADD ADD SLOAD PUSH1 0xFF AND PUSH2 0x76D JUMPI PUSH1 0x40 MLOAD PUSH3 0x461BCD PUSH1 0xE5 SHL DUP2 MSTORE PUSH1 0x20 PUSH1 0x4 DUP3 ADD MSTORE PUSH1 0x30 PUSH1 0x24 DUP3 ADD MSTORE PUSH32 0x4D61737465724368656656323A204F6E6C7920726567756C6172206661726D20 PUSH1 0x44 DUP3 ADD MSTORE PUSH16 0x18DBDD5B1908189948189BDBDCDD1959 PUSH1 0x82 SHL PUSH1 0x64 DUP3 ADD MSTORE PUSH1 0x84 ADD PUSH2 0x662 JUMP JUMPDEST PUSH5 0xE8D4A51000 DUP2 LT ISZERO DUP1 ISZERO PUSH2 0x788 JUMPI POP PUSH6 0x1D1A94A2000 DUP2 GT ISZERO JUMPDEST PUSH2 0x7E7 JUMPI PUSH1 0x40 MLOAD PUSH3 0x461BCD PUSH1 0xE5 SHL DUP2 MSTORE PUSH1 0x20 PUSH1 0x4 DUP3 ADD MSTORE PUSH1 0x2A PUSH1 0x24 DUP3 ADD MSTORE PUSH32 0x4D61737465724368656656323A20496E76616C6964206E657720626F6F737420 PUSH1 0x44 DUP3 ADD MSTORE PUSH10 0x36BAB63A34B83634B2B9 PUSH1 0xB1 SHL PUSH1 0x64 DUP3 ADD MSTORE PUSH1 0x84 ADD PUSH2 0x662 JUMP JUMPDEST PUSH1 0x0 PUSH2 0x7F2 DUP4 PUSH2 0xEC8 JUMP JUMPDEST PUSH1 0x0 DUP5 DUP2 MSTORE PUSH1 0x6 PUSH1 0x20 SWAP1 DUP2 MSTORE PUSH1 0x40 DUP1 DUP4 KECCAK256 PUSH1 0x1 PUSH1 0x1 PUSH1 0xA0 SHL SUB DUP10 AND DUP5 MSTORE SWAP1 SWAP2 MSTORE DUP2 KECCAK256 SWAP2 SWAP3 POP PUSH2 0x821 DUP7 DUP7 PUSH2 0x5B1 JUMP JUMPDEST SWAP1 POP PUSH2 0x82E DUP7 DUP7 DUP4 PUSH2 0x1FBE JUMP JUMPDEST PUSH2 0x86E PUSH8 0xDE0B6B3A7640000 PUSH2 0x862 DUP6 PUSH1 0x0 ADD MLOAD PUSH2 0x868 PUSH5 0xE8D4A51000 PUSH2 0x862 DUP11 DUP10 PUSH1 0x0 ADD SLOAD PUSH2 0x208B SWAP1 SWAP2 SWAP1 PUSH4 0xFFFFFFFF AND JUMP JUMPDEST SWAP1 PUSH2 0x210D JUMP JUMPDEST SWAP1 PUSH2 0x208B JUMP JUMPDEST PUSH1 0x1 DUP4 ADD SSTORE DUP2 SLOAD PUSH2 0x8BA SWAP1 PUSH2 0x88E SWAP1 PUSH5 0xE8D4A51000 SWAP1 PUSH2 0x862 SWAP1 DUP9 PUSH2 0x208B JUMP JUMPDEST DUP4 SLOAD PUSH2 0x8B4 SWAP1 PUSH2 0x8A9 SWAP1 PUSH5 0xE8D4A51000 SWAP1 PUSH2 0x862 SWAP1 DUP8 PUSH2 0x208B JUMP JUMPDEST PUSH1 0x60 DUP8 ADD MLOAD SWAP1 PUSH2 0x2156 JUMP JUMPDEST SWAP1 PUSH2 0x2198 JUMP JUMPDEST PUSH1 0x60 DUP5 ADD MSTORE PUSH1 0x4 DUP1 SLOAD DUP5 SWAP2 SWAP1 DUP8 SWAP1 DUP2 LT PUSH2 0x8D6 JUMPI PUSH2 0x8D6 PUSH2 0x294D JUMP JUMPDEST PUSH1 0x0 SWAP2 DUP3 MSTORE PUSH1 0x20 DUP1 DUP4 KECCAK256 DUP5 MLOAD PUSH1 0x5 SWAP4 SWAP1 SWAP4 MUL ADD SWAP2 DUP3 SSTORE DUP4 DUP2 ADD MLOAD PUSH1 0x1 DUP4 ADD SSTORE PUSH1 0x40 DUP1 DUP6 ADD MLOAD PUSH1 0x2 DUP1 DUP6 ADD SWAP2 SWAP1 SWAP2 SSTORE PUSH1 0x60 DUP1 DUP8 ADD MLOAD PUSH1 0x3 DUP7 ADD SSTORE PUSH1 0x80 SWAP1 SWAP7 ADD MLOAD PUSH1 0x4 SWAP1 SWAP5 ADD DUP1 SLOAD PUSH1 0xFF NOT AND SWAP5 ISZERO ISZERO SWAP5 SWAP1 SWAP5 OR SWAP1 SWAP4 SSTORE DUP10 DUP5 MSTORE PUSH1 0x6 DUP3 MSTORE DUP1 DUP5 KECCAK256 PUSH1 0x1 PUSH1 0x1 PUSH1 0xA0 SHL SUB DUP13 AND DUP1 DUP7 MSTORE SWAP1 DUP4 MSTORE SWAP4 DUP2 SWAP1 KECCAK256 SWAP1 SWAP3 ADD DUP9 SWAP1 SSTORE DUP2 MLOAD DUP10 DUP2 MSTORE SWAP1 DUP2 ADD DUP6 SWAP1 MSTORE SWAP1 DUP2 ADD DUP8 SWAP1 MSTORE SWAP1 SWAP2 PUSH32 0x1ABD62439B64F6C5DAB6F94D56099495BD0C094F9C21F98F4D3562A21EDB4BA SWAP2 ADD PUSH1 0x40 MLOAD DUP1 SWAP2 SUB SWAP1 LOG2 POP POP POP PUSH2 0x998 PUSH1 0x1 DUP1 SSTORE JUMP JUMPDEST POP POP POP JUMP JUMPDEST PUSH1 0x0 SLOAD PUSH1 0x1 PUSH1 0x1 PUSH1 0xA0 SHL SUB AND CALLER EQ PUSH2 0x9C7 JUMPI PUSH1 0x40 MLOAD PUSH3 0x461BCD PUSH1 0xE5 SHL DUP2 MSTORE PUSH1 0x4 ADD PUSH2 0x662 SWAP1 PUSH2 0x2963 JUMP JUMPDEST PUSH1 0x1 PUSH1 0x1 PUSH1 0xA0 SHL SUB DUP2 AND PUSH2 0xA34 JUMPI PUSH1 0x40 MLOAD PUSH3 0x461BCD PUSH1 0xE5 SHL DUP2 MSTORE PUSH1 0x20 PUSH1 0x4 DUP3 ADD MSTORE PUSH1 0x2E PUSH1 0x24 DUP3 ADD MSTORE PUSH32 0x4D61737465724368656656323A204275726E2061646D696E2061646472657373 PUSH1 0x44 DUP3 ADD MSTORE PUSH14 0x81B5D5CDD081899481D985B1A59 PUSH1 0x92 SHL PUSH1 0x64 DUP3 ADD MSTORE PUSH1 0x84 ADD PUSH2 0x662 JUMP JUMPDEST PUSH1 0x2 SLOAD PUSH1 0x1 PUSH1 0x1 PUSH1 0xA0 SHL SUB SWAP1 DUP2 AND SWAP1 DUP3 AND SUB PUSH2 0xAC2 JUMPI PUSH1 0x40 MLOAD PUSH3 0x461BCD PUSH1 0xE5 SHL DUP2 MSTORE PUSH1 0x20 PUSH1 0x4 DUP3 ADD MSTORE PUSH1 0x41 PUSH1 0x24 DUP3 ADD MSTORE PUSH32 0x4D61737465724368656656323A204275726E2061646D696E2061646472657373 PUSH1 0x44 DUP3 ADD MSTORE PUSH32 0x206973207468652073616D6520776974682063757272656E7420616464726573 PUSH1 0x64 DUP3 ADD MSTORE PUSH1 0x73 PUSH1 0xF8 SHL PUSH1 0x84 DUP3 ADD MSTORE PUSH1 0xA4 ADD PUSH2 0x662 JUMP JUMPDEST PUSH1 0x2 DUP1 SLOAD PUSH1 0x1 PUSH1 0x1 PUSH1 0xA0 SHL SUB DUP4 DUP2 AND PUSH1 0x1 PUSH1 0x1 PUSH1 0xA0 SHL SUB NOT DUP4 AND DUP2 OR SWAP1 SWAP4 SSTORE PUSH1 0x40 MLOAD SWAP2 AND SWAP2 SWAP1 DUP3 SWAP1 PUSH32 0xD146FE330FDDDF682413850A35B28EDFCCD4C4B53CFEE802FD24950DE5BE1DBE SWAP1 PUSH1 0x0 SWAP1 LOG3 POP POP JUMP JUMPDEST PUSH1 0x0 DUP1 PUSH1 0x4 DUP5 DUP2 SLOAD DUP2 LT PUSH2 0xB2A JUMPI PUSH2 0xB2A PUSH2 0x294D JUMP JUMPDEST PUSH1 0x0 SWAP2 DUP3 MSTORE PUSH1 0x20 DUP1 DUP4 KECCAK256 PUSH1 0x40 DUP1 MLOAD PUSH1 0xA0 DUP2 ADD DUP3 MSTORE PUSH1 0x5 SWAP1 SWAP5 MUL SWAP1 SWAP2 ADD DUP1 SLOAD DUP5 MSTORE PUSH1 0x1 DUP1 DUP3 ADD SLOAD DUP6 DUP6 ADD SWAP1 DUP2 MSTORE PUSH1 0x2 DUP1 DUP5 ADD SLOAD DUP8 DUP7 ADD MSTORE PUSH1 0x3 DUP5 ADD SLOAD PUSH1 0x60 DUP1 DUP10 ADD SWAP2 DUP3 MSTORE PUSH1 0x4 SWAP1 SWAP6 ADD SLOAD PUSH1 0xFF AND ISZERO ISZERO PUSH1 0x80 DUP10 ADD MSTORE DUP13 DUP10 MSTORE PUSH1 0x6 DUP8 MSTORE DUP6 DUP10 KECCAK256 PUSH1 0x1 PUSH1 0x1 PUSH1 0xA0 SHL SUB DUP14 AND DUP11 MSTORE DUP8 MSTORE SWAP8 DUP6 SWAP1 KECCAK256 DUP6 MLOAD SWAP5 DUP6 ADD DUP7 MSTORE DUP1 SLOAD DUP6 MSTORE SWAP3 DUP4 ADD SLOAD SWAP6 DUP5 ADD SWAP6 SWAP1 SWAP6 MSTORE SWAP4 ADD SLOAD SWAP2 DUP2 ADD SWAP2 SWAP1 SWAP2 MSTORE DUP3 MLOAD SWAP4 MLOAD SWAP2 MLOAD SWAP3 SWAP5 POP SWAP3 SWAP2 TIMESTAMP GT DUP1 ISZERO PUSH2 0xBD1 JUMPI POP DUP1 ISZERO ISZERO JUMPDEST ISZERO PUSH2 0xC51 JUMPI PUSH1 0x0 PUSH2 0xBEF DUP6 PUSH1 0x20 ADD MLOAD TIMESTAMP PUSH2 0x2156 SWAP1 SWAP2 SWAP1 PUSH4 0xFFFFFFFF AND JUMP JUMPDEST SWAP1 POP PUSH1 0x0 PUSH2 0xC2A DUP7 PUSH1 0x80 ADD MLOAD PUSH2 0xC07 JUMPI PUSH1 0x9 SLOAD PUSH2 0xC0B JUMP JUMPDEST PUSH1 0x8 SLOAD JUMPDEST PUSH2 0x862 DUP9 PUSH1 0x40 ADD MLOAD PUSH2 0x868 PUSH2 0xC23 DUP12 PUSH1 0x80 ADD MLOAD PUSH2 0x16FD JUMP JUMPDEST DUP8 SWAP1 PUSH2 0x208B JUMP JUMPDEST SWAP1 POP PUSH2 0xC4C PUSH2 0xC45 DUP5 PUSH2 0x862 DUP5 PUSH8 0xDE0B6B3A7640000 PUSH2 0x208B JUMP JUMPDEST DUP6 SWAP1 PUSH2 0x2198 JUMP JUMPDEST SWAP4 POP POP POP JUMPDEST PUSH1 0x0 PUSH2 0xC71 PUSH5 0xE8D4A51000 PUSH2 0x862 PUSH2 0xC69 DUP11 DUP13 PUSH2 0x5B1 JUMP JUMPDEST DUP8 MLOAD SWAP1 PUSH2 0x208B JUMP JUMPDEST PUSH1 0x20 DUP6 ADD MLOAD SWAP1 SWAP2 POP PUSH2 0xC99 SWAP1 PUSH2 0xC93 PUSH8 0xDE0B6B3A7640000 PUSH2 0x862 DUP6 DUP9 PUSH2 0x208B JUMP JUMPDEST SWAP1 PUSH2 0x2156 JUMP JUMPDEST SWAP9 SWAP8 POP POP POP POP POP POP POP POP JUMP JUMPDEST PUSH1 0x4 DUP2 DUP2 SLOAD DUP2 LT PUSH2 0xCB5 JUMPI PUSH1 0x0 DUP1 REVERT JUMPDEST PUSH1 0x0 SWAP2 DUP3 MSTORE PUSH1 0x20 SWAP1 SWAP2 KECCAK256 PUSH1 0x5 SWAP1 SWAP2 MUL ADD DUP1 SLOAD PUSH1 0x1 DUP3 ADD SLOAD PUSH1 0x2 DUP4 ADD SLOAD PUSH1 0x3 DUP5 ADD SLOAD PUSH1 0x4 SWAP1 SWAP5 ADD SLOAD SWAP3 SWAP5 POP SWAP1 SWAP3 SWAP1 SWAP2 PUSH1 0xFF AND DUP6 JUMP JUMPDEST PUSH2 0xCF1 PUSH2 0x1F94 JUMP JUMPDEST PUSH1 0x0 PUSH2 0xCFC DUP4 PUSH2 0xEC8 JUMP JUMPDEST PUSH1 0x0 DUP5 DUP2 MSTORE PUSH1 0x6 PUSH1 0x20 SWAP1 DUP2 MSTORE PUSH1 0x40 DUP1 DUP4 KECCAK256 CALLER DUP5 MSTORE SWAP1 SWAP2 MSTORE SWAP1 KECCAK256 DUP1 SLOAD SWAP2 SWAP3 POP SWAP1 DUP4 GT ISZERO PUSH2 0xD63 JUMPI PUSH1 0x40 MLOAD PUSH3 0x461BCD PUSH1 0xE5 SHL DUP2 MSTORE PUSH1 0x20 PUSH1 0x4 DUP3 ADD MSTORE PUSH1 0x16 PUSH1 0x24 DUP3 ADD MSTORE PUSH22 0x1DDA5D1A191C985DCE88125B9CDD59999A58DA595B9D PUSH1 0x52 SHL PUSH1 0x44 DUP3 ADD MSTORE PUSH1 0x64 ADD PUSH2 0x662 JUMP JUMPDEST PUSH1 0x0 PUSH2 0xD6F CALLER DUP7 PUSH2 0x5B1 JUMP JUMPDEST SWAP1 POP PUSH2 0xD7C CALLER DUP7 DUP4 PUSH2 0x1FBE JUMP JUMPDEST DUP4 ISZERO PUSH2 0xDCA JUMPI DUP2 SLOAD PUSH2 0xD8E SWAP1 DUP6 PUSH2 0x2156 JUMP JUMPDEST DUP3 PUSH1 0x0 ADD DUP2 SWAP1 SSTORE POP PUSH2 0xDCA CALLER DUP6 PUSH1 0x5 DUP9 DUP2 SLOAD DUP2 LT PUSH2 0xDAE JUMPI PUSH2 0xDAE PUSH2 0x294D JUMP JUMPDEST PUSH1 0x0 SWAP2 DUP3 MSTORE PUSH1 0x20 SWAP1 SWAP2 KECCAK256 ADD SLOAD PUSH1 0x1 PUSH1 0x1 PUSH1 0xA0 SHL SUB AND SWAP2 SWAP1 PUSH2 0x21F7 JUMP JUMPDEST PUSH2 0xDFE PUSH8 0xDE0B6B3A7640000 PUSH2 0x862 DUP6 PUSH1 0x0 ADD MLOAD PUSH2 0x868 PUSH5 0xE8D4A51000 PUSH2 0x862 DUP8 DUP10 PUSH1 0x0 ADD SLOAD PUSH2 0x208B SWAP1 SWAP2 SWAP1 PUSH4 0xFFFFFFFF AND JUMP JUMPDEST PUSH1 0x1 DUP4 ADD SSTORE PUSH2 0xE4C PUSH2 0xE19 PUSH5 0xE8D4A51000 PUSH2 0x862 DUP8 DUP6 PUSH2 0x208B JUMP JUMPDEST PUSH1 0x4 DUP8 DUP2 SLOAD DUP2 LT PUSH2 0xE2C JUMPI PUSH2 0xE2C PUSH2 0x294D JUMP JUMPDEST SWAP1 PUSH1 0x0 MSTORE PUSH1 0x20 PUSH1 0x0 KECCAK256 SWAP1 PUSH1 0x5 MUL ADD PUSH1 0x3 ADD SLOAD PUSH2 0x2156 SWAP1 SWAP2 SWAP1 PUSH4 0xFFFFFFFF AND JUMP JUMPDEST PUSH1 0x4 DUP7 DUP2 SLOAD DUP2 LT PUSH2 0xE5F JUMPI PUSH2 0xE5F PUSH2 0x294D JUMP JUMPDEST SWAP1 PUSH1 0x0 MSTORE PUSH1 0x20 PUSH1 0x0 KECCAK256 SWAP1 PUSH1 0x5 MUL ADD PUSH1 0x3 ADD DUP2 SWAP1 SSTORE POP DUP5 CALLER PUSH1 0x1 PUSH1 0x1 PUSH1 0xA0 SHL SUB AND PUSH32 0xF279E6A1F5E320CCA91135676D9CB6E44CA8A08C0B88342BCDB1144F6511B568 DUP7 PUSH1 0x40 MLOAD PUSH2 0xEB0 SWAP2 DUP2 MSTORE PUSH1 0x20 ADD SWAP1 JUMP JUMPDEST PUSH1 0x40 MLOAD DUP1 SWAP2 SUB SWAP1 LOG3 POP POP POP PUSH2 0xEC4 PUSH1 0x1 DUP1 SSTORE JUMP JUMPDEST POP POP JUMP JUMPDEST PUSH2 0xEFC PUSH1 0x40 MLOAD DUP1 PUSH1 0xA0 ADD PUSH1 0x40 MSTORE DUP1 PUSH1 0x0 DUP2 MSTORE PUSH1 0x20 ADD PUSH1 0x0 DUP2 MSTORE PUSH1 0x20 ADD PUSH1 0x0 DUP2 MSTORE PUSH1 0x20 ADD PUSH1 0x0 DUP2 MSTORE PUSH1 0x20 ADD PUSH1 0x0 ISZERO ISZERO DUP2 MSTORE POP SWAP1 JUMP JUMPDEST PUSH1 0x4 DUP3 DUP2 SLOAD DUP2 LT PUSH2 0xF0F JUMPI PUSH2 0xF0F PUSH2 0x294D JUMP JUMPDEST PUSH1 0x0 SWAP2 DUP3 MSTORE PUSH1 0x20 SWAP2 DUP3 SWAP1 KECCAK256 PUSH1 0x40 DUP1 MLOAD PUSH1 0xA0 DUP2 ADD DUP3 MSTORE PUSH1 0x5 SWAP1 SWAP4 MUL SWAP1 SWAP2 ADD DUP1 SLOAD DUP4 MSTORE PUSH1 0x1 DUP2 ADD SLOAD SWAP4 DUP4 ADD DUP5 SWAP1 MSTORE PUSH1 0x2 DUP2 ADD SLOAD SWAP2 DUP4 ADD SWAP2 SWAP1 SWAP2 MSTORE PUSH1 0x3 DUP2 ADD SLOAD PUSH1 0x60 DUP4 ADD MSTORE PUSH1 0x4 ADD SLOAD PUSH1 0xFF AND ISZERO ISZERO PUSH1 0x80 DUP3 ADD MSTORE SWAP2 POP TIMESTAMP GT ISZERO PUSH2 0x10B3 JUMPI PUSH1 0x60 DUP2 ADD MLOAD PUSH1 0x80 DUP3 ADD MLOAD PUSH1 0x0 SWAP1 PUSH2 0xF81 JUMPI PUSH1 0x9 SLOAD PUSH2 0xF85 JUMP JUMPDEST PUSH1 0x8 SLOAD JUMPDEST SWAP1 POP PUSH1 0x0 DUP3 GT DUP1 ISZERO PUSH2 0xF97 JUMPI POP PUSH1 0x0 DUP2 GT JUMPDEST ISZERO PUSH2 0xFFD JUMPI PUSH1 0x0 PUSH2 0xFB5 DUP5 PUSH1 0x20 ADD MLOAD TIMESTAMP PUSH2 0x2156 SWAP1 SWAP2 SWAP1 PUSH4 0xFFFFFFFF AND JUMP JUMPDEST SWAP1 POP PUSH1 0x0 PUSH2 0xFD5 DUP4 PUSH2 0x862 DUP8 PUSH1 0x40 ADD MLOAD PUSH2 0x868 PUSH2 0xC23 DUP11 PUSH1 0x80 ADD MLOAD PUSH2 0x16FD JUMP JUMPDEST SWAP1 POP PUSH2 0xFF8 PUSH2 0xFF0 DUP6 PUSH2 0x862 DUP5 PUSH8 0xDE0B6B3A7640000 PUSH2 0x208B JUMP JUMPDEST DUP7 MLOAD SWAP1 PUSH2 0x2198 JUMP JUMPDEST DUP6 MSTORE POP POP JUMPDEST TIMESTAMP PUSH1 0x20 DUP5 ADD MSTORE PUSH1 0x4 DUP1 SLOAD DUP5 SWAP2 SWAP1 DUP7 SWAP1 DUP2 LT PUSH2 0x101A JUMPI PUSH2 0x101A PUSH2 0x294D JUMP JUMPDEST PUSH1 0x0 SWAP2 DUP3 MSTORE PUSH1 0x20 SWAP2 DUP3 SWAP1 KECCAK256 DUP4 MLOAD PUSH1 0x5 SWAP3 SWAP1 SWAP3 MUL ADD SWAP1 DUP2 SSTORE DUP3 DUP3 ADD MLOAD PUSH1 0x1 DUP3 ADD SSTORE PUSH1 0x40 DUP1 DUP5 ADD MLOAD PUSH1 0x2 DUP4 ADD SSTORE PUSH1 0x60 DUP1 DUP6 ADD MLOAD PUSH1 0x3 DUP5 ADD SSTORE PUSH1 0x80 SWAP1 SWAP5 ADD MLOAD PUSH1 0x4 SWAP1 SWAP3 ADD DUP1 SLOAD PUSH1 0xFF NOT AND SWAP3 ISZERO ISZERO SWAP3 SWAP1 SWAP3 OR SWAP1 SWAP2 SSTORE DUP6 DUP3 ADD MLOAD DUP7 MLOAD DUP3 MLOAD SWAP2 DUP3 MSTORE SWAP3 DUP2 ADD DUP7 SWAP1 MSTORE SWAP1 DUP2 ADD SWAP2 SWAP1 SWAP2 MSTORE DUP6 SWAP2 PUSH32 0x3BE3541FC42237D611B30329040BFA4569541D156560ACDBBAE57640D20B8F46 SWAP2 ADD PUSH1 0x40 MLOAD DUP1 SWAP2 SUB SWAP1 LOG2 POP POP JUMPDEST SWAP2 SWAP1 POP JUMP JUMPDEST PUSH2 0x10C0 PUSH2 0x1F94 JUMP JUMPDEST PUSH1 0x0 PUSH1 0x4 DUP3 DUP2 SLOAD DUP2 LT PUSH2 0x10D5 JUMPI PUSH2 0x10D5 PUSH2 0x294D JUMP JUMPDEST PUSH1 0x0 SWAP2 DUP3 MSTORE PUSH1 0x20 DUP1 DUP4 KECCAK256 DUP6 DUP5 MSTORE PUSH1 0x6 DUP3 MSTORE PUSH1 0x40 DUP1 DUP6 KECCAK256 CALLER DUP1 DUP8 MSTORE SWAP4 MSTORE DUP5 KECCAK256 DUP1 SLOAD DUP6 DUP3 SSTORE PUSH1 0x1 DUP3 ADD DUP7 SWAP1 SSTORE PUSH1 0x5 SWAP1 SWAP5 MUL SWAP1 SWAP2 ADD SWAP5 POP SWAP3 SWAP1 PUSH2 0x112B SWAP1 PUSH5 0xE8D4A51000 SWAP1 PUSH2 0x862 SWAP1 PUSH2 0x1124 SWAP1 DUP10 PUSH2 0x5B1 JUMP JUMPDEST DUP6 SWAP1 PUSH2 0x208B JUMP JUMPDEST SWAP1 POP DUP1 DUP5 PUSH1 0x3 ADD SLOAD GT PUSH2 0x113F JUMPI PUSH1 0x0 PUSH2 0x114E JUMP JUMPDEST PUSH1 0x3 DUP5 ADD SLOAD PUSH2 0x114E SWAP1 DUP3 PUSH2 0x2156 JUMP JUMPDEST DUP5 PUSH1 0x3 ADD DUP2 SWAP1 SSTORE POP PUSH2 0x116E CALLER DUP4 PUSH1 0x5 DUP9 DUP2 SLOAD DUP2 LT PUSH2 0xDAE JUMPI PUSH2 0xDAE PUSH2 0x294D JUMP JUMPDEST PUSH1 0x40 MLOAD DUP3 DUP2 MSTORE DUP6 SWAP1 CALLER SWAP1 PUSH32 0xBB757047C2B5F3974FE26B7C10F732E7BCE710B0952A71082702781E62AE0595 SWAP1 PUSH1 0x20 ADD PUSH1 0x40 MLOAD DUP1 SWAP2 SUB SWAP1 LOG3 POP POP POP POP PUSH2 0x11B2 PUSH1 0x1 DUP1 SSTORE JUMP JUMPDEST POP JUMP JUMPDEST PUSH1 0x4 SLOAD PUSH1 0x0 JUMPDEST DUP2 DUP2 LT ISZERO PUSH2 0xEC4 JUMPI PUSH1 0x0 PUSH1 0x4 DUP3 DUP2 SLOAD DUP2 LT PUSH2 0x11D8 JUMPI PUSH2 0x11D8 PUSH2 0x294D JUMP JUMPDEST PUSH1 0x0 SWAP2 DUP3 MSTORE PUSH1 0x20 SWAP2 DUP3 SWAP1 KECCAK256 PUSH1 0x40 DUP1 MLOAD PUSH1 0xA0 DUP2 ADD DUP3 MSTORE PUSH1 0x5 SWAP1 SWAP4 MUL SWAP1 SWAP2 ADD DUP1 SLOAD DUP4 MSTORE PUSH1 0x1 DUP2 ADD SLOAD SWAP4 DUP4 ADD SWAP4 SWAP1 SWAP4 MSTORE PUSH1 0x2 DUP4 ADD SLOAD SWAP1 DUP3 ADD DUP2 SWAP1 MSTORE PUSH1 0x3 DUP4 ADD SLOAD PUSH1 0x60 DUP4 ADD MSTORE PUSH1 0x4 SWAP1 SWAP3 ADD SLOAD PUSH1 0xFF AND ISZERO ISZERO PUSH1 0x80 DUP3 ADD MSTORE SWAP2 POP ISZERO PUSH2 0x123C JUMPI PUSH2 0x123A DUP3 PUSH2 0xEC8 JUMP JUMPDEST POP JUMPDEST POP PUSH2 0x1246 DUP2 PUSH2 0x29AE JUMP JUMPDEST SWAP1 POP PUSH2 0x11BB JUMP JUMPDEST PUSH1 0x0 SLOAD PUSH1 0x1 PUSH1 0x1 PUSH1 0xA0 SHL SUB AND CALLER EQ PUSH2 0x1277 JUMPI PUSH1 0x40 MLOAD PUSH3 0x461BCD PUSH1 0xE5 SHL DUP2 MSTORE PUSH1 0x4 ADD PUSH2 0x662 SWAP1 PUSH2 0x2963 JUMP JUMPDEST PUSH2 0x1280 DUP4 PUSH2 0xEC8 JUMP JUMPDEST POP DUP1 ISZERO PUSH2 0x128F JUMPI PUSH2 0x128F PUSH2 0x11B5 JUMP JUMPDEST PUSH1 0x4 DUP4 DUP2 SLOAD DUP2 LT PUSH2 0x12A2 JUMPI PUSH2 0x12A2 PUSH2 0x294D JUMP JUMPDEST PUSH1 0x0 SWAP2 DUP3 MSTORE PUSH1 0x20 SWAP1 SWAP2 KECCAK256 PUSH1 0x4 PUSH1 0x5 SWAP1 SWAP3 MUL ADD ADD SLOAD PUSH1 0xFF AND ISZERO PUSH2 0x1303 JUMPI PUSH2 0x12FB DUP3 PUSH2 0x8B4 PUSH1 0x4 DUP7 DUP2 SLOAD DUP2 LT PUSH2 0x12D8 JUMPI PUSH2 0x12D8 PUSH2 0x294D JUMP JUMPDEST SWAP1 PUSH1 0x0 MSTORE PUSH1 0x20 PUSH1 0x0 KECCAK256 SWAP1 PUSH1 0x5 MUL ADD PUSH1 0x2 ADD SLOAD PUSH1 0x8 SLOAD PUSH2 0x2156 SWAP1 SWAP2 SWAP1 PUSH4 0xFFFFFFFF AND JUMP JUMPDEST PUSH1 0x8 SSTORE PUSH2 0x1344 JUMP JUMPDEST PUSH2 0x1340 DUP3 PUSH2 0x8B4 PUSH1 0x4 DUP7 DUP2 SLOAD DUP2 LT PUSH2 0x131D JUMPI PUSH2 0x131D PUSH2 0x294D JUMP JUMPDEST SWAP1 PUSH1 0x0 MSTORE PUSH1 0x20 PUSH1 0x0 KECCAK256 SWAP1 PUSH1 0x5 MUL ADD PUSH1 0x2 ADD SLOAD PUSH1 0x9 SLOAD PUSH2 0x2156 SWAP1 SWAP2 SWAP1 PUSH4 0xFFFFFFFF AND JUMP JUMPDEST PUSH1 0x9 SSTORE JUMPDEST DUP2 PUSH1 0x4 DUP5 DUP2 SLOAD DUP2 LT PUSH2 0x1358 JUMPI PUSH2 0x1358 PUSH2 0x294D JUMP JUMPDEST SWAP1 PUSH1 0x0 MSTORE PUSH1 0x20 PUSH1 0x0 KECCAK256 SWAP1 PUSH1 0x5 MUL ADD PUSH1 0x2 ADD DUP2 SWAP1 SSTORE POP DUP3 PUSH32 0xC0CFD54D2DE2B55F1E6E108D3EC53FF0A1ABE6055401D32C61E9433B747EF9F8 DUP4 PUSH1 0x40 MLOAD PUSH2 0x139F SWAP2 DUP2 MSTORE PUSH1 0x20 ADD SWAP1 JUMP JUMPDEST PUSH1 0x40 MLOAD DUP1 SWAP2 SUB SWAP1 LOG2 POP POP POP JUMP JUMPDEST PUSH1 0x0 SLOAD PUSH1 0x1 PUSH1 0x1 PUSH1 0xA0 SHL SUB AND CALLER EQ PUSH2 0x13D6 JUMPI PUSH1 0x40 MLOAD PUSH3 0x461BCD PUSH1 0xE5 SHL DUP2 MSTORE PUSH1 0x4 ADD PUSH2 0x662 SWAP1 PUSH2 0x2963 JUMP JUMPDEST PUSH1 0x0 DUP1 SLOAD PUSH1 0x40 MLOAD PUSH1 0x1 PUSH1 0x1 PUSH1 0xA0 SHL SUB SWAP1 SWAP2 AND SWAP1 PUSH32 0x8BE0079C531659141344CD1FD0A4F28419497F9722A3DAAFE3B4186F6B6457E0 SWAP1 DUP4 SWAP1 LOG3 PUSH1 0x0 DUP1 SLOAD PUSH1 0x1 PUSH1 0x1 PUSH1 0xA0 SHL SUB NOT AND SWAP1 SSTORE JUMP JUMPDEST PUSH1 0x0 SLOAD PUSH1 0x1 PUSH1 0x1 PUSH1 0xA0 SHL SUB AND CALLER EQ PUSH2 0x144A JUMPI PUSH1 0x40 MLOAD PUSH3 0x461BCD PUSH1 0xE5 SHL DUP2 MSTORE PUSH1 0x4 ADD PUSH2 0x662 SWAP1 PUSH2 0x2963 JUMP JUMPDEST DUP1 ISZERO PUSH2 0x1458 JUMPI PUSH2 0x1458 PUSH2 0x11B5 JUMP JUMPDEST PUSH1 0x0 PUSH2 0x146F PUSH1 0xD SLOAD TIMESTAMP PUSH2 0x2156 SWAP1 SWAP2 SWAP1 PUSH4 0xFFFFFFFF AND JUMP JUMPDEST SWAP1 POP PUSH1 0x0 PUSH2 0x1485 PUSH2 0x147E PUSH2 0x14D1 JUMP JUMPDEST DUP4 SWAP1 PUSH2 0x208B JUMP JUMPDEST PUSH1 0x2 SLOAD SWAP1 SWAP2 POP PUSH2 0x149E SWAP1 PUSH1 0x1 PUSH1 0x1 PUSH1 0xA0 SHL SUB AND DUP3 PUSH2 0x225A JUMP JUMPDEST POP POP TIMESTAMP PUSH1 0xD SSTORE POP JUMP JUMPDEST PUSH1 0x5 DUP2 DUP2 SLOAD DUP2 LT PUSH2 0x14B7 JUMPI PUSH1 0x0 DUP1 REVERT JUMPDEST PUSH1 0x0 SWAP2 DUP3 MSTORE PUSH1 0x20 SWAP1 SWAP2 KECCAK256 ADD SLOAD PUSH1 0x1 PUSH1 0x1 PUSH1 0xA0 SHL SUB AND SWAP1 POP DUP2 JUMP JUMPDEST PUSH1 0x0 PUSH2 0x14F9 PUSH5 0xE8D4A51000 PUSH2 0x862 PUSH1 0xA SLOAD PUSH8 0x8EFF296835A0000 PUSH2 0x208B SWAP1 SWAP2 SWAP1 PUSH4 0xFFFFFFFF AND JUMP JUMPDEST SWAP1 POP SWAP1 JUMP JUMPDEST PUSH1 0x0 SLOAD PUSH1 0x1 PUSH1 0x1 PUSH1 0xA0 SHL SUB AND CALLER EQ PUSH2 0x1528 JUMPI PUSH1 0x40 MLOAD PUSH3 0x461BCD PUSH1 0xE5 SHL DUP2 MSTORE PUSH1 0x4 ADD PUSH2 0x662 SWAP1 PUSH2 0x2963 JUMP JUMPDEST PUSH1 0x1 PUSH1 0x1 PUSH1 0xA0 SHL SUB DUP2 AND ISZERO DUP1 ISZERO SWAP1 PUSH2 0x154E JUMPI POP PUSH1 0x3 SLOAD PUSH1 0x1 PUSH1 0x1 PUSH1 0xA0 SHL SUB DUP3 DUP2 AND SWAP2 AND EQ ISZERO JUMPDEST PUSH2 0x15B9 JUMPI PUSH1 0x40 MLOAD PUSH3 0x461BCD PUSH1 0xE5 SHL DUP2 MSTORE PUSH1 0x20 PUSH1 0x4 DUP3 ADD MSTORE PUSH1 0x36 PUSH1 0x24 DUP3 ADD MSTORE PUSH32 0x4D61737465724368656656323A204E657720626F6F737420636F6E7472616374 PUSH1 0x44 DUP3 ADD MSTORE PUSH22 0x81859191C995CDCC81B5D5CDD081899481D985B1A59 PUSH1 0x52 SHL PUSH1 0x64 DUP3 ADD MSTORE PUSH1 0x84 ADD PUSH2 0x662 JUMP JUMPDEST PUSH1 0x3 DUP1 SLOAD PUSH1 0x1 PUSH1 0x1 PUSH1 0xA0 SHL SUB NOT AND PUSH1 0x1 PUSH1 0x1 PUSH1 0xA0 SHL SUB DUP4 AND SWAP1 DUP2 OR SWAP1 SWAP2 SSTORE PUSH1 0x40 MLOAD PUSH32 0x4C0C07D0B548B824A1B998EB4D11FCCF1CFBC1E47EDCDB309970BA88315EB303 SWAP1 PUSH1 0x0 SWAP1 LOG2 POP JUMP JUMPDEST PUSH1 0x0 SLOAD PUSH1 0x1 PUSH1 0x1 PUSH1 0xA0 SHL SUB AND CALLER EQ PUSH2 0x162D JUMPI PUSH1 0x40 MLOAD PUSH3 0x461BCD PUSH1 0xE5 SHL DUP2 MSTORE PUSH1 0x4 ADD PUSH2 0x662 SWAP1 PUSH2 0x2963 JUMP JUMPDEST PUSH1 0x1 PUSH1 0x1 PUSH1 0xA0 SHL SUB DUP3 AND PUSH2 0x169E JUMPI PUSH1 0x40 MLOAD PUSH3 0x461BCD PUSH1 0xE5 SHL DUP2 MSTORE PUSH1 0x20 PUSH1 0x4 DUP3 ADD MSTORE PUSH1 0x32 PUSH1 0x24 DUP3 ADD MSTORE PUSH32 0x4D61737465724368656656323A20546865207768697465206C69737420616464 PUSH1 0x44 DUP3 ADD MSTORE PUSH18 0x1C995CDCC81B5D5CDD081899481D985B1A59 PUSH1 0x72 SHL PUSH1 0x64 DUP3 ADD MSTORE PUSH1 0x84 ADD PUSH2 0x662 JUMP JUMPDEST PUSH1 0x1 PUSH1 0x1 PUSH1 0xA0 SHL SUB DUP3 AND PUSH1 0x0 DUP2 DUP2 MSTORE PUSH1 0x7 PUSH1 0x20 SWAP1 DUP2 MSTORE PUSH1 0x40 SWAP2 DUP3 SWAP1 KECCAK256 DUP1 SLOAD PUSH1 0xFF NOT AND DUP6 ISZERO ISZERO SWAP1 DUP2 OR SWAP1 SWAP2 SSTORE SWAP2 MLOAD SWAP2 DUP3 MSTORE PUSH32 0xC551BBB22D0406DBFB8B6B7740CC521BCF44E1106029CF899C19B6A8E4C99D51 SWAP2 ADD PUSH1 0x40 MLOAD DUP1 SWAP2 SUB SWAP1 LOG2 POP POP JUMP JUMPDEST PUSH1 0x0 DUP2 ISZERO PUSH2 0x172B JUMPI PUSH2 0x5F4 PUSH5 0xE8D4A51000 PUSH2 0x862 PUSH1 0xB SLOAD PUSH8 0x8EFF296835A0000 PUSH2 0x208B SWAP1 SWAP2 SWAP1 PUSH4 0xFFFFFFFF AND JUMP JUMPDEST PUSH2 0x5F4 PUSH5 0xE8D4A51000 PUSH2 0x862 PUSH1 0xC SLOAD PUSH8 0x8EFF296835A0000 PUSH2 0x208B SWAP1 SWAP2 SWAP1 PUSH4 0xFFFFFFFF AND JUMP JUMPDEST PUSH1 0x0 SLOAD PUSH1 0x1 PUSH1 0x1 PUSH1 0xA0 SHL SUB AND CALLER EQ PUSH2 0x177B JUMPI PUSH1 0x40 MLOAD PUSH3 0x461BCD PUSH1 0xE5 SHL DUP2 MSTORE PUSH1 0x4 ADD PUSH2 0x662 SWAP1 PUSH2 0x2963 JUMP JUMPDEST PUSH1 0x40 MLOAD PUSH4 0x70A08231 PUSH1 0xE0 SHL DUP2 MSTORE ADDRESS PUSH1 0x4 DUP3 ADD MSTORE PUSH1 0x0 SWAP1 PUSH1 0x1 PUSH1 0x1 PUSH1 0xA0 SHL SUB DUP6 AND SWAP1 PUSH4 0x70A08231 SWAP1 PUSH1 0x24 ADD PUSH1 0x20 PUSH1 0x40 MLOAD DUP1 DUP4 SUB DUP2 DUP7 GAS STATICCALL ISZERO DUP1 ISZERO PUSH2 0x17C2 JUMPI RETURNDATASIZE PUSH1 0x0 DUP1 RETURNDATACOPY RETURNDATASIZE PUSH1 0x0 REVERT JUMPDEST POP POP POP POP PUSH1 0x40 MLOAD RETURNDATASIZE PUSH1 0x1F NOT PUSH1 0x1F DUP3 ADD AND DUP3 ADD DUP1 PUSH1 0x40 MSTORE POP DUP2 ADD SWAP1 PUSH2 0x17E6 SWAP2 SWAP1 PUSH2 0x29C7 JUMP JUMPDEST LT ISZERO PUSH2 0x1828 JUMPI PUSH1 0x40 MLOAD PUSH3 0x461BCD PUSH1 0xE5 SHL DUP2 MSTORE PUSH1 0x20 PUSH1 0x4 DUP3 ADD MSTORE PUSH1 0x11 PUSH1 0x24 DUP3 ADD MSTORE PUSH17 0x4E6F6E6520455243323020746F6B656E73 PUSH1 0x78 SHL PUSH1 0x44 DUP3 ADD MSTORE PUSH1 0x64 ADD PUSH2 0x662 JUMP JUMPDEST PUSH32 0x0 PUSH1 0x1 PUSH1 0x1 PUSH1 0xA0 SHL SUB AND DUP4 PUSH1 0x1 PUSH1 0x1 PUSH1 0xA0 SHL SUB AND SUB PUSH2 0x18B9 JUMPI PUSH1 0x40 MLOAD PUSH3 0x461BCD PUSH1 0xE5 SHL DUP2 MSTORE PUSH1 0x20 PUSH1 0x4 DUP3 ADD MSTORE PUSH1 0x27 PUSH1 0x24 DUP3 ADD MSTORE PUSH32 0x43414B4520746F6B656E2063616E277420626520616464656420746F20666172 PUSH1 0x44 DUP3 ADD MSTORE PUSH7 0x6D20706F6F6C73 PUSH1 0xC8 SHL PUSH1 0x64 DUP3 ADD MSTORE PUSH1 0x84 ADD PUSH2 0x662 JUMP JUMPDEST DUP1 ISZERO PUSH2 0x18C7 JUMPI PUSH2 0x18C7 PUSH2 0x11B5 JUMP JUMPDEST DUP2 ISZERO PUSH2 0x18E2 JUMPI PUSH1 0x8 SLOAD PUSH2 0x18DA SWAP1 DUP6 PUSH2 0x2198 JUMP JUMPDEST PUSH1 0x8 SSTORE PUSH2 0x18F3 JUMP JUMPDEST PUSH1 0x9 SLOAD PUSH2 0x18EF SWAP1 DUP6 PUSH2 0x2198 JUMP JUMPDEST PUSH1 0x9 SSTORE JUMPDEST PUSH1 0x5 DUP1 SLOAD PUSH1 0x1 DUP1 DUP3 ADD DUP4 SSTORE PUSH32 0x36B6384B5ECA791C62761152D0C79BB0604C104A5FB6F4EB0703F3154BB3DB0 SWAP1 SWAP2 ADD DUP1 SLOAD PUSH1 0x1 PUSH1 0x1 PUSH1 0xA0 SHL SUB NOT AND PUSH1 0x1 PUSH1 0x1 PUSH1 0xA0 SHL SUB DUP8 AND SWAP1 DUP2 OR SWAP1 SWAP2 SSTORE PUSH1 0x40 DUP1 MLOAD PUSH1 0xA0 DUP2 ADD DUP3 MSTORE PUSH1 0x0 DUP1 DUP3 MSTORE TIMESTAMP PUSH1 0x20 DUP4 ADD SWAP1 DUP2 MSTORE SWAP3 DUP3 ADD DUP11 DUP2 MSTORE PUSH1 0x60 DUP4 ADD DUP3 DUP2 MSTORE DUP10 ISZERO ISZERO PUSH1 0x80 DUP6 ADD SWAP1 DUP2 MSTORE PUSH1 0x4 DUP1 SLOAD DUP1 DUP11 ADD DUP3 SSTORE SWAP5 MSTORE SWAP4 MLOAD PUSH32 0x8A35ACFBC15FF81A39AE7D344FD709F28E8600B4AA8C65C6B64BFE7FE36BD19B SWAP4 DUP10 MUL SWAP4 DUP5 ADD SSTORE SWAP4 MLOAD PUSH32 0x8A35ACFBC15FF81A39AE7D344FD709F28E8600B4AA8C65C6B64BFE7FE36BD19C DUP4 ADD SSTORE MLOAD PUSH32 0x8A35ACFBC15FF81A39AE7D344FD709F28E8600B4AA8C65C6B64BFE7FE36BD19D DUP3 ADD SSTORE SWAP2 MLOAD PUSH32 0x8A35ACFBC15FF81A39AE7D344FD709F28E8600B4AA8C65C6B64BFE7FE36BD19E DUP4 ADD SSTORE MLOAD PUSH32 0x8A35ACFBC15FF81A39AE7D344FD709F28E8600B4AA8C65C6B64BFE7FE36BD19F SWAP1 SWAP2 ADD DUP1 SLOAD PUSH1 0xFF NOT AND SWAP2 ISZERO ISZERO SWAP2 SWAP1 SWAP2 OR SWAP1 SSTORE SWAP2 SLOAD PUSH2 0x1A51 SWAP2 PUSH2 0x2156 JUMP JUMPDEST PUSH1 0x40 DUP1 MLOAD DUP8 DUP2 MSTORE DUP6 ISZERO ISZERO PUSH1 0x20 DUP3 ADD MSTORE PUSH32 0x18CAA0724A26384928EFE604AE6DDC99C242548876259770FC88FCB7E719D8FA SWAP2 ADD PUSH1 0x40 MLOAD DUP1 SWAP2 SUB SWAP1 LOG3 POP POP POP POP JUMP JUMPDEST PUSH1 0x0 SLOAD PUSH1 0x1 PUSH1 0x1 PUSH1 0xA0 SHL SUB AND CALLER EQ PUSH2 0x1ABB JUMPI PUSH1 0x40 MLOAD PUSH3 0x461BCD PUSH1 0xE5 SHL DUP2 MSTORE PUSH1 0x4 ADD PUSH2 0x662 SWAP1 PUSH2 0x2963 JUMP JUMPDEST PUSH1 0x0 DUP5 GT DUP1 ISZERO PUSH2 0x1ACB JUMPI POP PUSH1 0x0 DUP4 GT JUMPDEST DUP1 ISZERO PUSH2 0x1AD7 JUMPI POP PUSH1 0x0 DUP3 GT JUMPDEST PUSH2 0x1B3A JUMPI PUSH1 0x40 MLOAD PUSH3 0x461BCD PUSH1 0xE5 SHL DUP2 MSTORE PUSH1 0x20 PUSH1 0x4 DUP3 ADD MSTORE PUSH1 0x2E PUSH1 0x24 DUP3 ADD MSTORE PUSH32 0x4D61737465724368656656323A2043616B652072617465206D75737420626520 PUSH1 0x44 DUP3 ADD MSTORE PUSH14 0x67726561746572207468616E203 PUSH1 0x94 SHL PUSH1 0x64 DUP3 ADD MSTORE PUSH1 0x84 ADD PUSH2 0x662 JUMP JUMPDEST PUSH5 0xE8D4A51000 PUSH2 0x1B4E DUP4 PUSH2 0x8B4 DUP8 DUP8 PUSH2 0x2198 JUMP JUMPDEST EQ PUSH2 0x1BA9 JUMPI PUSH1 0x40 MLOAD PUSH3 0x461BCD PUSH1 0xE5 SHL DUP2 MSTORE PUSH1 0x20 PUSH1 0x4 DUP3 ADD MSTORE PUSH1 0x25 PUSH1 0x24 DUP3 ADD MSTORE PUSH32 0x4D61737465724368656656323A20546F74616C2072617465206D757374206265 PUSH1 0x44 DUP3 ADD MSTORE PUSH5 0x1018B29899 PUSH1 0xD9 SHL PUSH1 0x64 DUP3 ADD MSTORE PUSH1 0x84 ADD PUSH2 0x662 JUMP JUMPDEST DUP1 ISZERO PUSH2 0x1BB7 JUMPI PUSH2 0x1BB7 PUSH2 0x11B5 JUMP JUMPDEST PUSH2 0x1BC1 PUSH1 0x0 PUSH2 0x1420 JUMP JUMPDEST PUSH1 0xA DUP5 SWAP1 SSTORE PUSH1 0xB DUP4 SWAP1 SSTORE PUSH1 0xC DUP3 SWAP1 SSTORE PUSH1 0x40 DUP1 MLOAD DUP6 DUP2 MSTORE PUSH1 0x20 DUP2 ADD DUP6 SWAP1 MSTORE SWAP1 DUP2 ADD DUP4 SWAP1 MSTORE PUSH32 0xAE2D2E7D1AE84564FC72227253CE0F36A007209F7FD5EC414DEA80E5AF2FB5B0 SWAP1 PUSH1 0x60 ADD PUSH1 0x40 MLOAD DUP1 SWAP2 SUB SWAP1 LOG1 POP POP POP POP JUMP JUMPDEST PUSH2 0x1C1F PUSH2 0x1F94 JUMP JUMPDEST PUSH1 0x0 PUSH2 0x1C2A DUP4 PUSH2 0xEC8 JUMP JUMPDEST PUSH1 0x0 DUP5 DUP2 MSTORE PUSH1 0x6 PUSH1 0x20 SWAP1 DUP2 MSTORE PUSH1 0x40 DUP1 DUP4 KECCAK256 CALLER DUP5 MSTORE SWAP1 SWAP2 MSTORE SWAP1 KECCAK256 PUSH1 0x80 DUP3 ADD MLOAD SWAP2 SWAP3 POP SWAP1 DUP1 PUSH2 0x1C66 JUMPI POP CALLER PUSH1 0x0 SWAP1 DUP2 MSTORE PUSH1 0x7 PUSH1 0x20 MSTORE PUSH1 0x40 SWAP1 KECCAK256 SLOAD PUSH1 0xFF AND JUMPDEST PUSH2 0x1CE3 JUMPI PUSH1 0x40 MLOAD PUSH3 0x461BCD PUSH1 0xE5 SHL DUP2 MSTORE PUSH1 0x20 PUSH1 0x4 DUP3 ADD MSTORE PUSH1 0x42 PUSH1 0x24 DUP3 ADD MSTORE PUSH32 0x4D61737465724368656656323A205468652061646472657373206973206E6F74 PUSH1 0x44 DUP3 ADD MSTORE PUSH32 0x20617661696C61626C6520746F206465706F73697420696E207468697320706F PUSH1 0x64 DUP3 ADD MSTORE PUSH2 0x1BDB PUSH1 0xF2 SHL PUSH1 0x84 DUP3 ADD MSTORE PUSH1 0xA4 ADD PUSH2 0x662 JUMP JUMPDEST PUSH1 0x0 PUSH2 0x1CEF CALLER DUP7 PUSH2 0x5B1 JUMP JUMPDEST DUP3 SLOAD SWAP1 SWAP2 POP ISZERO PUSH2 0x1D04 JUMPI PUSH2 0x1D04 CALLER DUP7 DUP4 PUSH2 0x1FBE JUMP JUMPDEST DUP4 ISZERO PUSH2 0x1E91 JUMPI PUSH1 0x0 PUSH1 0x5 DUP7 DUP2 SLOAD DUP2 LT PUSH2 0x1D1F JUMPI PUSH2 0x1D1F PUSH2 0x294D JUMP JUMPDEST PUSH1 0x0 SWAP2 DUP3 MSTORE PUSH1 0x20 SWAP1 SWAP2 KECCAK256 ADD SLOAD PUSH1 0x40 MLOAD PUSH4 0x70A08231 PUSH1 0xE0 SHL DUP2 MSTORE ADDRESS PUSH1 0x4 DUP3 ADD MSTORE PUSH1 0x1 PUSH1 0x1 PUSH1 0xA0 SHL SUB SWAP1 SWAP2 AND SWAP1 PUSH4 0x70A08231 SWAP1 PUSH1 0x24 ADD PUSH1 0x20 PUSH1 0x40 MLOAD DUP1 DUP4 SUB DUP2 DUP7 GAS STATICCALL ISZERO DUP1 ISZERO PUSH2 0x1D70 JUMPI RETURNDATASIZE PUSH1 0x0 DUP1 RETURNDATACOPY RETURNDATASIZE PUSH1 0x0 REVERT JUMPDEST POP POP POP POP PUSH1 0x40 MLOAD RETURNDATASIZE PUSH1 0x1F NOT PUSH1 0x1F DUP3 ADD AND DUP3 ADD DUP1 PUSH1 0x40 MSTORE POP DUP2 ADD SWAP1 PUSH2 0x1D94 SWAP2 SWAP1 PUSH2 0x29C7 JUMP JUMPDEST SWAP1 POP PUSH2 0x1DCC CALLER ADDRESS DUP8 PUSH1 0x5 DUP11 DUP2 SLOAD DUP2 LT PUSH2 0x1DAF JUMPI PUSH2 0x1DAF PUSH2 0x294D JUMP JUMPDEST PUSH1 0x0 SWAP2 DUP3 MSTORE PUSH1 0x20 SWAP1 SWAP2 KECCAK256 ADD SLOAD PUSH1 0x1 PUSH1 0x1 PUSH1 0xA0 SHL SUB AND SWAP3 SWAP2 SWAP1 PUSH2 0x23B9 JUMP JUMPDEST PUSH2 0x1E58 DUP2 PUSH1 0x5 DUP9 DUP2 SLOAD DUP2 LT PUSH2 0x1DE3 JUMPI PUSH2 0x1DE3 PUSH2 0x294D JUMP JUMPDEST PUSH1 0x0 SWAP2 DUP3 MSTORE PUSH1 0x20 SWAP1 SWAP2 KECCAK256 ADD SLOAD PUSH1 0x40 MLOAD PUSH4 0x70A08231 PUSH1 0xE0 SHL DUP2 MSTORE ADDRESS PUSH1 0x4 DUP3 ADD MSTORE PUSH1 0x1 PUSH1 0x1 PUSH1 0xA0 SHL SUB SWAP1 SWAP2 AND SWAP1 PUSH4 0x70A08231 SWAP1 PUSH1 0x24 ADD PUSH1 0x20 PUSH1 0x40 MLOAD DUP1 DUP4 SUB DUP2 DUP7 GAS STATICCALL ISZERO DUP1 ISZERO PUSH2 0x1E34 JUMPI RETURNDATASIZE PUSH1 0x0 DUP1 RETURNDATACOPY RETURNDATASIZE PUSH1 0x0 REVERT JUMPDEST POP POP POP POP PUSH1 0x40 MLOAD RETURNDATASIZE PUSH1 0x1F NOT PUSH1 0x1F DUP3 ADD AND DUP3 ADD DUP1 PUSH1 0x40 MSTORE POP DUP2 ADD SWAP1 PUSH2 0xC93 SWAP2 SWAP1 PUSH2 0x29C7 JUMP JUMPDEST DUP4 SLOAD SWAP1 SWAP6 POP PUSH2 0x1E67 SWAP1 DUP7 PUSH2 0x2198 JUMP JUMPDEST DUP4 SSTORE PUSH2 0x1E8A PUSH2 0x1E7F PUSH5 0xE8D4A51000 PUSH2 0x862 DUP9 DUP7 PUSH2 0x208B JUMP JUMPDEST PUSH1 0x60 DUP7 ADD MLOAD SWAP1 PUSH2 0x2198 JUMP JUMPDEST PUSH1 0x60 DUP6 ADD MSTORE POP JUMPDEST PUSH2 0x1EC5 PUSH8 0xDE0B6B3A7640000 PUSH2 0x862 DUP6 PUSH1 0x0 ADD MLOAD PUSH2 0x868 PUSH5 0xE8D4A51000 PUSH2 0x862 DUP8 DUP10 PUSH1 0x0 ADD SLOAD PUSH2 0x208B SWAP1 SWAP2 SWAP1 PUSH4 0xFFFFFFFF AND JUMP JUMPDEST DUP3 PUSH1 0x1 ADD DUP2 SWAP1 SSTORE POP DUP3 PUSH1 0x4 DUP7 DUP2 SLOAD DUP2 LT PUSH2 0x1EE1 JUMPI PUSH2 0x1EE1 PUSH2 0x294D JUMP JUMPDEST PUSH1 0x0 SWAP2 DUP3 MSTORE PUSH1 0x20 SWAP2 DUP3 SWAP1 KECCAK256 DUP4 MLOAD PUSH1 0x5 SWAP3 SWAP1 SWAP3 MUL ADD SWAP1 DUP2 SSTORE DUP3 DUP3 ADD MLOAD PUSH1 0x1 DUP3 ADD SSTORE PUSH1 0x40 DUP1 DUP5 ADD MLOAD PUSH1 0x2 DUP4 ADD SSTORE PUSH1 0x60 DUP5 ADD MLOAD PUSH1 0x3 DUP4 ADD SSTORE PUSH1 0x80 SWAP1 SWAP4 ADD MLOAD PUSH1 0x4 SWAP1 SWAP2 ADD DUP1 SLOAD PUSH1 0xFF NOT AND SWAP2 ISZERO ISZERO SWAP2 SWAP1 SWAP2 OR SWAP1 SSTORE SWAP1 MLOAD DUP6 DUP2 MSTORE DUP7 SWAP2 CALLER SWAP2 PUSH32 0x90890809C654F11D6E72A28FA60149770A0D11EC6C92319D6CEB2BB0A4EA1A15 SWAP2 ADD PUSH2 0xEB0 JUMP JUMPDEST PUSH1 0x0 SLOAD PUSH1 0x1 PUSH1 0x1 PUSH1 0xA0 SHL SUB AND CALLER EQ PUSH2 0x1F8B JUMPI PUSH1 0x40 MLOAD PUSH3 0x461BCD PUSH1 0xE5 SHL DUP2 MSTORE PUSH1 0x4 ADD PUSH2 0x662 SWAP1 PUSH2 0x2963 JUMP JUMPDEST PUSH2 0x11B2 DUP2 PUSH2 0x23F7 JUMP JUMPDEST PUSH1 0x2 PUSH1 0x1 SLOAD SUB PUSH2 0x1FB7 JUMPI PUSH1 0x40 MLOAD PUSH4 0x3EE5AEB5 PUSH1 0xE0 SHL DUP2 MSTORE PUSH1 0x4 ADD PUSH1 0x40 MLOAD DUP1 SWAP2 SUB SWAP1 REVERT JUMPDEST PUSH1 0x2 PUSH1 0x1 SSTORE JUMP JUMPDEST PUSH1 0x0 DUP3 DUP2 MSTORE PUSH1 0x6 PUSH1 0x20 SWAP1 DUP2 MSTORE PUSH1 0x40 DUP1 DUP4 KECCAK256 PUSH1 0x1 PUSH1 0x1 PUSH1 0xA0 SHL SUB DUP8 AND DUP5 MSTORE DUP3 MSTORE DUP1 DUP4 KECCAK256 DUP2 MLOAD PUSH1 0x60 DUP2 ADD DUP4 MSTORE DUP2 SLOAD DUP1 DUP3 MSTORE PUSH1 0x1 DUP4 ADD SLOAD SWAP5 DUP3 ADD SWAP5 SWAP1 SWAP5 MSTORE PUSH1 0x2 SWAP1 SWAP2 ADD SLOAD SWAP2 DUP2 ADD SWAP2 SWAP1 SWAP2 MSTORE SWAP2 SWAP1 PUSH2 0x201D SWAP1 PUSH5 0xE8D4A51000 SWAP1 PUSH2 0x862 SWAP1 DUP7 PUSH2 0x208B JUMP JUMPDEST SWAP1 POP PUSH1 0x0 PUSH2 0x205B PUSH8 0xDE0B6B3A7640000 PUSH2 0x862 PUSH1 0x4 DUP9 DUP2 SLOAD DUP2 LT PUSH2 0x2043 JUMPI PUSH2 0x2043 PUSH2 0x294D JUMP JUMPDEST PUSH1 0x0 SWAP2 DUP3 MSTORE PUSH1 0x20 SWAP1 SWAP2 KECCAK256 PUSH1 0x5 SWAP1 SWAP2 MUL ADD SLOAD DUP6 SWAP1 PUSH2 0x208B JUMP JUMPDEST SWAP1 POP PUSH1 0x0 PUSH2 0x2076 DUP5 PUSH1 0x20 ADD MLOAD DUP4 PUSH2 0x2156 SWAP1 SWAP2 SWAP1 PUSH4 0xFFFFFFFF AND JUMP JUMPDEST SWAP1 POP PUSH2 0x2082 DUP8 DUP3 PUSH2 0x225A JUMP JUMPDEST POP POP POP POP POP POP POP JUMP JUMPDEST PUSH1 0x0 DUP3 PUSH1 0x0 SUB PUSH2 0x209D JUMPI POP PUSH1 0x0 PUSH2 0x5F4 JUMP JUMPDEST PUSH1 0x0 PUSH2 0x20A9 DUP4 DUP6 PUSH2 0x29E0 JUMP JUMPDEST SWAP1 POP DUP3 PUSH2 0x20B6 DUP6 DUP4 PUSH2 0x29F7 JUMP JUMPDEST EQ PUSH2 0x5EE JUMPI PUSH1 0x40 MLOAD PUSH3 0x461BCD PUSH1 0xE5 SHL DUP2 MSTORE PUSH1 0x20 PUSH1 0x4 DUP3 ADD MSTORE PUSH1 0x21 PUSH1 0x24 DUP3 ADD MSTORE PUSH32 0x536166654D6174683A206D756C7469706C69636174696F6E206F766572666C6F PUSH1 0x44 DUP3 ADD MSTORE PUSH1 0x77 PUSH1 0xF8 SHL PUSH1 0x64 DUP3 ADD MSTORE PUSH1 0x84 ADD PUSH2 0x662 JUMP JUMPDEST PUSH1 0x0 PUSH2 0x214F DUP4 DUP4 PUSH1 0x40 MLOAD DUP1 PUSH1 0x40 ADD PUSH1 0x40 MSTORE DUP1 PUSH1 0x1A DUP2 MSTORE PUSH1 0x20 ADD PUSH32 0x536166654D6174683A206469766973696F6E206279207A65726F000000000000 DUP2 MSTORE POP PUSH2 0x24B7 JUMP JUMPDEST SWAP4 SWAP3 POP POP POP JUMP JUMPDEST PUSH1 0x0 PUSH2 0x214F DUP4 DUP4 PUSH1 0x40 MLOAD DUP1 PUSH1 0x40 ADD PUSH1 0x40 MSTORE DUP1 PUSH1 0x1E DUP2 MSTORE PUSH1 0x20 ADD PUSH32 0x536166654D6174683A207375627472616374696F6E206F766572666C6F770000 DUP2 MSTORE POP PUSH2 0x24EE JUMP JUMPDEST PUSH1 0x0 DUP1 PUSH2 0x21A5 DUP4 DUP6 PUSH2 0x2A19 JUMP JUMPDEST SWAP1 POP DUP4 DUP2 LT ISZERO PUSH2 0x5EE JUMPI PUSH1 0x40 MLOAD PUSH3 0x461BCD PUSH1 0xE5 SHL DUP2 MSTORE PUSH1 0x20 PUSH1 0x4 DUP3 ADD MSTORE PUSH1 0x1B PUSH1 0x24 DUP3 ADD MSTORE PUSH32 0x536166654D6174683A206164646974696F6E206F766572666C6F770000000000 PUSH1 0x44 DUP3 ADD MSTORE PUSH1 0x64 ADD PUSH2 0x662 JUMP JUMPDEST PUSH1 0x40 MLOAD PUSH1 0x1 PUSH1 0x1 PUSH1 0xA0 SHL SUB DUP4 AND PUSH1 0x24 DUP3 ADD MSTORE PUSH1 0x44 DUP2 ADD DUP3 SWAP1 MSTORE PUSH2 0x998 SWAP1 DUP5 SWAP1 PUSH4 0xA9059CBB PUSH1 0xE0 SHL SWAP1 PUSH1 0x64 ADD JUMPDEST PUSH1 0x40 DUP1 MLOAD PUSH1 0x1F NOT DUP2 DUP5 SUB ADD DUP2 MSTORE SWAP2 SWAP1 MSTORE PUSH1 0x20 DUP2 ADD DUP1 MLOAD PUSH1 0x1 PUSH1 0x1 PUSH1 0xE0 SHL SUB AND PUSH1 0x1 PUSH1 0x1 PUSH1 0xE0 SHL SUB NOT SWAP1 SWAP4 AND SWAP3 SWAP1 SWAP3 OR SWAP1 SWAP2 MSTORE PUSH2 0x251F JUMP JUMPDEST DUP1 ISZERO PUSH2 0xEC4 JUMPI PUSH1 0x40 MLOAD PUSH4 0x70A08231 PUSH1 0xE0 SHL DUP2 MSTORE ADDRESS PUSH1 0x4 DUP3 ADD MSTORE DUP2 SWAP1 PUSH32 0x0 PUSH1 0x1 PUSH1 0x1 PUSH1 0xA0 SHL SUB AND SWAP1 PUSH4 0x70A08231 SWAP1 PUSH1 0x24 ADD PUSH1 0x20 PUSH1 0x40 MLOAD DUP1 DUP4 SUB DUP2 DUP7 GAS STATICCALL ISZERO DUP1 ISZERO PUSH2 0x22C6 JUMPI RETURNDATASIZE PUSH1 0x0 DUP1 RETURNDATACOPY RETURNDATASIZE PUSH1 0x0 REVERT JUMPDEST POP POP POP POP PUSH1 0x40 MLOAD RETURNDATASIZE PUSH1 0x1F NOT PUSH1 0x1F DUP3 ADD AND DUP3 ADD DUP1 PUSH1 0x40 MSTORE POP DUP2 ADD SWAP1 PUSH2 0x22EA SWAP2 SWAP1 PUSH2 0x29C7 JUMP JUMPDEST POP POP PUSH1 0x40 MLOAD PUSH4 0x70A08231 PUSH1 0xE0 SHL DUP2 MSTORE ADDRESS PUSH1 0x4 DUP3 ADD MSTORE PUSH1 0x0 SWAP1 PUSH32 0x0 PUSH1 0x1 PUSH1 0x1 PUSH1 0xA0 SHL SUB AND SWAP1 PUSH4 0x70A08231 SWAP1 PUSH1 0x24 ADD PUSH1 0x20 PUSH1 0x40 MLOAD DUP1 DUP4 SUB DUP2 DUP7 GAS STATICCALL ISZERO DUP1 ISZERO PUSH2 0x2353 JUMPI RETURNDATASIZE PUSH1 0x0 DUP1 RETURNDATACOPY RETURNDATASIZE PUSH1 0x0 REVERT JUMPDEST POP POP POP POP PUSH1 0x40 MLOAD RETURNDATASIZE PUSH1 0x1F NOT PUSH1 0x1F DUP3 ADD AND DUP3 ADD DUP1 PUSH1 0x40 MSTORE POP DUP2 ADD SWAP1 PUSH2 0x2377 SWAP2 SWAP1 PUSH2 0x29C7 JUMP JUMPDEST SWAP1 POP DUP2 DUP2 LT ISZERO PUSH2 0x2385 JUMPI DUP1 SWAP2 POP JUMPDEST PUSH2 0x998 PUSH1 0x1 PUSH1 0x1 PUSH1 0xA0 SHL SUB PUSH32 0x0 AND DUP5 DUP5 PUSH2 0x21F7 JUMP JUMPDEST PUSH1 0x40 MLOAD PUSH1 0x1 PUSH1 0x1 PUSH1 0xA0 SHL SUB DUP1 DUP6 AND PUSH1 0x24 DUP4 ADD MSTORE DUP4 AND PUSH1 0x44 DUP3 ADD MSTORE PUSH1 0x64 DUP2 ADD DUP3 SWAP1 MSTORE PUSH2 0x23F1 SWAP1 DUP6 SWAP1 PUSH4 0x23B872DD PUSH1 0xE0 SHL SWAP1 PUSH1 0x84 ADD PUSH2 0x2223 JUMP JUMPDEST POP POP POP POP JUMP JUMPDEST PUSH1 0x1 PUSH1 0x1 PUSH1 0xA0 SHL SUB DUP2 AND PUSH2 0x245C JUMPI PUSH1 0x40 MLOAD PUSH3 0x461BCD PUSH1 0xE5 SHL DUP2 MSTORE PUSH1 0x20 PUSH1 0x4 DUP3 ADD MSTORE PUSH1 0x26 PUSH1 0x24 DUP3 ADD MSTORE PUSH32 0x4F776E61626C653A206E6577206F776E657220697320746865207A65726F2061 PUSH1 0x44 DUP3 ADD MSTORE PUSH6 0x646472657373 PUSH1 0xD0 SHL PUSH1 0x64 DUP3 ADD MSTORE PUSH1 0x84 ADD PUSH2 0x662 JUMP JUMPDEST PUSH1 0x0 DUP1 SLOAD PUSH1 0x40 MLOAD PUSH1 0x1 PUSH1 0x1 PUSH1 0xA0 SHL SUB DUP1 DUP6 AND SWAP4 SWAP3 AND SWAP2 PUSH32 0x8BE0079C531659141344CD1FD0A4F28419497F9722A3DAAFE3B4186F6B6457E0 SWAP2 LOG3 PUSH1 0x0 DUP1 SLOAD PUSH1 0x1 PUSH1 0x1 PUSH1 0xA0 SHL SUB NOT AND PUSH1 0x1 PUSH1 0x1 PUSH1 0xA0 SHL SUB SWAP3 SWAP1 SWAP3 AND SWAP2 SWAP1 SWAP2 OR SWAP1 SSTORE JUMP JUMPDEST PUSH1 0x0 DUP2 DUP4 PUSH2 0x24D8 JUMPI PUSH1 0x40 MLOAD PUSH3 0x461BCD PUSH1 0xE5 SHL DUP2 MSTORE PUSH1 0x4 ADD PUSH2 0x662 SWAP2 SWAP1 PUSH2 0x2A50 JUMP JUMPDEST POP PUSH1 0x0 PUSH2 0x24E5 DUP5 DUP7 PUSH2 0x29F7 JUMP JUMPDEST SWAP6 SWAP5 POP POP POP POP POP JUMP JUMPDEST PUSH1 0x0 DUP2 DUP5 DUP5 GT ISZERO PUSH2 0x2512 JUMPI PUSH1 0x40 MLOAD PUSH3 0x461BCD PUSH1 0xE5 SHL DUP2 MSTORE PUSH1 0x4 ADD PUSH2 0x662 SWAP2 SWAP1 PUSH2 0x2A50 JUMP JUMPDEST POP PUSH1 0x0 PUSH2 0x24E5 DUP5 DUP7 PUSH2 0x2A83 JUMP JUMPDEST PUSH1 0x0 PUSH2 0x2574 DUP3 PUSH1 0x40 MLOAD DUP1 PUSH1 0x40 ADD PUSH1 0x40 MSTORE DUP1 PUSH1 0x20 DUP2 MSTORE PUSH1 0x20 ADD PUSH32 0x5361666545524332303A206C6F772D6C6576656C2063616C6C206661696C6564 DUP2 MSTORE POP DUP6 PUSH1 0x1 PUSH1 0x1 PUSH1 0xA0 SHL SUB AND PUSH2 0x25F1 SWAP1 SWAP3 SWAP2 SWAP1 PUSH4 0xFFFFFFFF AND JUMP JUMPDEST DUP1 MLOAD SWAP1 SWAP2 POP ISZERO PUSH2 0x998 JUMPI DUP1 DUP1 PUSH1 0x20 ADD SWAP1 MLOAD DUP2 ADD SWAP1 PUSH2 0x2592 SWAP2 SWAP1 PUSH2 0x2A96 JUMP JUMPDEST PUSH2 0x998 JUMPI PUSH1 0x40 MLOAD PUSH3 0x461BCD PUSH1 0xE5 SHL DUP2 MSTORE PUSH1 0x20 PUSH1 0x4 DUP3 ADD MSTORE PUSH1 0x2A PUSH1 0x24 DUP3 ADD MSTORE PUSH32 0x5361666545524332303A204552433230206F7065726174696F6E20646964206E PUSH1 0x44 DUP3 ADD MSTORE PUSH10 0x1BDD081CDD58D8D95959 PUSH1 0xB2 SHL PUSH1 0x64 DUP3 ADD MSTORE PUSH1 0x84 ADD PUSH2 0x662 JUMP JUMPDEST PUSH1 0x60 PUSH2 0x2600 DUP5 DUP5 PUSH1 0x0 DUP6 PUSH2 0x2608 JUMP JUMPDEST SWAP5 SWAP4 POP POP POP POP JUMP JUMPDEST PUSH1 0x60 PUSH2 0x2613 DUP6 PUSH2 0x26FB JUMP JUMPDEST PUSH2 0x265F JUMPI PUSH1 0x40 MLOAD PUSH3 0x461BCD PUSH1 0xE5 SHL DUP2 MSTORE PUSH1 0x20 PUSH1 0x4 DUP3 ADD MSTORE PUSH1 0x1D PUSH1 0x24 DUP3 ADD MSTORE PUSH32 0x416464726573733A2063616C6C20746F206E6F6E2D636F6E7472616374000000 PUSH1 0x44 DUP3 ADD MSTORE PUSH1 0x64 ADD PUSH2 0x662 JUMP JUMPDEST PUSH1 0x0 DUP1 DUP7 PUSH1 0x1 PUSH1 0x1 PUSH1 0xA0 SHL SUB AND DUP6 DUP8 PUSH1 0x40 MLOAD PUSH2 0x267B SWAP2 SWAP1 PUSH2 0x2AB3 JUMP JUMPDEST PUSH1 0x0 PUSH1 0x40 MLOAD DUP1 DUP4 SUB DUP2 DUP6 DUP8 GAS CALL SWAP3 POP POP POP RETURNDATASIZE DUP1 PUSH1 0x0 DUP2 EQ PUSH2 0x26B8 JUMPI PUSH1 0x40 MLOAD SWAP2 POP PUSH1 0x1F NOT PUSH1 0x3F RETURNDATASIZE ADD AND DUP3 ADD PUSH1 0x40 MSTORE RETURNDATASIZE DUP3 MSTORE RETURNDATASIZE PUSH1 0x0 PUSH1 0x20 DUP5 ADD RETURNDATACOPY PUSH2 0x26BD JUMP JUMPDEST PUSH1 0x60 SWAP2 POP JUMPDEST POP SWAP2 POP SWAP2 POP DUP2 ISZERO PUSH2 0x26D1 JUMPI SWAP2 POP PUSH2 0x2600 SWAP1 POP JUMP JUMPDEST DUP1 MLOAD ISZERO PUSH2 0x26E1 JUMPI DUP1 MLOAD DUP1 DUP3 PUSH1 0x20 ADD REVERT JUMPDEST DUP4 PUSH1 0x40 MLOAD PUSH3 0x461BCD PUSH1 0xE5 SHL DUP2 MSTORE PUSH1 0x4 ADD PUSH2 0x662 SWAP2 SWAP1 PUSH2 0x2A50 JUMP JUMPDEST PUSH1 0x0 DUP2 EXTCODEHASH PUSH32 0xC5D2460186F7233C927E7DB2DCC703C0E500B653CA82273B7BFAD8045D85A470 DUP2 DUP2 EQ DUP1 ISZERO SWAP1 PUSH2 0x2600 JUMPI POP POP ISZERO ISZERO SWAP3 SWAP2 POP POP JUMP JUMPDEST PUSH1 0x1 PUSH1 0x1 PUSH1 0xA0 SHL SUB DUP2 AND DUP2 EQ PUSH2 0x11B2 JUMPI PUSH1 0x0 DUP1 REVERT JUMPDEST PUSH1 0x0 DUP1 PUSH1 0x40 DUP4 DUP6 SUB SLT ISZERO PUSH2 0x275C JUMPI PUSH1 0x0 DUP1 REVERT JUMPDEST DUP3 CALLDATALOAD PUSH2 0x2767 DUP2 PUSH2 0x2734 JUMP JUMPDEST SWAP5 PUSH1 0x20 SWAP4 SWAP1 SWAP4 ADD CALLDATALOAD SWAP4 POP POP POP JUMP JUMPDEST PUSH1 0x0 DUP1 PUSH1 0x0 PUSH1 0x60 DUP5 DUP7 SUB SLT ISZERO PUSH2 0x278A JUMPI PUSH1 0x0 DUP1 REVERT JUMPDEST DUP4 CALLDATALOAD PUSH2 0x2795 DUP2 PUSH2 0x2734 JUMP JUMPDEST SWAP6 PUSH1 0x20 DUP6 ADD CALLDATALOAD SWAP6 POP PUSH1 0x40 SWAP1 SWAP5 ADD CALLDATALOAD SWAP4 SWAP3 POP POP POP JUMP JUMPDEST PUSH1 0x0 PUSH1 0x20 DUP3 DUP5 SUB SLT ISZERO PUSH2 0x27BC JUMPI PUSH1 0x0 DUP1 REVERT JUMPDEST DUP2 CALLDATALOAD PUSH2 0x5EE DUP2 PUSH2 0x2734 JUMP JUMPDEST PUSH1 0x0 DUP1 PUSH1 0x40 DUP4 DUP6 SUB SLT ISZERO PUSH2 0x27DA JUMPI PUSH1 0x0 DUP1 REVERT JUMPDEST DUP3 CALLDATALOAD SWAP2 POP PUSH1 0x20 DUP4 ADD CALLDATALOAD PUSH2 0x27EC DUP2 PUSH2 0x2734 JUMP JUMPDEST DUP1 SWAP2 POP POP SWAP3 POP SWAP3 SWAP1 POP JUMP JUMPDEST PUSH1 0x0 PUSH1 0x20 DUP3 DUP5 SUB SLT ISZERO PUSH2 0x2809 JUMPI PUSH1 0x0 DUP1 REVERT JUMPDEST POP CALLDATALOAD SWAP2 SWAP1 POP JUMP JUMPDEST PUSH1 0x0 DUP1 PUSH1 0x40 DUP4 DUP6 SUB SLT ISZERO PUSH2 0x2823 JUMPI PUSH1 0x0 DUP1 REVERT JUMPDEST POP POP DUP1 CALLDATALOAD SWAP3 PUSH1 0x20 SWAP1 SWAP2 ADD CALLDATALOAD SWAP2 POP JUMP JUMPDEST DUP1 ISZERO ISZERO DUP2 EQ PUSH2 0x11B2 JUMPI PUSH1 0x0 DUP1 REVERT JUMPDEST PUSH1 0x0 DUP1 PUSH1 0x0 PUSH1 0x60 DUP5 DUP7 SUB SLT ISZERO PUSH2 0x2855 JUMPI PUSH1 0x0 DUP1 REVERT JUMPDEST DUP4 CALLDATALOAD SWAP3 POP PUSH1 0x20 DUP5 ADD CALLDATALOAD SWAP2 POP PUSH1 0x40 DUP5 ADD CALLDATALOAD PUSH2 0x286E DUP2 PUSH2 0x2832 JUMP JUMPDEST DUP1 SWAP2 POP POP SWAP3 POP SWAP3 POP SWAP3 JUMP JUMPDEST PUSH1 0x0 PUSH1 0x20 DUP3 DUP5 SUB SLT ISZERO PUSH2 0x288B JUMPI PUSH1 0x0 DUP1 REVERT JUMPDEST DUP2 CALLDATALOAD PUSH2 0x5EE DUP2 PUSH2 0x2832 JUMP JUMPDEST PUSH1 0x0 DUP1 PUSH1 0x40 DUP4 DUP6 SUB SLT ISZERO PUSH2 0x28A9 JUMPI PUSH1 0x0 DUP1 REVERT JUMPDEST DUP3 CALLDATALOAD PUSH2 0x28B4 DUP2 PUSH2 0x2734 JUMP JUMPDEST SWAP2 POP PUSH1 0x20 DUP4 ADD CALLDATALOAD PUSH2 0x27EC DUP2 PUSH2 0x2832 JUMP JUMPDEST PUSH1 0x0 DUP1 PUSH1 0x0 DUP1 PUSH1 0x80 DUP6 DUP8 SUB SLT ISZERO PUSH2 0x28DA JUMPI PUSH1 0x0 DUP1 REVERT JUMPDEST DUP5 CALLDATALOAD SWAP4 POP PUSH1 0x20 DUP6 ADD CALLDATALOAD PUSH2 0x28EC DUP2 PUSH2 0x2734 JUMP JUMPDEST SWAP3 POP PUSH1 0x40 DUP6 ADD CALLDATALOAD PUSH2 0x28FC DUP2 PUSH2 0x2832 JUMP JUMPDEST SWAP2 POP PUSH1 0x60 DUP6 ADD CALLDATALOAD PUSH2 0x290C DUP2 PUSH2 0x2832 JUMP JUMPDEST SWAP4 SWAP7 SWAP3 SWAP6 POP SWAP1 SWAP4 POP POP JUMP JUMPDEST PUSH1 0x0 DUP1 PUSH1 0x0 DUP1 PUSH1 0x80 DUP6 DUP8 SUB SLT ISZERO PUSH2 0x292D JUMPI PUSH1 0x0 DUP1 REVERT JUMPDEST DUP5 CALLDATALOAD SWAP4 POP PUSH1 0x20 DUP6 ADD CALLDATALOAD SWAP3 POP PUSH1 0x40 DUP6 ADD CALLDATALOAD SWAP2 POP PUSH1 0x60 DUP6 ADD CALLDATALOAD PUSH2 0x290C DUP2 PUSH2 0x2832 JUMP JUMPDEST PUSH4 0x4E487B71 PUSH1 0xE0 SHL PUSH1 0x0 MSTORE PUSH1 0x32 PUSH1 0x4 MSTORE PUSH1 0x24 PUSH1 0x0 REVERT JUMPDEST PUSH1 0x20 DUP1 DUP3 MSTORE DUP2 DUP2 ADD MSTORE PUSH32 0x4F776E61626C653A2063616C6C6572206973206E6F7420746865206F776E6572 PUSH1 0x40 DUP3 ADD MSTORE PUSH1 0x60 ADD SWAP1 JUMP JUMPDEST PUSH4 0x4E487B71 PUSH1 0xE0 SHL PUSH1 0x0 MSTORE PUSH1 0x11 PUSH1 0x4 MSTORE PUSH1 0x24 PUSH1 0x0 REVERT JUMPDEST PUSH1 0x0 PUSH1 0x1 DUP3 ADD PUSH2 0x29C0 JUMPI PUSH2 0x29C0 PUSH2 0x2998 JUMP JUMPDEST POP PUSH1 0x1 ADD SWAP1 JUMP JUMPDEST PUSH1 0x0 PUSH1 0x20 DUP3 DUP5 SUB SLT ISZERO PUSH2 0x29D9 JUMPI PUSH1 0x0 DUP1 REVERT JUMPDEST POP MLOAD SWAP2 SWAP1 POP JUMP JUMPDEST DUP1 DUP3 MUL DUP2 ISZERO DUP3 DUP3 DIV DUP5 EQ OR PUSH2 0x5F4 JUMPI PUSH2 0x5F4 PUSH2 0x2998 JUMP JUMPDEST PUSH1 0x0 DUP3 PUSH2 0x2A14 JUMPI PUSH4 0x4E487B71 PUSH1 0xE0 SHL PUSH1 0x0 MSTORE PUSH1 0x12 PUSH1 0x4 MSTORE PUSH1 0x24 PUSH1 0x0 REVERT JUMPDEST POP DIV SWAP1 JUMP JUMPDEST DUP1 DUP3 ADD DUP1 DUP3 GT ISZERO PUSH2 0x5F4 JUMPI PUSH2 0x5F4 PUSH2 0x2998 JUMP JUMPDEST PUSH1 0x0 JUMPDEST DUP4 DUP2 LT ISZERO PUSH2 0x2A47 JUMPI DUP2 DUP2 ADD MLOAD DUP4 DUP3 ADD MSTORE PUSH1 0x20 ADD PUSH2 0x2A2F JUMP JUMPDEST POP POP PUSH1 0x0 SWAP2 ADD MSTORE JUMP JUMPDEST PUSH1 0x20 DUP2 MSTORE PUSH1 0x0 DUP3 MLOAD DUP1 PUSH1 0x20 DUP5 ADD MSTORE PUSH2 0x2A6F DUP2 PUSH1 0x40 DUP6 ADD PUSH1 0x20 DUP8 ADD PUSH2 0x2A2C JUMP JUMPDEST PUSH1 0x1F ADD PUSH1 0x1F NOT AND SWAP2 SWAP1 SWAP2 ADD PUSH1 0x40 ADD SWAP3 SWAP2 POP POP JUMP JUMPDEST DUP2 DUP2 SUB DUP2 DUP2 GT ISZERO PUSH2 0x5F4 JUMPI PUSH2 0x5F4 PUSH2 0x2998 JUMP JUMPDEST PUSH1 0x0 PUSH1 0x20 DUP3 DUP5 SUB SLT ISZERO PUSH2 0x2AA8 JUMPI PUSH1 0x0 DUP1 REVERT JUMPDEST DUP2 MLOAD PUSH2 0x5EE DUP2 PUSH2 0x2832 JUMP JUMPDEST PUSH1 0x0 DUP3 MLOAD PUSH2 0x2AC5 DUP2 DUP5 PUSH1 0x20 DUP8 ADD PUSH2 0x2A2C JUMP JUMPDEST SWAP2 SWAP1 SWAP2 ADD SWAP3 SWAP2 POP POP JUMP INVALID LOG2 PUSH5 0x6970667358 0x22 SLT KECCAK256 PUSH11 0xA95AD775083D0A361AFAF4 DUP16 PUSH19 0x2D7E913294940830F20493A64CFEA3D72DC264 PUSH20 0x6F6C634300081400330000000000000000000000 "},"methodIdentifiers":{"ACC_CAKE_PRECISION()":"7398b7ea","BOOST_PRECISION()":"cc6db2da","CAKE()":"4ca6ef28","CAKE_RATE_TOTAL_PRECISION()":"e39e1323","MASTERCHEF_CAKE_PER_SECOND()":"2b0fc490","MAX_BOOST_PRECISION()":"69b02128","add(uint256,address,bool,bool)":"c507aeaa","boostContract()":"dfcedeee","burnAdmin()":"81bdf98c","burnCake(bool)":"777a97f8","cakePerBlockToBurn()":"9dcc1b5f","cakePerSecond(bool)":"c33600a5","cakeRateToBurn()":"e0f91f6c","cakeRateToRegularFarm()":"aa47bc8e","cakeRateToSpecialFarm()":"1ce06d57","deposit(uint256,uint256)":"e2bbb158","emergencyWithdraw(uint256)":"5312ea8e","getBoostMultiplier(address,uint256)":"033186e8","harvestFromMasterChef()":"4f70b15a","lastBurnedTimestamp()":"859fb7f9","lpToken(uint256)":"78ed5d1f","massUpdatePools()":"630b5ba1","owner()":"8da5cb5b","pendingCake(uint256,address)":"1175a1dd","poolInfo(uint256)":"1526fe27","poolLength()":"081e3eda","renounceOwnership()":"715018a6","set(uint256,uint256,bool)":"64482f79","totalRegularAllocPoint()":"c40d337b","totalSpecialAllocPoint()":"99d7e84a","transferOwnership(address)":"f2fde38b","updateBoostContract(address)":"9dd2fcc3","updateBoostMultiplier(address,uint256,uint256)":"041a84c9","updateBurnAdmin(address)":"0bb844bc","updateCakeRate(uint256,uint256,uint256,bool)":"dc6363df","updatePool(uint256)":"51eb05a6","updateWhiteList(address,bool)":"ac1d0609","userInfo(uint256,address)":"93f1a40b","whiteList(address)":"372c12b1","withdraw(uint256,uint256)":"441a3e70"}}}}}