{"contracts/ZetaStake.sol":{"ZetaPool":{"abi":[{"inputs":[{"internalType":"contract IERC20","name":"_token","type":"address"},{"internalType":"contract IMasterChefV2","name":"_masterchefV2","type":"address"},{"internalType":"address","name":"_admin","type":"address"},{"internalType":"address","name":"_treasury","type":"address"},{"internalType":"address","name":"_operator","type":"address"},{"internalType":"uint256","name":"_pid","type":"uint256"}],"stateMutability":"nonpayable","type":"constructor"},{"inputs":[{"internalType":"address","name":"target","type":"address"}],"name":"AddressEmptyCode","type":"error"},{"inputs":[{"internalType":"address","name":"account","type":"address"}],"name":"AddressInsufficientBalance","type":"error"},{"inputs":[],"name":"FailedInnerCall","type":"error"},{"inputs":[{"internalType":"address","name":"token","type":"address"}],"name":"SafeERC20FailedOperation","type":"error"},{"anonymous":false,"inputs":[{"indexed":true,"internalType":"address","name":"sender","type":"address"},{"indexed":false,"internalType":"uint256","name":"amount","type":"uint256"},{"indexed":false,"internalType":"uint256","name":"shares","type":"uint256"},{"indexed":false,"internalType":"uint256","name":"duration","type":"uint256"},{"indexed":false,"internalType":"uint256","name":"lastDepositedTime","type":"uint256"}],"name":"Deposit","type":"event"},{"anonymous":false,"inputs":[{"indexed":true,"internalType":"address","name":"user","type":"address"},{"indexed":true,"internalType":"bool","name":"free","type":"bool"}],"name":"FreeFeeUser","type":"event"},{"anonymous":false,"inputs":[{"indexed":true,"internalType":"address","name":"sender","type":"address"},{"indexed":false,"internalType":"uint256","name":"amount","type":"uint256"}],"name":"Harvest","type":"event"},{"anonymous":false,"inputs":[],"name":"Init","type":"event"},{"anonymous":false,"inputs":[{"indexed":true,"internalType":"address","name":"sender","type":"address"},{"indexed":false,"internalType":"uint256","name":"lockedAmount","type":"uint256"},{"indexed":false,"internalType":"uint256","name":"shares","type":"uint256"},{"indexed":false,"internalType":"uint256","name":"lockedDuration","type":"uint256"},{"indexed":false,"internalType":"uint256","name":"blockTimestamp","type":"uint256"}],"name":"Lock","type":"event"},{"anonymous":false,"inputs":[{"indexed":false,"internalType":"address","name":"admin","type":"address"}],"name":"NewAdmin","type":"event"},{"anonymous":false,"inputs":[{"indexed":false,"internalType":"address","name":"boostContract","type":"address"}],"name":"NewBoostContract","type":"event"},{"anonymous":false,"inputs":[{"indexed":false,"internalType":"uint256","name":"boostWeight","type":"uint256"}],"name":"NewBoostWeight","type":"event"},{"anonymous":false,"inputs":[{"indexed":false,"internalType":"uint256","name":"durationFactor","type":"uint256"}],"name":"NewDurationFactor","type":"event"},{"anonymous":false,"inputs":[{"indexed":false,"internalType":"uint256","name":"durationFactorOverdue","type":"uint256"}],"name":"NewDurationFactorOverdue","type":"event"},{"anonymous":false,"inputs":[{"indexed":false,"internalType":"uint256","name":"maxLockDuration","type":"uint256"}],"name":"NewMaxLockDuration","type":"event"},{"anonymous":false,"inputs":[{"indexed":false,"internalType":"address","name":"operator","type":"address"}],"name":"NewOperator","type":"event"},{"anonymous":false,"inputs":[{"indexed":false,"internalType":"uint256","name":"overdueFee","type":"uint256"}],"name":"NewOverdueFee","type":"event"},{"anonymous":false,"inputs":[{"indexed":false,"internalType":"uint256","name":"performanceFee","type":"uint256"}],"name":"NewPerformanceFee","type":"event"},{"anonymous":false,"inputs":[{"indexed":false,"internalType":"uint256","name":"performanceFeeContract","type":"uint256"}],"name":"NewPerformanceFeeContract","type":"event"},{"anonymous":false,"inputs":[{"indexed":false,"internalType":"address","name":"treasury","type":"address"}],"name":"NewTreasury","type":"event"},{"anonymous":false,"inputs":[{"indexed":false,"internalType":"uint256","name":"unlockFreeDuration","type":"uint256"}],"name":"NewUnlockFreeDuration","type":"event"},{"anonymous":false,"inputs":[{"indexed":false,"internalType":"address","name":"VCake","type":"address"}],"name":"NewVCakeContract","type":"event"},{"anonymous":false,"inputs":[{"indexed":false,"internalType":"uint256","name":"withdrawFee","type":"uint256"}],"name":"NewWithdrawFee","type":"event"},{"anonymous":false,"inputs":[{"indexed":false,"internalType":"uint256","name":"withdrawFeeContract","type":"uint256"}],"name":"NewWithdrawFeeContract","type":"event"},{"anonymous":false,"inputs":[{"indexed":false,"internalType":"uint256","name":"withdrawFeePeriod","type":"uint256"}],"name":"NewWithdrawFeePeriod","type":"event"},{"anonymous":false,"inputs":[{"indexed":true,"internalType":"address","name":"previousOwner","type":"address"},{"indexed":true,"internalType":"address","name":"newOwner","type":"address"}],"name":"OwnershipTransferred","type":"event"},{"anonymous":false,"inputs":[],"name":"Pause","type":"event"},{"anonymous":false,"inputs":[{"indexed":false,"internalType":"address","name":"account","type":"address"}],"name":"Paused","type":"event"},{"anonymous":false,"inputs":[{"indexed":true,"internalType":"address","name":"sender","type":"address"},{"indexed":false,"internalType":"uint256","name":"amount","type":"uint256"},{"indexed":false,"internalType":"uint256","name":"blockTimestamp","type":"uint256"}],"name":"Unlock","type":"event"},{"anonymous":false,"inputs":[],"name":"Unpause","type":"event"},{"anonymous":false,"inputs":[{"indexed":false,"internalType":"address","name":"account","type":"address"}],"name":"Unpaused","type":"event"},{"anonymous":false,"inputs":[{"indexed":true,"internalType":"address","name":"sender","type":"address"},{"indexed":false,"internalType":"uint256","name":"amount","type":"uint256"},{"indexed":false,"internalType":"uint256","name":"shares","type":"uint256"}],"name":"Withdraw","type":"event"},{"inputs":[],"name":"BOOST_WEIGHT","outputs":[{"internalType":"uint256","name":"","type":"uint256"}],"stateMutability":"view","type":"function"},{"inputs":[],"name":"BOOST_WEIGHT_LIMIT","outputs":[{"internalType":"uint256","name":"","type":"uint256"}],"stateMutability":"view","type":"function"},{"inputs":[],"name":"DURATION_FACTOR","outputs":[{"internalType":"uint256","name":"","type":"uint256"}],"stateMutability":"view","type":"function"},{"inputs":[],"name":"DURATION_FACTOR_OVERDUE","outputs":[{"internalType":"uint256","name":"","type":"uint256"}],"stateMutability":"view","type":"function"},{"inputs":[],"name":"MAX_LOCK_DURATION","outputs":[{"internalType":"uint256","name":"","type":"uint256"}],"stateMutability":"view","type":"function"},{"inputs":[],"name":"MAX_LOCK_DURATION_LIMIT","outputs":[{"internalType":"uint256","name":"","type":"uint256"}],"stateMutability":"view","type":"function"},{"inputs":[],"name":"MAX_OVERDUE_FEE","outputs":[{"internalType":"uint256","name":"","type":"uint256"}],"stateMutability":"view","type":"function"},{"inputs":[],"name":"MAX_PERFORMANCE_FEE","outputs":[{"internalType":"uint256","name":"","type":"uint256"}],"stateMutability":"view","type":"function"},{"inputs":[],"name":"MAX_WITHDRAW_FEE","outputs":[{"internalType":"uint256","name":"","type":"uint256"}],"stateMutability":"view","type":"function"},{"inputs":[],"name":"MAX_WITHDRAW_FEE_PERIOD","outputs":[{"internalType":"uint256","name":"","type":"uint256"}],"stateMutability":"view","type":"function"},{"inputs":[],"name":"MIN_DEPOSIT_AMOUNT","outputs":[{"internalType":"uint256","name":"","type":"uint256"}],"stateMutability":"view","type":"function"},{"inputs":[],"name":"MIN_LOCK_DURATION","outputs":[{"internalType":"uint256","name":"","type":"uint256"}],"stateMutability":"view","type":"function"},{"inputs":[],"name":"MIN_WITHDRAW_AMOUNT","outputs":[{"internalType":"uint256","name":"","type":"uint256"}],"stateMutability":"view","type":"function"},{"inputs":[],"name":"PRECISION_FACTOR","outputs":[{"internalType":"uint256","name":"","type":"uint256"}],"stateMutability":"view","type":"function"},{"inputs":[],"name":"PRECISION_FACTOR_SHARE","outputs":[{"internalType":"uint256","name":"","type":"uint256"}],"stateMutability":"view","type":"function"},{"inputs":[],"name":"UNLOCK_FREE_DURATION","outputs":[{"internalType":"uint256","name":"","type":"uint256"}],"stateMutability":"view","type":"function"},{"inputs":[],"name":"VCake","outputs":[{"internalType":"address","name":"","type":"address"}],"stateMutability":"view","type":"function"},{"inputs":[],"name":"admin","outputs":[{"internalType":"address","name":"","type":"address"}],"stateMutability":"view","type":"function"},{"inputs":[],"name":"available","outputs":[{"internalType":"uint256","name":"","type":"uint256"}],"stateMutability":"view","type":"function"},{"inputs":[],"name":"balanceOf","outputs":[{"internalType":"uint256","name":"","type":"uint256"}],"stateMutability":"view","type":"function"},{"inputs":[],"name":"boostContract","outputs":[{"internalType":"address","name":"","type":"address"}],"stateMutability":"view","type":"function"},{"inputs":[],"name":"cakePoolPID","outputs":[{"internalType":"uint256","name":"","type":"uint256"}],"stateMutability":"view","type":"function"},{"inputs":[{"internalType":"address","name":"_user","type":"address"}],"name":"calculateOverdueFee","outputs":[{"internalType":"uint256","name":"","type":"uint256"}],"stateMutability":"view","type":"function"},{"inputs":[{"internalType":"address","name":"_user","type":"address"}],"name":"calculatePerformanceFee","outputs":[{"internalType":"uint256","name":"","type":"uint256"}],"stateMutability":"view","type":"function"},{"inputs":[],"name":"calculateTotalPendingCakeRewards","outputs":[{"internalType":"uint256","name":"","type":"uint256"}],"stateMutability":"view","type":"function"},{"inputs":[{"internalType":"address","name":"_user","type":"address"},{"internalType":"uint256","name":"_shares","type":"uint256"}],"name":"calculateWithdrawFee","outputs":[{"internalType":"uint256","name":"","type":"uint256"}],"stateMutability":"view","type":"function"},{"inputs":[{"internalType":"uint256","name":"_amount","type":"uint256"},{"internalType":"uint256","name":"_lockDuration","type":"uint256"}],"name":"deposit","outputs":[],"stateMutability":"nonpayable","type":"function"},{"inputs":[{"internalType":"address","name":"","type":"address"}],"name":"freeOverdueFeeUsers","outputs":[{"internalType":"bool","name":"","type":"bool"}],"stateMutability":"view","type":"function"},{"inputs":[{"internalType":"address","name":"","type":"address"}],"name":"freePerformanceFeeUsers","outputs":[{"internalType":"bool","name":"","type":"bool"}],"stateMutability":"view","type":"function"},{"inputs":[{"internalType":"address","name":"","type":"address"}],"name":"freeWithdrawFeeUsers","outputs":[{"internalType":"bool","name":"","type":"bool"}],"stateMutability":"view","type":"function"},{"inputs":[],"name":"getPricePerFullShare","outputs":[{"internalType":"uint256","name":"","type":"uint256"}],"stateMutability":"view","type":"function"},{"inputs":[{"internalType":"address","name":"_token","type":"address"}],"name":"inCaseTokensGetStuck","outputs":[],"stateMutability":"nonpayable","type":"function"},{"inputs":[{"internalType":"contract IERC20","name":"dummyToken","type":"address"}],"name":"init","outputs":[],"stateMutability":"nonpayable","type":"function"},{"inputs":[],"name":"masterchefV2","outputs":[{"internalType":"contract IMasterChefV2","name":"","type":"address"}],"stateMutability":"view","type":"function"},{"inputs":[],"name":"operator","outputs":[{"internalType":"address","name":"","type":"address"}],"stateMutability":"view","type":"function"},{"inputs":[],"name":"overdueFee","outputs":[{"internalType":"uint256","name":"","type":"uint256"}],"stateMutability":"view","type":"function"},{"inputs":[],"name":"owner","outputs":[{"internalType":"address","name":"","type":"address"}],"stateMutability":"view","type":"function"},{"inputs":[],"name":"pause","outputs":[],"stateMutability":"nonpayable","type":"function"},{"inputs":[],"name":"paused","outputs":[{"internalType":"bool","name":"","type":"bool"}],"stateMutability":"view","type":"function"},{"inputs":[],"name":"performanceFee","outputs":[{"internalType":"uint256","name":"","type":"uint256"}],"stateMutability":"view","type":"function"},{"inputs":[],"name":"performanceFeeContract","outputs":[{"internalType":"uint256","name":"","type":"uint256"}],"stateMutability":"view","type":"function"},{"inputs":[],"name":"renounceOwnership","outputs":[],"stateMutability":"nonpayable","type":"function"},{"inputs":[{"internalType":"address","name":"_admin","type":"address"}],"name":"setAdmin","outputs":[],"stateMutability":"nonpayable","type":"function"},{"inputs":[{"internalType":"address","name":"_boostContract","type":"address"}],"name":"setBoostContract","outputs":[],"stateMutability":"nonpayable","type":"function"},{"inputs":[{"internalType":"uint256","name":"_boostWeight","type":"uint256"}],"name":"setBoostWeight","outputs":[],"stateMutability":"nonpayable","type":"function"},{"inputs":[{"internalType":"uint256","name":"_durationFactor","type":"uint256"}],"name":"setDurationFactor","outputs":[],"stateMutability":"nonpayable","type":"function"},{"inputs":[{"internalType":"uint256","name":"_durationFactorOverdue","type":"uint256"}],"name":"setDurationFactorOverdue","outputs":[],"stateMutability":"nonpayable","type":"function"},{"inputs":[{"internalType":"address","name":"_user","type":"address"},{"internalType":"bool","name":"_free","type":"bool"}],"name":"setFreePerformanceFeeUser","outputs":[],"stateMutability":"nonpayable","type":"function"},{"inputs":[{"internalType":"uint256","name":"_maxLockDuration","type":"uint256"}],"name":"setMaxLockDuration","outputs":[],"stateMutability":"nonpayable","type":"function"},{"inputs":[{"internalType":"address","name":"_operator","type":"address"}],"name":"setOperator","outputs":[],"stateMutability":"nonpayable","type":"function"},{"inputs":[{"internalType":"uint256","name":"_overdueFee","type":"uint256"}],"name":"setOverdueFee","outputs":[],"stateMutability":"nonpayable","type":"function"},{"inputs":[{"internalType":"address","name":"_user","type":"address"},{"internalType":"bool","name":"_free","type":"bool"}],"name":"setOverdueFeeUser","outputs":[],"stateMutability":"nonpayable","type":"function"},{"inputs":[{"internalType":"uint256","name":"_performanceFee","type":"uint256"}],"name":"setPerformanceFee","outputs":[],"stateMutability":"nonpayable","type":"function"},{"inputs":[{"internalType":"uint256","name":"_performanceFeeContract","type":"uint256"}],"name":"setPerformanceFeeContract","outputs":[],"stateMutability":"nonpayable","type":"function"},{"inputs":[{"internalType":"address","name":"_treasury","type":"address"}],"name":"setTreasury","outputs":[],"stateMutability":"nonpayable","type":"function"},{"inputs":[{"internalType":"uint256","name":"_unlockFreeDuration","type":"uint256"}],"name":"setUnlockFreeDuration","outputs":[],"stateMutability":"nonpayable","type":"function"},{"inputs":[{"internalType":"address","name":"_VCake","type":"address"}],"name":"setVCakeContract","outputs":[],"stateMutability":"nonpayable","type":"function"},{"inputs":[{"internalType":"uint256","name":"_withdrawFee","type":"uint256"}],"name":"setWithdrawFee","outputs":[],"stateMutability":"nonpayable","type":"function"},{"inputs":[{"internalType":"uint256","name":"_withdrawFeeContract","type":"uint256"}],"name":"setWithdrawFeeContract","outputs":[],"stateMutability":"nonpayable","type":"function"},{"inputs":[{"internalType":"uint256","name":"_withdrawFeePeriod","type":"uint256"}],"name":"setWithdrawFeePeriod","outputs":[],"stateMutability":"nonpayable","type":"function"},{"inputs":[{"internalType":"address","name":"_user","type":"address"},{"internalType":"bool","name":"_free","type":"bool"}],"name":"setWithdrawFeeUser","outputs":[],"stateMutability":"nonpayable","type":"function"},{"inputs":[],"name":"token","outputs":[{"internalType":"contract IERC20","name":"","type":"address"}],"stateMutability":"view","type":"function"},{"inputs":[],"name":"totalBoostDebt","outputs":[{"internalType":"uint256","name":"","type":"uint256"}],"stateMutability":"view","type":"function"},{"inputs":[],"name":"totalLockedAmount","outputs":[{"internalType":"uint256","name":"","type":"uint256"}],"stateMutability":"view","type":"function"},{"inputs":[],"name":"totalShares","outputs":[{"internalType":"uint256","name":"","type":"uint256"}],"stateMutability":"view","type":"function"},{"inputs":[{"internalType":"address","name":"newOwner","type":"address"}],"name":"transferOwnership","outputs":[],"stateMutability":"nonpayable","type":"function"},{"inputs":[],"name":"treasury","outputs":[{"internalType":"address","name":"","type":"address"}],"stateMutability":"view","type":"function"},{"inputs":[{"internalType":"address","name":"_user","type":"address"}],"name":"unlock","outputs":[],"stateMutability":"nonpayable","type":"function"},{"inputs":[],"name":"unpause","outputs":[],"stateMutability":"nonpayable","type":"function"},{"inputs":[{"internalType":"address","name":"","type":"address"}],"name":"userInfo","outputs":[{"internalType":"uint256","name":"shares","type":"uint256"},{"internalType":"uint256","name":"lastDepositedTime","type":"uint256"},{"internalType":"uint256","name":"cakeAtLastUserAction","type":"uint256"},{"internalType":"uint256","name":"lastUserActionTime","type":"uint256"},{"internalType":"uint256","name":"lockStartTime","type":"uint256"},{"internalType":"uint256","name":"lockEndTime","type":"uint256"},{"internalType":"uint256","name":"userBoostedShare","type":"uint256"},{"internalType":"bool","name":"locked","type":"bool"},{"internalType":"uint256","name":"lockedAmount","type":"uint256"}],"stateMutability":"view","type":"function"},{"inputs":[{"internalType":"uint256","name":"_shares","type":"uint256"}],"name":"withdraw","outputs":[],"stateMutability":"nonpayable","type":"function"},{"inputs":[],"name":"withdrawAll","outputs":[],"stateMutability":"nonpayable","type":"function"},{"inputs":[{"internalType":"uint256","name":"_amount","type":"uint256"}],"name":"withdrawByAmount","outputs":[],"stateMutability":"nonpayable","type":"function"},{"inputs":[],"name":"withdrawFee","outputs":[{"internalType":"uint256","name":"","type":"uint256"}],"stateMutability":"view","type":"function"},{"inputs":[],"name":"withdrawFeeContract","outputs":[{"internalType":"uint256","name":"","type":"uint256"}],"stateMutability":"view","type":"function"},{"inputs":[],"name":"withdrawFeePeriod","outputs":[{"internalType":"uint256","name":"","type":"uint256"}],"stateMutability":"view","type":"function"}],"evm":{"bytecode":{"linkReferences":{},"object":"60c060405262093a80600e556301e13380600f556301e1338060105562ed4e0060115564e8d4a5100060125560c860135560c8601455600a601555600a60165564e8d4a510006017556203f4806018553480156200005c57600080fd5b5060405162003cfd38038062003cfd8339810160408190526200007f9162000138565b600080546001600160a01b031916339081178255604051909182917f8be0079c531659141344cd1fd0a4f28419497f9722a3daafe3b4186f6b6457e0908290a3506000805460ff60a01b191690556001600160a01b0395861660805293851660a052600880549386166001600160a01b03199485161790556009805492861692841692909217909155600a805491909416911617909155600b55620001c0565b6001600160a01b03811681146200013557600080fd5b50565b60008060008060008060c087890312156200015257600080fd5b86516200015f816200011f565b602088015190965062000172816200011f565b604088015190955062000185816200011f565b606088015190945062000198816200011f565b6080880151909350620001ab816200011f565b8092505060a087015190509295509295509295565b60805160a051613ab5620002486000396000818161088c01528181610c2a01528181610cc8015281816114740152818161303201526130db0152600081816109940152818161129d0152818161169601528181611f5801528181612676015281816126bb015281816129c801528181612a78015281816132ff01526134e80152613ab56000f3fe608060405234801561001057600080fd5b50600436106104545760003560e01c80638778878211610241578063cb528b521161013b578063e464c623116100c3578063f2fde38b11610087578063f2fde38b14610956578063f786b95814610969578063f851a4401461097c578063fc0c546a1461098f578063fd253b64146109b657600080fd5b8063e464c6231461091f578063e4b37ef514610928578063e73008bc14610931578063e941fa781461093a578063f0f442601461094357600080fd5b8063def68a9c1161010a578063def68a9c146108ca578063def7869d146108dd578063df10b4e6146108f0578063dfcedeee146108f9578063e2bbb1581461090c57600080fd5b8063cb528b5214610887578063ccd34cd5146107b6578063d4b0de2f146108ae578063d826ed06146108b757600080fd5b8063acaf88cd116101c9578063bc75f4b81161018d578063bc75f4b81461083c578063bdca916514610845578063beba0fa01461084e578063c54d349c14610861578063c6ed51be1461087457600080fd5b8063acaf88cd146107fa578063b3ab15fb14610803578063b685784414610561578063b6ac642a14610816578063bb9f408d1461082957600080fd5b8063948a03f211610210578063948a03f2146107b657806395dc14e1146107c2578063a3639b39146107d5578063a5834e06146107e8578063aaada5da146107f157600080fd5b8063877887821461076657806387d4bda91461076f5780638da5cb5b1461079257806393c99e6a146107a357600080fd5b806348a0d754116103525780636d4710b9116102da578063731ff24a1161029e578063731ff24a1461073b57806377c7b8fc1461074e57806378b4330f146105945780638456cb5914610756578063853828b61461075e57600080fd5b80636d4710b9146106fc578063704b6c021461070557806370897b2314610718578063715018a61461072b578063722713f71461073357600080fd5b8063570ca73511610321578063570ca7351461069957806358ebceb6146106ac5780635c975abb146106b457806361d027b3146106c6578063668679ba146106d957600080fd5b806348a0d754146106625780634e4de1e91461066a5780634f1bfc9e1461067d5780635521e9bf1461068657600080fd5b80632cfc5f01116103e05780633a98ef39116103a45780633a98ef39146106025780633eb788741461060b5780633f4ba83a146106145780633fec4e321461061c578063423b93ed1461064f57600080fd5b80632cfc5f01146105945780632d19b9821461059e5780632e1a7d4d146105c95780632f6c493c146105dc57806335981921146105ef57600080fd5b80631959a002116104275780631959a002146104a857806319ab453c1461054e5780631ea30fef146105615780631efac1b81461056e57806329a5cfd61461058157600080fd5b806301e813261461045957806305a9f274146104775780630c59696b1461048057806314ff303914610495575b600080fd5b6104646305265c0081565b6040519081526020015b60405180910390f35b610464600d5481565b61049361048e366004613795565b6109c3565b005b6104936104a3366004613795565b610a9e565b6105086104b63660046137c3565b6003602081905260009182526040909120805460018201546002830154938301546004840154600585015460068601546007870154600890970154959794969495939492939192909160ff9091169089565b60408051998a5260208a0198909852968801959095526060870193909352608086019190915260a085015260c0840152151560e08301526101008201526101200161046e565b61049361055c3660046137c3565b610b1f565b6104646509184e72a00081565b61049361057c366004613795565b610d59565b61046461058f3660046137e0565b610e31565b61046462093a8081565b6002546105b1906001600160a01b031681565b6040516001600160a01b03909116815260200161046e565b6104936105d7366004613795565b610f6c565b6104936105ea3660046137c3565b610fc8565b6104936105fd366004613795565b6110be565b61046460075481565b61046460145481565b61049361117c565b61063f61062a3660046137c3565b60046020526000908152604090205460ff1681565b604051901515815260200161046e565b61049361065d36600461381a565b6111e1565b610464611285565b61049361067836600461381a565b611315565b610464600f5481565b610493610694366004613795565b6113b9565b600a546105b1906001600160a01b031681565b610464611447565b600054600160a01b900460ff1661063f565b6009546105b1906001600160a01b031681565b61063f6106e73660046137c3565b60066020526000908152604090205460ff1681565b610464600b5481565b6104936107133660046137c3565b6114df565b610493610726366004613795565b61157d565b6104936115fe565b610464611672565b6104646b204fce5e3e2502611000000081565b61046461170b565b61049361175d565b6104936117c2565b61046460135481565b61063f61077d3660046137c3565b60056020526000908152604090205460ff1681565b6000546001600160a01b03166105b1565b6104936107b1366004613795565b6117dd565b61046464e8d4a5100081565b6104646107d03660046137c3565b6118ae565b6104936107e3366004613795565b611a01565b61046460175481565b610464600e5481565b61046460115481565b6104936108113660046137c3565b611ab0565b610493610824366004613795565b611b4e565b610493610837366004613795565b611bcf565b61046460125481565b6104646107d081565b61049361085c36600461381a565b611c50565b61049361086f366004613795565b611cf4565b6104646108823660046137c3565b611daf565b6105b17f000000000000000000000000000000000000000000000000000000000000000081565b6104646101f481565b6104936108c53660046137c3565b611e8e565b6104936108d83660046137c3565b611f2c565b6104936108eb3660046137c3565b61206a565b61046460185481565b6001546105b1906001600160a01b031681565b61049361091a366004613853565b612108565b61046460105481565b61046460165481565b610464600c5481565b61046460155481565b6104936109513660046137c3565b61216b565b6104936109643660046137c3565b612209565b610493610977366004613795565b61223c565b6008546105b1906001600160a01b031681565b6105b17f000000000000000000000000000000000000000000000000000000000000000081565b610464652d79883d200081565b6008546001600160a01b031633146109f65760405162461bcd60e51b81526004016109ed90613875565b60405180910390fd5b64e8d4a51000811115610a625760405162461bcd60e51b815260206004820152602e60248201527f6f7665726475654665652063616e6e6f74206265206d6f7265207468616e204d60448201526d41585f4f5645524455455f46454560901b60648201526084016109ed565b60178190556040518181527ff4bd1c5978320077e792afbb3911e8cab1325ce28a6b3e67f9067a1d80692961906020015b60405180910390a150565b6008546001600160a01b03163314610ac85760405162461bcd60e51b81526004016109ed90613875565b6101f4811115610aea5760405162461bcd60e51b81526004016109ed9061389a565b60168190556040518181527fcab352e118188b8a2f20a2e8c4ce1241ce2c1740aac4f17c5b0831e65824d8ef90602001610a93565b6000546001600160a01b03163314610b495760405162461bcd60e51b81526004016109ed906138ea565b6040516370a0823160e01b81523360048201526000906001600160a01b038316906370a0823190602401602060405180830381865afa158015610b90573d6000803e3d6000fd5b505050506040513d601f19601f82011682018060405250810190610bb4919061391f565b905080600003610bfe5760405162461bcd60e51b8152602060048201526015602482015274042616c616e6365206d75737420657863656564203605c1b60448201526064016109ed565b610c136001600160a01b038316333084612315565b60405163095ea7b360e01b81526001600160a01b037f0000000000000000000000000000000000000000000000000000000000000000811660048301526024820183905283169063095ea7b3906044016020604051808303816000875af1158015610c82573d6000803e3d6000fd5b505050506040513d601f19601f82011682018060405250810190610ca69190613938565b50600b54604051631c57762b60e31b81526004810191909152602481018290527f00000000000000000000000000000000000000000000000000000000000000006001600160a01b03169063e2bbb15890604401600060405180830381600087803b158015610d1457600080fd5b505af1158015610d28573d6000803e3d6000fd5b50506040517f57a86f7d14ccde89e22870afe839e3011216827daa9b24e18629f0a1e9d6cc14925060009150a15050565b6008546001600160a01b03163314610d835760405162461bcd60e51b81526004016109ed90613875565b62093a80811115610dfc5760405162461bcd60e51b815260206004820152603d60248201527f7769746864726177466565506572696f642063616e6e6f74206265206d6f726560448201527f207468616e204d41585f57495448445241575f4645455f504552494f4400000060648201526084016109ed565b60188190556040518181527fb89ddaddb7435be26824cb48d2d0186c9525a2e1ec057abcb502704cdc0686cc90602001610a93565b6001600160a01b03821660009081526003602052604081208054831115610e5757805492505b3360009081526005602052604090205460ff16158015610e8757506018548160010154610e84919061396b565b42105b15610f60576000610e96611447565b610e9e611672565b610ea8919061396b565b8254909150600090610ebf64e8d4a510008761397e565b610ec99190613995565b90506000610ed687612382565b60068501546007548654610eea908761397e565b610ef49190613995565b610efe91906139b7565b610f0891906139b7565b9050600064e8d4a51000610f1c848461397e565b610f269190613995565b601554909150333b15610f3857506016545b6000612710610f47838561397e565b610f519190613995565b9750610f669650505050505050565b60009150505b92915050565b610f746123a0565b60008111610fba5760405162461bcd60e51b81526020600482015260136024820152724e6f7468696e6720746f20776974686472617760681b60448201526064016109ed565b610fc58160006123ed565b50565b80336001600160a01b0382161480610fea5750600a546001600160a01b031633145b6110365760405162461bcd60e51b815260206004820152601a60248201527f4e6f74206f70657261746f72206f722063616b65206f776e657200000000000060448201526064016109ed565b61103e6123a0565b6001600160a01b0382166000908152600360205260409020600781015460ff16801561106d5750428160050154105b6110ad5760405162461bcd60e51b815260206004820152601160248201527010d85b9b9bdd081d5b9b1bd8dac81e595d607a1b60448201526064016109ed565b6110b96000808561276e565b505050565b6008546001600160a01b031633146110e85760405162461bcd60e51b81526004016109ed90613875565b600081116111475760405162461bcd60e51b815260206004820152602660248201527f4455524154494f4e5f464143544f525f4f5645524455452063616e6e6f74206260448201526565207a65726f60d01b60648201526084016109ed565b60118190556040518181527f18b6d179114082d7eda9837e15a39eb30032d5f3df00487a67541398f48fabfe90602001610a93565b6008546001600160a01b031633146111a65760405162461bcd60e51b81526004016109ed90613875565b6111ae612dd3565b6111b6612e23565b6040517f7805862f689e2f13df9f062ff482ad3ad112aca9e0847911ed832e158c525b3390600090a1565b6008546001600160a01b0316331461120b5760405162461bcd60e51b81526004016109ed90613875565b6001600160a01b0382166112315760405162461bcd60e51b81526004016109ed906139ca565b6001600160a01b038216600081815260046020526040808220805460ff191685151590811790915590519092917f3d7902bc9a6665bd7caf4240b834bb805d3cd68256889e9f8d2e40a10be41d4491a35050565b6040516370a0823160e01b81523060048201526000907f00000000000000000000000000000000000000000000000000000000000000006001600160a01b0316906370a0823190602401602060405180830381865afa1580156112ec573d6000803e3d6000fd5b505050506040513d601f19601f82011682018060405250810190611310919061391f565b905090565b6008546001600160a01b0316331461133f5760405162461bcd60e51b81526004016109ed90613875565b6001600160a01b0382166113655760405162461bcd60e51b81526004016109ed906139ca565b6001600160a01b038216600081815260066020526040808220805460ff191685151590811790915590519092917f3d7902bc9a6665bd7caf4240b834bb805d3cd68256889e9f8d2e40a10be41d4491a35050565b6113c16123a0565b6509184e72a000811161143c5760405162461bcd60e51b815260206004820152603860248201527f576974686472617720616d6f756e74206d75737420626520677265617465722060448201527f7468616e204d494e5f57495448445241575f414d4f554e54000000000000000060648201526084016109ed565b610fc56000826123ed565b600b54604051631175a1dd60e01b8152600481019190915230602482015260009081906001600160a01b037f00000000000000000000000000000000000000000000000000000000000000001690631175a1dd90604401602060405180830381865afa1580156114bb573d6000803e3d6000fd5b505050506040513d601f19601f82011682018060405250810190610f66919061391f565b6000546001600160a01b031633146115095760405162461bcd60e51b81526004016109ed906138ea565b6001600160a01b03811661152f5760405162461bcd60e51b81526004016109ed906139ca565b600880546001600160a01b0319166001600160a01b0383169081179091556040519081527f71614071b88dee5e0b2ae578a9dd7b2ebbe9ae832ba419dc0242cd065a290b6c90602001610a93565b6008546001600160a01b031633146115a75760405162461bcd60e51b81526004016109ed90613875565b6107d08111156115c95760405162461bcd60e51b81526004016109ed906139fa565b60138190556040518181527fefeafcf03e479a9566d7ef321b4816de0ba19cfa3cd0fae2f8c5f4a0afb342c490602001610a93565b6000546001600160a01b031633146116285760405162461bcd60e51b81526004016109ed906138ea565b600080546040516001600160a01b03909116907f8be0079c531659141344cd1fd0a4f28419497f9722a3daafe3b4186f6b6457e0908390a3600080546001600160a01b0319169055565b600c546040516370a0823160e01b8152306004820152600091906001600160a01b037f000000000000000000000000000000000000000000000000000000000000000016906370a0823190602401602060405180830381865afa1580156116dd573d6000803e3d6000fd5b505050506040513d601f19601f82011682018060405250810190611701919061391f565b611310919061396b565b600060075460001461175057600754611722611447565b61172a611672565b611734919061396b565b61174690670de0b6b3a764000061397e565b6113109190613995565b50670de0b6b3a764000090565b6008546001600160a01b031633146117875760405162461bcd60e51b81526004016109ed90613875565b61178f6123a0565b611797612e78565b6040517f6985a02210a168e66602d3235cb6db0e70f92b3ba4d376a33c0f3d9434bff62590600090a1565b336000908152600360205260409020546117db90610f6c565b565b6008546001600160a01b031633146118075760405162461bcd60e51b81526004016109ed90613875565b652d79883d20008111156118795760405162461bcd60e51b815260206004820152603360248201527f424f4f53545f5745494748542063616e6e6f74206265206d6f7265207468616e604482015272081093d3d4d517d5d15251d21517d312535255606a1b60648201526084016109ed565b60128190556040518181527f7666dfff8c3377938e522b4eed3aff079973a976f95969db60a406d49f40da4e90602001610a93565b6001600160a01b03811660009081526003602052604081208054158015906118da5750600781015460ff165b80156118ff57506001600160a01b03831660009081526006602052604090205460ff16155b801561191b575042600e548260050154611919919061396b565b105b156119f857600061192a611447565b611932611672565b61193c919061396b565b60068301546007548454929350600092611956908561397e565b6119609190613995565b61196a91906139b7565b9050600083600801548261197e91906139b7565b90506000600e5485600501544261199591906139b7565b61199f91906139b7565b90506011548111156119b057506011545b6000601154601754836119c3919061397e565b6119cd9190613995565b9050600064e8d4a510006119e1838661397e565b6119eb9190613995565b9998505050505050505050565b50600092915050565b6008546001600160a01b03163314611a2b5760405162461bcd60e51b81526004016109ed90613875565b60008111611a7b5760405162461bcd60e51b815260206004820152601e60248201527f4455524154494f4e5f464143544f522063616e6e6f74206265207a65726f000060448201526064016109ed565b60108190556040518181527f9478eb023aac0a7d58a4e935377056bf27cf5b72a2300725f831817a8f62fbde90602001610a93565b6000546001600160a01b03163314611ada5760405162461bcd60e51b81526004016109ed906138ea565b6001600160a01b038116611b005760405162461bcd60e51b81526004016109ed906139ca565b600a80546001600160a01b0319166001600160a01b0383169081179091556040519081527fda12ee837e6978172aaf54b16145ffe08414fd8710092ef033c71b8eb6ec189a90602001610a93565b6008546001600160a01b03163314611b785760405162461bcd60e51b81526004016109ed90613875565b6101f4811115611b9a5760405162461bcd60e51b81526004016109ed9061389a565b60158190556040518181527fd5fe46099fa396290a7f57e36c3c3c8774e2562c18ed5d1dcc0fa75071e03f1d90602001610a93565b6008546001600160a01b03163314611bf95760405162461bcd60e51b81526004016109ed90613875565b6107d0811115611c1b5760405162461bcd60e51b81526004016109ed906139fa565b60148190556040518181527fc5d25457b67b87678c987375af13f6e50beb3ad7bfd009da26766ae986eaa20d90602001610a93565b6008546001600160a01b03163314611c7a5760405162461bcd60e51b81526004016109ed90613875565b6001600160a01b038216611ca05760405162461bcd60e51b81526004016109ed906139ca565b6001600160a01b038216600081815260056020526040808220805460ff191685151590811790915590519092917f3d7902bc9a6665bd7caf4240b834bb805d3cd68256889e9f8d2e40a10be41d4491a35050565b6008546001600160a01b03163314611d1e5760405162461bcd60e51b81526004016109ed90613875565b60008111611d7a5760405162461bcd60e51b815260206004820152602360248201527f554e4c4f434b5f465245455f4455524154494f4e2063616e6e6f74206265207a60448201526265726f60e81b60648201526084016109ed565b600e8190556040518181527ff84bf2b901cfc02956d4e69556d7448cef4ea13587e7714dba7c6d697091e7ad90602001610a93565b6001600160a01b0381166000908152600360205260408120805415801590611ddc5750600781015460ff16155b8015611e0157506001600160a01b03831660009081526004602052604090205460ff16155b156119f8576000611e10611447565b611e18611672565b611e22919061396b565b90506000600754828460000154611e39919061397e565b611e439190613995565b90506000836002015482611e5791906139b7565b601354909150863b15611e6957506014545b6000612710611e78838561397e565b611e829190613995565b98975050505050505050565b6008546001600160a01b03163314611eb85760405162461bcd60e51b81526004016109ed90613875565b6001600160a01b038116611ede5760405162461bcd60e51b81526004016109ed906139ca565b600280546001600160a01b0319166001600160a01b0383169081179091556040519081527f5352e27b0414343d9438a1c6e9d04c65c7cb4d91f44920afee588f91717893f190602001610a93565b6008546001600160a01b03163314611f565760405162461bcd60e51b81526004016109ed90613875565b7f00000000000000000000000000000000000000000000000000000000000000006001600160a01b0316816001600160a01b031603611fe55760405162461bcd60e51b815260206004820152602560248201527f546f6b656e2063616e6e6f742062652073616d65206173206465706f736974206044820152643a37b5b2b760d91b60648201526084016109ed565b6040516370a0823160e01b81523060048201526000906001600160a01b038316906370a0823190602401602060405180830381865afa15801561202c573d6000803e3d6000fd5b505050506040513d601f19601f82011682018060405250810190612050919061391f565b90506120666001600160a01b0383163383612ebb565b5050565b6008546001600160a01b031633146120945760405162461bcd60e51b81526004016109ed90613875565b6001600160a01b0381166120ba5760405162461bcd60e51b81526004016109ed906139ca565b600180546001600160a01b0319166001600160a01b0383169081179091556040519081527f8f49a182922022d9119a1a6aeeca151b4a5665e86bd61c1ff32e152d459558b290602001610a93565b6121106123a0565b600082118061211f5750600081115b6121605760405162461bcd60e51b8152602060048201526012602482015271139bdd1a1a5b99c81d1bc819195c1bdcda5d60721b60448201526064016109ed565b61206682823361276e565b6000546001600160a01b031633146121955760405162461bcd60e51b81526004016109ed906138ea565b6001600160a01b0381166121bb5760405162461bcd60e51b81526004016109ed906139ca565b600980546001600160a01b0319166001600160a01b0383169081179091556040519081527fafa147634b29e2c7bd53ce194256b9f41cfb9ba3036f2b822fdd1d965beea08690602001610a93565b6000546001600160a01b031633146122335760405162461bcd60e51b81526004016109ed906138ea565b610fc581612eec565b6008546001600160a01b031633146122665760405162461bcd60e51b81526004016109ed90613875565b6305265c008111156122e05760405162461bcd60e51b815260206004820152603d60248201527f4d41585f4c4f434b5f4455524154494f4e2063616e6e6f74206265206d6f726560448201527f207468616e204d41585f4c4f434b5f4455524154494f4e5f4c494d495400000060648201526084016109ed565b600f8190556040518181527fcab2f3455b51b6ca5377e84fccd0f890b6f6ca36c02e18b6d36cb34f469fe4fe90602001610a93565b6040516001600160a01b03848116602483015283811660448301526064820183905261237c9186918216906323b872dd906084015b604051602081830303815290604052915060e01b6020820180516001600160e01b038381831617835250505050612fac565b50505050565b600061238d826118ae565b61239683611daf565b610f66919061396b565b600054600160a01b900460ff16156117db5760405162461bcd60e51b815260206004820152601060248201526f14185d5cd8589b194e881c185d5cd95960821b60448201526064016109ed565b336000908152600360205260409020805483111561244d5760405162461bcd60e51b815260206004820152601f60248201527f576974686472617720616d6f756e7420657863656564732062616c616e63650060448201526064016109ed565b428160050154106124905760405162461bcd60e51b815260206004820152600d60248201526c5374696c6c20696e206c6f636b60981b60448201526064016109ed565b6002546001600160a01b0316156124ff576002546040516351cff8d960e01b81523360048201526001600160a01b03909116906351cff8d990602401600060405180830381600087803b1580156124e657600080fd5b505af11580156124fa573d6000803e3d6000fd5b505050505b8054839060009061251c6b204fce5e3e250261100000008461397e565b6125269190613995565b905061253061300f565b6125393361318d565b841580156125475750600084115b15612588576000612556611672565b90508060075486612567919061397e565b6125719190613995565b845490935083111561258257835492505b506125af565b82546b204fce5e3e25026110000000906125a2908361397e565b6125ac9190613995565b91505b6000600754836125bd611672565b6125c7919061397e565b6125d19190613995565b9050828460000160008282546125e791906139b7565b92505081905550826007600082825461260091906139b7565b90915550503360009081526005602052604090205460ff1615801561263557506018548460010154612632919061396b565b42105b156126ae57601554333b1561264957506016545b6000612710612658838561397e565b6126629190613995565b60095490915061269f906001600160a01b037f00000000000000000000000000000000000000000000000000000000000000008116911683612ebb565b6126a981846139b7565b925050505b6126e26001600160a01b037f0000000000000000000000000000000000000000000000000000000000000000163383612ebb565b835415612714576007546126f4611672565b8554612700919061397e565b61270a9190613995565b600285015561271c565b600060028501555b42600385015561272b33613588565b604080518281526020810185905233917ff279e6a1f5e320cca91135676d9cb6e44ca8a08c0b88342bcdb1144f6511b568910160405180910390a2505050505050565b6001600160a01b0381166000908152600360205260409020805415806127945750600084115b1561280d576509184e72a000841161280d5760405162461bcd60e51b815260206004820152603660248201527f4465706f73697420616d6f756e74206d757374206265206772656174657220746044820152751a185b8813525397d1115413d4d25517d05353d5539560521b60648201526084016109ed565b60058101548390421161286b57841561284a574260048301556008820154600d805460009061283d9084906139b7565b9091555050600060088301555b8160040154826005015461285e91906139b7565b612868908261396b565b90505b83158061287b575062093a808110155b6128c75760405162461bcd60e51b815260206004820152601f60248201527f4d696e696d756d206c6f636b20706572696f64206973206f6e65207765656b0060448201526064016109ed565b600f548111156129195760405162461bcd60e51b815260206004820152601c60248201527f4d6178696d756d206c6f636b20706572696f642065786365656465640000000060448201526064016109ed565b6002546001600160a01b03161561299857600254604051630efe6a8b60e01b81526001600160a01b038581166004830152602482018890526044820187905290911690630efe6a8b90606401600060405180830381600087803b15801561297f57600080fd5b505af1158015612993573d6000803e3d6000fd5b505050505b6129a061300f565b6007546000036129f35760006129b4611285565b6009549091506129f1906001600160a01b037f00000000000000000000000000000000000000000000000000000000000000008116911683612ebb565b505b6129fc8361318d565b8315612a55574282600501541015612a2b574260048301819055612a2190859061396b565b6005830155612a45565b83826005016000828254612a3f919061396b565b90915550505b60078201805460ff191660011790555b600080600080612a63611672565b90508815612aa457612aa06001600160a01b037f00000000000000000000000000000000000000000000000000000000000000001688308c612315565b8892505b855415801590612ab85750600786015460ff165b15612b31576007548654612acc908361397e565b612ad69190613995565b9150612ae2828461396b565b9250856000015460076000828254612afa91906139b7565b9091555050600086556004860154429003612b315760088601829055600d8054839190600090612b2b90849061396b565b90915550505b60075415612b6157612b4382826139b7565b600754612b50908561397e565b612b5a9190613995565b9350612b65565b8293505b856004015486600501541115612ce657600060105460125488600401548960050154612b9191906139b7565b612b9b919061397e565b612ba59190613995565b9050600064e8d4a51000612bb9878461397e565b612bc39190613995565b9050612bcf818761396b565b955085886000016000828254612be5919061396b565b909155506000905064e8d4a51000612bfd878561397e565b612c079190613995565b905080896006016000828254612c1d919061396b565b9250508190555080600c6000828254612c36919061396b565b925050819055508b896008016000828254612c51919061396b565b925050819055508b600d6000828254612c6a919061396b565b92505081905550896001600160a01b03167f2b943276e5d747f6f7dd46d3b880d8874cb8d6b9b88ca1903990a2738e7dc7a18a600801548b600001548c600401548d60050154612cba91906139b7565b6040805193845260208401929092529082015242606082015260800160405180910390a2505050612d00565b83866000016000828254612cfa919061396b565b90915550505b6000891180612d0f5750600088115b15612d1b574260018701555b8360076000828254612d2d919061396b565b90915550506006860154600754612d42611672565b8854612d4e919061397e565b612d589190613995565b612d6291906139b7565b6002870155426003870155612d7687613588565b604080518a8152602081018690529081018990524260608201526001600160a01b038816907f7162984403f6c73c8639375d45a9187dfd04602231bd8e587c415718b5f7e5f99060800160405180910390a2505050505050505050565b600054600160a01b900460ff166117db5760405162461bcd60e51b815260206004820152601460248201527314185d5cd8589b194e881b9bdd081c185d5cd95960621b60448201526064016109ed565b612e2b612dd3565b6000805460ff60a01b191690557f5db9ee0a495bf2e6ff9c91a7834c1ba4fdd244a5e8aa4e537bd38aeae4b073aa335b6040516001600160a01b03909116815260200160405180910390a1565b612e806123a0565b6000805460ff60a01b1916600160a01b1790557f62e78cea01bee320cd4e420270b5ea74000d11b0c9f74754ebdbfc544b05a258612e5b3390565b6040516001600160a01b038381166024830152604482018390526110b991859182169063a9059cbb9060640161234a565b6001600160a01b038116612f515760405162461bcd60e51b815260206004820152602660248201527f4f776e61626c653a206e6577206f776e657220697320746865207a65726f206160448201526564647265737360d01b60648201526084016109ed565b600080546040516001600160a01b03808516939216917f8be0079c531659141344cd1fd0a4f28419497f9722a3daafe3b4186f6b6457e091a3600080546001600160a01b0319166001600160a01b0392909216919091179055565b6000612fc16001600160a01b03841683613654565b90508051600014158015612fe6575080806020019051810190612fe49190613938565b155b156110b957604051635274afe760e01b81526001600160a01b03841660048201526024016109ed565b600b54604051631175a1dd60e01b815260048101919091523060248201526000907f00000000000000000000000000000000000000000000000000000000000000006001600160a01b031690631175a1dd90604401602060405180830381865afa158015613081573d6000803e3d6000fd5b505050506040513d601f19601f820116820180604052508101906130a5919061391f565b90508015610fc55760006130b7611285565b600b54604051630441a3e760e41b81526004810191909152600060248201529091507f00000000000000000000000000000000000000000000000000000000000000006001600160a01b03169063441a3e7090604401600060405180830381600087803b15801561312757600080fd5b505af115801561313b573d6000803e3d6000fd5b505050506000613149611285565b9050337fc9695243a805adb74c91f28311176c65b417e842d5699893cef56d18bfa48cba61317784846139b7565b60405190815260200160405180910390a2505050565b6001600160a01b038116600090815260036020526040902080541561206657600781015460ff1615613430576000816006015460075483600001546131d0611672565b6131da919061397e565b6131e49190613995565b6131ee91906139b7565b90508160060154600c600082825461320691906139b7565b9091555050600060068301819055825460078054919290916132299084906139b7565b90915550506001600160a01b03831660009081526006602052604090205460ff16158015613267575042600e548360050154613265919061396b565b105b1561333957600082600801548261327e91906139b7565b90506000600e5484600501544261329591906139b7565b61329f91906139b7565b90506011548111156132b057506011545b6000601154601754836132c3919061397e565b6132cd9190613995565b9050600064e8d4a510006132e1838661397e565b6132eb9190613995565b600954909150613328906001600160a01b037f00000000000000000000000000000000000000000000000000000000000000008116911683612ebb565b61333281866139b7565b9450505050505b6000613343611672565b905060006007546000146133795761335b83836139b7565b600754613368908561397e565b6133729190613995565b905061337c565b50815b8084556007805482919060009061339490849061396b565b909155505060058401544211156134295760078401805460ff19169055600060048501819055600585018190556008850154600d8054919290916133d99084906139b7565b909155505060006008850155604080518481524260208201526001600160a01b038716917ff7870c5b224cbc19873599e46ccfc7103934650509b1af0c3ce90138377c2004910160405180910390a25b5050505050565b6001600160a01b03821660009081526004602052604090205460ff1661206657600060075461345d611672565b8354613469919061397e565b6134739190613995565b905081600001546007600082825461348b91906139b7565b9091555050600080835560028301546134a490836139b7565b601354909150843b156134b657506014545b60006127106134c5838561397e565b6134cf9190613995565b9050801561351e57600954613511906001600160a01b037f00000000000000000000000000000000000000000000000000000000000000008116911683612ebb565b61351b81856139b7565b93505b6000613528611672565b9050600060075460001461355e5761354086836139b7565b60075461354d908861397e565b6135579190613995565b9050613561565b50845b8087556007805482919060009061357990849061396b565b90915550505050505050505050565b6001546001600160a01b031615610fc5576001600160a01b0381166000908152600360205260408120600481015460058201549192916135c891906139b7565b6001546008840154600d5460105460405163e874fdaf60e01b81526001600160a01b03898116600483015260248201949094526044810186905260648101929092526084820152929350169063e874fdaf9060a401600060405180830381600087803b15801561363757600080fd5b505af115801561364b573d6000803e3d6000fd5b50505050505050565b60606136658383600061366c613685565b9392505050565b604051630a12f52160e11b815260040160405180910390fd5b6060824710156136aa5760405163cd78605960e01b81523060048201526024016109ed565b600080866001600160a01b031685876040516136c69190613a50565b60006040518083038185875af1925050503d8060008114613703576040519150601f19603f3d011682016040523d82523d6000602084013e613708565b606091505b509150915061371987838387613726565b925050505b949350505050565b6060831561377457825160000361376d57846001600160a01b03163b60000361376d57604051639996b31560e01b81526001600160a01b03861660048201526024016109ed565b508161371e565b61371e83838151156137895781518083602001fd5b61366c8163ffffffff16565b6000602082840312156137a757600080fd5b5035919050565b6001600160a01b0381168114610fc557600080fd5b6000602082840312156137d557600080fd5b8135613665816137ae565b600080604083850312156137f357600080fd5b82356137fe816137ae565b946020939093013593505050565b8015158114610fc557600080fd5b6000806040838503121561382d57600080fd5b8235613838816137ae565b915060208301356138488161380c565b809150509250929050565b6000806040838503121561386657600080fd5b50508035926020909101359150565b6020808252600b908201526a61646d696e3a207775743f60a81b604082015260600190565b60208082526030908201527f77697468647261774665652063616e6e6f74206265206d6f7265207468616e2060408201526f4d41585f57495448445241575f46454560801b606082015260800190565b6020808252818101527f4f776e61626c653a2063616c6c6572206973206e6f7420746865206f776e6572604082015260600190565b60006020828403121561393157600080fd5b5051919050565b60006020828403121561394a57600080fd5b81516136658161380c565b634e487b7160e01b600052601160045260246000fd5b80820180821115610f6657610f66613955565b8082028115828204841417610f6657610f66613955565b6000826139b257634e487b7160e01b600052601260045260246000fd5b500490565b81810381811115610f6657610f66613955565b60208082526016908201527543616e6e6f74206265207a65726f206164647265737360501b604082015260600190565b60208082526036908201527f706572666f726d616e63654665652063616e6e6f74206265206d6f7265207468604082015275616e204d41585f504552464f524d414e43455f46454560501b606082015260800190565b6000825160005b81811015613a715760208186018101518583015201613a57565b50600092019182525091905056fea26469706673582212208461e9a50a20388fb1b6726cceeeed1372c8e7daf8ef69db8a9e38e7a10de5e664736f6c63430008140033","opcodes":"PUSH1 0xC0 PUSH1 0x40 MSTORE PUSH3 0x93A80 PUSH1 0xE SSTORE PUSH4 0x1E13380 PUSH1 0xF SSTORE PUSH4 0x1E13380 PUSH1 0x10 SSTORE PUSH3 0xED4E00 PUSH1 0x11 SSTORE PUSH5 0xE8D4A51000 PUSH1 0x12 SSTORE PUSH1 0xC8 PUSH1 0x13 SSTORE PUSH1 0xC8 PUSH1 0x14 SSTORE PUSH1 0xA PUSH1 0x15 SSTORE PUSH1 0xA PUSH1 0x16 SSTORE PUSH5 0xE8D4A51000 PUSH1 0x17 SSTORE PUSH3 0x3F480 PUSH1 0x18 SSTORE CALLVALUE DUP1 ISZERO PUSH3 0x5C JUMPI PUSH1 0x0 DUP1 REVERT JUMPDEST POP PUSH1 0x40 MLOAD PUSH3 0x3CFD CODESIZE SUB DUP1 PUSH3 0x3CFD DUP4 CODECOPY DUP2 ADD PUSH1 0x40 DUP2 SWAP1 MSTORE PUSH3 0x7F SWAP2 PUSH3 0x138 JUMP JUMPDEST PUSH1 0x0 DUP1 SLOAD PUSH1 0x1 PUSH1 0x1 PUSH1 0xA0 SHL SUB NOT AND CALLER SWAP1 DUP2 OR DUP3 SSTORE PUSH1 0x40 MLOAD SWAP1 SWAP2 DUP3 SWAP2 PUSH32 0x8BE0079C531659141344CD1FD0A4F28419497F9722A3DAAFE3B4186F6B6457E0 SWAP1 DUP3 SWAP1 LOG3 POP PUSH1 0x0 DUP1 SLOAD PUSH1 0xFF PUSH1 0xA0 SHL NOT AND SWAP1 SSTORE PUSH1 0x1 PUSH1 0x1 PUSH1 0xA0 SHL SUB SWAP6 DUP7 AND PUSH1 0x80 MSTORE SWAP4 DUP6 AND PUSH1 0xA0 MSTORE PUSH1 0x8 DUP1 SLOAD SWAP4 DUP7 AND PUSH1 0x1 PUSH1 0x1 PUSH1 0xA0 SHL SUB NOT SWAP5 DUP6 AND OR SWAP1 SSTORE PUSH1 0x9 DUP1 SLOAD SWAP3 DUP7 AND SWAP3 DUP5 AND SWAP3 SWAP1 SWAP3 OR SWAP1 SWAP2 SSTORE PUSH1 0xA DUP1 SLOAD SWAP2 SWAP1 SWAP5 AND SWAP2 AND OR SWAP1 SWAP2 SSTORE PUSH1 0xB SSTORE PUSH3 0x1C0 JUMP JUMPDEST PUSH1 0x1 PUSH1 0x1 PUSH1 0xA0 SHL SUB DUP2 AND DUP2 EQ PUSH3 0x135 JUMPI PUSH1 0x0 DUP1 REVERT JUMPDEST POP JUMP JUMPDEST PUSH1 0x0 DUP1 PUSH1 0x0 DUP1 PUSH1 0x0 DUP1 PUSH1 0xC0 DUP8 DUP10 SUB SLT ISZERO PUSH3 0x152 JUMPI PUSH1 0x0 DUP1 REVERT JUMPDEST DUP7 MLOAD PUSH3 0x15F DUP2 PUSH3 0x11F JUMP JUMPDEST PUSH1 0x20 DUP9 ADD MLOAD SWAP1 SWAP7 POP PUSH3 0x172 DUP2 PUSH3 0x11F JUMP JUMPDEST PUSH1 0x40 DUP9 ADD MLOAD SWAP1 SWAP6 POP PUSH3 0x185 DUP2 PUSH3 0x11F JUMP JUMPDEST PUSH1 0x60 DUP9 ADD MLOAD SWAP1 SWAP5 POP PUSH3 0x198 DUP2 PUSH3 0x11F JUMP JUMPDEST PUSH1 0x80 DUP9 ADD MLOAD SWAP1 SWAP4 POP PUSH3 0x1AB DUP2 PUSH3 0x11F JUMP JUMPDEST DUP1 SWAP3 POP POP PUSH1 0xA0 DUP8 ADD MLOAD SWAP1 POP SWAP3 SWAP6 POP SWAP3 SWAP6 POP SWAP3 SWAP6 JUMP JUMPDEST PUSH1 0x80 MLOAD PUSH1 0xA0 MLOAD PUSH2 0x3AB5 PUSH3 0x248 PUSH1 0x0 CODECOPY PUSH1 0x0 DUP2 DUP2 PUSH2 0x88C ADD MSTORE DUP2 DUP2 PUSH2 0xC2A ADD MSTORE DUP2 DUP2 PUSH2 0xCC8 ADD MSTORE DUP2 DUP2 PUSH2 0x1474 ADD MSTORE DUP2 DUP2 PUSH2 0x3032 ADD MSTORE PUSH2 0x30DB ADD MSTORE PUSH1 0x0 DUP2 DUP2 PUSH2 0x994 ADD MSTORE DUP2 DUP2 PUSH2 0x129D ADD MSTORE DUP2 DUP2 PUSH2 0x1696 ADD MSTORE DUP2 DUP2 PUSH2 0x1F58 ADD MSTORE DUP2 DUP2 PUSH2 0x2676 ADD MSTORE DUP2 DUP2 PUSH2 0x26BB ADD MSTORE DUP2 DUP2 PUSH2 0x29C8 ADD MSTORE DUP2 DUP2 PUSH2 0x2A78 ADD MSTORE DUP2 DUP2 PUSH2 0x32FF ADD MSTORE PUSH2 0x34E8 ADD MSTORE PUSH2 0x3AB5 PUSH1 0x0 RETURN INVALID PUSH1 0x80 PUSH1 0x40 MSTORE CALLVALUE DUP1 ISZERO PUSH2 0x10 JUMPI PUSH1 0x0 DUP1 REVERT JUMPDEST POP PUSH1 0x4 CALLDATASIZE LT PUSH2 0x454 JUMPI PUSH1 0x0 CALLDATALOAD PUSH1 0xE0 SHR DUP1 PUSH4 0x87788782 GT PUSH2 0x241 JUMPI DUP1 PUSH4 0xCB528B52 GT PUSH2 0x13B JUMPI DUP1 PUSH4 0xE464C623 GT PUSH2 0xC3 JUMPI DUP1 PUSH4 0xF2FDE38B GT PUSH2 0x87 JUMPI DUP1 PUSH4 0xF2FDE38B EQ PUSH2 0x956 JUMPI DUP1 PUSH4 0xF786B958 EQ PUSH2 0x969 JUMPI DUP1 PUSH4 0xF851A440 EQ PUSH2 0x97C JUMPI DUP1 PUSH4 0xFC0C546A EQ PUSH2 0x98F JUMPI DUP1 PUSH4 0xFD253B64 EQ PUSH2 0x9B6 JUMPI PUSH1 0x0 DUP1 REVERT JUMPDEST DUP1 PUSH4 0xE464C623 EQ PUSH2 0x91F JUMPI DUP1 PUSH4 0xE4B37EF5 EQ PUSH2 0x928 JUMPI DUP1 PUSH4 0xE73008BC EQ PUSH2 0x931 JUMPI DUP1 PUSH4 0xE941FA78 EQ PUSH2 0x93A JUMPI DUP1 PUSH4 0xF0F44260 EQ PUSH2 0x943 JUMPI PUSH1 0x0 DUP1 REVERT JUMPDEST DUP1 PUSH4 0xDEF68A9C GT PUSH2 0x10A JUMPI DUP1 PUSH4 0xDEF68A9C EQ PUSH2 0x8CA JUMPI DUP1 PUSH4 0xDEF7869D EQ PUSH2 0x8DD JUMPI DUP1 PUSH4 0xDF10B4E6 EQ PUSH2 0x8F0 JUMPI DUP1 PUSH4 0xDFCEDEEE EQ PUSH2 0x8F9 JUMPI DUP1 PUSH4 0xE2BBB158 EQ PUSH2 0x90C JUMPI PUSH1 0x0 DUP1 REVERT JUMPDEST DUP1 PUSH4 0xCB528B52 EQ PUSH2 0x887 JUMPI DUP1 PUSH4 0xCCD34CD5 EQ PUSH2 0x7B6 JUMPI DUP1 PUSH4 0xD4B0DE2F EQ PUSH2 0x8AE JUMPI DUP1 PUSH4 0xD826ED06 EQ PUSH2 0x8B7 JUMPI PUSH1 0x0 DUP1 REVERT JUMPDEST DUP1 PUSH4 0xACAF88CD GT PUSH2 0x1C9 JUMPI DUP1 PUSH4 0xBC75F4B8 GT PUSH2 0x18D JUMPI DUP1 PUSH4 0xBC75F4B8 EQ PUSH2 0x83C JUMPI DUP1 PUSH4 0xBDCA9165 EQ PUSH2 0x845 JUMPI DUP1 PUSH4 0xBEBA0FA0 EQ PUSH2 0x84E JUMPI DUP1 PUSH4 0xC54D349C EQ PUSH2 0x861 JUMPI DUP1 PUSH4 0xC6ED51BE EQ PUSH2 0x874 JUMPI PUSH1 0x0 DUP1 REVERT JUMPDEST DUP1 PUSH4 0xACAF88CD EQ PUSH2 0x7FA JUMPI DUP1 PUSH4 0xB3AB15FB EQ PUSH2 0x803 JUMPI DUP1 PUSH4 0xB6857844 EQ PUSH2 0x561 JUMPI DUP1 PUSH4 0xB6AC642A EQ PUSH2 0x816 JUMPI DUP1 PUSH4 0xBB9F408D EQ PUSH2 0x829 JUMPI PUSH1 0x0 DUP1 REVERT JUMPDEST DUP1 PUSH4 0x948A03F2 GT PUSH2 0x210 JUMPI DUP1 PUSH4 0x948A03F2 EQ PUSH2 0x7B6 JUMPI DUP1 PUSH4 0x95DC14E1 EQ PUSH2 0x7C2 JUMPI DUP1 PUSH4 0xA3639B39 EQ PUSH2 0x7D5 JUMPI DUP1 PUSH4 0xA5834E06 EQ PUSH2 0x7E8 JUMPI DUP1 PUSH4 0xAAADA5DA EQ PUSH2 0x7F1 JUMPI PUSH1 0x0 DUP1 REVERT JUMPDEST DUP1 PUSH4 0x87788782 EQ PUSH2 0x766 JUMPI DUP1 PUSH4 0x87D4BDA9 EQ PUSH2 0x76F JUMPI DUP1 PUSH4 0x8DA5CB5B EQ PUSH2 0x792 JUMPI DUP1 PUSH4 0x93C99E6A EQ PUSH2 0x7A3 JUMPI PUSH1 0x0 DUP1 REVERT JUMPDEST DUP1 PUSH4 0x48A0D754 GT PUSH2 0x352 JUMPI DUP1 PUSH4 0x6D4710B9 GT PUSH2 0x2DA JUMPI DUP1 PUSH4 0x731FF24A GT PUSH2 0x29E JUMPI DUP1 PUSH4 0x731FF24A EQ PUSH2 0x73B JUMPI DUP1 PUSH4 0x77C7B8FC EQ PUSH2 0x74E JUMPI DUP1 PUSH4 0x78B4330F EQ PUSH2 0x594 JUMPI DUP1 PUSH4 0x8456CB59 EQ PUSH2 0x756 JUMPI DUP1 PUSH4 0x853828B6 EQ PUSH2 0x75E JUMPI PUSH1 0x0 DUP1 REVERT JUMPDEST DUP1 PUSH4 0x6D4710B9 EQ PUSH2 0x6FC JUMPI DUP1 PUSH4 0x704B6C02 EQ PUSH2 0x705 JUMPI DUP1 PUSH4 0x70897B23 EQ PUSH2 0x718 JUMPI DUP1 PUSH4 0x715018A6 EQ PUSH2 0x72B JUMPI DUP1 PUSH4 0x722713F7 EQ PUSH2 0x733 JUMPI PUSH1 0x0 DUP1 REVERT JUMPDEST DUP1 PUSH4 0x570CA735 GT PUSH2 0x321 JUMPI DUP1 PUSH4 0x570CA735 EQ PUSH2 0x699 JUMPI DUP1 PUSH4 0x58EBCEB6 EQ PUSH2 0x6AC JUMPI DUP1 PUSH4 0x5C975ABB EQ PUSH2 0x6B4 JUMPI DUP1 PUSH4 0x61D027B3 EQ PUSH2 0x6C6 JUMPI DUP1 PUSH4 0x668679BA EQ PUSH2 0x6D9 JUMPI PUSH1 0x0 DUP1 REVERT JUMPDEST DUP1 PUSH4 0x48A0D754 EQ PUSH2 0x662 JUMPI DUP1 PUSH4 0x4E4DE1E9 EQ PUSH2 0x66A JUMPI DUP1 PUSH4 0x4F1BFC9E EQ PUSH2 0x67D JUMPI DUP1 PUSH4 0x5521E9BF EQ PUSH2 0x686 JUMPI PUSH1 0x0 DUP1 REVERT JUMPDEST DUP1 PUSH4 0x2CFC5F01 GT PUSH2 0x3E0 JUMPI DUP1 PUSH4 0x3A98EF39 GT PUSH2 0x3A4 JUMPI DUP1 PUSH4 0x3A98EF39 EQ PUSH2 0x602 JUMPI DUP1 PUSH4 0x3EB78874 EQ PUSH2 0x60B JUMPI DUP1 PUSH4 0x3F4BA83A EQ PUSH2 0x614 JUMPI DUP1 PUSH4 0x3FEC4E32 EQ PUSH2 0x61C JUMPI DUP1 PUSH4 0x423B93ED EQ PUSH2 0x64F JUMPI PUSH1 0x0 DUP1 REVERT JUMPDEST DUP1 PUSH4 0x2CFC5F01 EQ PUSH2 0x594 JUMPI DUP1 PUSH4 0x2D19B982 EQ PUSH2 0x59E JUMPI DUP1 PUSH4 0x2E1A7D4D EQ PUSH2 0x5C9 JUMPI DUP1 PUSH4 0x2F6C493C EQ PUSH2 0x5DC JUMPI DUP1 PUSH4 0x35981921 EQ PUSH2 0x5EF JUMPI PUSH1 0x0 DUP1 REVERT JUMPDEST DUP1 PUSH4 0x1959A002 GT PUSH2 0x427 JUMPI DUP1 PUSH4 0x1959A002 EQ PUSH2 0x4A8 JUMPI DUP1 PUSH4 0x19AB453C EQ PUSH2 0x54E JUMPI DUP1 PUSH4 0x1EA30FEF EQ PUSH2 0x561 JUMPI DUP1 PUSH4 0x1EFAC1B8 EQ PUSH2 0x56E JUMPI DUP1 PUSH4 0x29A5CFD6 EQ PUSH2 0x581 JUMPI PUSH1 0x0 DUP1 REVERT JUMPDEST DUP1 PUSH4 0x1E81326 EQ PUSH2 0x459 JUMPI DUP1 PUSH4 0x5A9F274 EQ PUSH2 0x477 JUMPI DUP1 PUSH4 0xC59696B EQ PUSH2 0x480 JUMPI DUP1 PUSH4 0x14FF3039 EQ PUSH2 0x495 JUMPI JUMPDEST PUSH1 0x0 DUP1 REVERT JUMPDEST PUSH2 0x464 PUSH4 0x5265C00 DUP2 JUMP JUMPDEST PUSH1 0x40 MLOAD SWAP1 DUP2 MSTORE PUSH1 0x20 ADD JUMPDEST PUSH1 0x40 MLOAD DUP1 SWAP2 SUB SWAP1 RETURN JUMPDEST PUSH2 0x464 PUSH1 0xD SLOAD DUP2 JUMP JUMPDEST PUSH2 0x493 PUSH2 0x48E CALLDATASIZE PUSH1 0x4 PUSH2 0x3795 JUMP JUMPDEST PUSH2 0x9C3 JUMP JUMPDEST STOP JUMPDEST PUSH2 0x493 PUSH2 0x4A3 CALLDATASIZE PUSH1 0x4 PUSH2 0x3795 JUMP JUMPDEST PUSH2 0xA9E JUMP JUMPDEST PUSH2 0x508 PUSH2 0x4B6 CALLDATASIZE PUSH1 0x4 PUSH2 0x37C3 JUMP JUMPDEST PUSH1 0x3 PUSH1 0x20 DUP2 SWAP1 MSTORE PUSH1 0x0 SWAP2 DUP3 MSTORE PUSH1 0x40 SWAP1 SWAP2 KECCAK256 DUP1 SLOAD PUSH1 0x1 DUP3 ADD SLOAD PUSH1 0x2 DUP4 ADD SLOAD SWAP4 DUP4 ADD SLOAD PUSH1 0x4 DUP5 ADD SLOAD PUSH1 0x5 DUP6 ADD SLOAD PUSH1 0x6 DUP7 ADD SLOAD PUSH1 0x7 DUP8 ADD SLOAD PUSH1 0x8 SWAP1 SWAP8 ADD SLOAD SWAP6 SWAP8 SWAP5 SWAP7 SWAP5 SWAP6 SWAP4 SWAP5 SWAP3 SWAP4 SWAP2 SWAP3 SWAP1 SWAP2 PUSH1 0xFF SWAP1 SWAP2 AND SWAP1 DUP10 JUMP JUMPDEST PUSH1 0x40 DUP1 MLOAD SWAP10 DUP11 MSTORE PUSH1 0x20 DUP11 ADD SWAP9 SWAP1 SWAP9 MSTORE SWAP7 DUP9 ADD SWAP6 SWAP1 SWAP6 MSTORE PUSH1 0x60 DUP8 ADD SWAP4 SWAP1 SWAP4 MSTORE PUSH1 0x80 DUP7 ADD SWAP2 SWAP1 SWAP2 MSTORE PUSH1 0xA0 DUP6 ADD MSTORE PUSH1 0xC0 DUP5 ADD MSTORE ISZERO ISZERO PUSH1 0xE0 DUP4 ADD MSTORE PUSH2 0x100 DUP3 ADD MSTORE PUSH2 0x120 ADD PUSH2 0x46E JUMP JUMPDEST PUSH2 0x493 PUSH2 0x55C CALLDATASIZE PUSH1 0x4 PUSH2 0x37C3 JUMP JUMPDEST PUSH2 0xB1F JUMP JUMPDEST PUSH2 0x464 PUSH6 0x9184E72A000 DUP2 JUMP JUMPDEST PUSH2 0x493 PUSH2 0x57C CALLDATASIZE PUSH1 0x4 PUSH2 0x3795 JUMP JUMPDEST PUSH2 0xD59 JUMP JUMPDEST PUSH2 0x464 PUSH2 0x58F CALLDATASIZE PUSH1 0x4 PUSH2 0x37E0 JUMP JUMPDEST PUSH2 0xE31 JUMP JUMPDEST PUSH2 0x464 PUSH3 0x93A80 DUP2 JUMP JUMPDEST PUSH1 0x2 SLOAD PUSH2 0x5B1 SWAP1 PUSH1 0x1 PUSH1 0x1 PUSH1 0xA0 SHL SUB AND DUP2 JUMP JUMPDEST PUSH1 0x40 MLOAD PUSH1 0x1 PUSH1 0x1 PUSH1 0xA0 SHL SUB SWAP1 SWAP2 AND DUP2 MSTORE PUSH1 0x20 ADD PUSH2 0x46E JUMP JUMPDEST PUSH2 0x493 PUSH2 0x5D7 CALLDATASIZE PUSH1 0x4 PUSH2 0x3795 JUMP JUMPDEST PUSH2 0xF6C JUMP JUMPDEST PUSH2 0x493 PUSH2 0x5EA CALLDATASIZE PUSH1 0x4 PUSH2 0x37C3 JUMP JUMPDEST PUSH2 0xFC8 JUMP JUMPDEST PUSH2 0x493 PUSH2 0x5FD CALLDATASIZE PUSH1 0x4 PUSH2 0x3795 JUMP JUMPDEST PUSH2 0x10BE JUMP JUMPDEST PUSH2 0x464 PUSH1 0x7 SLOAD DUP2 JUMP JUMPDEST PUSH2 0x464 PUSH1 0x14 SLOAD DUP2 JUMP JUMPDEST PUSH2 0x493 PUSH2 0x117C JUMP JUMPDEST PUSH2 0x63F PUSH2 0x62A CALLDATASIZE PUSH1 0x4 PUSH2 0x37C3 JUMP JUMPDEST PUSH1 0x4 PUSH1 0x20 MSTORE PUSH1 0x0 SWAP1 DUP2 MSTORE PUSH1 0x40 SWAP1 KECCAK256 SLOAD PUSH1 0xFF AND DUP2 JUMP JUMPDEST PUSH1 0x40 MLOAD SWAP1 ISZERO ISZERO DUP2 MSTORE PUSH1 0x20 ADD PUSH2 0x46E JUMP JUMPDEST PUSH2 0x493 PUSH2 0x65D CALLDATASIZE PUSH1 0x4 PUSH2 0x381A JUMP JUMPDEST PUSH2 0x11E1 JUMP JUMPDEST PUSH2 0x464 PUSH2 0x1285 JUMP JUMPDEST PUSH2 0x493 PUSH2 0x678 CALLDATASIZE PUSH1 0x4 PUSH2 0x381A JUMP JUMPDEST PUSH2 0x1315 JUMP JUMPDEST PUSH2 0x464 PUSH1 0xF SLOAD DUP2 JUMP JUMPDEST PUSH2 0x493 PUSH2 0x694 CALLDATASIZE PUSH1 0x4 PUSH2 0x3795 JUMP JUMPDEST PUSH2 0x13B9 JUMP JUMPDEST PUSH1 0xA SLOAD PUSH2 0x5B1 SWAP1 PUSH1 0x1 PUSH1 0x1 PUSH1 0xA0 SHL SUB AND DUP2 JUMP JUMPDEST PUSH2 0x464 PUSH2 0x1447 JUMP JUMPDEST PUSH1 0x0 SLOAD PUSH1 0x1 PUSH1 0xA0 SHL SWAP1 DIV PUSH1 0xFF AND PUSH2 0x63F JUMP JUMPDEST PUSH1 0x9 SLOAD PUSH2 0x5B1 SWAP1 PUSH1 0x1 PUSH1 0x1 PUSH1 0xA0 SHL SUB AND DUP2 JUMP JUMPDEST PUSH2 0x63F PUSH2 0x6E7 CALLDATASIZE PUSH1 0x4 PUSH2 0x37C3 JUMP JUMPDEST PUSH1 0x6 PUSH1 0x20 MSTORE PUSH1 0x0 SWAP1 DUP2 MSTORE PUSH1 0x40 SWAP1 KECCAK256 SLOAD PUSH1 0xFF AND DUP2 JUMP JUMPDEST PUSH2 0x464 PUSH1 0xB SLOAD DUP2 JUMP JUMPDEST PUSH2 0x493 PUSH2 0x713 CALLDATASIZE PUSH1 0x4 PUSH2 0x37C3 JUMP JUMPDEST PUSH2 0x14DF JUMP JUMPDEST PUSH2 0x493 PUSH2 0x726 CALLDATASIZE PUSH1 0x4 PUSH2 0x3795 JUMP JUMPDEST PUSH2 0x157D JUMP JUMPDEST PUSH2 0x493 PUSH2 0x15FE JUMP JUMPDEST PUSH2 0x464 PUSH2 0x1672 JUMP JUMPDEST PUSH2 0x464 PUSH12 0x204FCE5E3E25026110000000 DUP2 JUMP JUMPDEST PUSH2 0x464 PUSH2 0x170B JUMP JUMPDEST PUSH2 0x493 PUSH2 0x175D JUMP JUMPDEST PUSH2 0x493 PUSH2 0x17C2 JUMP JUMPDEST PUSH2 0x464 PUSH1 0x13 SLOAD DUP2 JUMP JUMPDEST PUSH2 0x63F PUSH2 0x77D CALLDATASIZE PUSH1 0x4 PUSH2 0x37C3 JUMP JUMPDEST PUSH1 0x5 PUSH1 0x20 MSTORE PUSH1 0x0 SWAP1 DUP2 MSTORE PUSH1 0x40 SWAP1 KECCAK256 SLOAD PUSH1 0xFF AND DUP2 JUMP JUMPDEST PUSH1 0x0 SLOAD PUSH1 0x1 PUSH1 0x1 PUSH1 0xA0 SHL SUB AND PUSH2 0x5B1 JUMP JUMPDEST PUSH2 0x493 PUSH2 0x7B1 CALLDATASIZE PUSH1 0x4 PUSH2 0x3795 JUMP JUMPDEST PUSH2 0x17DD JUMP JUMPDEST PUSH2 0x464 PUSH5 0xE8D4A51000 DUP2 JUMP JUMPDEST PUSH2 0x464 PUSH2 0x7D0 CALLDATASIZE PUSH1 0x4 PUSH2 0x37C3 JUMP JUMPDEST PUSH2 0x18AE JUMP JUMPDEST PUSH2 0x493 PUSH2 0x7E3 CALLDATASIZE PUSH1 0x4 PUSH2 0x3795 JUMP JUMPDEST PUSH2 0x1A01 JUMP JUMPDEST PUSH2 0x464 PUSH1 0x17 SLOAD DUP2 JUMP JUMPDEST PUSH2 0x464 PUSH1 0xE SLOAD DUP2 JUMP JUMPDEST PUSH2 0x464 PUSH1 0x11 SLOAD DUP2 JUMP JUMPDEST PUSH2 0x493 PUSH2 0x811 CALLDATASIZE PUSH1 0x4 PUSH2 0x37C3 JUMP JUMPDEST PUSH2 0x1AB0 JUMP JUMPDEST PUSH2 0x493 PUSH2 0x824 CALLDATASIZE PUSH1 0x4 PUSH2 0x3795 JUMP JUMPDEST PUSH2 0x1B4E JUMP JUMPDEST PUSH2 0x493 PUSH2 0x837 CALLDATASIZE PUSH1 0x4 PUSH2 0x3795 JUMP JUMPDEST PUSH2 0x1BCF JUMP JUMPDEST PUSH2 0x464 PUSH1 0x12 SLOAD DUP2 JUMP JUMPDEST PUSH2 0x464 PUSH2 0x7D0 DUP2 JUMP JUMPDEST PUSH2 0x493 PUSH2 0x85C CALLDATASIZE PUSH1 0x4 PUSH2 0x381A JUMP JUMPDEST PUSH2 0x1C50 JUMP JUMPDEST PUSH2 0x493 PUSH2 0x86F CALLDATASIZE PUSH1 0x4 PUSH2 0x3795 JUMP JUMPDEST PUSH2 0x1CF4 JUMP JUMPDEST PUSH2 0x464 PUSH2 0x882 CALLDATASIZE PUSH1 0x4 PUSH2 0x37C3 JUMP JUMPDEST PUSH2 0x1DAF JUMP JUMPDEST PUSH2 0x5B1 PUSH32 0x0 DUP2 JUMP JUMPDEST PUSH2 0x464 PUSH2 0x1F4 DUP2 JUMP JUMPDEST PUSH2 0x493 PUSH2 0x8C5 CALLDATASIZE PUSH1 0x4 PUSH2 0x37C3 JUMP JUMPDEST PUSH2 0x1E8E JUMP JUMPDEST PUSH2 0x493 PUSH2 0x8D8 CALLDATASIZE PUSH1 0x4 PUSH2 0x37C3 JUMP JUMPDEST PUSH2 0x1F2C JUMP JUMPDEST PUSH2 0x493 PUSH2 0x8EB CALLDATASIZE PUSH1 0x4 PUSH2 0x37C3 JUMP JUMPDEST PUSH2 0x206A JUMP JUMPDEST PUSH2 0x464 PUSH1 0x18 SLOAD DUP2 JUMP JUMPDEST PUSH1 0x1 SLOAD PUSH2 0x5B1 SWAP1 PUSH1 0x1 PUSH1 0x1 PUSH1 0xA0 SHL SUB AND DUP2 JUMP JUMPDEST PUSH2 0x493 PUSH2 0x91A CALLDATASIZE PUSH1 0x4 PUSH2 0x3853 JUMP JUMPDEST PUSH2 0x2108 JUMP JUMPDEST PUSH2 0x464 PUSH1 0x10 SLOAD DUP2 JUMP JUMPDEST PUSH2 0x464 PUSH1 0x16 SLOAD DUP2 JUMP JUMPDEST PUSH2 0x464 PUSH1 0xC SLOAD DUP2 JUMP JUMPDEST PUSH2 0x464 PUSH1 0x15 SLOAD DUP2 JUMP JUMPDEST PUSH2 0x493 PUSH2 0x951 CALLDATASIZE PUSH1 0x4 PUSH2 0x37C3 JUMP JUMPDEST PUSH2 0x216B JUMP JUMPDEST PUSH2 0x493 PUSH2 0x964 CALLDATASIZE PUSH1 0x4 PUSH2 0x37C3 JUMP JUMPDEST PUSH2 0x2209 JUMP JUMPDEST PUSH2 0x493 PUSH2 0x977 CALLDATASIZE PUSH1 0x4 PUSH2 0x3795 JUMP JUMPDEST PUSH2 0x223C JUMP JUMPDEST PUSH1 0x8 SLOAD PUSH2 0x5B1 SWAP1 PUSH1 0x1 PUSH1 0x1 PUSH1 0xA0 SHL SUB AND DUP2 JUMP JUMPDEST PUSH2 0x5B1 PUSH32 0x0 DUP2 JUMP JUMPDEST PUSH2 0x464 PUSH6 0x2D79883D2000 DUP2 JUMP JUMPDEST PUSH1 0x8 SLOAD PUSH1 0x1 PUSH1 0x1 PUSH1 0xA0 SHL SUB AND CALLER EQ PUSH2 0x9F6 JUMPI PUSH1 0x40 MLOAD PUSH3 0x461BCD PUSH1 0xE5 SHL DUP2 MSTORE PUSH1 0x4 ADD PUSH2 0x9ED SWAP1 PUSH2 0x3875 JUMP JUMPDEST PUSH1 0x40 MLOAD DUP1 SWAP2 SUB SWAP1 REVERT JUMPDEST PUSH5 0xE8D4A51000 DUP2 GT ISZERO PUSH2 0xA62 JUMPI PUSH1 0x40 MLOAD PUSH3 0x461BCD PUSH1 0xE5 SHL DUP2 MSTORE PUSH1 0x20 PUSH1 0x4 DUP3 ADD MSTORE PUSH1 0x2E PUSH1 0x24 DUP3 ADD MSTORE PUSH32 0x6F7665726475654665652063616E6E6F74206265206D6F7265207468616E204D PUSH1 0x44 DUP3 ADD MSTORE PUSH14 0x41585F4F5645524455455F464545 PUSH1 0x90 SHL PUSH1 0x64 DUP3 ADD MSTORE PUSH1 0x84 ADD PUSH2 0x9ED JUMP JUMPDEST PUSH1 0x17 DUP2 SWAP1 SSTORE PUSH1 0x40 MLOAD DUP2 DUP2 MSTORE PUSH32 0xF4BD1C5978320077E792AFBB3911E8CAB1325CE28A6B3E67F9067A1D80692961 SWAP1 PUSH1 0x20 ADD JUMPDEST PUSH1 0x40 MLOAD DUP1 SWAP2 SUB SWAP1 LOG1 POP JUMP JUMPDEST PUSH1 0x8 SLOAD PUSH1 0x1 PUSH1 0x1 PUSH1 0xA0 SHL SUB AND CALLER EQ PUSH2 0xAC8 JUMPI PUSH1 0x40 MLOAD PUSH3 0x461BCD PUSH1 0xE5 SHL DUP2 MSTORE PUSH1 0x4 ADD PUSH2 0x9ED SWAP1 PUSH2 0x3875 JUMP JUMPDEST PUSH2 0x1F4 DUP2 GT ISZERO PUSH2 0xAEA JUMPI PUSH1 0x40 MLOAD PUSH3 0x461BCD PUSH1 0xE5 SHL DUP2 MSTORE PUSH1 0x4 ADD PUSH2 0x9ED SWAP1 PUSH2 0x389A JUMP JUMPDEST PUSH1 0x16 DUP2 SWAP1 SSTORE PUSH1 0x40 MLOAD DUP2 DUP2 MSTORE PUSH32 0xCAB352E118188B8A2F20A2E8C4CE1241CE2C1740AAC4F17C5B0831E65824D8EF SWAP1 PUSH1 0x20 ADD PUSH2 0xA93 JUMP JUMPDEST PUSH1 0x0 SLOAD PUSH1 0x1 PUSH1 0x1 PUSH1 0xA0 SHL SUB AND CALLER EQ PUSH2 0xB49 JUMPI PUSH1 0x40 MLOAD PUSH3 0x461BCD PUSH1 0xE5 SHL DUP2 MSTORE PUSH1 0x4 ADD PUSH2 0x9ED SWAP1 PUSH2 0x38EA JUMP JUMPDEST PUSH1 0x40 MLOAD PUSH4 0x70A08231 PUSH1 0xE0 SHL DUP2 MSTORE CALLER PUSH1 0x4 DUP3 ADD MSTORE PUSH1 0x0 SWAP1 PUSH1 0x1 PUSH1 0x1 PUSH1 0xA0 SHL SUB DUP4 AND SWAP1 PUSH4 0x70A08231 SWAP1 PUSH1 0x24 ADD PUSH1 0x20 PUSH1 0x40 MLOAD DUP1 DUP4 SUB DUP2 DUP7 GAS STATICCALL ISZERO DUP1 ISZERO PUSH2 0xB90 JUMPI RETURNDATASIZE PUSH1 0x0 DUP1 RETURNDATACOPY RETURNDATASIZE PUSH1 0x0 REVERT JUMPDEST POP POP POP POP PUSH1 0x40 MLOAD RETURNDATASIZE PUSH1 0x1F NOT PUSH1 0x1F DUP3 ADD AND DUP3 ADD DUP1 PUSH1 0x40 MSTORE POP DUP2 ADD SWAP1 PUSH2 0xBB4 SWAP2 SWAP1 PUSH2 0x391F JUMP JUMPDEST SWAP1 POP DUP1 PUSH1 0x0 SUB PUSH2 0xBFE JUMPI PUSH1 0x40 MLOAD PUSH3 0x461BCD PUSH1 0xE5 SHL DUP2 MSTORE PUSH1 0x20 PUSH1 0x4 DUP3 ADD MSTORE PUSH1 0x15 PUSH1 0x24 DUP3 ADD MSTORE PUSH21 0x42616C616E6365206D75737420657863656564203 PUSH1 0x5C SHL PUSH1 0x44 DUP3 ADD MSTORE PUSH1 0x64 ADD PUSH2 0x9ED JUMP JUMPDEST PUSH2 0xC13 PUSH1 0x1 PUSH1 0x1 PUSH1 0xA0 SHL SUB DUP4 AND CALLER ADDRESS DUP5 PUSH2 0x2315 JUMP JUMPDEST PUSH1 0x40 MLOAD PUSH4 0x95EA7B3 PUSH1 0xE0 SHL DUP2 MSTORE PUSH1 0x1 PUSH1 0x1 PUSH1 0xA0 SHL SUB PUSH32 0x0 DUP2 AND PUSH1 0x4 DUP4 ADD MSTORE PUSH1 0x24 DUP3 ADD DUP4 SWAP1 MSTORE DUP4 AND SWAP1 PUSH4 0x95EA7B3 SWAP1 PUSH1 0x44 ADD PUSH1 0x20 PUSH1 0x40 MLOAD DUP1 DUP4 SUB DUP2 PUSH1 0x0 DUP8 GAS CALL ISZERO DUP1 ISZERO PUSH2 0xC82 JUMPI RETURNDATASIZE PUSH1 0x0 DUP1 RETURNDATACOPY RETURNDATASIZE PUSH1 0x0 REVERT JUMPDEST POP POP POP POP PUSH1 0x40 MLOAD RETURNDATASIZE PUSH1 0x1F NOT PUSH1 0x1F DUP3 ADD AND DUP3 ADD DUP1 PUSH1 0x40 MSTORE POP DUP2 ADD SWAP1 PUSH2 0xCA6 SWAP2 SWAP1 PUSH2 0x3938 JUMP JUMPDEST POP PUSH1 0xB SLOAD PUSH1 0x40 MLOAD PUSH4 0x1C57762B PUSH1 0xE3 SHL DUP2 MSTORE PUSH1 0x4 DUP2 ADD SWAP2 SWAP1 SWAP2 MSTORE PUSH1 0x24 DUP2 ADD DUP3 SWAP1 MSTORE PUSH32 0x0 PUSH1 0x1 PUSH1 0x1 PUSH1 0xA0 SHL SUB AND SWAP1 PUSH4 0xE2BBB158 SWAP1 PUSH1 0x44 ADD PUSH1 0x0 PUSH1 0x40 MLOAD DUP1 DUP4 SUB DUP2 PUSH1 0x0 DUP8 DUP1 EXTCODESIZE ISZERO DUP1 ISZERO PUSH2 0xD14 JUMPI PUSH1 0x0 DUP1 REVERT JUMPDEST POP GAS CALL ISZERO DUP1 ISZERO PUSH2 0xD28 JUMPI RETURNDATASIZE PUSH1 0x0 DUP1 RETURNDATACOPY RETURNDATASIZE PUSH1 0x0 REVERT JUMPDEST POP POP PUSH1 0x40 MLOAD PUSH32 0x57A86F7D14CCDE89E22870AFE839E3011216827DAA9B24E18629F0A1E9D6CC14 SWAP3 POP PUSH1 0x0 SWAP2 POP LOG1 POP POP JUMP JUMPDEST PUSH1 0x8 SLOAD PUSH1 0x1 PUSH1 0x1 PUSH1 0xA0 SHL SUB AND CALLER EQ PUSH2 0xD83 JUMPI PUSH1 0x40 MLOAD PUSH3 0x461BCD PUSH1 0xE5 SHL DUP2 MSTORE PUSH1 0x4 ADD PUSH2 0x9ED SWAP1 PUSH2 0x3875 JUMP JUMPDEST PUSH3 0x93A80 DUP2 GT ISZERO PUSH2 0xDFC JUMPI PUSH1 0x40 MLOAD PUSH3 0x461BCD PUSH1 0xE5 SHL DUP2 MSTORE PUSH1 0x20 PUSH1 0x4 DUP3 ADD MSTORE PUSH1 0x3D PUSH1 0x24 DUP3 ADD MSTORE PUSH32 0x7769746864726177466565506572696F642063616E6E6F74206265206D6F7265 PUSH1 0x44 DUP3 ADD MSTORE PUSH32 0x207468616E204D41585F57495448445241575F4645455F504552494F44000000 PUSH1 0x64 DUP3 ADD MSTORE PUSH1 0x84 ADD PUSH2 0x9ED JUMP JUMPDEST PUSH1 0x18 DUP2 SWAP1 SSTORE PUSH1 0x40 MLOAD DUP2 DUP2 MSTORE PUSH32 0xB89DDADDB7435BE26824CB48D2D0186C9525A2E1EC057ABCB502704CDC0686CC SWAP1 PUSH1 0x20 ADD PUSH2 0xA93 JUMP JUMPDEST PUSH1 0x1 PUSH1 0x1 PUSH1 0xA0 SHL SUB DUP3 AND PUSH1 0x0 SWAP1 DUP2 MSTORE PUSH1 0x3 PUSH1 0x20 MSTORE PUSH1 0x40 DUP2 KECCAK256 DUP1 SLOAD DUP4 GT ISZERO PUSH2 0xE57 JUMPI DUP1 SLOAD SWAP3 POP JUMPDEST CALLER PUSH1 0x0 SWAP1 DUP2 MSTORE PUSH1 0x5 PUSH1 0x20 MSTORE PUSH1 0x40 SWAP1 KECCAK256 SLOAD PUSH1 0xFF AND ISZERO DUP1 ISZERO PUSH2 0xE87 JUMPI POP PUSH1 0x18 SLOAD DUP2 PUSH1 0x1 ADD SLOAD PUSH2 0xE84 SWAP2 SWAP1 PUSH2 0x396B JUMP JUMPDEST TIMESTAMP LT JUMPDEST ISZERO PUSH2 0xF60 JUMPI PUSH1 0x0 PUSH2 0xE96 PUSH2 0x1447 JUMP JUMPDEST PUSH2 0xE9E PUSH2 0x1672 JUMP JUMPDEST PUSH2 0xEA8 SWAP2 SWAP1 PUSH2 0x396B JUMP JUMPDEST DUP3 SLOAD SWAP1 SWAP2 POP PUSH1 0x0 SWAP1 PUSH2 0xEBF PUSH5 0xE8D4A51000 DUP8 PUSH2 0x397E JUMP JUMPDEST PUSH2 0xEC9 SWAP2 SWAP1 PUSH2 0x3995 JUMP JUMPDEST SWAP1 POP PUSH1 0x0 PUSH2 0xED6 DUP8 PUSH2 0x2382 JUMP JUMPDEST PUSH1 0x6 DUP6 ADD SLOAD PUSH1 0x7 SLOAD DUP7 SLOAD PUSH2 0xEEA SWAP1 DUP8 PUSH2 0x397E JUMP JUMPDEST PUSH2 0xEF4 SWAP2 SWAP1 PUSH2 0x3995 JUMP JUMPDEST PUSH2 0xEFE SWAP2 SWAP1 PUSH2 0x39B7 JUMP JUMPDEST PUSH2 0xF08 SWAP2 SWAP1 PUSH2 0x39B7 JUMP JUMPDEST SWAP1 POP PUSH1 0x0 PUSH5 0xE8D4A51000 PUSH2 0xF1C DUP5 DUP5 PUSH2 0x397E JUMP JUMPDEST PUSH2 0xF26 SWAP2 SWAP1 PUSH2 0x3995 JUMP JUMPDEST PUSH1 0x15 SLOAD SWAP1 SWAP2 POP CALLER EXTCODESIZE ISZERO PUSH2 0xF38 JUMPI POP PUSH1 0x16 SLOAD JUMPDEST PUSH1 0x0 PUSH2 0x2710 PUSH2 0xF47 DUP4 DUP6 PUSH2 0x397E JUMP JUMPDEST PUSH2 0xF51 SWAP2 SWAP1 PUSH2 0x3995 JUMP JUMPDEST SWAP8 POP PUSH2 0xF66 SWAP7 POP POP POP POP POP POP POP JUMP JUMPDEST PUSH1 0x0 SWAP2 POP POP JUMPDEST SWAP3 SWAP2 POP POP JUMP JUMPDEST PUSH2 0xF74 PUSH2 0x23A0 JUMP JUMPDEST PUSH1 0x0 DUP2 GT PUSH2 0xFBA JUMPI PUSH1 0x40 MLOAD PUSH3 0x461BCD PUSH1 0xE5 SHL DUP2 MSTORE PUSH1 0x20 PUSH1 0x4 DUP3 ADD MSTORE PUSH1 0x13 PUSH1 0x24 DUP3 ADD MSTORE PUSH19 0x4E6F7468696E6720746F207769746864726177 PUSH1 0x68 SHL PUSH1 0x44 DUP3 ADD MSTORE PUSH1 0x64 ADD PUSH2 0x9ED JUMP JUMPDEST PUSH2 0xFC5 DUP2 PUSH1 0x0 PUSH2 0x23ED JUMP JUMPDEST POP JUMP JUMPDEST DUP1 CALLER PUSH1 0x1 PUSH1 0x1 PUSH1 0xA0 SHL SUB DUP3 AND EQ DUP1 PUSH2 0xFEA JUMPI POP PUSH1 0xA SLOAD PUSH1 0x1 PUSH1 0x1 PUSH1 0xA0 SHL SUB AND CALLER EQ JUMPDEST PUSH2 0x1036 JUMPI PUSH1 0x40 MLOAD PUSH3 0x461BCD PUSH1 0xE5 SHL DUP2 MSTORE PUSH1 0x20 PUSH1 0x4 DUP3 ADD MSTORE PUSH1 0x1A PUSH1 0x24 DUP3 ADD MSTORE PUSH32 0x4E6F74206F70657261746F72206F722063616B65206F776E6572000000000000 PUSH1 0x44 DUP3 ADD MSTORE PUSH1 0x64 ADD PUSH2 0x9ED JUMP JUMPDEST PUSH2 0x103E PUSH2 0x23A0 JUMP JUMPDEST PUSH1 0x1 PUSH1 0x1 PUSH1 0xA0 SHL SUB DUP3 AND PUSH1 0x0 SWAP1 DUP2 MSTORE PUSH1 0x3 PUSH1 0x20 MSTORE PUSH1 0x40 SWAP1 KECCAK256 PUSH1 0x7 DUP2 ADD SLOAD PUSH1 0xFF AND DUP1 ISZERO PUSH2 0x106D JUMPI POP TIMESTAMP DUP2 PUSH1 0x5 ADD SLOAD LT JUMPDEST PUSH2 0x10AD JUMPI PUSH1 0x40 MLOAD PUSH3 0x461BCD PUSH1 0xE5 SHL DUP2 MSTORE PUSH1 0x20 PUSH1 0x4 DUP3 ADD MSTORE PUSH1 0x11 PUSH1 0x24 DUP3 ADD MSTORE PUSH17 0x10D85B9B9BDD081D5B9B1BD8DAC81E595D PUSH1 0x7A SHL PUSH1 0x44 DUP3 ADD MSTORE PUSH1 0x64 ADD PUSH2 0x9ED JUMP JUMPDEST PUSH2 0x10B9 PUSH1 0x0 DUP1 DUP6 PUSH2 0x276E JUMP JUMPDEST POP POP POP JUMP JUMPDEST PUSH1 0x8 SLOAD PUSH1 0x1 PUSH1 0x1 PUSH1 0xA0 SHL SUB AND CALLER EQ PUSH2 0x10E8 JUMPI PUSH1 0x40 MLOAD PUSH3 0x461BCD PUSH1 0xE5 SHL DUP2 MSTORE PUSH1 0x4 ADD PUSH2 0x9ED SWAP1 PUSH2 0x3875 JUMP JUMPDEST PUSH1 0x0 DUP2 GT PUSH2 0x1147 JUMPI PUSH1 0x40 MLOAD PUSH3 0x461BCD PUSH1 0xE5 SHL DUP2 MSTORE PUSH1 0x20 PUSH1 0x4 DUP3 ADD MSTORE PUSH1 0x26 PUSH1 0x24 DUP3 ADD MSTORE PUSH32 0x4455524154494F4E5F464143544F525F4F5645524455452063616E6E6F742062 PUSH1 0x44 DUP3 ADD MSTORE PUSH6 0x65207A65726F PUSH1 0xD0 SHL PUSH1 0x64 DUP3 ADD MSTORE PUSH1 0x84 ADD PUSH2 0x9ED JUMP JUMPDEST PUSH1 0x11 DUP2 SWAP1 SSTORE PUSH1 0x40 MLOAD DUP2 DUP2 MSTORE PUSH32 0x18B6D179114082D7EDA9837E15A39EB30032D5F3DF00487A67541398F48FABFE SWAP1 PUSH1 0x20 ADD PUSH2 0xA93 JUMP JUMPDEST PUSH1 0x8 SLOAD PUSH1 0x1 PUSH1 0x1 PUSH1 0xA0 SHL SUB AND CALLER EQ PUSH2 0x11A6 JUMPI PUSH1 0x40 MLOAD PUSH3 0x461BCD PUSH1 0xE5 SHL DUP2 MSTORE PUSH1 0x4 ADD PUSH2 0x9ED SWAP1 PUSH2 0x3875 JUMP JUMPDEST PUSH2 0x11AE PUSH2 0x2DD3 JUMP JUMPDEST PUSH2 0x11B6 PUSH2 0x2E23 JUMP JUMPDEST PUSH1 0x40 MLOAD PUSH32 0x7805862F689E2F13DF9F062FF482AD3AD112ACA9E0847911ED832E158C525B33 SWAP1 PUSH1 0x0 SWAP1 LOG1 JUMP JUMPDEST PUSH1 0x8 SLOAD PUSH1 0x1 PUSH1 0x1 PUSH1 0xA0 SHL SUB AND CALLER EQ PUSH2 0x120B JUMPI PUSH1 0x40 MLOAD PUSH3 0x461BCD PUSH1 0xE5 SHL DUP2 MSTORE PUSH1 0x4 ADD PUSH2 0x9ED SWAP1 PUSH2 0x3875 JUMP JUMPDEST PUSH1 0x1 PUSH1 0x1 PUSH1 0xA0 SHL SUB DUP3 AND PUSH2 0x1231 JUMPI PUSH1 0x40 MLOAD PUSH3 0x461BCD PUSH1 0xE5 SHL DUP2 MSTORE PUSH1 0x4 ADD PUSH2 0x9ED SWAP1 PUSH2 0x39CA JUMP JUMPDEST PUSH1 0x1 PUSH1 0x1 PUSH1 0xA0 SHL SUB DUP3 AND PUSH1 0x0 DUP2 DUP2 MSTORE PUSH1 0x4 PUSH1 0x20 MSTORE PUSH1 0x40 DUP1 DUP3 KECCAK256 DUP1 SLOAD PUSH1 0xFF NOT AND DUP6 ISZERO ISZERO SWAP1 DUP2 OR SWAP1 SWAP2 SSTORE SWAP1 MLOAD SWAP1 SWAP3 SWAP2 PUSH32 0x3D7902BC9A6665BD7CAF4240B834BB805D3CD68256889E9F8D2E40A10BE41D44 SWAP2 LOG3 POP POP JUMP JUMPDEST PUSH1 0x40 MLOAD PUSH4 0x70A08231 PUSH1 0xE0 SHL DUP2 MSTORE ADDRESS PUSH1 0x4 DUP3 ADD MSTORE PUSH1 0x0 SWAP1 PUSH32 0x0 PUSH1 0x1 PUSH1 0x1 PUSH1 0xA0 SHL SUB AND SWAP1 PUSH4 0x70A08231 SWAP1 PUSH1 0x24 ADD PUSH1 0x20 PUSH1 0x40 MLOAD DUP1 DUP4 SUB DUP2 DUP7 GAS STATICCALL ISZERO DUP1 ISZERO PUSH2 0x12EC JUMPI RETURNDATASIZE PUSH1 0x0 DUP1 RETURNDATACOPY RETURNDATASIZE PUSH1 0x0 REVERT JUMPDEST POP POP POP POP PUSH1 0x40 MLOAD RETURNDATASIZE PUSH1 0x1F NOT PUSH1 0x1F DUP3 ADD AND DUP3 ADD DUP1 PUSH1 0x40 MSTORE POP DUP2 ADD SWAP1 PUSH2 0x1310 SWAP2 SWAP1 PUSH2 0x391F JUMP JUMPDEST SWAP1 POP SWAP1 JUMP JUMPDEST PUSH1 0x8 SLOAD PUSH1 0x1 PUSH1 0x1 PUSH1 0xA0 SHL SUB AND CALLER EQ PUSH2 0x133F JUMPI PUSH1 0x40 MLOAD PUSH3 0x461BCD PUSH1 0xE5 SHL DUP2 MSTORE PUSH1 0x4 ADD PUSH2 0x9ED SWAP1 PUSH2 0x3875 JUMP JUMPDEST PUSH1 0x1 PUSH1 0x1 PUSH1 0xA0 SHL SUB DUP3 AND PUSH2 0x1365 JUMPI PUSH1 0x40 MLOAD PUSH3 0x461BCD PUSH1 0xE5 SHL DUP2 MSTORE PUSH1 0x4 ADD PUSH2 0x9ED SWAP1 PUSH2 0x39CA JUMP JUMPDEST PUSH1 0x1 PUSH1 0x1 PUSH1 0xA0 SHL SUB DUP3 AND PUSH1 0x0 DUP2 DUP2 MSTORE PUSH1 0x6 PUSH1 0x20 MSTORE PUSH1 0x40 DUP1 DUP3 KECCAK256 DUP1 SLOAD PUSH1 0xFF NOT AND DUP6 ISZERO ISZERO SWAP1 DUP2 OR SWAP1 SWAP2 SSTORE SWAP1 MLOAD SWAP1 SWAP3 SWAP2 PUSH32 0x3D7902BC9A6665BD7CAF4240B834BB805D3CD68256889E9F8D2E40A10BE41D44 SWAP2 LOG3 POP POP JUMP JUMPDEST PUSH2 0x13C1 PUSH2 0x23A0 JUMP JUMPDEST PUSH6 0x9184E72A000 DUP2 GT PUSH2 0x143C JUMPI PUSH1 0x40 MLOAD PUSH3 0x461BCD PUSH1 0xE5 SHL DUP2 MSTORE PUSH1 0x20 PUSH1 0x4 DUP3 ADD MSTORE PUSH1 0x38 PUSH1 0x24 DUP3 ADD MSTORE PUSH32 0x576974686472617720616D6F756E74206D757374206265206772656174657220 PUSH1 0x44 DUP3 ADD MSTORE PUSH32 0x7468616E204D494E5F57495448445241575F414D4F554E540000000000000000 PUSH1 0x64 DUP3 ADD MSTORE PUSH1 0x84 ADD PUSH2 0x9ED JUMP JUMPDEST PUSH2 0xFC5 PUSH1 0x0 DUP3 PUSH2 0x23ED JUMP JUMPDEST PUSH1 0xB SLOAD PUSH1 0x40 MLOAD PUSH4 0x1175A1DD PUSH1 0xE0 SHL DUP2 MSTORE PUSH1 0x4 DUP2 ADD SWAP2 SWAP1 SWAP2 MSTORE ADDRESS PUSH1 0x24 DUP3 ADD MSTORE PUSH1 0x0 SWAP1 DUP2 SWAP1 PUSH1 0x1 PUSH1 0x1 PUSH1 0xA0 SHL SUB PUSH32 0x0 AND SWAP1 PUSH4 0x1175A1DD SWAP1 PUSH1 0x44 ADD PUSH1 0x20 PUSH1 0x40 MLOAD DUP1 DUP4 SUB DUP2 DUP7 GAS STATICCALL ISZERO DUP1 ISZERO PUSH2 0x14BB JUMPI RETURNDATASIZE PUSH1 0x0 DUP1 RETURNDATACOPY RETURNDATASIZE PUSH1 0x0 REVERT JUMPDEST POP POP POP POP PUSH1 0x40 MLOAD RETURNDATASIZE PUSH1 0x1F NOT PUSH1 0x1F DUP3 ADD AND DUP3 ADD DUP1 PUSH1 0x40 MSTORE POP DUP2 ADD SWAP1 PUSH2 0xF66 SWAP2 SWAP1 PUSH2 0x391F JUMP JUMPDEST PUSH1 0x0 SLOAD PUSH1 0x1 PUSH1 0x1 PUSH1 0xA0 SHL SUB AND CALLER EQ PUSH2 0x1509 JUMPI PUSH1 0x40 MLOAD PUSH3 0x461BCD PUSH1 0xE5 SHL DUP2 MSTORE PUSH1 0x4 ADD PUSH2 0x9ED SWAP1 PUSH2 0x38EA JUMP JUMPDEST PUSH1 0x1 PUSH1 0x1 PUSH1 0xA0 SHL SUB DUP2 AND PUSH2 0x152F JUMPI PUSH1 0x40 MLOAD PUSH3 0x461BCD PUSH1 0xE5 SHL DUP2 MSTORE PUSH1 0x4 ADD PUSH2 0x9ED SWAP1 PUSH2 0x39CA JUMP JUMPDEST PUSH1 0x8 DUP1 SLOAD PUSH1 0x1 PUSH1 0x1 PUSH1 0xA0 SHL SUB NOT AND PUSH1 0x1 PUSH1 0x1 PUSH1 0xA0 SHL SUB DUP4 AND SWAP1 DUP2 OR SWAP1 SWAP2 SSTORE PUSH1 0x40 MLOAD SWAP1 DUP2 MSTORE PUSH32 0x71614071B88DEE5E0B2AE578A9DD7B2EBBE9AE832BA419DC0242CD065A290B6C SWAP1 PUSH1 0x20 ADD PUSH2 0xA93 JUMP JUMPDEST PUSH1 0x8 SLOAD PUSH1 0x1 PUSH1 0x1 PUSH1 0xA0 SHL SUB AND CALLER EQ PUSH2 0x15A7 JUMPI PUSH1 0x40 MLOAD PUSH3 0x461BCD PUSH1 0xE5 SHL DUP2 MSTORE PUSH1 0x4 ADD PUSH2 0x9ED SWAP1 PUSH2 0x3875 JUMP JUMPDEST PUSH2 0x7D0 DUP2 GT ISZERO PUSH2 0x15C9 JUMPI PUSH1 0x40 MLOAD PUSH3 0x461BCD PUSH1 0xE5 SHL DUP2 MSTORE PUSH1 0x4 ADD PUSH2 0x9ED SWAP1 PUSH2 0x39FA JUMP JUMPDEST PUSH1 0x13 DUP2 SWAP1 SSTORE PUSH1 0x40 MLOAD DUP2 DUP2 MSTORE PUSH32 0xEFEAFCF03E479A9566D7EF321B4816DE0BA19CFA3CD0FAE2F8C5F4A0AFB342C4 SWAP1 PUSH1 0x20 ADD PUSH2 0xA93 JUMP JUMPDEST PUSH1 0x0 SLOAD PUSH1 0x1 PUSH1 0x1 PUSH1 0xA0 SHL SUB AND CALLER EQ PUSH2 0x1628 JUMPI PUSH1 0x40 MLOAD PUSH3 0x461BCD PUSH1 0xE5 SHL DUP2 MSTORE PUSH1 0x4 ADD PUSH2 0x9ED SWAP1 PUSH2 0x38EA JUMP JUMPDEST PUSH1 0x0 DUP1 SLOAD PUSH1 0x40 MLOAD PUSH1 0x1 PUSH1 0x1 PUSH1 0xA0 SHL SUB SWAP1 SWAP2 AND SWAP1 PUSH32 0x8BE0079C531659141344CD1FD0A4F28419497F9722A3DAAFE3B4186F6B6457E0 SWAP1 DUP4 SWAP1 LOG3 PUSH1 0x0 DUP1 SLOAD PUSH1 0x1 PUSH1 0x1 PUSH1 0xA0 SHL SUB NOT AND SWAP1 SSTORE JUMP JUMPDEST PUSH1 0xC SLOAD PUSH1 0x40 MLOAD PUSH4 0x70A08231 PUSH1 0xE0 SHL DUP2 MSTORE ADDRESS PUSH1 0x4 DUP3 ADD MSTORE PUSH1 0x0 SWAP2 SWAP1 PUSH1 0x1 PUSH1 0x1 PUSH1 0xA0 SHL SUB PUSH32 0x0 AND SWAP1 PUSH4 0x70A08231 SWAP1 PUSH1 0x24 ADD PUSH1 0x20 PUSH1 0x40 MLOAD DUP1 DUP4 SUB DUP2 DUP7 GAS STATICCALL ISZERO DUP1 ISZERO PUSH2 0x16DD JUMPI RETURNDATASIZE PUSH1 0x0 DUP1 RETURNDATACOPY RETURNDATASIZE PUSH1 0x0 REVERT JUMPDEST POP POP POP POP PUSH1 0x40 MLOAD RETURNDATASIZE PUSH1 0x1F NOT PUSH1 0x1F DUP3 ADD AND DUP3 ADD DUP1 PUSH1 0x40 MSTORE POP DUP2 ADD SWAP1 PUSH2 0x1701 SWAP2 SWAP1 PUSH2 0x391F JUMP JUMPDEST PUSH2 0x1310 SWAP2 SWAP1 PUSH2 0x396B JUMP JUMPDEST PUSH1 0x0 PUSH1 0x7 SLOAD PUSH1 0x0 EQ PUSH2 0x1750 JUMPI PUSH1 0x7 SLOAD PUSH2 0x1722 PUSH2 0x1447 JUMP JUMPDEST PUSH2 0x172A PUSH2 0x1672 JUMP JUMPDEST PUSH2 0x1734 SWAP2 SWAP1 PUSH2 0x396B JUMP JUMPDEST PUSH2 0x1746 SWAP1 PUSH8 0xDE0B6B3A7640000 PUSH2 0x397E JUMP JUMPDEST PUSH2 0x1310 SWAP2 SWAP1 PUSH2 0x3995 JUMP JUMPDEST POP PUSH8 0xDE0B6B3A7640000 SWAP1 JUMP JUMPDEST PUSH1 0x8 SLOAD PUSH1 0x1 PUSH1 0x1 PUSH1 0xA0 SHL SUB AND CALLER EQ PUSH2 0x1787 JUMPI PUSH1 0x40 MLOAD PUSH3 0x461BCD PUSH1 0xE5 SHL DUP2 MSTORE PUSH1 0x4 ADD PUSH2 0x9ED SWAP1 PUSH2 0x3875 JUMP JUMPDEST PUSH2 0x178F PUSH2 0x23A0 JUMP JUMPDEST PUSH2 0x1797 PUSH2 0x2E78 JUMP JUMPDEST PUSH1 0x40 MLOAD PUSH32 0x6985A02210A168E66602D3235CB6DB0E70F92B3BA4D376A33C0F3D9434BFF625 SWAP1 PUSH1 0x0 SWAP1 LOG1 JUMP JUMPDEST CALLER PUSH1 0x0 SWAP1 DUP2 MSTORE PUSH1 0x3 PUSH1 0x20 MSTORE PUSH1 0x40 SWAP1 KECCAK256 SLOAD PUSH2 0x17DB SWAP1 PUSH2 0xF6C JUMP JUMPDEST JUMP JUMPDEST PUSH1 0x8 SLOAD PUSH1 0x1 PUSH1 0x1 PUSH1 0xA0 SHL SUB AND CALLER EQ PUSH2 0x1807 JUMPI PUSH1 0x40 MLOAD PUSH3 0x461BCD PUSH1 0xE5 SHL DUP2 MSTORE PUSH1 0x4 ADD PUSH2 0x9ED SWAP1 PUSH2 0x3875 JUMP JUMPDEST PUSH6 0x2D79883D2000 DUP2 GT ISZERO PUSH2 0x1879 JUMPI PUSH1 0x40 MLOAD PUSH3 0x461BCD PUSH1 0xE5 SHL DUP2 MSTORE PUSH1 0x20 PUSH1 0x4 DUP3 ADD MSTORE PUSH1 0x33 PUSH1 0x24 DUP3 ADD MSTORE PUSH32 0x424F4F53545F5745494748542063616E6E6F74206265206D6F7265207468616E PUSH1 0x44 DUP3 ADD MSTORE PUSH19 0x81093D3D4D517D5D15251D21517D312535255 PUSH1 0x6A SHL PUSH1 0x64 DUP3 ADD MSTORE PUSH1 0x84 ADD PUSH2 0x9ED JUMP JUMPDEST PUSH1 0x12 DUP2 SWAP1 SSTORE PUSH1 0x40 MLOAD DUP2 DUP2 MSTORE PUSH32 0x7666DFFF8C3377938E522B4EED3AFF079973A976F95969DB60A406D49F40DA4E SWAP1 PUSH1 0x20 ADD PUSH2 0xA93 JUMP JUMPDEST PUSH1 0x1 PUSH1 0x1 PUSH1 0xA0 SHL SUB DUP2 AND PUSH1 0x0 SWAP1 DUP2 MSTORE PUSH1 0x3 PUSH1 0x20 MSTORE PUSH1 0x40 DUP2 KECCAK256 DUP1 SLOAD ISZERO DUP1 ISZERO SWAP1 PUSH2 0x18DA JUMPI POP PUSH1 0x7 DUP2 ADD SLOAD PUSH1 0xFF AND JUMPDEST DUP1 ISZERO PUSH2 0x18FF JUMPI POP PUSH1 0x1 PUSH1 0x1 PUSH1 0xA0 SHL SUB DUP4 AND PUSH1 0x0 SWAP1 DUP2 MSTORE PUSH1 0x6 PUSH1 0x20 MSTORE PUSH1 0x40 SWAP1 KECCAK256 SLOAD PUSH1 0xFF AND ISZERO JUMPDEST DUP1 ISZERO PUSH2 0x191B JUMPI POP TIMESTAMP PUSH1 0xE SLOAD DUP3 PUSH1 0x5 ADD SLOAD PUSH2 0x1919 SWAP2 SWAP1 PUSH2 0x396B JUMP JUMPDEST LT JUMPDEST ISZERO PUSH2 0x19F8 JUMPI PUSH1 0x0 PUSH2 0x192A PUSH2 0x1447 JUMP JUMPDEST PUSH2 0x1932 PUSH2 0x1672 JUMP JUMPDEST PUSH2 0x193C SWAP2 SWAP1 PUSH2 0x396B JUMP JUMPDEST PUSH1 0x6 DUP4 ADD SLOAD PUSH1 0x7 SLOAD DUP5 SLOAD SWAP3 SWAP4 POP PUSH1 0x0 SWAP3 PUSH2 0x1956 SWAP1 DUP6 PUSH2 0x397E JUMP JUMPDEST PUSH2 0x1960 SWAP2 SWAP1 PUSH2 0x3995 JUMP JUMPDEST PUSH2 0x196A SWAP2 SWAP1 PUSH2 0x39B7 JUMP JUMPDEST SWAP1 POP PUSH1 0x0 DUP4 PUSH1 0x8 ADD SLOAD DUP3 PUSH2 0x197E SWAP2 SWAP1 PUSH2 0x39B7 JUMP JUMPDEST SWAP1 POP PUSH1 0x0 PUSH1 0xE SLOAD DUP6 PUSH1 0x5 ADD SLOAD TIMESTAMP PUSH2 0x1995 SWAP2 SWAP1 PUSH2 0x39B7 JUMP JUMPDEST PUSH2 0x199F SWAP2 SWAP1 PUSH2 0x39B7 JUMP JUMPDEST SWAP1 POP PUSH1 0x11 SLOAD DUP2 GT ISZERO PUSH2 0x19B0 JUMPI POP PUSH1 0x11 SLOAD JUMPDEST PUSH1 0x0 PUSH1 0x11 SLOAD PUSH1 0x17 SLOAD DUP4 PUSH2 0x19C3 SWAP2 SWAP1 PUSH2 0x397E JUMP JUMPDEST PUSH2 0x19CD SWAP2 SWAP1 PUSH2 0x3995 JUMP JUMPDEST SWAP1 POP PUSH1 0x0 PUSH5 0xE8D4A51000 PUSH2 0x19E1 DUP4 DUP7 PUSH2 0x397E JUMP JUMPDEST PUSH2 0x19EB SWAP2 SWAP1 PUSH2 0x3995 JUMP JUMPDEST SWAP10 SWAP9 POP POP POP POP POP POP POP POP POP JUMP JUMPDEST POP PUSH1 0x0 SWAP3 SWAP2 POP POP JUMP JUMPDEST PUSH1 0x8 SLOAD PUSH1 0x1 PUSH1 0x1 PUSH1 0xA0 SHL SUB AND CALLER EQ PUSH2 0x1A2B JUMPI PUSH1 0x40 MLOAD PUSH3 0x461BCD PUSH1 0xE5 SHL DUP2 MSTORE PUSH1 0x4 ADD PUSH2 0x9ED SWAP1 PUSH2 0x3875 JUMP JUMPDEST PUSH1 0x0 DUP2 GT PUSH2 0x1A7B JUMPI PUSH1 0x40 MLOAD PUSH3 0x461BCD PUSH1 0xE5 SHL DUP2 MSTORE PUSH1 0x20 PUSH1 0x4 DUP3 ADD MSTORE PUSH1 0x1E PUSH1 0x24 DUP3 ADD MSTORE PUSH32 0x4455524154494F4E5F464143544F522063616E6E6F74206265207A65726F0000 PUSH1 0x44 DUP3 ADD MSTORE PUSH1 0x64 ADD PUSH2 0x9ED JUMP JUMPDEST PUSH1 0x10 DUP2 SWAP1 SSTORE PUSH1 0x40 MLOAD DUP2 DUP2 MSTORE PUSH32 0x9478EB023AAC0A7D58A4E935377056BF27CF5B72A2300725F831817A8F62FBDE SWAP1 PUSH1 0x20 ADD PUSH2 0xA93 JUMP JUMPDEST PUSH1 0x0 SLOAD PUSH1 0x1 PUSH1 0x1 PUSH1 0xA0 SHL SUB AND CALLER EQ PUSH2 0x1ADA JUMPI PUSH1 0x40 MLOAD PUSH3 0x461BCD PUSH1 0xE5 SHL DUP2 MSTORE PUSH1 0x4 ADD PUSH2 0x9ED SWAP1 PUSH2 0x38EA JUMP JUMPDEST PUSH1 0x1 PUSH1 0x1 PUSH1 0xA0 SHL SUB DUP2 AND PUSH2 0x1B00 JUMPI PUSH1 0x40 MLOAD PUSH3 0x461BCD PUSH1 0xE5 SHL DUP2 MSTORE PUSH1 0x4 ADD PUSH2 0x9ED SWAP1 PUSH2 0x39CA JUMP JUMPDEST PUSH1 0xA DUP1 SLOAD PUSH1 0x1 PUSH1 0x1 PUSH1 0xA0 SHL SUB NOT AND PUSH1 0x1 PUSH1 0x1 PUSH1 0xA0 SHL SUB DUP4 AND SWAP1 DUP2 OR SWAP1 SWAP2 SSTORE PUSH1 0x40 MLOAD SWAP1 DUP2 MSTORE PUSH32 0xDA12EE837E6978172AAF54B16145FFE08414FD8710092EF033C71B8EB6EC189A SWAP1 PUSH1 0x20 ADD PUSH2 0xA93 JUMP JUMPDEST PUSH1 0x8 SLOAD PUSH1 0x1 PUSH1 0x1 PUSH1 0xA0 SHL SUB AND CALLER EQ PUSH2 0x1B78 JUMPI PUSH1 0x40 MLOAD PUSH3 0x461BCD PUSH1 0xE5 SHL DUP2 MSTORE PUSH1 0x4 ADD PUSH2 0x9ED SWAP1 PUSH2 0x3875 JUMP JUMPDEST PUSH2 0x1F4 DUP2 GT ISZERO PUSH2 0x1B9A JUMPI PUSH1 0x40 MLOAD PUSH3 0x461BCD PUSH1 0xE5 SHL DUP2 MSTORE PUSH1 0x4 ADD PUSH2 0x9ED SWAP1 PUSH2 0x389A JUMP JUMPDEST PUSH1 0x15 DUP2 SWAP1 SSTORE PUSH1 0x40 MLOAD DUP2 DUP2 MSTORE PUSH32 0xD5FE46099FA396290A7F57E36C3C3C8774E2562C18ED5D1DCC0FA75071E03F1D SWAP1 PUSH1 0x20 ADD PUSH2 0xA93 JUMP JUMPDEST PUSH1 0x8 SLOAD PUSH1 0x1 PUSH1 0x1 PUSH1 0xA0 SHL SUB AND CALLER EQ PUSH2 0x1BF9 JUMPI PUSH1 0x40 MLOAD PUSH3 0x461BCD PUSH1 0xE5 SHL DUP2 MSTORE PUSH1 0x4 ADD PUSH2 0x9ED SWAP1 PUSH2 0x3875 JUMP JUMPDEST PUSH2 0x7D0 DUP2 GT ISZERO PUSH2 0x1C1B JUMPI PUSH1 0x40 MLOAD PUSH3 0x461BCD PUSH1 0xE5 SHL DUP2 MSTORE PUSH1 0x4 ADD PUSH2 0x9ED SWAP1 PUSH2 0x39FA JUMP JUMPDEST PUSH1 0x14 DUP2 SWAP1 SSTORE PUSH1 0x40 MLOAD DUP2 DUP2 MSTORE PUSH32 0xC5D25457B67B87678C987375AF13F6E50BEB3AD7BFD009DA26766AE986EAA20D SWAP1 PUSH1 0x20 ADD PUSH2 0xA93 JUMP JUMPDEST PUSH1 0x8 SLOAD PUSH1 0x1 PUSH1 0x1 PUSH1 0xA0 SHL SUB AND CALLER EQ PUSH2 0x1C7A JUMPI PUSH1 0x40 MLOAD PUSH3 0x461BCD PUSH1 0xE5 SHL DUP2 MSTORE PUSH1 0x4 ADD PUSH2 0x9ED SWAP1 PUSH2 0x3875 JUMP JUMPDEST PUSH1 0x1 PUSH1 0x1 PUSH1 0xA0 SHL SUB DUP3 AND PUSH2 0x1CA0 JUMPI PUSH1 0x40 MLOAD PUSH3 0x461BCD PUSH1 0xE5 SHL DUP2 MSTORE PUSH1 0x4 ADD PUSH2 0x9ED SWAP1 PUSH2 0x39CA JUMP JUMPDEST PUSH1 0x1 PUSH1 0x1 PUSH1 0xA0 SHL SUB DUP3 AND PUSH1 0x0 DUP2 DUP2 MSTORE PUSH1 0x5 PUSH1 0x20 MSTORE PUSH1 0x40 DUP1 DUP3 KECCAK256 DUP1 SLOAD PUSH1 0xFF NOT AND DUP6 ISZERO ISZERO SWAP1 DUP2 OR SWAP1 SWAP2 SSTORE SWAP1 MLOAD SWAP1 SWAP3 SWAP2 PUSH32 0x3D7902BC9A6665BD7CAF4240B834BB805D3CD68256889E9F8D2E40A10BE41D44 SWAP2 LOG3 POP POP JUMP JUMPDEST PUSH1 0x8 SLOAD PUSH1 0x1 PUSH1 0x1 PUSH1 0xA0 SHL SUB AND CALLER EQ PUSH2 0x1D1E JUMPI PUSH1 0x40 MLOAD PUSH3 0x461BCD PUSH1 0xE5 SHL DUP2 MSTORE PUSH1 0x4 ADD PUSH2 0x9ED SWAP1 PUSH2 0x3875 JUMP JUMPDEST PUSH1 0x0 DUP2 GT PUSH2 0x1D7A JUMPI PUSH1 0x40 MLOAD PUSH3 0x461BCD PUSH1 0xE5 SHL DUP2 MSTORE PUSH1 0x20 PUSH1 0x4 DUP3 ADD MSTORE PUSH1 0x23 PUSH1 0x24 DUP3 ADD MSTORE PUSH32 0x554E4C4F434B5F465245455F4455524154494F4E2063616E6E6F74206265207A PUSH1 0x44 DUP3 ADD MSTORE PUSH3 0x65726F PUSH1 0xE8 SHL PUSH1 0x64 DUP3 ADD MSTORE PUSH1 0x84 ADD PUSH2 0x9ED JUMP JUMPDEST PUSH1 0xE DUP2 SWAP1 SSTORE PUSH1 0x40 MLOAD DUP2 DUP2 MSTORE PUSH32 0xF84BF2B901CFC02956D4E69556D7448CEF4EA13587E7714DBA7C6D697091E7AD SWAP1 PUSH1 0x20 ADD PUSH2 0xA93 JUMP JUMPDEST PUSH1 0x1 PUSH1 0x1 PUSH1 0xA0 SHL SUB DUP2 AND PUSH1 0x0 SWAP1 DUP2 MSTORE PUSH1 0x3 PUSH1 0x20 MSTORE PUSH1 0x40 DUP2 KECCAK256 DUP1 SLOAD ISZERO DUP1 ISZERO SWAP1 PUSH2 0x1DDC JUMPI POP PUSH1 0x7 DUP2 ADD SLOAD PUSH1 0xFF AND ISZERO JUMPDEST DUP1 ISZERO PUSH2 0x1E01 JUMPI POP PUSH1 0x1 PUSH1 0x1 PUSH1 0xA0 SHL SUB DUP4 AND PUSH1 0x0 SWAP1 DUP2 MSTORE PUSH1 0x4 PUSH1 0x20 MSTORE PUSH1 0x40 SWAP1 KECCAK256 SLOAD PUSH1 0xFF AND ISZERO JUMPDEST ISZERO PUSH2 0x19F8 JUMPI PUSH1 0x0 PUSH2 0x1E10 PUSH2 0x1447 JUMP JUMPDEST PUSH2 0x1E18 PUSH2 0x1672 JUMP JUMPDEST PUSH2 0x1E22 SWAP2 SWAP1 PUSH2 0x396B JUMP JUMPDEST SWAP1 POP PUSH1 0x0 PUSH1 0x7 SLOAD DUP3 DUP5 PUSH1 0x0 ADD SLOAD PUSH2 0x1E39 SWAP2 SWAP1 PUSH2 0x397E JUMP JUMPDEST PUSH2 0x1E43 SWAP2 SWAP1 PUSH2 0x3995 JUMP JUMPDEST SWAP1 POP PUSH1 0x0 DUP4 PUSH1 0x2 ADD SLOAD DUP3 PUSH2 0x1E57 SWAP2 SWAP1 PUSH2 0x39B7 JUMP JUMPDEST PUSH1 0x13 SLOAD SWAP1 SWAP2 POP DUP7 EXTCODESIZE ISZERO PUSH2 0x1E69 JUMPI POP PUSH1 0x14 SLOAD JUMPDEST PUSH1 0x0 PUSH2 0x2710 PUSH2 0x1E78 DUP4 DUP6 PUSH2 0x397E JUMP JUMPDEST PUSH2 0x1E82 SWAP2 SWAP1 PUSH2 0x3995 JUMP JUMPDEST SWAP9 SWAP8 POP POP POP POP POP POP POP POP JUMP JUMPDEST PUSH1 0x8 SLOAD PUSH1 0x1 PUSH1 0x1 PUSH1 0xA0 SHL SUB AND CALLER EQ PUSH2 0x1EB8 JUMPI PUSH1 0x40 MLOAD PUSH3 0x461BCD PUSH1 0xE5 SHL DUP2 MSTORE PUSH1 0x4 ADD PUSH2 0x9ED SWAP1 PUSH2 0x3875 JUMP JUMPDEST PUSH1 0x1 PUSH1 0x1 PUSH1 0xA0 SHL SUB DUP2 AND PUSH2 0x1EDE JUMPI PUSH1 0x40 MLOAD PUSH3 0x461BCD PUSH1 0xE5 SHL DUP2 MSTORE PUSH1 0x4 ADD PUSH2 0x9ED SWAP1 PUSH2 0x39CA JUMP JUMPDEST PUSH1 0x2 DUP1 SLOAD PUSH1 0x1 PUSH1 0x1 PUSH1 0xA0 SHL SUB NOT AND PUSH1 0x1 PUSH1 0x1 PUSH1 0xA0 SHL SUB DUP4 AND SWAP1 DUP2 OR SWAP1 SWAP2 SSTORE PUSH1 0x40 MLOAD SWAP1 DUP2 MSTORE PUSH32 0x5352E27B0414343D9438A1C6E9D04C65C7CB4D91F44920AFEE588F91717893F1 SWAP1 PUSH1 0x20 ADD PUSH2 0xA93 JUMP JUMPDEST PUSH1 0x8 SLOAD PUSH1 0x1 PUSH1 0x1 PUSH1 0xA0 SHL SUB AND CALLER EQ PUSH2 0x1F56 JUMPI PUSH1 0x40 MLOAD PUSH3 0x461BCD PUSH1 0xE5 SHL DUP2 MSTORE PUSH1 0x4 ADD PUSH2 0x9ED SWAP1 PUSH2 0x3875 JUMP JUMPDEST PUSH32 0x0 PUSH1 0x1 PUSH1 0x1 PUSH1 0xA0 SHL SUB AND DUP2 PUSH1 0x1 PUSH1 0x1 PUSH1 0xA0 SHL SUB AND SUB PUSH2 0x1FE5 JUMPI PUSH1 0x40 MLOAD PUSH3 0x461BCD PUSH1 0xE5 SHL DUP2 MSTORE PUSH1 0x20 PUSH1 0x4 DUP3 ADD MSTORE PUSH1 0x25 PUSH1 0x24 DUP3 ADD MSTORE PUSH32 0x546F6B656E2063616E6E6F742062652073616D65206173206465706F73697420 PUSH1 0x44 DUP3 ADD MSTORE PUSH5 0x3A37B5B2B7 PUSH1 0xD9 SHL PUSH1 0x64 DUP3 ADD MSTORE PUSH1 0x84 ADD PUSH2 0x9ED JUMP JUMPDEST PUSH1 0x40 MLOAD PUSH4 0x70A08231 PUSH1 0xE0 SHL DUP2 MSTORE ADDRESS PUSH1 0x4 DUP3 ADD MSTORE PUSH1 0x0 SWAP1 PUSH1 0x1 PUSH1 0x1 PUSH1 0xA0 SHL SUB DUP4 AND SWAP1 PUSH4 0x70A08231 SWAP1 PUSH1 0x24 ADD PUSH1 0x20 PUSH1 0x40 MLOAD DUP1 DUP4 SUB DUP2 DUP7 GAS STATICCALL ISZERO DUP1 ISZERO PUSH2 0x202C JUMPI RETURNDATASIZE PUSH1 0x0 DUP1 RETURNDATACOPY RETURNDATASIZE PUSH1 0x0 REVERT JUMPDEST POP POP POP POP PUSH1 0x40 MLOAD RETURNDATASIZE PUSH1 0x1F NOT PUSH1 0x1F DUP3 ADD AND DUP3 ADD DUP1 PUSH1 0x40 MSTORE POP DUP2 ADD SWAP1 PUSH2 0x2050 SWAP2 SWAP1 PUSH2 0x391F JUMP JUMPDEST SWAP1 POP PUSH2 0x2066 PUSH1 0x1 PUSH1 0x1 PUSH1 0xA0 SHL SUB DUP4 AND CALLER DUP4 PUSH2 0x2EBB JUMP JUMPDEST POP POP JUMP JUMPDEST PUSH1 0x8 SLOAD PUSH1 0x1 PUSH1 0x1 PUSH1 0xA0 SHL SUB AND CALLER EQ PUSH2 0x2094 JUMPI PUSH1 0x40 MLOAD PUSH3 0x461BCD PUSH1 0xE5 SHL DUP2 MSTORE PUSH1 0x4 ADD PUSH2 0x9ED SWAP1 PUSH2 0x3875 JUMP JUMPDEST PUSH1 0x1 PUSH1 0x1 PUSH1 0xA0 SHL SUB DUP2 AND PUSH2 0x20BA JUMPI PUSH1 0x40 MLOAD PUSH3 0x461BCD PUSH1 0xE5 SHL DUP2 MSTORE PUSH1 0x4 ADD PUSH2 0x9ED SWAP1 PUSH2 0x39CA JUMP JUMPDEST PUSH1 0x1 DUP1 SLOAD PUSH1 0x1 PUSH1 0x1 PUSH1 0xA0 SHL SUB NOT AND PUSH1 0x1 PUSH1 0x1 PUSH1 0xA0 SHL SUB DUP4 AND SWAP1 DUP2 OR SWAP1 SWAP2 SSTORE PUSH1 0x40 MLOAD SWAP1 DUP2 MSTORE PUSH32 0x8F49A182922022D9119A1A6AEECA151B4A5665E86BD61C1FF32E152D459558B2 SWAP1 PUSH1 0x20 ADD PUSH2 0xA93 JUMP JUMPDEST PUSH2 0x2110 PUSH2 0x23A0 JUMP JUMPDEST PUSH1 0x0 DUP3 GT DUP1 PUSH2 0x211F JUMPI POP PUSH1 0x0 DUP2 GT JUMPDEST PUSH2 0x2160 JUMPI PUSH1 0x40 MLOAD PUSH3 0x461BCD PUSH1 0xE5 SHL DUP2 MSTORE PUSH1 0x20 PUSH1 0x4 DUP3 ADD MSTORE PUSH1 0x12 PUSH1 0x24 DUP3 ADD MSTORE PUSH18 0x139BDD1A1A5B99C81D1BC819195C1BDCDA5D PUSH1 0x72 SHL PUSH1 0x44 DUP3 ADD MSTORE PUSH1 0x64 ADD PUSH2 0x9ED JUMP JUMPDEST PUSH2 0x2066 DUP3 DUP3 CALLER PUSH2 0x276E JUMP JUMPDEST PUSH1 0x0 SLOAD PUSH1 0x1 PUSH1 0x1 PUSH1 0xA0 SHL SUB AND CALLER EQ PUSH2 0x2195 JUMPI PUSH1 0x40 MLOAD PUSH3 0x461BCD PUSH1 0xE5 SHL DUP2 MSTORE PUSH1 0x4 ADD PUSH2 0x9ED SWAP1 PUSH2 0x38EA JUMP JUMPDEST PUSH1 0x1 PUSH1 0x1 PUSH1 0xA0 SHL SUB DUP2 AND PUSH2 0x21BB JUMPI PUSH1 0x40 MLOAD PUSH3 0x461BCD PUSH1 0xE5 SHL DUP2 MSTORE PUSH1 0x4 ADD PUSH2 0x9ED SWAP1 PUSH2 0x39CA JUMP JUMPDEST PUSH1 0x9 DUP1 SLOAD PUSH1 0x1 PUSH1 0x1 PUSH1 0xA0 SHL SUB NOT AND PUSH1 0x1 PUSH1 0x1 PUSH1 0xA0 SHL SUB DUP4 AND SWAP1 DUP2 OR SWAP1 SWAP2 SSTORE PUSH1 0x40 MLOAD SWAP1 DUP2 MSTORE PUSH32 0xAFA147634B29E2C7BD53CE194256B9F41CFB9BA3036F2B822FDD1D965BEEA086 SWAP1 PUSH1 0x20 ADD PUSH2 0xA93 JUMP JUMPDEST PUSH1 0x0 SLOAD PUSH1 0x1 PUSH1 0x1 PUSH1 0xA0 SHL SUB AND CALLER EQ PUSH2 0x2233 JUMPI PUSH1 0x40 MLOAD PUSH3 0x461BCD PUSH1 0xE5 SHL DUP2 MSTORE PUSH1 0x4 ADD PUSH2 0x9ED SWAP1 PUSH2 0x38EA JUMP JUMPDEST PUSH2 0xFC5 DUP2 PUSH2 0x2EEC JUMP JUMPDEST PUSH1 0x8 SLOAD PUSH1 0x1 PUSH1 0x1 PUSH1 0xA0 SHL SUB AND CALLER EQ PUSH2 0x2266 JUMPI PUSH1 0x40 MLOAD PUSH3 0x461BCD PUSH1 0xE5 SHL DUP2 MSTORE PUSH1 0x4 ADD PUSH2 0x9ED SWAP1 PUSH2 0x3875 JUMP JUMPDEST PUSH4 0x5265C00 DUP2 GT ISZERO PUSH2 0x22E0 JUMPI PUSH1 0x40 MLOAD PUSH3 0x461BCD PUSH1 0xE5 SHL DUP2 MSTORE PUSH1 0x20 PUSH1 0x4 DUP3 ADD MSTORE PUSH1 0x3D PUSH1 0x24 DUP3 ADD MSTORE PUSH32 0x4D41585F4C4F434B5F4455524154494F4E2063616E6E6F74206265206D6F7265 PUSH1 0x44 DUP3 ADD MSTORE PUSH32 0x207468616E204D41585F4C4F434B5F4455524154494F4E5F4C494D4954000000 PUSH1 0x64 DUP3 ADD MSTORE PUSH1 0x84 ADD PUSH2 0x9ED JUMP JUMPDEST PUSH1 0xF DUP2 SWAP1 SSTORE PUSH1 0x40 MLOAD DUP2 DUP2 MSTORE PUSH32 0xCAB2F3455B51B6CA5377E84FCCD0F890B6F6CA36C02E18B6D36CB34F469FE4FE SWAP1 PUSH1 0x20 ADD PUSH2 0xA93 JUMP JUMPDEST PUSH1 0x40 MLOAD PUSH1 0x1 PUSH1 0x1 PUSH1 0xA0 SHL SUB DUP5 DUP2 AND PUSH1 0x24 DUP4 ADD MSTORE DUP4 DUP2 AND PUSH1 0x44 DUP4 ADD MSTORE PUSH1 0x64 DUP3 ADD DUP4 SWAP1 MSTORE PUSH2 0x237C SWAP2 DUP7 SWAP2 DUP3 AND SWAP1 PUSH4 0x23B872DD SWAP1 PUSH1 0x84 ADD JUMPDEST PUSH1 0x40 MLOAD PUSH1 0x20 DUP2 DUP4 SUB SUB DUP2 MSTORE SWAP1 PUSH1 0x40 MSTORE SWAP2 POP PUSH1 0xE0 SHL PUSH1 0x20 DUP3 ADD DUP1 MLOAD PUSH1 0x1 PUSH1 0x1 PUSH1 0xE0 SHL SUB DUP4 DUP2 DUP4 AND OR DUP4 MSTORE POP POP POP POP PUSH2 0x2FAC JUMP JUMPDEST POP POP POP POP JUMP JUMPDEST PUSH1 0x0 PUSH2 0x238D DUP3 PUSH2 0x18AE JUMP JUMPDEST PUSH2 0x2396 DUP4 PUSH2 0x1DAF JUMP JUMPDEST PUSH2 0xF66 SWAP2 SWAP1 PUSH2 0x396B JUMP JUMPDEST PUSH1 0x0 SLOAD PUSH1 0x1 PUSH1 0xA0 SHL SWAP1 DIV PUSH1 0xFF AND ISZERO PUSH2 0x17DB JUMPI PUSH1 0x40 MLOAD PUSH3 0x461BCD PUSH1 0xE5 SHL DUP2 MSTORE PUSH1 0x20 PUSH1 0x4 DUP3 ADD MSTORE PUSH1 0x10 PUSH1 0x24 DUP3 ADD MSTORE PUSH16 0x14185D5CD8589B194E881C185D5CD959 PUSH1 0x82 SHL PUSH1 0x44 DUP3 ADD MSTORE PUSH1 0x64 ADD PUSH2 0x9ED JUMP JUMPDEST CALLER PUSH1 0x0 SWAP1 DUP2 MSTORE PUSH1 0x3 PUSH1 0x20 MSTORE PUSH1 0x40 SWAP1 KECCAK256 DUP1 SLOAD DUP4 GT ISZERO PUSH2 0x244D JUMPI PUSH1 0x40 MLOAD PUSH3 0x461BCD PUSH1 0xE5 SHL DUP2 MSTORE PUSH1 0x20 PUSH1 0x4 DUP3 ADD MSTORE PUSH1 0x1F PUSH1 0x24 DUP3 ADD MSTORE PUSH32 0x576974686472617720616D6F756E7420657863656564732062616C616E636500 PUSH1 0x44 DUP3 ADD MSTORE PUSH1 0x64 ADD PUSH2 0x9ED JUMP JUMPDEST TIMESTAMP DUP2 PUSH1 0x5 ADD SLOAD LT PUSH2 0x2490 JUMPI PUSH1 0x40 MLOAD PUSH3 0x461BCD PUSH1 0xE5 SHL DUP2 MSTORE PUSH1 0x20 PUSH1 0x4 DUP3 ADD MSTORE PUSH1 0xD PUSH1 0x24 DUP3 ADD MSTORE PUSH13 0x5374696C6C20696E206C6F636B PUSH1 0x98 SHL PUSH1 0x44 DUP3 ADD MSTORE PUSH1 0x64 ADD PUSH2 0x9ED JUMP JUMPDEST PUSH1 0x2 SLOAD PUSH1 0x1 PUSH1 0x1 PUSH1 0xA0 SHL SUB AND ISZERO PUSH2 0x24FF JUMPI PUSH1 0x2 SLOAD PUSH1 0x40 MLOAD PUSH4 0x51CFF8D9 PUSH1 0xE0 SHL DUP2 MSTORE CALLER PUSH1 0x4 DUP3 ADD MSTORE PUSH1 0x1 PUSH1 0x1 PUSH1 0xA0 SHL SUB SWAP1 SWAP2 AND SWAP1 PUSH4 0x51CFF8D9 SWAP1 PUSH1 0x24 ADD PUSH1 0x0 PUSH1 0x40 MLOAD DUP1 DUP4 SUB DUP2 PUSH1 0x0 DUP8 DUP1 EXTCODESIZE ISZERO DUP1 ISZERO PUSH2 0x24E6 JUMPI PUSH1 0x0 DUP1 REVERT JUMPDEST POP GAS CALL ISZERO DUP1 ISZERO PUSH2 0x24FA JUMPI RETURNDATASIZE PUSH1 0x0 DUP1 RETURNDATACOPY RETURNDATASIZE PUSH1 0x0 REVERT JUMPDEST POP POP POP POP JUMPDEST DUP1 SLOAD DUP4 SWAP1 PUSH1 0x0 SWAP1 PUSH2 0x251C PUSH12 0x204FCE5E3E25026110000000 DUP5 PUSH2 0x397E JUMP JUMPDEST PUSH2 0x2526 SWAP2 SWAP1 PUSH2 0x3995 JUMP JUMPDEST SWAP1 POP PUSH2 0x2530 PUSH2 0x300F JUMP JUMPDEST PUSH2 0x2539 CALLER PUSH2 0x318D JUMP JUMPDEST DUP5 ISZERO DUP1 ISZERO PUSH2 0x2547 JUMPI POP PUSH1 0x0 DUP5 GT JUMPDEST ISZERO PUSH2 0x2588 JUMPI PUSH1 0x0 PUSH2 0x2556 PUSH2 0x1672 JUMP JUMPDEST SWAP1 POP DUP1 PUSH1 0x7 SLOAD DUP7 PUSH2 0x2567 SWAP2 SWAP1 PUSH2 0x397E JUMP JUMPDEST PUSH2 0x2571 SWAP2 SWAP1 PUSH2 0x3995 JUMP JUMPDEST DUP5 SLOAD SWAP1 SWAP4 POP DUP4 GT ISZERO PUSH2 0x2582 JUMPI DUP4 SLOAD SWAP3 POP JUMPDEST POP PUSH2 0x25AF JUMP JUMPDEST DUP3 SLOAD PUSH12 0x204FCE5E3E25026110000000 SWAP1 PUSH2 0x25A2 SWAP1 DUP4 PUSH2 0x397E JUMP JUMPDEST PUSH2 0x25AC SWAP2 SWAP1 PUSH2 0x3995 JUMP JUMPDEST SWAP2 POP JUMPDEST PUSH1 0x0 PUSH1 0x7 SLOAD DUP4 PUSH2 0x25BD PUSH2 0x1672 JUMP JUMPDEST PUSH2 0x25C7 SWAP2 SWAP1 PUSH2 0x397E JUMP JUMPDEST PUSH2 0x25D1 SWAP2 SWAP1 PUSH2 0x3995 JUMP JUMPDEST SWAP1 POP DUP3 DUP5 PUSH1 0x0 ADD PUSH1 0x0 DUP3 DUP3 SLOAD PUSH2 0x25E7 SWAP2 SWAP1 PUSH2 0x39B7 JUMP JUMPDEST SWAP3 POP POP DUP2 SWAP1 SSTORE POP DUP3 PUSH1 0x7 PUSH1 0x0 DUP3 DUP3 SLOAD PUSH2 0x2600 SWAP2 SWAP1 PUSH2 0x39B7 JUMP JUMPDEST SWAP1 SWAP2 SSTORE POP POP CALLER PUSH1 0x0 SWAP1 DUP2 MSTORE PUSH1 0x5 PUSH1 0x20 MSTORE PUSH1 0x40 SWAP1 KECCAK256 SLOAD PUSH1 0xFF AND ISZERO DUP1 ISZERO PUSH2 0x2635 JUMPI POP PUSH1 0x18 SLOAD DUP5 PUSH1 0x1 ADD SLOAD PUSH2 0x2632 SWAP2 SWAP1 PUSH2 0x396B JUMP JUMPDEST TIMESTAMP LT JUMPDEST ISZERO PUSH2 0x26AE JUMPI PUSH1 0x15 SLOAD CALLER EXTCODESIZE ISZERO PUSH2 0x2649 JUMPI POP PUSH1 0x16 SLOAD JUMPDEST PUSH1 0x0 PUSH2 0x2710 PUSH2 0x2658 DUP4 DUP6 PUSH2 0x397E JUMP JUMPDEST PUSH2 0x2662 SWAP2 SWAP1 PUSH2 0x3995 JUMP JUMPDEST PUSH1 0x9 SLOAD SWAP1 SWAP2 POP PUSH2 0x269F SWAP1 PUSH1 0x1 PUSH1 0x1 PUSH1 0xA0 SHL SUB PUSH32 0x0 DUP2 AND SWAP2 AND DUP4 PUSH2 0x2EBB JUMP JUMPDEST PUSH2 0x26A9 DUP2 DUP5 PUSH2 0x39B7 JUMP JUMPDEST SWAP3 POP POP POP JUMPDEST PUSH2 0x26E2 PUSH1 0x1 PUSH1 0x1 PUSH1 0xA0 SHL SUB PUSH32 0x0 AND CALLER DUP4 PUSH2 0x2EBB JUMP JUMPDEST DUP4 SLOAD ISZERO PUSH2 0x2714 JUMPI PUSH1 0x7 SLOAD PUSH2 0x26F4 PUSH2 0x1672 JUMP JUMPDEST DUP6 SLOAD PUSH2 0x2700 SWAP2 SWAP1 PUSH2 0x397E JUMP JUMPDEST PUSH2 0x270A SWAP2 SWAP1 PUSH2 0x3995 JUMP JUMPDEST PUSH1 0x2 DUP6 ADD SSTORE PUSH2 0x271C JUMP JUMPDEST PUSH1 0x0 PUSH1 0x2 DUP6 ADD SSTORE JUMPDEST TIMESTAMP PUSH1 0x3 DUP6 ADD SSTORE PUSH2 0x272B CALLER PUSH2 0x3588 JUMP JUMPDEST PUSH1 0x40 DUP1 MLOAD DUP3 DUP2 MSTORE PUSH1 0x20 DUP2 ADD DUP6 SWAP1 MSTORE CALLER SWAP2 PUSH32 0xF279E6A1F5E320CCA91135676D9CB6E44CA8A08C0B88342BCDB1144F6511B568 SWAP2 ADD PUSH1 0x40 MLOAD DUP1 SWAP2 SUB SWAP1 LOG2 POP POP POP POP POP POP JUMP JUMPDEST PUSH1 0x1 PUSH1 0x1 PUSH1 0xA0 SHL SUB DUP2 AND PUSH1 0x0 SWAP1 DUP2 MSTORE PUSH1 0x3 PUSH1 0x20 MSTORE PUSH1 0x40 SWAP1 KECCAK256 DUP1 SLOAD ISZERO DUP1 PUSH2 0x2794 JUMPI POP PUSH1 0x0 DUP5 GT JUMPDEST ISZERO PUSH2 0x280D JUMPI PUSH6 0x9184E72A000 DUP5 GT PUSH2 0x280D JUMPI PUSH1 0x40 MLOAD PUSH3 0x461BCD PUSH1 0xE5 SHL DUP2 MSTORE PUSH1 0x20 PUSH1 0x4 DUP3 ADD MSTORE PUSH1 0x36 PUSH1 0x24 DUP3 ADD MSTORE PUSH32 0x4465706F73697420616D6F756E74206D75737420626520677265617465722074 PUSH1 0x44 DUP3 ADD MSTORE PUSH22 0x1A185B8813525397D1115413D4D25517D05353D55395 PUSH1 0x52 SHL PUSH1 0x64 DUP3 ADD MSTORE PUSH1 0x84 ADD PUSH2 0x9ED JUMP JUMPDEST PUSH1 0x5 DUP2 ADD SLOAD DUP4 SWAP1 TIMESTAMP GT PUSH2 0x286B JUMPI DUP5 ISZERO PUSH2 0x284A JUMPI TIMESTAMP PUSH1 0x4 DUP4 ADD SSTORE PUSH1 0x8 DUP3 ADD SLOAD PUSH1 0xD DUP1 SLOAD PUSH1 0x0 SWAP1 PUSH2 0x283D SWAP1 DUP5 SWAP1 PUSH2 0x39B7 JUMP JUMPDEST SWAP1 SWAP2 SSTORE POP POP PUSH1 0x0 PUSH1 0x8 DUP4 ADD SSTORE JUMPDEST DUP2 PUSH1 0x4 ADD SLOAD DUP3 PUSH1 0x5 ADD SLOAD PUSH2 0x285E SWAP2 SWAP1 PUSH2 0x39B7 JUMP JUMPDEST PUSH2 0x2868 SWAP1 DUP3 PUSH2 0x396B JUMP JUMPDEST SWAP1 POP JUMPDEST DUP4 ISZERO DUP1 PUSH2 0x287B JUMPI POP PUSH3 0x93A80 DUP2 LT ISZERO JUMPDEST PUSH2 0x28C7 JUMPI PUSH1 0x40 MLOAD PUSH3 0x461BCD PUSH1 0xE5 SHL DUP2 MSTORE PUSH1 0x20 PUSH1 0x4 DUP3 ADD MSTORE PUSH1 0x1F PUSH1 0x24 DUP3 ADD MSTORE PUSH32 0x4D696E696D756D206C6F636B20706572696F64206973206F6E65207765656B00 PUSH1 0x44 DUP3 ADD MSTORE PUSH1 0x64 ADD PUSH2 0x9ED JUMP JUMPDEST PUSH1 0xF SLOAD DUP2 GT ISZERO PUSH2 0x2919 JUMPI PUSH1 0x40 MLOAD PUSH3 0x461BCD PUSH1 0xE5 SHL DUP2 MSTORE PUSH1 0x20 PUSH1 0x4 DUP3 ADD MSTORE PUSH1 0x1C PUSH1 0x24 DUP3 ADD MSTORE PUSH32 0x4D6178696D756D206C6F636B20706572696F6420657863656564656400000000 PUSH1 0x44 DUP3 ADD MSTORE PUSH1 0x64 ADD PUSH2 0x9ED JUMP JUMPDEST PUSH1 0x2 SLOAD PUSH1 0x1 PUSH1 0x1 PUSH1 0xA0 SHL SUB AND ISZERO PUSH2 0x2998 JUMPI PUSH1 0x2 SLOAD PUSH1 0x40 MLOAD PUSH4 0xEFE6A8B PUSH1 0xE0 SHL DUP2 MSTORE PUSH1 0x1 PUSH1 0x1 PUSH1 0xA0 SHL SUB DUP6 DUP2 AND PUSH1 0x4 DUP4 ADD MSTORE PUSH1 0x24 DUP3 ADD DUP9 SWAP1 MSTORE PUSH1 0x44 DUP3 ADD DUP8 SWAP1 MSTORE SWAP1 SWAP2 AND SWAP1 PUSH4 0xEFE6A8B SWAP1 PUSH1 0x64 ADD PUSH1 0x0 PUSH1 0x40 MLOAD DUP1 DUP4 SUB DUP2 PUSH1 0x0 DUP8 DUP1 EXTCODESIZE ISZERO DUP1 ISZERO PUSH2 0x297F JUMPI PUSH1 0x0 DUP1 REVERT JUMPDEST POP GAS CALL ISZERO DUP1 ISZERO PUSH2 0x2993 JUMPI RETURNDATASIZE PUSH1 0x0 DUP1 RETURNDATACOPY RETURNDATASIZE PUSH1 0x0 REVERT JUMPDEST POP POP POP POP JUMPDEST PUSH2 0x29A0 PUSH2 0x300F JUMP JUMPDEST PUSH1 0x7 SLOAD PUSH1 0x0 SUB PUSH2 0x29F3 JUMPI PUSH1 0x0 PUSH2 0x29B4 PUSH2 0x1285 JUMP JUMPDEST PUSH1 0x9 SLOAD SWAP1 SWAP2 POP PUSH2 0x29F1 SWAP1 PUSH1 0x1 PUSH1 0x1 PUSH1 0xA0 SHL SUB PUSH32 0x0 DUP2 AND SWAP2 AND DUP4 PUSH2 0x2EBB JUMP JUMPDEST POP JUMPDEST PUSH2 0x29FC DUP4 PUSH2 0x318D JUMP JUMPDEST DUP4 ISZERO PUSH2 0x2A55 JUMPI TIMESTAMP DUP3 PUSH1 0x5 ADD SLOAD LT ISZERO PUSH2 0x2A2B JUMPI TIMESTAMP PUSH1 0x4 DUP4 ADD DUP2 SWAP1 SSTORE PUSH2 0x2A21 SWAP1 DUP6 SWAP1 PUSH2 0x396B JUMP JUMPDEST PUSH1 0x5 DUP4 ADD SSTORE PUSH2 0x2A45 JUMP JUMPDEST DUP4 DUP3 PUSH1 0x5 ADD PUSH1 0x0 DUP3 DUP3 SLOAD PUSH2 0x2A3F SWAP2 SWAP1 PUSH2 0x396B JUMP JUMPDEST SWAP1 SWAP2 SSTORE POP POP JUMPDEST PUSH1 0x7 DUP3 ADD DUP1 SLOAD PUSH1 0xFF NOT AND PUSH1 0x1 OR SWAP1 SSTORE JUMPDEST PUSH1 0x0 DUP1 PUSH1 0x0 DUP1 PUSH2 0x2A63 PUSH2 0x1672 JUMP JUMPDEST SWAP1 POP DUP9 ISZERO PUSH2 0x2AA4 JUMPI PUSH2 0x2AA0 PUSH1 0x1 PUSH1 0x1 PUSH1 0xA0 SHL SUB PUSH32 0x0 AND DUP9 ADDRESS DUP13 PUSH2 0x2315 JUMP JUMPDEST DUP9 SWAP3 POP JUMPDEST DUP6 SLOAD ISZERO DUP1 ISZERO SWAP1 PUSH2 0x2AB8 JUMPI POP PUSH1 0x7 DUP7 ADD SLOAD PUSH1 0xFF AND JUMPDEST ISZERO PUSH2 0x2B31 JUMPI PUSH1 0x7 SLOAD DUP7 SLOAD PUSH2 0x2ACC SWAP1 DUP4 PUSH2 0x397E JUMP JUMPDEST PUSH2 0x2AD6 SWAP2 SWAP1 PUSH2 0x3995 JUMP JUMPDEST SWAP2 POP PUSH2 0x2AE2 DUP3 DUP5 PUSH2 0x396B JUMP JUMPDEST SWAP3 POP DUP6 PUSH1 0x0 ADD SLOAD PUSH1 0x7 PUSH1 0x0 DUP3 DUP3 SLOAD PUSH2 0x2AFA SWAP2 SWAP1 PUSH2 0x39B7 JUMP JUMPDEST SWAP1 SWAP2 SSTORE POP POP PUSH1 0x0 DUP7 SSTORE PUSH1 0x4 DUP7 ADD SLOAD TIMESTAMP SWAP1 SUB PUSH2 0x2B31 JUMPI PUSH1 0x8 DUP7 ADD DUP3 SWAP1 SSTORE PUSH1 0xD DUP1 SLOAD DUP4 SWAP2 SWAP1 PUSH1 0x0 SWAP1 PUSH2 0x2B2B SWAP1 DUP5 SWAP1 PUSH2 0x396B JUMP JUMPDEST SWAP1 SWAP2 SSTORE POP POP JUMPDEST PUSH1 0x7 SLOAD ISZERO PUSH2 0x2B61 JUMPI PUSH2 0x2B43 DUP3 DUP3 PUSH2 0x39B7 JUMP JUMPDEST PUSH1 0x7 SLOAD PUSH2 0x2B50 SWAP1 DUP6 PUSH2 0x397E JUMP JUMPDEST PUSH2 0x2B5A SWAP2 SWAP1 PUSH2 0x3995 JUMP JUMPDEST SWAP4 POP PUSH2 0x2B65 JUMP JUMPDEST DUP3 SWAP4 POP JUMPDEST DUP6 PUSH1 0x4 ADD SLOAD DUP7 PUSH1 0x5 ADD SLOAD GT ISZERO PUSH2 0x2CE6 JUMPI PUSH1 0x0 PUSH1 0x10 SLOAD PUSH1 0x12 SLOAD DUP9 PUSH1 0x4 ADD SLOAD DUP10 PUSH1 0x5 ADD SLOAD PUSH2 0x2B91 SWAP2 SWAP1 PUSH2 0x39B7 JUMP JUMPDEST PUSH2 0x2B9B SWAP2 SWAP1 PUSH2 0x397E JUMP JUMPDEST PUSH2 0x2BA5 SWAP2 SWAP1 PUSH2 0x3995 JUMP JUMPDEST SWAP1 POP PUSH1 0x0 PUSH5 0xE8D4A51000 PUSH2 0x2BB9 DUP8 DUP5 PUSH2 0x397E JUMP JUMPDEST PUSH2 0x2BC3 SWAP2 SWAP1 PUSH2 0x3995 JUMP JUMPDEST SWAP1 POP PUSH2 0x2BCF DUP2 DUP8 PUSH2 0x396B JUMP JUMPDEST SWAP6 POP DUP6 DUP9 PUSH1 0x0 ADD PUSH1 0x0 DUP3 DUP3 SLOAD PUSH2 0x2BE5 SWAP2 SWAP1 PUSH2 0x396B JUMP JUMPDEST SWAP1 SWAP2 SSTORE POP PUSH1 0x0 SWAP1 POP PUSH5 0xE8D4A51000 PUSH2 0x2BFD DUP8 DUP6 PUSH2 0x397E JUMP JUMPDEST PUSH2 0x2C07 SWAP2 SWAP1 PUSH2 0x3995 JUMP JUMPDEST SWAP1 POP DUP1 DUP10 PUSH1 0x6 ADD PUSH1 0x0 DUP3 DUP3 SLOAD PUSH2 0x2C1D SWAP2 SWAP1 PUSH2 0x396B JUMP JUMPDEST SWAP3 POP POP DUP2 SWAP1 SSTORE POP DUP1 PUSH1 0xC PUSH1 0x0 DUP3 DUP3 SLOAD PUSH2 0x2C36 SWAP2 SWAP1 PUSH2 0x396B JUMP JUMPDEST SWAP3 POP POP DUP2 SWAP1 SSTORE POP DUP12 DUP10 PUSH1 0x8 ADD PUSH1 0x0 DUP3 DUP3 SLOAD PUSH2 0x2C51 SWAP2 SWAP1 PUSH2 0x396B JUMP JUMPDEST SWAP3 POP POP DUP2 SWAP1 SSTORE POP DUP12 PUSH1 0xD PUSH1 0x0 DUP3 DUP3 SLOAD PUSH2 0x2C6A SWAP2 SWAP1 PUSH2 0x396B JUMP JUMPDEST SWAP3 POP POP DUP2 SWAP1 SSTORE POP DUP10 PUSH1 0x1 PUSH1 0x1 PUSH1 0xA0 SHL SUB AND PUSH32 0x2B943276E5D747F6F7DD46D3B880D8874CB8D6B9B88CA1903990A2738E7DC7A1 DUP11 PUSH1 0x8 ADD SLOAD DUP12 PUSH1 0x0 ADD SLOAD DUP13 PUSH1 0x4 ADD SLOAD DUP14 PUSH1 0x5 ADD SLOAD PUSH2 0x2CBA SWAP2 SWAP1 PUSH2 0x39B7 JUMP JUMPDEST PUSH1 0x40 DUP1 MLOAD SWAP4 DUP5 MSTORE PUSH1 0x20 DUP5 ADD SWAP3 SWAP1 SWAP3 MSTORE SWAP1 DUP3 ADD MSTORE TIMESTAMP PUSH1 0x60 DUP3 ADD MSTORE PUSH1 0x80 ADD PUSH1 0x40 MLOAD DUP1 SWAP2 SUB SWAP1 LOG2 POP POP POP PUSH2 0x2D00 JUMP JUMPDEST DUP4 DUP7 PUSH1 0x0 ADD PUSH1 0x0 DUP3 DUP3 SLOAD PUSH2 0x2CFA SWAP2 SWAP1 PUSH2 0x396B JUMP JUMPDEST SWAP1 SWAP2 SSTORE POP POP JUMPDEST PUSH1 0x0 DUP10 GT DUP1 PUSH2 0x2D0F JUMPI POP PUSH1 0x0 DUP9 GT JUMPDEST ISZERO PUSH2 0x2D1B JUMPI TIMESTAMP PUSH1 0x1 DUP8 ADD SSTORE JUMPDEST DUP4 PUSH1 0x7 PUSH1 0x0 DUP3 DUP3 SLOAD PUSH2 0x2D2D SWAP2 SWAP1 PUSH2 0x396B JUMP JUMPDEST SWAP1 SWAP2 SSTORE POP POP PUSH1 0x6 DUP7 ADD SLOAD PUSH1 0x7 SLOAD PUSH2 0x2D42 PUSH2 0x1672 JUMP JUMPDEST DUP9 SLOAD PUSH2 0x2D4E SWAP2 SWAP1 PUSH2 0x397E JUMP JUMPDEST PUSH2 0x2D58 SWAP2 SWAP1 PUSH2 0x3995 JUMP JUMPDEST PUSH2 0x2D62 SWAP2 SWAP1 PUSH2 0x39B7 JUMP JUMPDEST PUSH1 0x2 DUP8 ADD SSTORE TIMESTAMP PUSH1 0x3 DUP8 ADD SSTORE PUSH2 0x2D76 DUP8 PUSH2 0x3588 JUMP JUMPDEST PUSH1 0x40 DUP1 MLOAD DUP11 DUP2 MSTORE PUSH1 0x20 DUP2 ADD DUP7 SWAP1 MSTORE SWAP1 DUP2 ADD DUP10 SWAP1 MSTORE TIMESTAMP PUSH1 0x60 DUP3 ADD MSTORE PUSH1 0x1 PUSH1 0x1 PUSH1 0xA0 SHL SUB DUP9 AND SWAP1 PUSH32 0x7162984403F6C73C8639375D45A9187DFD04602231BD8E587C415718B5F7E5F9 SWAP1 PUSH1 0x80 ADD PUSH1 0x40 MLOAD DUP1 SWAP2 SUB SWAP1 LOG2 POP POP POP POP POP POP POP POP POP JUMP JUMPDEST PUSH1 0x0 SLOAD PUSH1 0x1 PUSH1 0xA0 SHL SWAP1 DIV PUSH1 0xFF AND PUSH2 0x17DB JUMPI PUSH1 0x40 MLOAD PUSH3 0x461BCD PUSH1 0xE5 SHL DUP2 MSTORE PUSH1 0x20 PUSH1 0x4 DUP3 ADD MSTORE PUSH1 0x14 PUSH1 0x24 DUP3 ADD MSTORE PUSH20 0x14185D5CD8589B194E881B9BDD081C185D5CD959 PUSH1 0x62 SHL PUSH1 0x44 DUP3 ADD MSTORE PUSH1 0x64 ADD PUSH2 0x9ED JUMP JUMPDEST PUSH2 0x2E2B PUSH2 0x2DD3 JUMP JUMPDEST PUSH1 0x0 DUP1 SLOAD PUSH1 0xFF PUSH1 0xA0 SHL NOT AND SWAP1 SSTORE PUSH32 0x5DB9EE0A495BF2E6FF9C91A7834C1BA4FDD244A5E8AA4E537BD38AEAE4B073AA CALLER JUMPDEST PUSH1 0x40 MLOAD PUSH1 0x1 PUSH1 0x1 PUSH1 0xA0 SHL SUB SWAP1 SWAP2 AND DUP2 MSTORE PUSH1 0x20 ADD PUSH1 0x40 MLOAD DUP1 SWAP2 SUB SWAP1 LOG1 JUMP JUMPDEST PUSH2 0x2E80 PUSH2 0x23A0 JUMP JUMPDEST PUSH1 0x0 DUP1 SLOAD PUSH1 0xFF PUSH1 0xA0 SHL NOT AND PUSH1 0x1 PUSH1 0xA0 SHL OR SWAP1 SSTORE PUSH32 0x62E78CEA01BEE320CD4E420270B5EA74000D11B0C9F74754EBDBFC544B05A258 PUSH2 0x2E5B CALLER SWAP1 JUMP JUMPDEST PUSH1 0x40 MLOAD PUSH1 0x1 PUSH1 0x1 PUSH1 0xA0 SHL SUB DUP4 DUP2 AND PUSH1 0x24 DUP4 ADD MSTORE PUSH1 0x44 DUP3 ADD DUP4 SWAP1 MSTORE PUSH2 0x10B9 SWAP2 DUP6 SWAP2 DUP3 AND SWAP1 PUSH4 0xA9059CBB SWAP1 PUSH1 0x64 ADD PUSH2 0x234A JUMP JUMPDEST PUSH1 0x1 PUSH1 0x1 PUSH1 0xA0 SHL SUB DUP2 AND PUSH2 0x2F51 JUMPI PUSH1 0x40 MLOAD PUSH3 0x461BCD PUSH1 0xE5 SHL DUP2 MSTORE PUSH1 0x20 PUSH1 0x4 DUP3 ADD MSTORE PUSH1 0x26 PUSH1 0x24 DUP3 ADD MSTORE PUSH32 0x4F776E61626C653A206E6577206F776E657220697320746865207A65726F2061 PUSH1 0x44 DUP3 ADD MSTORE PUSH6 0x646472657373 PUSH1 0xD0 SHL PUSH1 0x64 DUP3 ADD MSTORE PUSH1 0x84 ADD PUSH2 0x9ED JUMP JUMPDEST PUSH1 0x0 DUP1 SLOAD PUSH1 0x40 MLOAD PUSH1 0x1 PUSH1 0x1 PUSH1 0xA0 SHL SUB DUP1 DUP6 AND SWAP4 SWAP3 AND SWAP2 PUSH32 0x8BE0079C531659141344CD1FD0A4F28419497F9722A3DAAFE3B4186F6B6457E0 SWAP2 LOG3 PUSH1 0x0 DUP1 SLOAD PUSH1 0x1 PUSH1 0x1 PUSH1 0xA0 SHL SUB NOT AND PUSH1 0x1 PUSH1 0x1 PUSH1 0xA0 SHL SUB SWAP3 SWAP1 SWAP3 AND SWAP2 SWAP1 SWAP2 OR SWAP1 SSTORE JUMP JUMPDEST PUSH1 0x0 PUSH2 0x2FC1 PUSH1 0x1 PUSH1 0x1 PUSH1 0xA0 SHL SUB DUP5 AND DUP4 PUSH2 0x3654 JUMP JUMPDEST SWAP1 POP DUP1 MLOAD PUSH1 0x0 EQ ISZERO DUP1 ISZERO PUSH2 0x2FE6 JUMPI POP DUP1 DUP1 PUSH1 0x20 ADD SWAP1 MLOAD DUP2 ADD SWAP1 PUSH2 0x2FE4 SWAP2 SWAP1 PUSH2 0x3938 JUMP JUMPDEST ISZERO JUMPDEST ISZERO PUSH2 0x10B9 JUMPI PUSH1 0x40 MLOAD PUSH4 0x5274AFE7 PUSH1 0xE0 SHL DUP2 MSTORE PUSH1 0x1 PUSH1 0x1 PUSH1 0xA0 SHL SUB DUP5 AND PUSH1 0x4 DUP3 ADD MSTORE PUSH1 0x24 ADD PUSH2 0x9ED JUMP JUMPDEST PUSH1 0xB SLOAD PUSH1 0x40 MLOAD PUSH4 0x1175A1DD PUSH1 0xE0 SHL DUP2 MSTORE PUSH1 0x4 DUP2 ADD SWAP2 SWAP1 SWAP2 MSTORE ADDRESS PUSH1 0x24 DUP3 ADD MSTORE PUSH1 0x0 SWAP1 PUSH32 0x0 PUSH1 0x1 PUSH1 0x1 PUSH1 0xA0 SHL SUB AND SWAP1 PUSH4 0x1175A1DD SWAP1 PUSH1 0x44 ADD PUSH1 0x20 PUSH1 0x40 MLOAD DUP1 DUP4 SUB DUP2 DUP7 GAS STATICCALL ISZERO DUP1 ISZERO PUSH2 0x3081 JUMPI RETURNDATASIZE PUSH1 0x0 DUP1 RETURNDATACOPY RETURNDATASIZE PUSH1 0x0 REVERT JUMPDEST POP POP POP POP PUSH1 0x40 MLOAD RETURNDATASIZE PUSH1 0x1F NOT PUSH1 0x1F DUP3 ADD AND DUP3 ADD DUP1 PUSH1 0x40 MSTORE POP DUP2 ADD SWAP1 PUSH2 0x30A5 SWAP2 SWAP1 PUSH2 0x391F JUMP JUMPDEST SWAP1 POP DUP1 ISZERO PUSH2 0xFC5 JUMPI PUSH1 0x0 PUSH2 0x30B7 PUSH2 0x1285 JUMP JUMPDEST PUSH1 0xB SLOAD PUSH1 0x40 MLOAD PUSH4 0x441A3E7 PUSH1 0xE4 SHL DUP2 MSTORE PUSH1 0x4 DUP2 ADD SWAP2 SWAP1 SWAP2 MSTORE PUSH1 0x0 PUSH1 0x24 DUP3 ADD MSTORE SWAP1 SWAP2 POP PUSH32 0x0 PUSH1 0x1 PUSH1 0x1 PUSH1 0xA0 SHL SUB AND SWAP1 PUSH4 0x441A3E70 SWAP1 PUSH1 0x44 ADD PUSH1 0x0 PUSH1 0x40 MLOAD DUP1 DUP4 SUB DUP2 PUSH1 0x0 DUP8 DUP1 EXTCODESIZE ISZERO DUP1 ISZERO PUSH2 0x3127 JUMPI PUSH1 0x0 DUP1 REVERT JUMPDEST POP GAS CALL ISZERO DUP1 ISZERO PUSH2 0x313B JUMPI RETURNDATASIZE PUSH1 0x0 DUP1 RETURNDATACOPY RETURNDATASIZE PUSH1 0x0 REVERT JUMPDEST POP POP POP POP PUSH1 0x0 PUSH2 0x3149 PUSH2 0x1285 JUMP JUMPDEST SWAP1 POP CALLER PUSH32 0xC9695243A805ADB74C91F28311176C65B417E842D5699893CEF56D18BFA48CBA PUSH2 0x3177 DUP5 DUP5 PUSH2 0x39B7 JUMP JUMPDEST PUSH1 0x40 MLOAD SWAP1 DUP2 MSTORE PUSH1 0x20 ADD PUSH1 0x40 MLOAD DUP1 SWAP2 SUB SWAP1 LOG2 POP POP POP JUMP JUMPDEST PUSH1 0x1 PUSH1 0x1 PUSH1 0xA0 SHL SUB DUP2 AND PUSH1 0x0 SWAP1 DUP2 MSTORE PUSH1 0x3 PUSH1 0x20 MSTORE PUSH1 0x40 SWAP1 KECCAK256 DUP1 SLOAD ISZERO PUSH2 0x2066 JUMPI PUSH1 0x7 DUP2 ADD SLOAD PUSH1 0xFF AND ISZERO PUSH2 0x3430 JUMPI PUSH1 0x0 DUP2 PUSH1 0x6 ADD SLOAD PUSH1 0x7 SLOAD DUP4 PUSH1 0x0 ADD SLOAD PUSH2 0x31D0 PUSH2 0x1672 JUMP JUMPDEST PUSH2 0x31DA SWAP2 SWAP1 PUSH2 0x397E JUMP JUMPDEST PUSH2 0x31E4 SWAP2 SWAP1 PUSH2 0x3995 JUMP JUMPDEST PUSH2 0x31EE SWAP2 SWAP1 PUSH2 0x39B7 JUMP JUMPDEST SWAP1 POP DUP2 PUSH1 0x6 ADD SLOAD PUSH1 0xC PUSH1 0x0 DUP3 DUP3 SLOAD PUSH2 0x3206 SWAP2 SWAP1 PUSH2 0x39B7 JUMP JUMPDEST SWAP1 SWAP2 SSTORE POP POP PUSH1 0x0 PUSH1 0x6 DUP4 ADD DUP2 SWAP1 SSTORE DUP3 SLOAD PUSH1 0x7 DUP1 SLOAD SWAP2 SWAP3 SWAP1 SWAP2 PUSH2 0x3229 SWAP1 DUP5 SWAP1 PUSH2 0x39B7 JUMP JUMPDEST SWAP1 SWAP2 SSTORE POP POP PUSH1 0x1 PUSH1 0x1 PUSH1 0xA0 SHL SUB DUP4 AND PUSH1 0x0 SWAP1 DUP2 MSTORE PUSH1 0x6 PUSH1 0x20 MSTORE PUSH1 0x40 SWAP1 KECCAK256 SLOAD PUSH1 0xFF AND ISZERO DUP1 ISZERO PUSH2 0x3267 JUMPI POP TIMESTAMP PUSH1 0xE SLOAD DUP4 PUSH1 0x5 ADD SLOAD PUSH2 0x3265 SWAP2 SWAP1 PUSH2 0x396B JUMP JUMPDEST LT JUMPDEST ISZERO PUSH2 0x3339 JUMPI PUSH1 0x0 DUP3 PUSH1 0x8 ADD SLOAD DUP3 PUSH2 0x327E SWAP2 SWAP1 PUSH2 0x39B7 JUMP JUMPDEST SWAP1 POP PUSH1 0x0 PUSH1 0xE SLOAD DUP5 PUSH1 0x5 ADD SLOAD TIMESTAMP PUSH2 0x3295 SWAP2 SWAP1 PUSH2 0x39B7 JUMP JUMPDEST PUSH2 0x329F SWAP2 SWAP1 PUSH2 0x39B7 JUMP JUMPDEST SWAP1 POP PUSH1 0x11 SLOAD DUP2 GT ISZERO PUSH2 0x32B0 JUMPI POP PUSH1 0x11 SLOAD JUMPDEST PUSH1 0x0 PUSH1 0x11 SLOAD PUSH1 0x17 SLOAD DUP4 PUSH2 0x32C3 SWAP2 SWAP1 PUSH2 0x397E JUMP JUMPDEST PUSH2 0x32CD SWAP2 SWAP1 PUSH2 0x3995 JUMP JUMPDEST SWAP1 POP PUSH1 0x0 PUSH5 0xE8D4A51000 PUSH2 0x32E1 DUP4 DUP7 PUSH2 0x397E JUMP JUMPDEST PUSH2 0x32EB SWAP2 SWAP1 PUSH2 0x3995 JUMP JUMPDEST PUSH1 0x9 SLOAD SWAP1 SWAP2 POP PUSH2 0x3328 SWAP1 PUSH1 0x1 PUSH1 0x1 PUSH1 0xA0 SHL SUB PUSH32 0x0 DUP2 AND SWAP2 AND DUP4 PUSH2 0x2EBB JUMP JUMPDEST PUSH2 0x3332 DUP2 DUP7 PUSH2 0x39B7 JUMP JUMPDEST SWAP5 POP POP POP POP POP JUMPDEST PUSH1 0x0 PUSH2 0x3343 PUSH2 0x1672 JUMP JUMPDEST SWAP1 POP PUSH1 0x0 PUSH1 0x7 SLOAD PUSH1 0x0 EQ PUSH2 0x3379 JUMPI PUSH2 0x335B DUP4 DUP4 PUSH2 0x39B7 JUMP JUMPDEST PUSH1 0x7 SLOAD PUSH2 0x3368 SWAP1 DUP6 PUSH2 0x397E JUMP JUMPDEST PUSH2 0x3372 SWAP2 SWAP1 PUSH2 0x3995 JUMP JUMPDEST SWAP1 POP PUSH2 0x337C JUMP JUMPDEST POP DUP2 JUMPDEST DUP1 DUP5 SSTORE PUSH1 0x7 DUP1 SLOAD DUP3 SWAP2 SWAP1 PUSH1 0x0 SWAP1 PUSH2 0x3394 SWAP1 DUP5 SWAP1 PUSH2 0x396B JUMP JUMPDEST SWAP1 SWAP2 SSTORE POP POP PUSH1 0x5 DUP5 ADD SLOAD TIMESTAMP GT ISZERO PUSH2 0x3429 JUMPI PUSH1 0x7 DUP5 ADD DUP1 SLOAD PUSH1 0xFF NOT AND SWAP1 SSTORE PUSH1 0x0 PUSH1 0x4 DUP6 ADD DUP2 SWAP1 SSTORE PUSH1 0x5 DUP6 ADD DUP2 SWAP1 SSTORE PUSH1 0x8 DUP6 ADD SLOAD PUSH1 0xD DUP1 SLOAD SWAP2 SWAP3 SWAP1 SWAP2 PUSH2 0x33D9 SWAP1 DUP5 SWAP1 PUSH2 0x39B7 JUMP JUMPDEST SWAP1 SWAP2 SSTORE POP POP PUSH1 0x0 PUSH1 0x8 DUP6 ADD SSTORE PUSH1 0x40 DUP1 MLOAD DUP5 DUP2 MSTORE TIMESTAMP PUSH1 0x20 DUP3 ADD MSTORE PUSH1 0x1 PUSH1 0x1 PUSH1 0xA0 SHL SUB DUP8 AND SWAP2 PUSH32 0xF7870C5B224CBC19873599E46CCFC7103934650509B1AF0C3CE90138377C2004 SWAP2 ADD PUSH1 0x40 MLOAD DUP1 SWAP2 SUB SWAP1 LOG2 JUMPDEST POP POP POP POP POP JUMP JUMPDEST PUSH1 0x1 PUSH1 0x1 PUSH1 0xA0 SHL SUB DUP3 AND PUSH1 0x0 SWAP1 DUP2 MSTORE PUSH1 0x4 PUSH1 0x20 MSTORE PUSH1 0x40 SWAP1 KECCAK256 SLOAD PUSH1 0xFF AND PUSH2 0x2066 JUMPI PUSH1 0x0 PUSH1 0x7 SLOAD PUSH2 0x345D PUSH2 0x1672 JUMP JUMPDEST DUP4 SLOAD PUSH2 0x3469 SWAP2 SWAP1 PUSH2 0x397E JUMP JUMPDEST PUSH2 0x3473 SWAP2 SWAP1 PUSH2 0x3995 JUMP JUMPDEST SWAP1 POP DUP2 PUSH1 0x0 ADD SLOAD PUSH1 0x7 PUSH1 0x0 DUP3 DUP3 SLOAD PUSH2 0x348B SWAP2 SWAP1 PUSH2 0x39B7 JUMP JUMPDEST SWAP1 SWAP2 SSTORE POP POP PUSH1 0x0 DUP1 DUP4 SSTORE PUSH1 0x2 DUP4 ADD SLOAD PUSH2 0x34A4 SWAP1 DUP4 PUSH2 0x39B7 JUMP JUMPDEST PUSH1 0x13 SLOAD SWAP1 SWAP2 POP DUP5 EXTCODESIZE ISZERO PUSH2 0x34B6 JUMPI POP PUSH1 0x14 SLOAD JUMPDEST PUSH1 0x0 PUSH2 0x2710 PUSH2 0x34C5 DUP4 DUP6 PUSH2 0x397E JUMP JUMPDEST PUSH2 0x34CF SWAP2 SWAP1 PUSH2 0x3995 JUMP JUMPDEST SWAP1 POP DUP1 ISZERO PUSH2 0x351E JUMPI PUSH1 0x9 SLOAD PUSH2 0x3511 SWAP1 PUSH1 0x1 PUSH1 0x1 PUSH1 0xA0 SHL SUB PUSH32 0x0 DUP2 AND SWAP2 AND DUP4 PUSH2 0x2EBB JUMP JUMPDEST PUSH2 0x351B DUP2 DUP6 PUSH2 0x39B7 JUMP JUMPDEST SWAP4 POP JUMPDEST PUSH1 0x0 PUSH2 0x3528 PUSH2 0x1672 JUMP JUMPDEST SWAP1 POP PUSH1 0x0 PUSH1 0x7 SLOAD PUSH1 0x0 EQ PUSH2 0x355E JUMPI PUSH2 0x3540 DUP7 DUP4 PUSH2 0x39B7 JUMP JUMPDEST PUSH1 0x7 SLOAD PUSH2 0x354D SWAP1 DUP9 PUSH2 0x397E JUMP JUMPDEST PUSH2 0x3557 SWAP2 SWAP1 PUSH2 0x3995 JUMP JUMPDEST SWAP1 POP PUSH2 0x3561 JUMP JUMPDEST POP DUP5 JUMPDEST DUP1 DUP8 SSTORE PUSH1 0x7 DUP1 SLOAD DUP3 SWAP2 SWAP1 PUSH1 0x0 SWAP1 PUSH2 0x3579 SWAP1 DUP5 SWAP1 PUSH2 0x396B JUMP JUMPDEST SWAP1 SWAP2 SSTORE POP POP POP POP POP POP POP POP POP POP JUMP JUMPDEST PUSH1 0x1 SLOAD PUSH1 0x1 PUSH1 0x1 PUSH1 0xA0 SHL SUB AND ISZERO PUSH2 0xFC5 JUMPI PUSH1 0x1 PUSH1 0x1 PUSH1 0xA0 SHL SUB DUP2 AND PUSH1 0x0 SWAP1 DUP2 MSTORE PUSH1 0x3 PUSH1 0x20 MSTORE PUSH1 0x40 DUP2 KECCAK256 PUSH1 0x4 DUP2 ADD SLOAD PUSH1 0x5 DUP3 ADD SLOAD SWAP2 SWAP3 SWAP2 PUSH2 0x35C8 SWAP2 SWAP1 PUSH2 0x39B7 JUMP JUMPDEST PUSH1 0x1 SLOAD PUSH1 0x8 DUP5 ADD SLOAD PUSH1 0xD SLOAD PUSH1 0x10 SLOAD PUSH1 0x40 MLOAD PUSH4 0xE874FDAF PUSH1 0xE0 SHL DUP2 MSTORE PUSH1 0x1 PUSH1 0x1 PUSH1 0xA0 SHL SUB DUP10 DUP2 AND PUSH1 0x4 DUP4 ADD MSTORE PUSH1 0x24 DUP3 ADD SWAP5 SWAP1 SWAP5 MSTORE PUSH1 0x44 DUP2 ADD DUP7 SWAP1 MSTORE PUSH1 0x64 DUP2 ADD SWAP3 SWAP1 SWAP3 MSTORE PUSH1 0x84 DUP3 ADD MSTORE SWAP3 SWAP4 POP AND SWAP1 PUSH4 0xE874FDAF SWAP1 PUSH1 0xA4 ADD PUSH1 0x0 PUSH1 0x40 MLOAD DUP1 DUP4 SUB DUP2 PUSH1 0x0 DUP8 DUP1 EXTCODESIZE ISZERO DUP1 ISZERO PUSH2 0x3637 JUMPI PUSH1 0x0 DUP1 REVERT JUMPDEST POP GAS CALL ISZERO DUP1 ISZERO PUSH2 0x364B JUMPI RETURNDATASIZE PUSH1 0x0 DUP1 RETURNDATACOPY RETURNDATASIZE PUSH1 0x0 REVERT JUMPDEST POP POP POP POP POP POP POP JUMP JUMPDEST PUSH1 0x60 PUSH2 0x3665 DUP4 DUP4 PUSH1 0x0 PUSH2 0x366C PUSH2 0x3685 JUMP JUMPDEST SWAP4 SWAP3 POP POP POP JUMP JUMPDEST PUSH1 0x40 MLOAD PUSH4 0xA12F521 PUSH1 0xE1 SHL DUP2 MSTORE PUSH1 0x4 ADD PUSH1 0x40 MLOAD DUP1 SWAP2 SUB SWAP1 REVERT JUMPDEST PUSH1 0x60 DUP3 SELFBALANCE LT ISZERO PUSH2 0x36AA JUMPI PUSH1 0x40 MLOAD PUSH4 0xCD786059 PUSH1 0xE0 SHL DUP2 MSTORE ADDRESS PUSH1 0x4 DUP3 ADD MSTORE PUSH1 0x24 ADD PUSH2 0x9ED JUMP JUMPDEST PUSH1 0x0 DUP1 DUP7 PUSH1 0x1 PUSH1 0x1 PUSH1 0xA0 SHL SUB AND DUP6 DUP8 PUSH1 0x40 MLOAD PUSH2 0x36C6 SWAP2 SWAP1 PUSH2 0x3A50 JUMP JUMPDEST PUSH1 0x0 PUSH1 0x40 MLOAD DUP1 DUP4 SUB DUP2 DUP6 DUP8 GAS CALL SWAP3 POP POP POP RETURNDATASIZE DUP1 PUSH1 0x0 DUP2 EQ PUSH2 0x3703 JUMPI PUSH1 0x40 MLOAD SWAP2 POP PUSH1 0x1F NOT PUSH1 0x3F RETURNDATASIZE ADD AND DUP3 ADD PUSH1 0x40 MSTORE RETURNDATASIZE DUP3 MSTORE RETURNDATASIZE PUSH1 0x0 PUSH1 0x20 DUP5 ADD RETURNDATACOPY PUSH2 0x3708 JUMP JUMPDEST PUSH1 0x60 SWAP2 POP JUMPDEST POP SWAP2 POP SWAP2 POP PUSH2 0x3719 DUP8 DUP4 DUP4 DUP8 PUSH2 0x3726 JUMP JUMPDEST SWAP3 POP POP POP JUMPDEST SWAP5 SWAP4 POP POP POP POP JUMP JUMPDEST PUSH1 0x60 DUP4 ISZERO PUSH2 0x3774 JUMPI DUP3 MLOAD PUSH1 0x0 SUB PUSH2 0x376D JUMPI DUP5 PUSH1 0x1 PUSH1 0x1 PUSH1 0xA0 SHL SUB AND EXTCODESIZE PUSH1 0x0 SUB PUSH2 0x376D JUMPI PUSH1 0x40 MLOAD PUSH4 0x9996B315 PUSH1 0xE0 SHL DUP2 MSTORE PUSH1 0x1 PUSH1 0x1 PUSH1 0xA0 SHL SUB DUP7 AND PUSH1 0x4 DUP3 ADD MSTORE PUSH1 0x24 ADD PUSH2 0x9ED JUMP JUMPDEST POP DUP2 PUSH2 0x371E JUMP JUMPDEST PUSH2 0x371E DUP4 DUP4 DUP2 MLOAD ISZERO PUSH2 0x3789 JUMPI DUP2 MLOAD DUP1 DUP4 PUSH1 0x20 ADD REVERT JUMPDEST PUSH2 0x366C DUP2 PUSH4 0xFFFFFFFF AND JUMP JUMPDEST PUSH1 0x0 PUSH1 0x20 DUP3 DUP5 SUB SLT ISZERO PUSH2 0x37A7 JUMPI PUSH1 0x0 DUP1 REVERT JUMPDEST POP CALLDATALOAD SWAP2 SWAP1 POP JUMP JUMPDEST PUSH1 0x1 PUSH1 0x1 PUSH1 0xA0 SHL SUB DUP2 AND DUP2 EQ PUSH2 0xFC5 JUMPI PUSH1 0x0 DUP1 REVERT JUMPDEST PUSH1 0x0 PUSH1 0x20 DUP3 DUP5 SUB SLT ISZERO PUSH2 0x37D5 JUMPI PUSH1 0x0 DUP1 REVERT JUMPDEST DUP2 CALLDATALOAD PUSH2 0x3665 DUP2 PUSH2 0x37AE JUMP JUMPDEST PUSH1 0x0 DUP1 PUSH1 0x40 DUP4 DUP6 SUB SLT ISZERO PUSH2 0x37F3 JUMPI PUSH1 0x0 DUP1 REVERT JUMPDEST DUP3 CALLDATALOAD PUSH2 0x37FE DUP2 PUSH2 0x37AE JUMP JUMPDEST SWAP5 PUSH1 0x20 SWAP4 SWAP1 SWAP4 ADD CALLDATALOAD SWAP4 POP POP POP JUMP JUMPDEST DUP1 ISZERO ISZERO DUP2 EQ PUSH2 0xFC5 JUMPI PUSH1 0x0 DUP1 REVERT JUMPDEST PUSH1 0x0 DUP1 PUSH1 0x40 DUP4 DUP6 SUB SLT ISZERO PUSH2 0x382D JUMPI PUSH1 0x0 DUP1 REVERT JUMPDEST DUP3 CALLDATALOAD PUSH2 0x3838 DUP2 PUSH2 0x37AE JUMP JUMPDEST SWAP2 POP PUSH1 0x20 DUP4 ADD CALLDATALOAD PUSH2 0x3848 DUP2 PUSH2 0x380C JUMP JUMPDEST DUP1 SWAP2 POP POP SWAP3 POP SWAP3 SWAP1 POP JUMP JUMPDEST PUSH1 0x0 DUP1 PUSH1 0x40 DUP4 DUP6 SUB SLT ISZERO PUSH2 0x3866 JUMPI PUSH1 0x0 DUP1 REVERT JUMPDEST POP POP DUP1 CALLDATALOAD SWAP3 PUSH1 0x20 SWAP1 SWAP2 ADD CALLDATALOAD SWAP2 POP JUMP JUMPDEST PUSH1 0x20 DUP1 DUP3 MSTORE PUSH1 0xB SWAP1 DUP3 ADD MSTORE PUSH11 0x61646D696E3A207775743F PUSH1 0xA8 SHL PUSH1 0x40 DUP3 ADD MSTORE PUSH1 0x60 ADD SWAP1 JUMP JUMPDEST PUSH1 0x20 DUP1 DUP3 MSTORE PUSH1 0x30 SWAP1 DUP3 ADD MSTORE PUSH32 0x77697468647261774665652063616E6E6F74206265206D6F7265207468616E20 PUSH1 0x40 DUP3 ADD MSTORE PUSH16 0x4D41585F57495448445241575F464545 PUSH1 0x80 SHL PUSH1 0x60 DUP3 ADD MSTORE PUSH1 0x80 ADD SWAP1 JUMP JUMPDEST PUSH1 0x20 DUP1 DUP3 MSTORE DUP2 DUP2 ADD MSTORE PUSH32 0x4F776E61626C653A2063616C6C6572206973206E6F7420746865206F776E6572 PUSH1 0x40 DUP3 ADD MSTORE PUSH1 0x60 ADD SWAP1 JUMP JUMPDEST PUSH1 0x0 PUSH1 0x20 DUP3 DUP5 SUB SLT ISZERO PUSH2 0x3931 JUMPI PUSH1 0x0 DUP1 REVERT JUMPDEST POP MLOAD SWAP2 SWAP1 POP JUMP JUMPDEST PUSH1 0x0 PUSH1 0x20 DUP3 DUP5 SUB SLT ISZERO PUSH2 0x394A JUMPI PUSH1 0x0 DUP1 REVERT JUMPDEST DUP2 MLOAD PUSH2 0x3665 DUP2 PUSH2 0x380C JUMP JUMPDEST PUSH4 0x4E487B71 PUSH1 0xE0 SHL PUSH1 0x0 MSTORE PUSH1 0x11 PUSH1 0x4 MSTORE PUSH1 0x24 PUSH1 0x0 REVERT JUMPDEST DUP1 DUP3 ADD DUP1 DUP3 GT ISZERO PUSH2 0xF66 JUMPI PUSH2 0xF66 PUSH2 0x3955 JUMP JUMPDEST DUP1 DUP3 MUL DUP2 ISZERO DUP3 DUP3 DIV DUP5 EQ OR PUSH2 0xF66 JUMPI PUSH2 0xF66 PUSH2 0x3955 JUMP JUMPDEST PUSH1 0x0 DUP3 PUSH2 0x39B2 JUMPI PUSH4 0x4E487B71 PUSH1 0xE0 SHL PUSH1 0x0 MSTORE PUSH1 0x12 PUSH1 0x4 MSTORE PUSH1 0x24 PUSH1 0x0 REVERT JUMPDEST POP DIV SWAP1 JUMP JUMPDEST DUP2 DUP2 SUB DUP2 DUP2 GT ISZERO PUSH2 0xF66 JUMPI PUSH2 0xF66 PUSH2 0x3955 JUMP JUMPDEST PUSH1 0x20 DUP1 DUP3 MSTORE PUSH1 0x16 SWAP1 DUP3 ADD MSTORE PUSH22 0x43616E6E6F74206265207A65726F2061646472657373 PUSH1 0x50 SHL PUSH1 0x40 DUP3 ADD MSTORE PUSH1 0x60 ADD SWAP1 JUMP JUMPDEST PUSH1 0x20 DUP1 DUP3 MSTORE PUSH1 0x36 SWAP1 DUP3 ADD MSTORE PUSH32 0x706572666F726D616E63654665652063616E6E6F74206265206D6F7265207468 PUSH1 0x40 DUP3 ADD MSTORE PUSH22 0x616E204D41585F504552464F524D414E43455F464545 PUSH1 0x50 SHL PUSH1 0x60 DUP3 ADD MSTORE PUSH1 0x80 ADD SWAP1 JUMP JUMPDEST PUSH1 0x0 DUP3 MLOAD PUSH1 0x0 JUMPDEST DUP2 DUP2 LT ISZERO PUSH2 0x3A71 JUMPI PUSH1 0x20 DUP2 DUP7 ADD DUP2 ADD MLOAD DUP6 DUP4 ADD MSTORE ADD PUSH2 0x3A57 JUMP JUMPDEST POP PUSH1 0x0 SWAP3 ADD SWAP2 DUP3 MSTORE POP SWAP2 SWAP1 POP JUMP INVALID LOG2 PUSH5 0x6970667358 0x22 SLT KECCAK256 DUP5 PUSH2 0xE9A5 EXP KECCAK256 CODESIZE DUP16 0xB1 0xB6 PUSH19 0x6CCEEEED1372C8E7DAF8EF69DB8A9E38E7A10D 0xE5 0xE6 PUSH5 0x736F6C6343 STOP ADDMOD EQ STOP CALLER "},"methodIdentifiers":{"BOOST_WEIGHT()":"bc75f4b8","BOOST_WEIGHT_LIMIT()":"fd253b64","DURATION_FACTOR()":"e464c623","DURATION_FACTOR_OVERDUE()":"acaf88cd","MAX_LOCK_DURATION()":"4f1bfc9e","MAX_LOCK_DURATION_LIMIT()":"01e81326","MAX_OVERDUE_FEE()":"948a03f2","MAX_PERFORMANCE_FEE()":"bdca9165","MAX_WITHDRAW_FEE()":"d4b0de2f","MAX_WITHDRAW_FEE_PERIOD()":"2cfc5f01","MIN_DEPOSIT_AMOUNT()":"1ea30fef","MIN_LOCK_DURATION()":"78b4330f","MIN_WITHDRAW_AMOUNT()":"b6857844","PRECISION_FACTOR()":"ccd34cd5","PRECISION_FACTOR_SHARE()":"731ff24a","UNLOCK_FREE_DURATION()":"aaada5da","VCake()":"2d19b982","admin()":"f851a440","available()":"48a0d754","balanceOf()":"722713f7","boostContract()":"dfcedeee","cakePoolPID()":"6d4710b9","calculateOverdueFee(address)":"95dc14e1","calculatePerformanceFee(address)":"c6ed51be","calculateTotalPendingCakeRewards()":"58ebceb6","calculateWithdrawFee(address,uint256)":"29a5cfd6","deposit(uint256,uint256)":"e2bbb158","freeOverdueFeeUsers(address)":"668679ba","freePerformanceFeeUsers(address)":"3fec4e32","freeWithdrawFeeUsers(address)":"87d4bda9","getPricePerFullShare()":"77c7b8fc","inCaseTokensGetStuck(address)":"def68a9c","init(address)":"19ab453c","masterchefV2()":"cb528b52","operator()":"570ca735","overdueFee()":"a5834e06","owner()":"8da5cb5b","pause()":"8456cb59","paused()":"5c975abb","performanceFee()":"87788782","performanceFeeContract()":"3eb78874","renounceOwnership()":"715018a6","setAdmin(address)":"704b6c02","setBoostContract(address)":"def7869d","setBoostWeight(uint256)":"93c99e6a","setDurationFactor(uint256)":"a3639b39","setDurationFactorOverdue(uint256)":"35981921","setFreePerformanceFeeUser(address,bool)":"423b93ed","setMaxLockDuration(uint256)":"f786b958","setOperator(address)":"b3ab15fb","setOverdueFee(uint256)":"0c59696b","setOverdueFeeUser(address,bool)":"4e4de1e9","setPerformanceFee(uint256)":"70897b23","setPerformanceFeeContract(uint256)":"bb9f408d","setTreasury(address)":"f0f44260","setUnlockFreeDuration(uint256)":"c54d349c","setVCakeContract(address)":"d826ed06","setWithdrawFee(uint256)":"b6ac642a","setWithdrawFeeContract(uint256)":"14ff3039","setWithdrawFeePeriod(uint256)":"1efac1b8","setWithdrawFeeUser(address,bool)":"beba0fa0","token()":"fc0c546a","totalBoostDebt()":"e73008bc","totalLockedAmount()":"05a9f274","totalShares()":"3a98ef39","transferOwnership(address)":"f2fde38b","treasury()":"61d027b3","unlock(address)":"2f6c493c","unpause()":"3f4ba83a","userInfo(address)":"1959a002","withdraw(uint256)":"2e1a7d4d","withdrawAll()":"853828b6","withdrawByAmount(uint256)":"5521e9bf","withdrawFee()":"e941fa78","withdrawFeeContract()":"e4b37ef5","withdrawFeePeriod()":"df10b4e6"}}}}}