{
  "_format": "hh-sol-artifact-1",
  "contractName": "ZetaSwapRouter",
  "sourceName": "contracts/ZetaSwapRouter.sol",
  "abi": [
    {
      "inputs": [
        {
          "internalType": "address",
          "name": "_factory",
          "type": "address"
        },
        {
          "internalType": "address",
          "name": "_WZETA",
          "type": "address"
        }
      ],
      "stateMutability": "nonpayable",
      "type": "constructor"
    },
    {
      "inputs": [],
      "name": "WZETA",
      "outputs": [
        {
          "internalType": "address",
          "name": "",
          "type": "address"
        }
      ],
      "stateMutability": "view",
      "type": "function"
    },
    {
      "inputs": [
        {
          "internalType": "address",
          "name": "tokenA",
          "type": "address"
        },
        {
          "internalType": "address",
          "name": "tokenB",
          "type": "address"
        },
        {
          "internalType": "uint256",
          "name": "amountADesired",
          "type": "uint256"
        },
        {
          "internalType": "uint256",
          "name": "amountBDesired",
          "type": "uint256"
        },
        {
          "internalType": "uint256",
          "name": "amountAMin",
          "type": "uint256"
        },
        {
          "internalType": "uint256",
          "name": "amountBMin",
          "type": "uint256"
        },
        {
          "internalType": "address",
          "name": "to",
          "type": "address"
        },
        {
          "internalType": "uint256",
          "name": "deadline",
          "type": "uint256"
        }
      ],
      "name": "addLiquidity",
      "outputs": [
        {
          "internalType": "uint256",
          "name": "amountA",
          "type": "uint256"
        },
        {
          "internalType": "uint256",
          "name": "amountB",
          "type": "uint256"
        },
        {
          "internalType": "uint256",
          "name": "liquidity",
          "type": "uint256"
        }
      ],
      "stateMutability": "nonpayable",
      "type": "function"
    },
    {
      "inputs": [
        {
          "internalType": "address",
          "name": "token",
          "type": "address"
        },
        {
          "internalType": "uint256",
          "name": "amountTokenDesired",
          "type": "uint256"
        },
        {
          "internalType": "uint256",
          "name": "amountTokenMin",
          "type": "uint256"
        },
        {
          "internalType": "uint256",
          "name": "amountZETAMin",
          "type": "uint256"
        },
        {
          "internalType": "address",
          "name": "to",
          "type": "address"
        },
        {
          "internalType": "uint256",
          "name": "deadline",
          "type": "uint256"
        }
      ],
      "name": "addLiquidityZETA",
      "outputs": [
        {
          "internalType": "uint256",
          "name": "amountToken",
          "type": "uint256"
        },
        {
          "internalType": "uint256",
          "name": "amountZETA",
          "type": "uint256"
        },
        {
          "internalType": "uint256",
          "name": "liquidity",
          "type": "uint256"
        }
      ],
      "stateMutability": "payable",
      "type": "function"
    },
    {
      "inputs": [],
      "name": "factory",
      "outputs": [
        {
          "internalType": "address",
          "name": "",
          "type": "address"
        }
      ],
      "stateMutability": "view",
      "type": "function"
    },
    {
      "inputs": [
        {
          "internalType": "uint256",
          "name": "amountOut",
          "type": "uint256"
        },
        {
          "internalType": "uint256",
          "name": "reserveIn",
          "type": "uint256"
        },
        {
          "internalType": "uint256",
          "name": "reserveOut",
          "type": "uint256"
        }
      ],
      "name": "getAmountIn",
      "outputs": [
        {
          "internalType": "uint256",
          "name": "amountIn",
          "type": "uint256"
        }
      ],
      "stateMutability": "pure",
      "type": "function"
    },
    {
      "inputs": [
        {
          "internalType": "uint256",
          "name": "amountIn",
          "type": "uint256"
        },
        {
          "internalType": "uint256",
          "name": "reserveIn",
          "type": "uint256"
        },
        {
          "internalType": "uint256",
          "name": "reserveOut",
          "type": "uint256"
        }
      ],
      "name": "getAmountOut",
      "outputs": [
        {
          "internalType": "uint256",
          "name": "amountOut",
          "type": "uint256"
        }
      ],
      "stateMutability": "pure",
      "type": "function"
    },
    {
      "inputs": [
        {
          "internalType": "uint256",
          "name": "amountOut",
          "type": "uint256"
        },
        {
          "internalType": "address[]",
          "name": "path",
          "type": "address[]"
        }
      ],
      "name": "getAmountsIn",
      "outputs": [
        {
          "internalType": "uint256[]",
          "name": "amounts",
          "type": "uint256[]"
        }
      ],
      "stateMutability": "view",
      "type": "function"
    },
    {
      "inputs": [
        {
          "internalType": "uint256",
          "name": "amountIn",
          "type": "uint256"
        },
        {
          "internalType": "address[]",
          "name": "path",
          "type": "address[]"
        }
      ],
      "name": "getAmountsOut",
      "outputs": [
        {
          "internalType": "uint256[]",
          "name": "amounts",
          "type": "uint256[]"
        }
      ],
      "stateMutability": "view",
      "type": "function"
    },
    {
      "inputs": [
        {
          "internalType": "uint256",
          "name": "amountA",
          "type": "uint256"
        },
        {
          "internalType": "uint256",
          "name": "reserveA",
          "type": "uint256"
        },
        {
          "internalType": "uint256",
          "name": "reserveB",
          "type": "uint256"
        }
      ],
      "name": "quote",
      "outputs": [
        {
          "internalType": "uint256",
          "name": "amountB",
          "type": "uint256"
        }
      ],
      "stateMutability": "pure",
      "type": "function"
    },
    {
      "inputs": [
        {
          "internalType": "address",
          "name": "tokenA",
          "type": "address"
        },
        {
          "internalType": "address",
          "name": "tokenB",
          "type": "address"
        },
        {
          "internalType": "uint256",
          "name": "liquidity",
          "type": "uint256"
        },
        {
          "internalType": "uint256",
          "name": "amountAMin",
          "type": "uint256"
        },
        {
          "internalType": "uint256",
          "name": "amountBMin",
          "type": "uint256"
        },
        {
          "internalType": "address",
          "name": "to",
          "type": "address"
        },
        {
          "internalType": "uint256",
          "name": "deadline",
          "type": "uint256"
        }
      ],
      "name": "removeLiquidity",
      "outputs": [
        {
          "internalType": "uint256",
          "name": "amountA",
          "type": "uint256"
        },
        {
          "internalType": "uint256",
          "name": "amountB",
          "type": "uint256"
        }
      ],
      "stateMutability": "nonpayable",
      "type": "function"
    },
    {
      "inputs": [
        {
          "internalType": "address",
          "name": "tokenA",
          "type": "address"
        },
        {
          "internalType": "address",
          "name": "tokenB",
          "type": "address"
        },
        {
          "internalType": "uint256",
          "name": "liquidity",
          "type": "uint256"
        },
        {
          "internalType": "uint256",
          "name": "amountAMin",
          "type": "uint256"
        },
        {
          "internalType": "uint256",
          "name": "amountBMin",
          "type": "uint256"
        },
        {
          "internalType": "address",
          "name": "to",
          "type": "address"
        },
        {
          "internalType": "uint256",
          "name": "deadline",
          "type": "uint256"
        },
        {
          "internalType": "bool",
          "name": "approveMax",
          "type": "bool"
        },
        {
          "internalType": "uint8",
          "name": "v",
          "type": "uint8"
        },
        {
          "internalType": "bytes32",
          "name": "r",
          "type": "bytes32"
        },
        {
          "internalType": "bytes32",
          "name": "s",
          "type": "bytes32"
        }
      ],
      "name": "removeLiquidityWithPermit",
      "outputs": [
        {
          "internalType": "uint256",
          "name": "amountA",
          "type": "uint256"
        },
        {
          "internalType": "uint256",
          "name": "amountB",
          "type": "uint256"
        }
      ],
      "stateMutability": "nonpayable",
      "type": "function"
    },
    {
      "inputs": [
        {
          "internalType": "address",
          "name": "token",
          "type": "address"
        },
        {
          "internalType": "uint256",
          "name": "liquidity",
          "type": "uint256"
        },
        {
          "internalType": "uint256",
          "name": "amountTokenMin",
          "type": "uint256"
        },
        {
          "internalType": "uint256",
          "name": "amountZETAMin",
          "type": "uint256"
        },
        {
          "internalType": "address",
          "name": "to",
          "type": "address"
        },
        {
          "internalType": "uint256",
          "name": "deadline",
          "type": "uint256"
        }
      ],
      "name": "removeLiquidityZETA",
      "outputs": [
        {
          "internalType": "uint256",
          "name": "amountToken",
          "type": "uint256"
        },
        {
          "internalType": "uint256",
          "name": "amountZETA",
          "type": "uint256"
        }
      ],
      "stateMutability": "nonpayable",
      "type": "function"
    },
    {
      "inputs": [
        {
          "internalType": "address",
          "name": "token",
          "type": "address"
        },
        {
          "internalType": "uint256",
          "name": "liquidity",
          "type": "uint256"
        },
        {
          "internalType": "uint256",
          "name": "amountTokenMin",
          "type": "uint256"
        },
        {
          "internalType": "uint256",
          "name": "amountZETAMin",
          "type": "uint256"
        },
        {
          "internalType": "address",
          "name": "to",
          "type": "address"
        },
        {
          "internalType": "uint256",
          "name": "deadline",
          "type": "uint256"
        }
      ],
      "name": "removeLiquidityZETASupportingFeeOnTransferTokens",
      "outputs": [
        {
          "internalType": "uint256",
          "name": "amountZETA",
          "type": "uint256"
        }
      ],
      "stateMutability": "nonpayable",
      "type": "function"
    },
    {
      "inputs": [
        {
          "internalType": "address",
          "name": "token",
          "type": "address"
        },
        {
          "internalType": "uint256",
          "name": "liquidity",
          "type": "uint256"
        },
        {
          "internalType": "uint256",
          "name": "amountTokenMin",
          "type": "uint256"
        },
        {
          "internalType": "uint256",
          "name": "amountZETAMin",
          "type": "uint256"
        },
        {
          "internalType": "address",
          "name": "to",
          "type": "address"
        },
        {
          "internalType": "uint256",
          "name": "deadline",
          "type": "uint256"
        },
        {
          "internalType": "bool",
          "name": "approveMax",
          "type": "bool"
        },
        {
          "internalType": "uint8",
          "name": "v",
          "type": "uint8"
        },
        {
          "internalType": "bytes32",
          "name": "r",
          "type": "bytes32"
        },
        {
          "internalType": "bytes32",
          "name": "s",
          "type": "bytes32"
        }
      ],
      "name": "removeLiquidityZETAWithPermit",
      "outputs": [
        {
          "internalType": "uint256",
          "name": "amountToken",
          "type": "uint256"
        },
        {
          "internalType": "uint256",
          "name": "amountZETA",
          "type": "uint256"
        }
      ],
      "stateMutability": "nonpayable",
      "type": "function"
    },
    {
      "inputs": [
        {
          "internalType": "address",
          "name": "token",
          "type": "address"
        },
        {
          "internalType": "uint256",
          "name": "liquidity",
          "type": "uint256"
        },
        {
          "internalType": "uint256",
          "name": "amountTokenMin",
          "type": "uint256"
        },
        {
          "internalType": "uint256",
          "name": "amountZETAMin",
          "type": "uint256"
        },
        {
          "internalType": "address",
          "name": "to",
          "type": "address"
        },
        {
          "internalType": "uint256",
          "name": "deadline",
          "type": "uint256"
        },
        {
          "internalType": "bool",
          "name": "approveMax",
          "type": "bool"
        },
        {
          "internalType": "uint8",
          "name": "v",
          "type": "uint8"
        },
        {
          "internalType": "bytes32",
          "name": "r",
          "type": "bytes32"
        },
        {
          "internalType": "bytes32",
          "name": "s",
          "type": "bytes32"
        }
      ],
      "name": "removeLiquidityZETAWithPermitSupportingFeeOnTransferTokens",
      "outputs": [
        {
          "internalType": "uint256",
          "name": "amountZETA",
          "type": "uint256"
        }
      ],
      "stateMutability": "nonpayable",
      "type": "function"
    },
    {
      "inputs": [
        {
          "internalType": "uint256",
          "name": "amountIn",
          "type": "uint256"
        },
        {
          "internalType": "uint256",
          "name": "amountOutMin",
          "type": "uint256"
        },
        {
          "internalType": "address[]",
          "name": "path",
          "type": "address[]"
        },
        {
          "internalType": "address",
          "name": "to",
          "type": "address"
        },
        {
          "internalType": "uint256",
          "name": "deadline",
          "type": "uint256"
        }
      ],
      "name": "swapExactTokensForTokens",
      "outputs": [
        {
          "internalType": "uint256[]",
          "name": "amounts",
          "type": "uint256[]"
        }
      ],
      "stateMutability": "nonpayable",
      "type": "function"
    },
    {
      "inputs": [
        {
          "internalType": "uint256",
          "name": "amountIn",
          "type": "uint256"
        },
        {
          "internalType": "uint256",
          "name": "amountOutMin",
          "type": "uint256"
        },
        {
          "internalType": "address[]",
          "name": "path",
          "type": "address[]"
        },
        {
          "internalType": "address",
          "name": "to",
          "type": "address"
        },
        {
          "internalType": "uint256",
          "name": "deadline",
          "type": "uint256"
        }
      ],
      "name": "swapExactTokensForTokensSupportingFeeOnTransferTokens",
      "outputs": [],
      "stateMutability": "nonpayable",
      "type": "function"
    },
    {
      "inputs": [
        {
          "internalType": "uint256",
          "name": "amountIn",
          "type": "uint256"
        },
        {
          "internalType": "uint256",
          "name": "amountOutMin",
          "type": "uint256"
        },
        {
          "internalType": "address[]",
          "name": "path",
          "type": "address[]"
        },
        {
          "internalType": "address",
          "name": "to",
          "type": "address"
        },
        {
          "internalType": "uint256",
          "name": "deadline",
          "type": "uint256"
        }
      ],
      "name": "swapExactTokensForZETA",
      "outputs": [
        {
          "internalType": "uint256[]",
          "name": "amounts",
          "type": "uint256[]"
        }
      ],
      "stateMutability": "nonpayable",
      "type": "function"
    },
    {
      "inputs": [
        {
          "internalType": "uint256",
          "name": "amountIn",
          "type": "uint256"
        },
        {
          "internalType": "uint256",
          "name": "amountOutMin",
          "type": "uint256"
        },
        {
          "internalType": "address[]",
          "name": "path",
          "type": "address[]"
        },
        {
          "internalType": "address",
          "name": "to",
          "type": "address"
        },
        {
          "internalType": "uint256",
          "name": "deadline",
          "type": "uint256"
        }
      ],
      "name": "swapExactTokensForZETASupportingFeeOnTransferTokens",
      "outputs": [],
      "stateMutability": "nonpayable",
      "type": "function"
    },
    {
      "inputs": [
        {
          "internalType": "uint256",
          "name": "amountOutMin",
          "type": "uint256"
        },
        {
          "internalType": "address[]",
          "name": "path",
          "type": "address[]"
        },
        {
          "internalType": "address",
          "name": "to",
          "type": "address"
        },
        {
          "internalType": "uint256",
          "name": "deadline",
          "type": "uint256"
        }
      ],
      "name": "swapExactZETAForTokens",
      "outputs": [
        {
          "internalType": "uint256[]",
          "name": "amounts",
          "type": "uint256[]"
        }
      ],
      "stateMutability": "payable",
      "type": "function"
    },
    {
      "inputs": [
        {
          "internalType": "uint256",
          "name": "amountOutMin",
          "type": "uint256"
        },
        {
          "internalType": "address[]",
          "name": "path",
          "type": "address[]"
        },
        {
          "internalType": "address",
          "name": "to",
          "type": "address"
        },
        {
          "internalType": "uint256",
          "name": "deadline",
          "type": "uint256"
        }
      ],
      "name": "swapExactZETAForTokensSupportingFeeOnTransferTokens",
      "outputs": [],
      "stateMutability": "payable",
      "type": "function"
    },
    {
      "inputs": [
        {
          "internalType": "uint256",
          "name": "amountOut",
          "type": "uint256"
        },
        {
          "internalType": "uint256",
          "name": "amountInMax",
          "type": "uint256"
        },
        {
          "internalType": "address[]",
          "name": "path",
          "type": "address[]"
        },
        {
          "internalType": "address",
          "name": "to",
          "type": "address"
        },
        {
          "internalType": "uint256",
          "name": "deadline",
          "type": "uint256"
        }
      ],
      "name": "swapTokensForExactTokens",
      "outputs": [
        {
          "internalType": "uint256[]",
          "name": "amounts",
          "type": "uint256[]"
        }
      ],
      "stateMutability": "nonpayable",
      "type": "function"
    },
    {
      "inputs": [
        {
          "internalType": "uint256",
          "name": "amountOut",
          "type": "uint256"
        },
        {
          "internalType": "uint256",
          "name": "amountInMax",
          "type": "uint256"
        },
        {
          "internalType": "address[]",
          "name": "path",
          "type": "address[]"
        },
        {
          "internalType": "address",
          "name": "to",
          "type": "address"
        },
        {
          "internalType": "uint256",
          "name": "deadline",
          "type": "uint256"
        }
      ],
      "name": "swapTokensForExactZETA",
      "outputs": [
        {
          "internalType": "uint256[]",
          "name": "amounts",
          "type": "uint256[]"
        }
      ],
      "stateMutability": "nonpayable",
      "type": "function"
    },
    {
      "inputs": [
        {
          "internalType": "uint256",
          "name": "amountOut",
          "type": "uint256"
        },
        {
          "internalType": "address[]",
          "name": "path",
          "type": "address[]"
        },
        {
          "internalType": "address",
          "name": "to",
          "type": "address"
        },
        {
          "internalType": "uint256",
          "name": "deadline",
          "type": "uint256"
        }
      ],
      "name": "swapZETAForExactTokens",
      "outputs": [
        {
          "internalType": "uint256[]",
          "name": "amounts",
          "type": "uint256[]"
        }
      ],
      "stateMutability": "payable",
      "type": "function"
    },
    {
      "stateMutability": "payable",
      "type": "receive"
    }
  ],
  "bytecode": "0x60c060405234801561001057600080fd5b5060405162004706380380620047068339818101604052604081101561003557600080fd5b5080516020909101516001600160601b0319606092831b8116608052911b1660a05260805160601c60a05160601c614581620001856000398061015f5280610e225280610eb75280610f2b5280611265528061131452806113cf52806115035280611709528061195752806119ad52806119e15280611a555280611dd25280611f0a528061209152806121d4528061225c52806125285280612563528061263d5280612783528061280b5280612c2e5280612d285280612dde5280612fa2525080610cb35280610cec5280610f5d52806113ad528061159152806116655280611808528061198b5280611c175280611db05280611f985280612124528061228e528061242d52806126d0528061283d52806129995280612b915280612bba5280612ec7528061331852806134975280613a1a5280613a505280613c765280613d245280613da452506145816000f3fe60806040526004361061014f5760003560e01c80637e604919116100b6578063baa2abde1161006f578063baa2abde14610a47578063c45a015514610aa4578063d06ca61f14610ad5578063e6b82e1c14610b8a578063e8e3370014610c20578063f9f0bd8614610c8257610188565b80637e604919146107ea57806385f8c2591461086e5780638803dbee146108a45780638a7148851461093a5780638c2cd2191461098d578063ad615dec14610a1157610188565b8063379313d011610108578063379313d0146104bb57806338ed17391461055157806349b66e3b146105e75780635c11d7951461064b578063669a6bc8146106e157806374327f141461075457610188565b8063054d50d41461018d5780631f00ca74146101d55780632195995c146102da57806321b3830e146103715780632b4fed05146103f55780632dec17e91461044857610188565b3661018857336001600160a01b037f0000000000000000000000000000000000000000000000000000000000000000161461018657fe5b005b600080fd5b34801561019957600080fd5b506101c3600480360360608110156101b057600080fd5b5080359060208101359060400135610c97565b60408051918252519081900360200190f35b3480156101e157600080fd5b5061028a600480360360408110156101f857600080fd5b81359190810190604081016020820135600160201b81111561021957600080fd5b82018360208201111561022b57600080fd5b803590602001918460208302840111600160201b8311171561024c57600080fd5b919080806020026020016040519081016040528093929190818152602001838360200280828437600092019190915250929550610cac945050505050565b60408051602080825283518183015283519192839290830191858101910280838360005b838110156102c65781810151838201526020016102ae565b505050509050019250505060405180910390f35b3480156102e657600080fd5b5061035860048036036101608110156102fe57600080fd5b506001600160a01b038135811691602081013582169160408201359160608101359160808201359160a08101359091169060c08101359060e081013515159060ff6101008201351690610120810135906101400135610ce2565b6040805192835260208301919091528051918290030190f35b6101866004803603608081101561038757600080fd5b81359190810190604081016020820135600160201b8111156103a857600080fd5b8201836020820111156103ba57600080fd5b803590602001918460208302840111600160201b831117156103db57600080fd5b91935091506001600160a01b038135169060200135610ddc565b34801561040157600080fd5b506101c3600480360360c081101561041857600080fd5b506001600160a01b0381358116916020810135916040820135916060810135916080820135169060a00135611219565b34801561045457600080fd5b506101c3600480360361014081101561046c57600080fd5b506001600160a01b0381358116916020810135916040820135916060810135916080820135169060a08101359060c081013515159060ff60e082013516906101008101359061012001356113a5565b3480156104c757600080fd5b5061028a600480360360a08110156104de57600080fd5b813591602081013591810190606081016040820135600160201b81111561050457600080fd5b82018360208201111561051657600080fd5b803590602001918460208302840111600160201b8311171561053757600080fd5b91935091506001600160a01b0381351690602001356114b3565b34801561055d57600080fd5b5061028a600480360360a081101561057457600080fd5b813591602081013591810190606081016040820135600160201b81111561059a57600080fd5b8201836020820111156105ac57600080fd5b803590602001918460208302840111600160201b831117156105cd57600080fd5b91935091506001600160a01b0381351690602001356117bd565b61062d600480360360c08110156105fd57600080fd5b506001600160a01b0381358116916020810135916040820135916060810135916080820135169060a00135611908565b60408051938452602084019290925282820152519081900360600190f35b34801561065757600080fd5b50610186600480360360a081101561066e57600080fd5b813591602081013591810190606081016040820135600160201b81111561069457600080fd5b8201836020820111156106a657600080fd5b803590602001918460208302840111600160201b831117156106c757600080fd5b91935091506001600160a01b038135169060200135611bad565b3480156106ed57600080fd5b50610358600480360361014081101561070557600080fd5b506001600160a01b0381358116916020810135916040820135916060810135916080820135169060a08101359060c081013515159060ff60e08201351690610100810135906101200135611da6565b34801561076057600080fd5b5061028a600480360360a081101561077757600080fd5b813591602081013591810190606081016040820135600160201b81111561079d57600080fd5b8201836020820111156107af57600080fd5b803590602001918460208302840111600160201b831117156107d057600080fd5b91935091506001600160a01b038135169060200135611eba565b61028a6004803603608081101561080057600080fd5b81359190810190604081016020820135600160201b81111561082157600080fd5b82018360208201111561083357600080fd5b803590602001918460208302840111600160201b8311171561085457600080fd5b91935091506001600160a01b038135169060200135612049565b34801561087a57600080fd5b506101c36004803603606081101561089157600080fd5b50803590602081013590604001356123d5565b3480156108b057600080fd5b5061028a600480360360a08110156108c757600080fd5b813591602081013591810190606081016040820135600160201b8111156108ed57600080fd5b8201836020820111156108ff57600080fd5b803590602001918460208302840111600160201b8311171561092057600080fd5b91935091506001600160a01b0381351690602001356123e2565b34801561094657600080fd5b50610358600480360360c081101561095d57600080fd5b506001600160a01b0381358116916020810135916040820135916060810135916080820135169060a001356124db565b61028a600480360360808110156109a357600080fd5b81359190810190604081016020820135600160201b8111156109c457600080fd5b8201836020820111156109d657600080fd5b803590602001918460208302840111600160201b831117156109f757600080fd5b91935091506001600160a01b0381351690602001356125f5565b348015610a1d57600080fd5b506101c360048036036060811015610a3457600080fd5b508035906020810135906040013561293e565b348015610a5357600080fd5b50610358600480360360e0811015610a6a57600080fd5b506001600160a01b038135811691602081013582169160408201359160608101359160808201359160a08101359091169060c0013561294b565b348015610ab057600080fd5b50610ab9612b8f565b604080516001600160a01b039092168252519081900360200190f35b348015610ae157600080fd5b5061028a60048036036040811015610af857600080fd5b81359190810190604081016020820135600160201b811115610b1957600080fd5b820183602082011115610b2b57600080fd5b803590602001918460208302840111600160201b83111715610b4c57600080fd5b919080806020026020016040519081016040528093929190818152602001838360200280828437600092019190915250929550612bb3945050505050565b348015610b9657600080fd5b50610186600480360360a0811015610bad57600080fd5b813591602081013591810190606081016040820135600160201b811115610bd357600080fd5b820183602082011115610be557600080fd5b803590602001918460208302840111600160201b83111715610c0657600080fd5b91935091506001600160a01b038135169060200135612be0565b348015610c2c57600080fd5b5061062d6004803603610100811015610c4457600080fd5b506001600160a01b038135811691602081013582169160408201359160608101359160808201359160a08101359160c0820135169060e00135612e64565b348015610c8e57600080fd5b50610ab9612fa0565b6000610ca4848484612fc4565b949350505050565b6060610cd97f000000000000000000000000000000000000000000000000000000000000000084846130b4565b90505b92915050565b6000806000610d127f00000000000000000000000000000000000000000000000000000000000000008f8f613201565b9050600087610d21578c610d25565b6000195b6040805163d505accf60e01b815233600482015230602482015260448101839052606481018c905260ff8a16608482015260a4810189905260c4810188905290519192506001600160a01b0384169163d505accf9160e48082019260009290919082900301818387803b158015610d9b57600080fd5b505af1158015610daf573d6000803e3d6000fd5b50505050610dc28f8f8f8f8f8f8f61294b565b809450819550505050509b509b9950505050505050505050565b8042811015610e20576040805162461bcd60e51b81526020600482015260176024820152600080516020614506833981519152604482015290519081900360640190fd5b7f00000000000000000000000000000000000000000000000000000000000000006001600160a01b031685856000818110610e5757fe5b905060200201356001600160a01b03166001600160a01b031614610eb0576040805162461bcd60e51b815260206004820152601c60248201526000805160206143e5833981519152604482015290519081900360640190fd5b60003490507f00000000000000000000000000000000000000000000000000000000000000006001600160a01b031663d0e30db0826040518263ffffffff1660e01b81526004016000604051808303818588803b158015610f1057600080fd5b505af1158015610f24573d6000803e3d6000fd5b50505050507f00000000000000000000000000000000000000000000000000000000000000006001600160a01b031663a9059cbb610fbb7f000000000000000000000000000000000000000000000000000000000000000089896000818110610f8957fe5b905060200201356001600160a01b03168a8a6001818110610fa657fe5b905060200201356001600160a01b0316613201565b836040518363ffffffff1660e01b815260040180836001600160a01b03166001600160a01b0316815260200182815260200192505050602060405180830381600087803b15801561100b57600080fd5b505af115801561101f573d6000803e3d6000fd5b505050506040513d602081101561103557600080fd5b505161103d57fe5b60008686600019810181811061104f57fe5b905060200201356001600160a01b03166001600160a01b03166370a08231866040518263ffffffff1660e01b815260040180826001600160a01b03166001600160a01b0316815260200191505060206040518083038186803b1580156110b457600080fd5b505afa1580156110c8573d6000803e3d6000fd5b505050506040513d60208110156110de57600080fd5b505160408051602089810282810182019093528982529293506111209290918a918a9182918501908490808284376000920191909152508992506132c1915050565b876111d2828989600019810181811061113557fe5b905060200201356001600160a01b03166001600160a01b03166370a08231896040518263ffffffff1660e01b815260040180826001600160a01b03166001600160a01b0316815260200191505060206040518083038186803b15801561119a57600080fd5b505afa1580156111ae573d6000803e3d6000fd5b505050506040513d60208110156111c457600080fd5b50519063ffffffff61356f16565b101561120f5760405162461bcd60e51b815260040180806020018281038252602a81526020018061439a602a913960400191505060405180910390fd5b5050505050505050565b6000814281101561125f576040805162461bcd60e51b81526020600482015260176024820152600080516020614506833981519152604482015290519081900360640190fd5b61128e887f0000000000000000000000000000000000000000000000000000000000000000898989308961294b565b604080516370a0823160e01b8152306004820152905191945061131292508a9187916001600160a01b038416916370a0823191602480820192602092909190829003018186803b1580156112e157600080fd5b505afa1580156112f5573d6000803e3d6000fd5b505050506040513d602081101561130b57600080fd5b50516135b1565b7f00000000000000000000000000000000000000000000000000000000000000006001600160a01b0316632e1a7d4d836040518263ffffffff1660e01b815260040180828152602001915050600060405180830381600087803b15801561137857600080fd5b505af115801561138c573d6000803e3d6000fd5b5050505061139a848361371b565b509695505050505050565b6000806113f37f00000000000000000000000000000000000000000000000000000000000000008d7f0000000000000000000000000000000000000000000000000000000000000000613201565b9050600086611402578b611406565b6000195b6040805163d505accf60e01b815233600482015230602482015260448101839052606481018b905260ff8916608482015260a4810188905260c4810187905290519192506001600160a01b0384169163d505accf9160e48082019260009290919082900301818387803b15801561147c57600080fd5b505af1158015611490573d6000803e3d6000fd5b505050506114a28d8d8d8d8d8d611219565b9d9c50505050505050505050505050565b606081428110156114f9576040805162461bcd60e51b81526020600482015260176024820152600080516020614506833981519152604482015290519081900360640190fd5b6001600160a01b037f0000000000000000000000000000000000000000000000000000000000000000168686600019810181811061153357fe5b905060200201356001600160a01b03166001600160a01b03161461158c576040805162461bcd60e51b815260206004820152601c60248201526000805160206143e5833981519152604482015290519081900360640190fd5b6115ea7f0000000000000000000000000000000000000000000000000000000000000000898888808060200260200160405190810160405280939291908181526020018383602002808284376000920191909152506130b492505050565b915086826000815181106115fa57fe5b6020026020010151111561163f5760405162461bcd60e51b81526004018080602001828103825260268152602001806145266026913960400191505060405180910390fd5b6116c88686600081811061164f57fe5b905060200201356001600160a01b0316336116ae7f00000000000000000000000000000000000000000000000000000000000000008a8a600081811061169157fe5b905060200201356001600160a01b03168b8b6001818110610fa657fe5b856000815181106116bb57fe5b602002602001015161380e565b6117078287878080602002602001604051908101604052809392919081815260200183836020028082843760009201919091525030925061396b915050565b7f00000000000000000000000000000000000000000000000000000000000000006001600160a01b0316632e1a7d4d8360018551038151811061174657fe5b60200260200101516040518263ffffffff1660e01b815260040180828152602001915050600060405180830381600087803b15801561178457600080fd5b505af1158015611798573d6000803e3d6000fd5b5050505061139a84836001855103815181106117b057fe5b602002602001015161371b565b60608142811015611803576040805162461bcd60e51b81526020600482015260176024820152600080516020614506833981519152604482015290519081900360640190fd5b6118617f000000000000000000000000000000000000000000000000000000000000000089888880806020026020016040519081016040528093929190818152602001838360200280828437600092019190915250613b0e92505050565b9150868260018451038151811061187457fe5b602002602001015110156118b95760405162461bcd60e51b815260040180806020018281038252602a81526020018061439a602a913960400191505060405180910390fd5b6118c98686600081811061164f57fe5b61139a8287878080602002602001604051908101604052809392919081815260200183836020028082843760009201919091525089925061396b915050565b60008060008342811015611951576040805162461bcd60e51b81526020600482015260176024820152600080516020614506833981519152604482015290519081900360640190fd5b61197f8a7f00000000000000000000000000000000000000000000000000000000000000008b348c8c613c45565b909450925060006119d17f00000000000000000000000000000000000000000000000000000000000000008c7f0000000000000000000000000000000000000000000000000000000000000000613201565b90506119df8b33838861380e565b7f00000000000000000000000000000000000000000000000000000000000000006001600160a01b031663d0e30db0856040518263ffffffff1660e01b81526004016000604051808303818588803b158015611a3a57600080fd5b505af1158015611a4e573d6000803e3d6000fd5b50505050507f00000000000000000000000000000000000000000000000000000000000000006001600160a01b031663a9059cbb82866040518363ffffffff1660e01b815260040180836001600160a01b03166001600160a01b0316815260200182815260200192505050602060405180830381600087803b158015611ad357600080fd5b505af1158015611ae7573d6000803e3d6000fd5b505050506040513d6020811015611afd57600080fd5b5051611b0557fe5b806001600160a01b0316636a627842886040518263ffffffff1660e01b815260040180826001600160a01b03166001600160a01b03168152602001915050602060405180830381600087803b158015611b5d57600080fd5b505af1158015611b71573d6000803e3d6000fd5b505050506040513d6020811015611b8757600080fd5b5051925034841015611b9f57611b9f3385340361371b565b505096509650969350505050565b8042811015611bf1576040805162461bcd60e51b81526020600482015260176024820152600080516020614506833981519152604482015290519081900360640190fd5b611c4985856000818110611c0157fe5b905060200201356001600160a01b031633611c437f000000000000000000000000000000000000000000000000000000000000000089896000818110610f8957fe5b8a61380e565b600085856000198101818110611c5b57fe5b905060200201356001600160a01b03166001600160a01b03166370a08231856040518263ffffffff1660e01b815260040180826001600160a01b03166001600160a01b0316815260200191505060206040518083038186803b158015611cc057600080fd5b505afa158015611cd4573d6000803e3d6000fd5b505050506040513d6020811015611cea57600080fd5b50516040805160208881028281018201909352888252929350611d2c9290918991899182918501908490808284376000920191909152508892506132c1915050565b866111d28288886000198101818110611d4157fe5b905060200201356001600160a01b03166001600160a01b03166370a08231886040518263ffffffff1660e01b815260040180826001600160a01b03166001600160a01b0316815260200191505060206040518083038186803b15801561119a57600080fd5b6000806000611df67f00000000000000000000000000000000000000000000000000000000000000008e7f0000000000000000000000000000000000000000000000000000000000000000613201565b9050600087611e05578c611e09565b6000195b6040805163d505accf60e01b815233600482015230602482015260448101839052606481018c905260ff8a16608482015260a4810189905260c4810188905290519192506001600160a01b0384169163d505accf9160e48082019260009290919082900301818387803b158015611e7f57600080fd5b505af1158015611e93573d6000803e3d6000fd5b50505050611ea58e8e8e8e8e8e6124db565b909f909e509c50505050505050505050505050565b60608142811015611f00576040805162461bcd60e51b81526020600482015260176024820152600080516020614506833981519152604482015290519081900360640190fd5b6001600160a01b037f00000000000000000000000000000000000000000000000000000000000000001686866000198101818110611f3a57fe5b905060200201356001600160a01b03166001600160a01b031614611f93576040805162461bcd60e51b815260206004820152601c60248201526000805160206143e5833981519152604482015290519081900360640190fd5b611ff17f000000000000000000000000000000000000000000000000000000000000000089888880806020026020016040519081016040528093929190818152602001838360200280828437600092019190915250613b0e92505050565b9150868260018451038151811061200457fe5b6020026020010151101561163f5760405162461bcd60e51b815260040180806020018281038252602a81526020018061439a602a913960400191505060405180910390fd5b6060814281101561208f576040805162461bcd60e51b81526020600482015260176024820152600080516020614506833981519152604482015290519081900360640190fd5b7f00000000000000000000000000000000000000000000000000000000000000006001600160a01b0316868660008181106120c657fe5b905060200201356001600160a01b03166001600160a01b03161461211f576040805162461bcd60e51b815260206004820152601c60248201526000805160206143e5833981519152604482015290519081900360640190fd5b61217d7f0000000000000000000000000000000000000000000000000000000000000000888888808060200260200160405190810160405280939291908181526020018383602002808284376000920191909152506130b492505050565b9150348260008151811061218d57fe5b602002602001015111156121d25760405162461bcd60e51b81526004018080602001828103825260268152602001806145266026913960400191505060405180910390fd5b7f00000000000000000000000000000000000000000000000000000000000000006001600160a01b031663d0e30db08360008151811061220e57fe5b60200260200101516040518263ffffffff1660e01b81526004016000604051808303818588803b15801561224157600080fd5b505af1158015612255573d6000803e3d6000fd5b50505050507f00000000000000000000000000000000000000000000000000000000000000006001600160a01b031663a9059cbb6122ba7f000000000000000000000000000000000000000000000000000000000000000089896000818110610f8957fe5b846000815181106122c757fe5b60200260200101516040518363ffffffff1660e01b815260040180836001600160a01b03166001600160a01b0316815260200182815260200192505050602060405180830381600087803b15801561231e57600080fd5b505af1158015612332573d6000803e3d6000fd5b505050506040513d602081101561234857600080fd5b505161235057fe5b61238f8287878080602002602001604051908101604052809392919081815260200183836020028082843760009201919091525089925061396b915050565b8160008151811061239c57fe5b60200260200101513411156123cb576123cb33836000815181106123bc57fe5b6020026020010151340361371b565b5095945050505050565b6000610ca4848484613eb9565b60608142811015612428576040805162461bcd60e51b81526020600482015260176024820152600080516020614506833981519152604482015290519081900360640190fd5b6124867f0000000000000000000000000000000000000000000000000000000000000000898888808060200260200160405190810160405280939291908181526020018383602002808284376000920191909152506130b492505050565b9150868260008151811061249657fe5b602002602001015111156118b95760405162461bcd60e51b81526004018080602001828103825260268152602001806145266026913960400191505060405180910390fd5b6000808242811015612522576040805162461bcd60e51b81526020600482015260176024820152600080516020614506833981519152604482015290519081900360640190fd5b612551897f00000000000000000000000000000000000000000000000000000000000000008a8a8a308a61294b565b90935091506125618986856135b1565b7f00000000000000000000000000000000000000000000000000000000000000006001600160a01b0316632e1a7d4d836040518263ffffffff1660e01b815260040180828152602001915050600060405180830381600087803b1580156125c757600080fd5b505af11580156125db573d6000803e3d6000fd5b505050506125e9858361371b565b50965096945050505050565b6060814281101561263b576040805162461bcd60e51b81526020600482015260176024820152600080516020614506833981519152604482015290519081900360640190fd5b7f00000000000000000000000000000000000000000000000000000000000000006001600160a01b03168686600081811061267257fe5b905060200201356001600160a01b03166001600160a01b0316146126cb576040805162461bcd60e51b815260206004820152601c60248201526000805160206143e5833981519152604482015290519081900360640190fd5b6127297f000000000000000000000000000000000000000000000000000000000000000034888880806020026020016040519081016040528093929190818152602001838360200280828437600092019190915250613b0e92505050565b9150868260018451038151811061273c57fe5b602002602001015110156127815760405162461bcd60e51b815260040180806020018281038252602a81526020018061439a602a913960400191505060405180910390fd5b7f00000000000000000000000000000000000000000000000000000000000000006001600160a01b031663d0e30db0836000815181106127bd57fe5b60200260200101516040518263ffffffff1660e01b81526004016000604051808303818588803b1580156127f057600080fd5b505af1158015612804573d6000803e3d6000fd5b50505050507f00000000000000000000000000000000000000000000000000000000000000006001600160a01b031663a9059cbb6128697f000000000000000000000000000000000000000000000000000000000000000089896000818110610f8957fe5b8460008151811061287657fe5b60200260200101516040518363ffffffff1660e01b815260040180836001600160a01b03166001600160a01b0316815260200182815260200192505050602060405180830381600087803b1580156128cd57600080fd5b505af11580156128e1573d6000803e3d6000fd5b505050506040513d60208110156128f757600080fd5b50516128ff57fe5b6123cb8287878080602002602001604051908101604052809392919081815260200183836020028082843760009201919091525089925061396b915050565b6000610ca4848484613fa9565b6000808242811015612992576040805162461bcd60e51b81526020600482015260176024820152600080516020614506833981519152604482015290519081900360640190fd5b60006129bf7f00000000000000000000000000000000000000000000000000000000000000008c8c613201565b604080516323b872dd60e01b81523360048201526001600160a01b03831660248201819052604482018d9052915192935090916323b872dd916064808201926020929091908290030181600087803b158015612a1a57600080fd5b505af1158015612a2e573d6000803e3d6000fd5b505050506040513d6020811015612a4457600080fd5b50506040805163226bf2d160e21b81526001600160a01b03888116600483015282516000938493928616926389afcb44926024808301939282900301818787803b158015612a9157600080fd5b505af1158015612aa5573d6000803e3d6000fd5b505050506040513d6040811015612abb57600080fd5b50805160209091015190925090506000612ad58e8e614055565b509050806001600160a01b03168e6001600160a01b031614612af8578183612afb565b82825b90975095508a871015612b3f5760405162461bcd60e51b81526004018080602001828103825260258152602001806144e16025913960400191505060405180910390fd5b89861015612b7e5760405162461bcd60e51b81526004018080602001828103825260258152602001806144506025913960400191505060405180910390fd5b505050505097509795505050505050565b7f000000000000000000000000000000000000000000000000000000000000000081565b6060610cd97f00000000000000000000000000000000000000000000000000000000000000008484613b0e565b8042811015612c24576040805162461bcd60e51b81526020600482015260176024820152600080516020614506833981519152604482015290519081900360640190fd5b6001600160a01b037f00000000000000000000000000000000000000000000000000000000000000001685856000198101818110612c5e57fe5b905060200201356001600160a01b03166001600160a01b031614612cb7576040805162461bcd60e51b815260206004820152601c60248201526000805160206143e5833981519152604482015290519081900360640190fd5b612cc785856000818110611c0157fe5b612d058585808060200260200160405190810160405280939291908181526020018383602002808284376000920191909152503092506132c1915050565b604080516370a0823160e01b815230600482015290516000916001600160a01b037f000000000000000000000000000000000000000000000000000000000000000016916370a0823191602480820192602092909190829003018186803b158015612d6f57600080fd5b505afa158015612d83573d6000803e3d6000fd5b505050506040513d6020811015612d9957600080fd5b5051905086811015612ddc5760405162461bcd60e51b815260040180806020018281038252602a81526020018061439a602a913960400191505060405180910390fd5b7f00000000000000000000000000000000000000000000000000000000000000006001600160a01b0316632e1a7d4d826040518263ffffffff1660e01b815260040180828152602001915050600060405180830381600087803b158015612e4257600080fd5b505af1158015612e56573d6000803e3d6000fd5b5050505061120f848261371b565b60008060008342811015612ead576040805162461bcd60e51b81526020600482015260176024820152600080516020614506833981519152604482015290519081900360640190fd5b612ebb8c8c8c8c8c8c613c45565b90945092506000612eed7f00000000000000000000000000000000000000000000000000000000000000008e8e613201565b9050612efb8d33838861380e565b612f078c33838761380e565b806001600160a01b0316636a627842886040518263ffffffff1660e01b815260040180826001600160a01b03166001600160a01b03168152602001915050602060405180830381600087803b158015612f5f57600080fd5b505af1158015612f73573d6000803e3d6000fd5b505050506040513d6020811015612f8957600080fd5b5051949d939c50939a509198505050505050505050565b7f000000000000000000000000000000000000000000000000000000000000000081565b60008084116130045760405162461bcd60e51b815260040180806020018281038252602a815260200180614345602a913960400191505060405180910390fd5b6000831180156130145750600082115b61304f5760405162461bcd60e51b81526004018080602001828103825260278152602001806144056027913960400191505060405180910390fd5b6000613063856103e563ffffffff61413316565b90506000613077828563ffffffff61413316565b9050600061309d83613091886103e863ffffffff61413316565b9063ffffffff61418c16565b90508082816130a857fe5b04979650505050505050565b606060028251101561310d576040805162461bcd60e51b815260206004820152601d60248201527f5a657461537761704c6962726172793a20494e56414c49445f50415448000000604482015290519081900360640190fd5b815167ffffffffffffffff8111801561312557600080fd5b5060405190808252806020026020018201604052801561314f578160200160208202803683370190505b509050828160018351038151811061316357fe5b60209081029190910101528151600019015b80156131f9576000806131b28786600186038151811061319157fe5b60200260200101518786815181106131a557fe5b60200260200101516141e6565b915091506131d48484815181106131c557fe5b60200260200101518383613eb9565b8460018503815181106131e357fe5b6020908102919091010152505060001901613175565b509392505050565b60008060006132108585614055565b604080516bffffffffffffffffffffffff19606094851b811660208084019190915293851b81166034830152825160288184030181526048830184528051908501206001600160f81b031960688401529a90941b9093166069840152607d8301989098527f0fc5ad8a37d4e6fa0247f3d75fd31093fdcf933707df5728bc1e44545f404988609d808401919091528851808403909101815260bd909201909752805196019590952095945050505050565b60005b600183510381101561356a576000808483815181106132df57fe5b60200260200101518584600101815181106132f657fe5b602002602001015191509150600061330e8383614055565b509050600061333e7f00000000000000000000000000000000000000000000000000000000000000008585613201565b9050600080600080846001600160a01b0316630902f1ac6040518163ffffffff1660e01b815260040160606040518083038186803b15801561337f57600080fd5b505afa158015613393573d6000803e3d6000fd5b505050506040513d60608110156133a957600080fd5b5080516020909101516001600160701b0391821693501690506000806001600160a01b038a8116908916146133df5782846133e2565b83835b91509150613440828b6001600160a01b03166370a082318a6040518263ffffffff1660e01b815260040180826001600160a01b03166001600160a01b0316815260200191505060206040518083038186803b15801561119a57600080fd5b955061344d868383612fc4565b945050505050600080856001600160a01b0316886001600160a01b0316146134775782600061347b565b6000835b91509150600060028c51038a10613492578a6134d3565b6134d37f0000000000000000000000000000000000000000000000000000000000000000898e8d600201815181106134c657fe5b6020026020010151613201565b9050856001600160a01b0316636d9a640a8484846040518463ffffffff1660e01b815260040180848152602001838152602001826001600160a01b03166001600160a01b031681526020019350505050600060405180830381600087803b15801561353d57600080fd5b505af1158015613551573d6000803e3d6000fd5b50506001909b019a506132c49950505050505050505050565b505050565b6000610cd983836040518060400160405280601e81526020017f536166654d6174683a207375627472616374696f6e206f766572666c6f7700008152506142ad565b604080516001600160a01b038481166024830152604480830185905283518084039091018152606490920183526020820180516001600160e01b031663a9059cbb60e01b178152925182516000946060949389169392918291908083835b6020831061362e5780518252601f19909201916020918201910161360f565b6001836020036101000a0380198251168184511680821785525050505050509050019150506000604051808303816000865af19150503d8060008114613690576040519150601f19603f3d011682016040523d82523d6000602084013e613695565b606091505b50915091508180156136c35750805115806136c357508080602001905160208110156136c057600080fd5b50515b613714576040805162461bcd60e51b815260206004820152601f60248201527f5472616e7366657248656c7065723a205452414e534645525f4641494c454400604482015290519081900360640190fd5b5050505050565b604080516000808252602082019092526001600160a01b0384169083906040518082805190602001908083835b602083106137675780518252601f199092019160209182019101613748565b6001836020036101000a03801982511681845116808217855250505050505090500191505060006040518083038185875af1925050503d80600081146137c9576040519150601f19603f3d011682016040523d82523d6000602084013e6137ce565b606091505b505090508061356a5760405162461bcd60e51b81526004018080602001828103825260248152602001806144bd6024913960400191505060405180910390fd5b604080516001600160a01b0385811660248301528481166044830152606480830185905283518084039091018152608490920183526020820180516001600160e01b03166323b872dd60e01b17815292518251600094606094938a169392918291908083835b602083106138935780518252601f199092019160209182019101613874565b6001836020036101000a0380198251168184511680821785525050505050509050019150506000604051808303816000865af19150503d80600081146138f5576040519150601f19603f3d011682016040523d82523d6000602084013e6138fa565b606091505b5091509150818015613928575080511580613928575080806020019051602081101561392557600080fd5b50515b6139635760405162461bcd60e51b81526004018080602001828103825260248152602001806144996024913960400191505060405180910390fd5b505050505050565b60005b6001835103811015613b085760008084838151811061398957fe5b60200260200101518584600101815181106139a057fe5b60200260200101519150915060006139b88383614055565b50905060008785600101815181106139cc57fe5b60200260200101519050600080836001600160a01b0316866001600160a01b0316146139fa578260006139fe565b6000835b91509150600060028a51038810613a155788613a49565b613a497f0000000000000000000000000000000000000000000000000000000000000000878c8b600201815181106134c657fe5b9050613a767f00000000000000000000000000000000000000000000000000000000000000008888613201565b6001600160a01b0316636d9a640a8484846040518463ffffffff1660e01b815260040180848152602001838152602001826001600160a01b03166001600160a01b031681526020019350505050600060405180830381600087803b158015613add57600080fd5b505af1158015613af1573d6000803e3d6000fd5b50506001909901985061396e975050505050505050565b50505050565b6060600282511015613b67576040805162461bcd60e51b815260206004820152601d60248201527f5a657461537761704c6962726172793a20494e56414c49445f50415448000000604482015290519081900360640190fd5b815167ffffffffffffffff81118015613b7f57600080fd5b50604051908082528060200260200182016040528015613ba9578160200160208202803683370190505b5090508281600081518110613bba57fe5b60200260200101818152505060005b60018351038110156131f957600080613bff87868581518110613be857fe5b60200260200101518786600101815181106131a557fe5b91509150613c21848481518110613c1257fe5b60200260200101518383612fc4565b848460010181518110613c3057fe5b60209081029190910101525050600101613bc9565b6040805163e6a4390560e01b81526001600160a01b03888116600483015287811660248301529151600092839283927f00000000000000000000000000000000000000000000000000000000000000009092169163e6a4390591604480820192602092909190829003018186803b158015613cbf57600080fd5b505afa158015613cd3573d6000803e3d6000fd5b505050506040513d6020811015613ce957600080fd5b50516001600160a01b03161415613d9c57604080516364e329cb60e11b81526001600160a01b038a81166004830152898116602483015291517f00000000000000000000000000000000000000000000000000000000000000009092169163c9c65396916044808201926020929091908290030181600087803b158015613d6f57600080fd5b505af1158015613d83573d6000803e3d6000fd5b505050506040513d6020811015613d9957600080fd5b50505b600080613dca7f00000000000000000000000000000000000000000000000000000000000000008b8b6141e6565b91509150816000148015613ddc575080155b15613dec57879350869250613eac565b6000613df9898484613fa9565b9050878111613e4c5785811015613e415760405162461bcd60e51b81526004018080602001828103825260258152602001806144506025913960400191505060405180910390fd5b889450925082613eaa565b6000613e59898486613fa9565b905089811115613e6557fe5b87811015613ea45760405162461bcd60e51b81526004018080602001828103825260258152602001806144e16025913960400191505060405180910390fd5b94508793505b505b5050965096945050505050565b6000808411613ef95760405162461bcd60e51b815260040180806020018281038252602b81526020018061436f602b913960400191505060405180910390fd5b600083118015613f095750600082115b613f445760405162461bcd60e51b81526004018080602001828103825260278152602001806144056027913960400191505060405180910390fd5b6000613f686103e8613f5c868863ffffffff61413316565b9063ffffffff61413316565b90506000613f826103e5613f5c868963ffffffff61356f16565b9050613f9f6001828481613f9257fe5b049063ffffffff61418c16565b9695505050505050565b6000808411613fe95760405162461bcd60e51b81526004018080602001828103825260248152602001806144756024913960400191505060405180910390fd5b600083118015613ff95750600082115b6140345760405162461bcd60e51b81526004018080602001828103825260278152602001806144056027913960400191505060405180910390fd5b82614045858463ffffffff61413316565b8161404c57fe5b04949350505050565b600080826001600160a01b0316846001600160a01b031614156140a95760405162461bcd60e51b815260040180806020018281038252602481526020018061442c6024913960400191505060405180910390fd5b826001600160a01b0316846001600160a01b0316106140c95782846140cc565b83835b90925090506001600160a01b03821661412c576040805162461bcd60e51b815260206004820152601d60248201527f5a657461537761704c6962726172793a205a45524f5f41444452455353000000604482015290519081900360640190fd5b9250929050565b60008261414257506000610cdc565b8282028284828161414f57fe5b0414610cd95760405162461bcd60e51b81526004018080602001828103825260218152602001806143c46021913960400191505060405180910390fd5b600082820183811015610cd9576040805162461bcd60e51b815260206004820152601b60248201527f536166654d6174683a206164646974696f6e206f766572666c6f770000000000604482015290519081900360640190fd5b60008060006141f58585614055565b509050600080614206888888613201565b6001600160a01b0316630902f1ac6040518163ffffffff1660e01b815260040160606040518083038186803b15801561423e57600080fd5b505afa158015614252573d6000803e3d6000fd5b505050506040513d606081101561426857600080fd5b5080516020909101516001600160701b0391821693501690506001600160a01b038781169084161461429b57808261429e565b81815b90999098509650505050505050565b6000818484111561433c5760405162461bcd60e51b81526004018080602001828103825283818151815260200191508051906020019080838360005b838110156143015781810151838201526020016142e9565b50505050905090810190601f16801561432e5780820380516001836020036101000a031916815260200191505b509250505060405180910390fd5b50505090039056fe5a657461537761704c6962726172793a20494e53554646494349454e545f494e5055545f414d4f554e545a657461537761704c6962726172793a20494e53554646494349454e545f4f55545055545f414d4f554e545a65746153776170526f757465723a20494e53554646494349454e545f4f55545055545f414d4f554e54536166654d6174683a206d756c7469706c69636174696f6e206f766572666c6f775a65746153776170526f757465723a20494e56414c49445f50415448000000005a657461537761704c6962726172793a20494e53554646494349454e545f4c49515549444954595a657461537761704c6962726172793a204944454e544943414c5f4144445245535345535a65746153776170526f757465723a20494e53554646494349454e545f425f414d4f554e545a657461537761704c6962726172793a20494e53554646494349454e545f414d4f554e545472616e7366657248656c7065723a205452414e534645525f46524f4d5f4641494c45445472616e7366657248656c7065723a205a4554415f5452414e534645525f4641494c45445a65746153776170526f757465723a20494e53554646494349454e545f415f414d4f554e545a65746153776170526f757465723a20455850495245440000000000000000005a65746153776170526f757465723a204558434553534956455f494e5055545f414d4f554e54a2646970667358221220b0dc081bfa91cf89acee397d98209d632581feb0e849bc5d3dbe547d954cb4be64736f6c63430006060033",
  "linkReferences": {},
  "deployedLinkReferences": {}
}