{
  "_format": "hh-sol-artifact-1",
  "contractName": "ZetaSwapRouter",
  "sourceName": "contracts/ZetaSwapRouter.sol",
  "abi": [
    {
      "inputs": [
        {
          "internalType": "address",
          "name": "_factory",
          "type": "address"
        },
        {
          "internalType": "address",
          "name": "_WZETA",
          "type": "address"
        }
      ],
      "stateMutability": "nonpayable",
      "type": "constructor"
    },
    {
      "inputs": [],
      "name": "WZETA",
      "outputs": [
        {
          "internalType": "address",
          "name": "",
          "type": "address"
        }
      ],
      "stateMutability": "view",
      "type": "function"
    },
    {
      "inputs": [
        {
          "internalType": "address",
          "name": "tokenA",
          "type": "address"
        },
        {
          "internalType": "address",
          "name": "tokenB",
          "type": "address"
        },
        {
          "internalType": "uint256",
          "name": "amountADesired",
          "type": "uint256"
        },
        {
          "internalType": "uint256",
          "name": "amountBDesired",
          "type": "uint256"
        },
        {
          "internalType": "uint256",
          "name": "amountAMin",
          "type": "uint256"
        },
        {
          "internalType": "uint256",
          "name": "amountBMin",
          "type": "uint256"
        },
        {
          "internalType": "address",
          "name": "to",
          "type": "address"
        },
        {
          "internalType": "uint256",
          "name": "deadline",
          "type": "uint256"
        }
      ],
      "name": "addLiquidity",
      "outputs": [
        {
          "internalType": "uint256",
          "name": "amountA",
          "type": "uint256"
        },
        {
          "internalType": "uint256",
          "name": "amountB",
          "type": "uint256"
        },
        {
          "internalType": "uint256",
          "name": "liquidity",
          "type": "uint256"
        }
      ],
      "stateMutability": "nonpayable",
      "type": "function"
    },
    {
      "inputs": [
        {
          "internalType": "address",
          "name": "token",
          "type": "address"
        },
        {
          "internalType": "uint256",
          "name": "amountTokenDesired",
          "type": "uint256"
        },
        {
          "internalType": "uint256",
          "name": "amountTokenMin",
          "type": "uint256"
        },
        {
          "internalType": "uint256",
          "name": "amountZETAMin",
          "type": "uint256"
        },
        {
          "internalType": "address",
          "name": "to",
          "type": "address"
        },
        {
          "internalType": "uint256",
          "name": "deadline",
          "type": "uint256"
        }
      ],
      "name": "addLiquidityZETA",
      "outputs": [
        {
          "internalType": "uint256",
          "name": "amountToken",
          "type": "uint256"
        },
        {
          "internalType": "uint256",
          "name": "amountZETA",
          "type": "uint256"
        },
        {
          "internalType": "uint256",
          "name": "liquidity",
          "type": "uint256"
        }
      ],
      "stateMutability": "payable",
      "type": "function"
    },
    {
      "inputs": [],
      "name": "factory",
      "outputs": [
        {
          "internalType": "address",
          "name": "",
          "type": "address"
        }
      ],
      "stateMutability": "view",
      "type": "function"
    },
    {
      "inputs": [
        {
          "internalType": "uint256",
          "name": "amountOut",
          "type": "uint256"
        },
        {
          "internalType": "uint256",
          "name": "reserveIn",
          "type": "uint256"
        },
        {
          "internalType": "uint256",
          "name": "reserveOut",
          "type": "uint256"
        }
      ],
      "name": "getAmountIn",
      "outputs": [
        {
          "internalType": "uint256",
          "name": "amountIn",
          "type": "uint256"
        }
      ],
      "stateMutability": "pure",
      "type": "function"
    },
    {
      "inputs": [
        {
          "internalType": "uint256",
          "name": "amountIn",
          "type": "uint256"
        },
        {
          "internalType": "uint256",
          "name": "reserveIn",
          "type": "uint256"
        },
        {
          "internalType": "uint256",
          "name": "reserveOut",
          "type": "uint256"
        }
      ],
      "name": "getAmountOut",
      "outputs": [
        {
          "internalType": "uint256",
          "name": "amountOut",
          "type": "uint256"
        }
      ],
      "stateMutability": "pure",
      "type": "function"
    },
    {
      "inputs": [
        {
          "internalType": "uint256",
          "name": "amountOut",
          "type": "uint256"
        },
        {
          "internalType": "address[]",
          "name": "path",
          "type": "address[]"
        }
      ],
      "name": "getAmountsIn",
      "outputs": [
        {
          "internalType": "uint256[]",
          "name": "amounts",
          "type": "uint256[]"
        }
      ],
      "stateMutability": "view",
      "type": "function"
    },
    {
      "inputs": [
        {
          "internalType": "uint256",
          "name": "amountIn",
          "type": "uint256"
        },
        {
          "internalType": "address[]",
          "name": "path",
          "type": "address[]"
        }
      ],
      "name": "getAmountsOut",
      "outputs": [
        {
          "internalType": "uint256[]",
          "name": "amounts",
          "type": "uint256[]"
        }
      ],
      "stateMutability": "view",
      "type": "function"
    },
    {
      "inputs": [
        {
          "internalType": "bytes[]",
          "name": "data",
          "type": "bytes[]"
        }
      ],
      "name": "multicall",
      "outputs": [
        {
          "internalType": "bytes[]",
          "name": "results",
          "type": "bytes[]"
        }
      ],
      "stateMutability": "payable",
      "type": "function"
    },
    {
      "inputs": [
        {
          "internalType": "uint256",
          "name": "amountA",
          "type": "uint256"
        },
        {
          "internalType": "uint256",
          "name": "reserveA",
          "type": "uint256"
        },
        {
          "internalType": "uint256",
          "name": "reserveB",
          "type": "uint256"
        }
      ],
      "name": "quote",
      "outputs": [
        {
          "internalType": "uint256",
          "name": "amountB",
          "type": "uint256"
        }
      ],
      "stateMutability": "pure",
      "type": "function"
    },
    {
      "inputs": [
        {
          "internalType": "address",
          "name": "tokenA",
          "type": "address"
        },
        {
          "internalType": "address",
          "name": "tokenB",
          "type": "address"
        },
        {
          "internalType": "uint256",
          "name": "liquidity",
          "type": "uint256"
        },
        {
          "internalType": "uint256",
          "name": "amountAMin",
          "type": "uint256"
        },
        {
          "internalType": "uint256",
          "name": "amountBMin",
          "type": "uint256"
        },
        {
          "internalType": "address",
          "name": "to",
          "type": "address"
        },
        {
          "internalType": "uint256",
          "name": "deadline",
          "type": "uint256"
        }
      ],
      "name": "removeLiquidity",
      "outputs": [
        {
          "internalType": "uint256",
          "name": "amountA",
          "type": "uint256"
        },
        {
          "internalType": "uint256",
          "name": "amountB",
          "type": "uint256"
        }
      ],
      "stateMutability": "nonpayable",
      "type": "function"
    },
    {
      "inputs": [
        {
          "internalType": "address",
          "name": "tokenA",
          "type": "address"
        },
        {
          "internalType": "address",
          "name": "tokenB",
          "type": "address"
        },
        {
          "internalType": "uint256",
          "name": "liquidity",
          "type": "uint256"
        },
        {
          "internalType": "uint256",
          "name": "amountAMin",
          "type": "uint256"
        },
        {
          "internalType": "uint256",
          "name": "amountBMin",
          "type": "uint256"
        },
        {
          "internalType": "address",
          "name": "to",
          "type": "address"
        },
        {
          "internalType": "uint256",
          "name": "deadline",
          "type": "uint256"
        },
        {
          "internalType": "bool",
          "name": "approveMax",
          "type": "bool"
        },
        {
          "internalType": "uint8",
          "name": "v",
          "type": "uint8"
        },
        {
          "internalType": "bytes32",
          "name": "r",
          "type": "bytes32"
        },
        {
          "internalType": "bytes32",
          "name": "s",
          "type": "bytes32"
        }
      ],
      "name": "removeLiquidityWithPermit",
      "outputs": [
        {
          "internalType": "uint256",
          "name": "amountA",
          "type": "uint256"
        },
        {
          "internalType": "uint256",
          "name": "amountB",
          "type": "uint256"
        }
      ],
      "stateMutability": "nonpayable",
      "type": "function"
    },
    {
      "inputs": [
        {
          "internalType": "address",
          "name": "token",
          "type": "address"
        },
        {
          "internalType": "uint256",
          "name": "liquidity",
          "type": "uint256"
        },
        {
          "internalType": "uint256",
          "name": "amountTokenMin",
          "type": "uint256"
        },
        {
          "internalType": "uint256",
          "name": "amountZETAMin",
          "type": "uint256"
        },
        {
          "internalType": "address",
          "name": "to",
          "type": "address"
        },
        {
          "internalType": "uint256",
          "name": "deadline",
          "type": "uint256"
        }
      ],
      "name": "removeLiquidityZETA",
      "outputs": [
        {
          "internalType": "uint256",
          "name": "amountToken",
          "type": "uint256"
        },
        {
          "internalType": "uint256",
          "name": "amountZETA",
          "type": "uint256"
        }
      ],
      "stateMutability": "nonpayable",
      "type": "function"
    },
    {
      "inputs": [
        {
          "internalType": "address",
          "name": "token",
          "type": "address"
        },
        {
          "internalType": "uint256",
          "name": "liquidity",
          "type": "uint256"
        },
        {
          "internalType": "uint256",
          "name": "amountTokenMin",
          "type": "uint256"
        },
        {
          "internalType": "uint256",
          "name": "amountZETAMin",
          "type": "uint256"
        },
        {
          "internalType": "address",
          "name": "to",
          "type": "address"
        },
        {
          "internalType": "uint256",
          "name": "deadline",
          "type": "uint256"
        }
      ],
      "name": "removeLiquidityZETASupportingFeeOnTransferTokens",
      "outputs": [
        {
          "internalType": "uint256",
          "name": "amountZETA",
          "type": "uint256"
        }
      ],
      "stateMutability": "nonpayable",
      "type": "function"
    },
    {
      "inputs": [
        {
          "internalType": "address",
          "name": "token",
          "type": "address"
        },
        {
          "internalType": "uint256",
          "name": "liquidity",
          "type": "uint256"
        },
        {
          "internalType": "uint256",
          "name": "amountTokenMin",
          "type": "uint256"
        },
        {
          "internalType": "uint256",
          "name": "amountZETAMin",
          "type": "uint256"
        },
        {
          "internalType": "address",
          "name": "to",
          "type": "address"
        },
        {
          "internalType": "uint256",
          "name": "deadline",
          "type": "uint256"
        },
        {
          "internalType": "bool",
          "name": "approveMax",
          "type": "bool"
        },
        {
          "internalType": "uint8",
          "name": "v",
          "type": "uint8"
        },
        {
          "internalType": "bytes32",
          "name": "r",
          "type": "bytes32"
        },
        {
          "internalType": "bytes32",
          "name": "s",
          "type": "bytes32"
        }
      ],
      "name": "removeLiquidityZETAWithPermit",
      "outputs": [
        {
          "internalType": "uint256",
          "name": "amountToken",
          "type": "uint256"
        },
        {
          "internalType": "uint256",
          "name": "amountZETA",
          "type": "uint256"
        }
      ],
      "stateMutability": "nonpayable",
      "type": "function"
    },
    {
      "inputs": [
        {
          "internalType": "address",
          "name": "token",
          "type": "address"
        },
        {
          "internalType": "uint256",
          "name": "liquidity",
          "type": "uint256"
        },
        {
          "internalType": "uint256",
          "name": "amountTokenMin",
          "type": "uint256"
        },
        {
          "internalType": "uint256",
          "name": "amountZETAMin",
          "type": "uint256"
        },
        {
          "internalType": "address",
          "name": "to",
          "type": "address"
        },
        {
          "internalType": "uint256",
          "name": "deadline",
          "type": "uint256"
        },
        {
          "internalType": "bool",
          "name": "approveMax",
          "type": "bool"
        },
        {
          "internalType": "uint8",
          "name": "v",
          "type": "uint8"
        },
        {
          "internalType": "bytes32",
          "name": "r",
          "type": "bytes32"
        },
        {
          "internalType": "bytes32",
          "name": "s",
          "type": "bytes32"
        }
      ],
      "name": "removeLiquidityZETAWithPermitSupportingFeeOnTransferTokens",
      "outputs": [
        {
          "internalType": "uint256",
          "name": "amountZETA",
          "type": "uint256"
        }
      ],
      "stateMutability": "nonpayable",
      "type": "function"
    },
    {
      "inputs": [
        {
          "internalType": "uint256",
          "name": "amountIn",
          "type": "uint256"
        },
        {
          "internalType": "uint256",
          "name": "amountOutMin",
          "type": "uint256"
        },
        {
          "internalType": "address[]",
          "name": "path",
          "type": "address[]"
        },
        {
          "internalType": "address",
          "name": "to",
          "type": "address"
        },
        {
          "internalType": "uint256",
          "name": "deadline",
          "type": "uint256"
        }
      ],
      "name": "swapExactTokensForTokens",
      "outputs": [
        {
          "internalType": "uint256[]",
          "name": "amounts",
          "type": "uint256[]"
        }
      ],
      "stateMutability": "nonpayable",
      "type": "function"
    },
    {
      "inputs": [
        {
          "internalType": "uint256",
          "name": "amountIn",
          "type": "uint256"
        },
        {
          "internalType": "uint256",
          "name": "amountOutMin",
          "type": "uint256"
        },
        {
          "internalType": "address[]",
          "name": "path",
          "type": "address[]"
        },
        {
          "internalType": "address",
          "name": "to",
          "type": "address"
        },
        {
          "internalType": "uint256",
          "name": "deadline",
          "type": "uint256"
        }
      ],
      "name": "swapExactTokensForTokensSupportingFeeOnTransferTokens",
      "outputs": [],
      "stateMutability": "nonpayable",
      "type": "function"
    },
    {
      "inputs": [
        {
          "internalType": "uint256",
          "name": "amountIn",
          "type": "uint256"
        },
        {
          "internalType": "uint256",
          "name": "amountOutMin",
          "type": "uint256"
        },
        {
          "internalType": "address[]",
          "name": "path",
          "type": "address[]"
        },
        {
          "internalType": "address",
          "name": "to",
          "type": "address"
        },
        {
          "internalType": "uint256",
          "name": "deadline",
          "type": "uint256"
        }
      ],
      "name": "swapExactTokensForZETA",
      "outputs": [
        {
          "internalType": "uint256[]",
          "name": "amounts",
          "type": "uint256[]"
        }
      ],
      "stateMutability": "nonpayable",
      "type": "function"
    },
    {
      "inputs": [
        {
          "internalType": "uint256",
          "name": "amountIn",
          "type": "uint256"
        },
        {
          "internalType": "uint256",
          "name": "amountOutMin",
          "type": "uint256"
        },
        {
          "internalType": "address[]",
          "name": "path",
          "type": "address[]"
        },
        {
          "internalType": "address",
          "name": "to",
          "type": "address"
        },
        {
          "internalType": "uint256",
          "name": "deadline",
          "type": "uint256"
        }
      ],
      "name": "swapExactTokensForZETASupportingFeeOnTransferTokens",
      "outputs": [],
      "stateMutability": "nonpayable",
      "type": "function"
    },
    {
      "inputs": [
        {
          "internalType": "uint256",
          "name": "amountOutMin",
          "type": "uint256"
        },
        {
          "internalType": "address[]",
          "name": "path",
          "type": "address[]"
        },
        {
          "internalType": "address",
          "name": "to",
          "type": "address"
        },
        {
          "internalType": "uint256",
          "name": "deadline",
          "type": "uint256"
        }
      ],
      "name": "swapExactZETAForTokens",
      "outputs": [
        {
          "internalType": "uint256[]",
          "name": "amounts",
          "type": "uint256[]"
        }
      ],
      "stateMutability": "payable",
      "type": "function"
    },
    {
      "inputs": [
        {
          "internalType": "uint256",
          "name": "amountOutMin",
          "type": "uint256"
        },
        {
          "internalType": "address[]",
          "name": "path",
          "type": "address[]"
        },
        {
          "internalType": "address",
          "name": "to",
          "type": "address"
        },
        {
          "internalType": "uint256",
          "name": "deadline",
          "type": "uint256"
        }
      ],
      "name": "swapExactZETAForTokensSupportingFeeOnTransferTokens",
      "outputs": [],
      "stateMutability": "payable",
      "type": "function"
    },
    {
      "inputs": [
        {
          "internalType": "uint256",
          "name": "amountOut",
          "type": "uint256"
        },
        {
          "internalType": "uint256",
          "name": "amountInMax",
          "type": "uint256"
        },
        {
          "internalType": "address[]",
          "name": "path",
          "type": "address[]"
        },
        {
          "internalType": "address",
          "name": "to",
          "type": "address"
        },
        {
          "internalType": "uint256",
          "name": "deadline",
          "type": "uint256"
        }
      ],
      "name": "swapTokensForExactTokens",
      "outputs": [
        {
          "internalType": "uint256[]",
          "name": "amounts",
          "type": "uint256[]"
        }
      ],
      "stateMutability": "nonpayable",
      "type": "function"
    },
    {
      "inputs": [
        {
          "internalType": "uint256",
          "name": "amountOut",
          "type": "uint256"
        },
        {
          "internalType": "uint256",
          "name": "amountInMax",
          "type": "uint256"
        },
        {
          "internalType": "address[]",
          "name": "path",
          "type": "address[]"
        },
        {
          "internalType": "address",
          "name": "to",
          "type": "address"
        },
        {
          "internalType": "uint256",
          "name": "deadline",
          "type": "uint256"
        }
      ],
      "name": "swapTokensForExactZETA",
      "outputs": [
        {
          "internalType": "uint256[]",
          "name": "amounts",
          "type": "uint256[]"
        }
      ],
      "stateMutability": "nonpayable",
      "type": "function"
    },
    {
      "inputs": [
        {
          "internalType": "uint256",
          "name": "amountOut",
          "type": "uint256"
        },
        {
          "internalType": "address[]",
          "name": "path",
          "type": "address[]"
        },
        {
          "internalType": "address",
          "name": "to",
          "type": "address"
        },
        {
          "internalType": "uint256",
          "name": "deadline",
          "type": "uint256"
        }
      ],
      "name": "swapZETAForExactTokens",
      "outputs": [
        {
          "internalType": "uint256[]",
          "name": "amounts",
          "type": "uint256[]"
        }
      ],
      "stateMutability": "payable",
      "type": "function"
    },
    {
      "stateMutability": "payable",
      "type": "receive"
    }
  ],
  "bytecode": "0x60c06040523480156200001157600080fd5b506040516200437a3803806200437a833981016040819052620000349162000053565b6001600160601b0319606092831b8116608052911b1660a052620000aa565b6000806040838503121562000066578182fd5b8251620000738162000091565b6020840151909250620000868162000091565b809150509250929050565b6001600160a01b0381168114620000a757600080fd5b50565b60805160601c60a05160601c6141a2620001d86000398061017a528061061b5280610692528061070652806109fa5280610ac75280610b6d5280610c5d5280610e305280611019528061106f52806110a35280611129528061143e52806115325280611659528061175f52806117e75280611a425280611a925280611b345280611c3d5280611cc5528061215f528061223252806122f052806124735250806104e7528061052052806107385280610b4b5280610ccd5280610d875280610f0c528061104d52806112a9528061141c52806115a252806116ce528061181952806119895280611ba95280611cf75280611f2b52806120e5528061210e52806123a15280612726528061288d5280612ca55280612cdb5280612e935280612f485280612fdb52506141a26000f3fe60806040526004361061016a5760003560e01c80637e604919116100d1578063ad615dec1161008a578063d06ca61f11610064578063d06ca61f14610456578063e6b82e1c14610476578063e8e3370014610496578063f9f0bd86146104b6576101a3565b8063ad615dec146103f4578063baa2abde14610414578063c45a015514610434576101a3565b80637e6049191461034e57806385f8c259146103615780638803dbee146103815780638a714885146103a15780638c2cd219146103c1578063ac9650d8146103d4576101a3565b8063379313d011610123578063379313d01461028c57806338ed1739146102ac57806349b66e3b146102cc5780635c11d795146102ee578063669a6bc81461030e57806374327f141461032e576101a3565b8063054d50d4146101a85780631f00ca74146101de5780632195995c1461020b57806321b3830e146102395780632b4fed051461024c5780632dec17e91461026c576101a3565b366101a357336001600160a01b037f000000000000000000000000000000000000000000000000000000000000000016146101a157fe5b005b600080fd5b3480156101b457600080fd5b506101c86101c3366004613957565b6104cb565b6040516101d5919061404b565b60405180910390f35b3480156101ea57600080fd5b506101fe6101f936600461380c565b6104e0565b6040516101d59190613b63565b34801561021757600080fd5b5061022b6102263660046134c7565b610516565b6040516101d5929190614054565b6101a16102473660046137a7565b6105ef565b34801561025857600080fd5b506101c86102673660046135ec565b6109d1565b34801561027857600080fd5b506101c8610287366004613649565b610b43565b34801561029857600080fd5b506101fe6102a73660046138e6565b610c30565b3480156102b857600080fd5b506101fe6102c73660046138e6565b610ee4565b6102df6102da3660046135ec565b610fed565b6040516101d593929190614081565b3480156102fa57600080fd5b506101a16103093660046138e6565b61125d565b34801561031a57600080fd5b5061022b610329366004613649565b611412565b34801561033a57600080fd5b506101fe6103493660046138e6565b611505565b6101fe61035c3660046137a7565b611634565b34801561036d57600080fd5b506101c861037c366004613957565b611954565b34801561038d57600080fd5b506101fe61039c3660046138e6565b611961565b3480156103ad57600080fd5b5061022b6103bc3660046135ec565b611a18565b6101fe6103cf3660046137a7565b611b0f565b6103e76103e23660046136df565b611dec565b6040516101d59190613b03565b34801561040057600080fd5b506101c861040f366004613957565b611ef3565b34801561042057600080fd5b5061022b61042f366004613456565b611f00565b34801561044057600080fd5b506104496120e3565b6040516101d59190613a57565b34801561046257600080fd5b506101fe61047136600461380c565b612107565b34801561048257600080fd5b506101a16104913660046138e6565b612134565b3480156104a257600080fd5b506102df6104b1366004613571565b612361565b3480156104c257600080fd5b50610449612471565b60006104d8848484612495565b949350505050565b606061050d7f00000000000000000000000000000000000000000000000000000000000000008484612547565b90505b92915050565b60008060006105467f00000000000000000000000000000000000000000000000000000000000000008f8f61265f565b9050600087610555578c610559565b6000195b60405163d505accf60e01b81529091506001600160a01b0383169063d505accf90610594903390309086908f908e908e908e90600401613a6b565b600060405180830381600087803b1580156105ae57600080fd5b505af11580156105c2573d6000803e3d6000fd5b505050506105d58f8f8f8f8f8f8f611f00565b809450819550505050509b509b9950505050505050505050565b80428110156106195760405162461bcd60e51b815260040161061090613cbd565b60405180910390fd5b7f00000000000000000000000000000000000000000000000000000000000000006001600160a01b03168585600081811061065057fe5b9050602002016020810190610665919061341e565b6001600160a01b03161461068b5760405162461bcd60e51b815260040161061090613e41565b60003490507f00000000000000000000000000000000000000000000000000000000000000006001600160a01b031663d0e30db0826040518263ffffffff1660e01b81526004016000604051808303818588803b1580156106eb57600080fd5b505af11580156106ff573d6000803e3d6000fd5b50505050507f00000000000000000000000000000000000000000000000000000000000000006001600160a01b031663a9059cbb6107a07f00000000000000000000000000000000000000000000000000000000000000008989600081811061076457fe5b9050602002016020810190610779919061341e565b8a8a600181811061078657fe5b905060200201602081019061079b919061341e565b61265f565b836040518363ffffffff1660e01b81526004016107be929190613aea565b602060405180830381600087803b1580156107d857600080fd5b505af11580156107ec573d6000803e3d6000fd5b505050506040513d601f19601f82011682018060405250810190610810919061371f565b61081657fe5b60008686600019810181811061082857fe5b905060200201602081019061083d919061341e565b6001600160a01b03166370a08231866040518263ffffffff1660e01b81526004016108689190613a57565b60206040518083038186803b15801561088057600080fd5b505afa158015610894573d6000803e3d6000fd5b505050506040513d601f19601f820116820180604052508101906108b8919061378f565b90506108f88787808060200260200160405190810160405280939291908181526020018383602002808284376000920191909152508992506126cf915050565b876109a9828989600019810181811061090d57fe5b9050602002016020810190610922919061341e565b6001600160a01b03166370a08231896040518263ffffffff1660e01b815260040161094d9190613a57565b60206040518083038186803b15801561096557600080fd5b505afa158015610979573d6000803e3d6000fd5b505050506040513d601f19601f8201168201806040525081019061099d919061378f565b9063ffffffff61294816565b10156109c75760405162461bcd60e51b815260040161061090613cf4565b5050505050505050565b600081428110156109f45760405162461bcd60e51b815260040161061090613cbd565b610a23887f00000000000000000000000000000000000000000000000000000000000000008989893089611f00565b6040516370a0823160e01b8152909350610ab09150899086906001600160a01b038316906370a0823190610a5b903090600401613a57565b60206040518083038186803b158015610a7357600080fd5b505afa158015610a87573d6000803e3d6000fd5b505050506040513d601f19601f82011682018060405250810190610aab919061378f565b61298a565b604051632e1a7d4d60e01b81526001600160a01b037f00000000000000000000000000000000000000000000000000000000000000001690632e1a7d4d90610afc90859060040161404b565b600060405180830381600087803b158015610b1657600080fd5b505af1158015610b2a573d6000803e3d6000fd5b50505050610b388483612a78565b509695505050505050565b600080610b917f00000000000000000000000000000000000000000000000000000000000000008d7f000000000000000000000000000000000000000000000000000000000000000061265f565b9050600086610ba0578b610ba4565b6000195b60405163d505accf60e01b81529091506001600160a01b0383169063d505accf90610bdf903390309086908e908d908d908d90600401613a6b565b600060405180830381600087803b158015610bf957600080fd5b505af1158015610c0d573d6000803e3d6000fd5b50505050610c1f8d8d8d8d8d8d6109d1565b9d9c50505050505050505050505050565b60608142811015610c535760405162461bcd60e51b815260040161061090613cbd565b6001600160a01b037f00000000000000000000000000000000000000000000000000000000000000001686866000198101818110610c8d57fe5b9050602002016020810190610ca2919061341e565b6001600160a01b031614610cc85760405162461bcd60e51b815260040161061090613e41565b610d267f00000000000000000000000000000000000000000000000000000000000000008988888080602002602001604051908101604052809392919081815260200183836020028082843760009201919091525061254792505050565b91508682600081518110610d3657fe5b60200260200101511115610d5c5760405162461bcd60e51b815260040161061090614005565b610def86866000818110610d6c57fe5b9050602002016020810190610d81919061341e565b33610dd57f00000000000000000000000000000000000000000000000000000000000000008a8a6000818110610db357fe5b9050602002016020810190610dc8919061341e565b8b8b600181811061078657fe5b85600081518110610de257fe5b6020026020010151612b05565b610e2e82878780806020026020016040519081016040528093929190818152602001838360200280828437600092019190915250309250612bf6915050565b7f00000000000000000000000000000000000000000000000000000000000000006001600160a01b0316632e1a7d4d83600185510381518110610e6d57fe5b60200260200101516040518263ffffffff1660e01b8152600401610e91919061404b565b600060405180830381600087803b158015610eab57600080fd5b505af1158015610ebf573d6000803e3d6000fd5b50505050610b388483600185510381518110610ed757fe5b6020026020010151612a78565b60608142811015610f075760405162461bcd60e51b815260040161061090613cbd565b610f657f000000000000000000000000000000000000000000000000000000000000000089888880806020026020016040519081016040528093929190818152602001838360200280828437600092019190915250612d7b92505050565b91508682600184510381518110610f7857fe5b60200260200101511015610f9e5760405162461bcd60e51b815260040161061090613cf4565b610fae86866000818110610d6c57fe5b610b3882878780806020026020016040519081016040528093929190818152602001838360200280828437600092019190915250899250612bf6915050565b600080600083428110156110135760405162461bcd60e51b815260040161061090613cbd565b6110418a7f00000000000000000000000000000000000000000000000000000000000000008b348c8c612e7d565b909450925060006110937f00000000000000000000000000000000000000000000000000000000000000008c7f000000000000000000000000000000000000000000000000000000000000000061265f565b90506110a18b338388612b05565b7f00000000000000000000000000000000000000000000000000000000000000006001600160a01b031663d0e30db0856040518263ffffffff1660e01b81526004016000604051808303818588803b1580156110fc57600080fd5b505af1158015611110573d6000803e3d6000fd5b505060405163a9059cbb60e01b81526001600160a01b037f000000000000000000000000000000000000000000000000000000000000000016935063a9059cbb9250611163915084908890600401613aea565b602060405180830381600087803b15801561117d57600080fd5b505af1158015611191573d6000803e3d6000fd5b505050506040513d601f19601f820116820180604052508101906111b5919061371f565b6111bb57fe5b6040516335313c2160e11b81526001600160a01b03821690636a627842906111e7908a90600401613a57565b602060405180830381600087803b15801561120157600080fd5b505af1158015611215573d6000803e3d6000fd5b505050506040513d601f19601f82011682018060405250810190611239919061378f565b92508334111561124f5761124f33853403612a78565b505096509650969350505050565b804281101561127e5760405162461bcd60e51b815260040161061090613cbd565b6112db8585600081811061128e57fe5b90506020020160208101906112a3919061341e565b336112d57f00000000000000000000000000000000000000000000000000000000000000008989600081811061076457fe5b8a612b05565b6000858560001981018181106112ed57fe5b9050602002016020810190611302919061341e565b6001600160a01b03166370a08231856040518263ffffffff1660e01b815260040161132d9190613a57565b60206040518083038186803b15801561134557600080fd5b505afa158015611359573d6000803e3d6000fd5b505050506040513d601f19601f8201168201806040525081019061137d919061378f565b90506113bd8686808060200260200160405190810160405280939291908181526020018383602002808284376000920191909152508892506126cf915050565b866109a982888860001981018181106113d257fe5b90506020020160208101906113e7919061341e565b6001600160a01b03166370a08231886040518263ffffffff1660e01b815260040161094d9190613a57565b60008060006114627f00000000000000000000000000000000000000000000000000000000000000008e7f000000000000000000000000000000000000000000000000000000000000000061265f565b9050600087611471578c611475565b6000195b60405163d505accf60e01b81529091506001600160a01b0383169063d505accf906114b0903390309086908f908e908e908e90600401613a6b565b600060405180830381600087803b1580156114ca57600080fd5b505af11580156114de573d6000803e3d6000fd5b505050506114f08e8e8e8e8e8e611a18565b909f909e509c50505050505050505050505050565b606081428110156115285760405162461bcd60e51b815260040161061090613cbd565b6001600160a01b037f0000000000000000000000000000000000000000000000000000000000000000168686600019810181811061156257fe5b9050602002016020810190611577919061341e565b6001600160a01b03161461159d5760405162461bcd60e51b815260040161061090613e41565b6115fb7f000000000000000000000000000000000000000000000000000000000000000089888880806020026020016040519081016040528093929190818152602001838360200280828437600092019190915250612d7b92505050565b9150868260018451038151811061160e57fe5b60200260200101511015610d5c5760405162461bcd60e51b815260040161061090613cf4565b606081428110156116575760405162461bcd60e51b815260040161061090613cbd565b7f00000000000000000000000000000000000000000000000000000000000000006001600160a01b03168686600081811061168e57fe5b90506020020160208101906116a3919061341e565b6001600160a01b0316146116c95760405162461bcd60e51b815260040161061090613e41565b6117277f00000000000000000000000000000000000000000000000000000000000000008888888080602002602001604051908101604052809392919081815260200183836020028082843760009201919091525061254792505050565b9150348260008151811061173757fe5b6020026020010151111561175d5760405162461bcd60e51b815260040161061090614005565b7f00000000000000000000000000000000000000000000000000000000000000006001600160a01b031663d0e30db08360008151811061179957fe5b60200260200101516040518263ffffffff1660e01b81526004016000604051808303818588803b1580156117cc57600080fd5b505af11580156117e0573d6000803e3d6000fd5b50505050507f00000000000000000000000000000000000000000000000000000000000000006001600160a01b031663a9059cbb6118457f00000000000000000000000000000000000000000000000000000000000000008989600081811061076457fe5b8460008151811061185257fe5b60200260200101516040518363ffffffff1660e01b8152600401611877929190613aea565b602060405180830381600087803b15801561189157600080fd5b505af11580156118a5573d6000803e3d6000fd5b505050506040513d601f19601f820116820180604052508101906118c9919061371f565b6118cf57fe5b61190e82878780806020026020016040519081016040528093929190818152602001838360200280828437600092019190915250899250612bf6915050565b8160008151811061191b57fe5b602002602001015134111561194a5761194a338360008151811061193b57fe5b60200260200101513403612a78565b5095945050505050565b60006104d88484846130b2565b606081428110156119845760405162461bcd60e51b815260040161061090613cbd565b6119e27f00000000000000000000000000000000000000000000000000000000000000008988888080602002602001604051908101604052809392919081815260200183836020028082843760009201919091525061254792505050565b915086826000815181106119f257fe5b60200260200101511115610f9e5760405162461bcd60e51b815260040161061090614005565b6000808242811015611a3c5760405162461bcd60e51b815260040161061090613cbd565b611a6b897f00000000000000000000000000000000000000000000000000000000000000008a8a8a308a611f00565b9093509150611a7b89868561298a565b604051632e1a7d4d60e01b81526001600160a01b037f00000000000000000000000000000000000000000000000000000000000000001690632e1a7d4d90611ac790859060040161404b565b600060405180830381600087803b158015611ae157600080fd5b505af1158015611af5573d6000803e3d6000fd5b50505050611b038583612a78565b50965096945050505050565b60608142811015611b325760405162461bcd60e51b815260040161061090613cbd565b7f00000000000000000000000000000000000000000000000000000000000000006001600160a01b031686866000818110611b6957fe5b9050602002016020810190611b7e919061341e565b6001600160a01b031614611ba45760405162461bcd60e51b815260040161061090613e41565b611c027f000000000000000000000000000000000000000000000000000000000000000034888880806020026020016040519081016040528093929190818152602001838360200280828437600092019190915250612d7b92505050565b91508682600184510381518110611c1557fe5b60200260200101511015611c3b5760405162461bcd60e51b815260040161061090613cf4565b7f00000000000000000000000000000000000000000000000000000000000000006001600160a01b031663d0e30db083600081518110611c7757fe5b60200260200101516040518263ffffffff1660e01b81526004016000604051808303818588803b158015611caa57600080fd5b505af1158015611cbe573d6000803e3d6000fd5b50505050507f00000000000000000000000000000000000000000000000000000000000000006001600160a01b031663a9059cbb611d237f00000000000000000000000000000000000000000000000000000000000000008989600081811061076457fe5b84600081518110611d3057fe5b60200260200101516040518363ffffffff1660e01b8152600401611d55929190613aea565b602060405180830381600087803b158015611d6f57600080fd5b505af1158015611d83573d6000803e3d6000fd5b505050506040513d601f19601f82011682018060405250810190611da7919061371f565b611dad57fe5b61194a82878780806020026020016040519081016040528093929190818152602001838360200280828437600092019190915250899250612bf6915050565b60608167ffffffffffffffff81118015611e0557600080fd5b50604051908082528060200260200182016040528015611e3957816020015b6060815260200190600190039081611e245790505b50905060005b82811015611eec576000606030868685818110611e5857fe5b9050602002810190611e6a9190614097565b604051611e789291906139d5565b600060405180830381855af49150503d8060008114611eb3576040519150601f19603f3d011682016040523d82523d6000602084013e611eb8565b606091505b509150915081611eca57805160208201fd5b80848481518110611ed757fe5b60209081029190910101525050600101611e3f565b5092915050565b60006104d8848484613164565b6000808242811015611f245760405162461bcd60e51b815260040161061090613cbd565b6000611f517f00000000000000000000000000000000000000000000000000000000000000008c8c61265f565b6040516323b872dd60e01b81529091506001600160a01b038216906323b872dd90611f8490339085908e90600401613aac565b602060405180830381600087803b158015611f9e57600080fd5b505af1158015611fb2573d6000803e3d6000fd5b505050506040513d601f19601f82011682018060405250810190611fd6919061371f565b50600080826001600160a01b03166389afcb44896040518263ffffffff1660e01b81526004016120069190613a57565b6040805180830381600087803b15801561201f57600080fd5b505af1158015612033573d6000803e3d6000fd5b505050506040513d601f19601f8201168201806040525081019061205791906138c3565b9150915060006120678e8e6131d2565b509050806001600160a01b03168e6001600160a01b03161461208a57818361208d565b82825b90975095508a8710156120b25760405162461bcd60e51b815260040161061090613fc0565b898610156120d25760405162461bcd60e51b815260040161061090613e78565b505050505097509795505050505050565b7f000000000000000000000000000000000000000000000000000000000000000081565b606061050d7f00000000000000000000000000000000000000000000000000000000000000008484612d7b565b80428110156121555760405162461bcd60e51b815260040161061090613cbd565b6001600160a01b037f0000000000000000000000000000000000000000000000000000000000000000168585600019810181811061218f57fe5b90506020020160208101906121a4919061341e565b6001600160a01b0316146121ca5760405162461bcd60e51b815260040161061090613e41565b6121da8585600081811061128e57fe5b6122188585808060200260200160405190810160405280939291908181526020018383602002808284376000920191909152503092506126cf915050565b6040516370a0823160e01b81526000906001600160a01b037f000000000000000000000000000000000000000000000000000000000000000016906370a0823190612267903090600401613a57565b60206040518083038186803b15801561227f57600080fd5b505afa158015612293573d6000803e3d6000fd5b505050506040513d601f19601f820116820180604052508101906122b7919061378f565b9050868110156122d95760405162461bcd60e51b815260040161061090613cf4565b604051632e1a7d4d60e01b81526001600160a01b037f00000000000000000000000000000000000000000000000000000000000000001690632e1a7d4d9061232590849060040161404b565b600060405180830381600087803b15801561233f57600080fd5b505af1158015612353573d6000803e3d6000fd5b505050506109c78482612a78565b600080600083428110156123875760405162461bcd60e51b815260040161061090613cbd565b6123958c8c8c8c8c8c612e7d565b909450925060006123c77f00000000000000000000000000000000000000000000000000000000000000008e8e61265f565b90506123d58d338388612b05565b6123e18c338387612b05565b6040516335313c2160e11b81526001600160a01b03821690636a6278429061240d908a90600401613a57565b602060405180830381600087803b15801561242757600080fd5b505af115801561243b573d6000803e3d6000fd5b505050506040513d601f19601f8201168201806040525081019061245f919061378f565b92505050985098509895505050505050565b7f000000000000000000000000000000000000000000000000000000000000000081565b60008084116124b65760405162461bcd60e51b815260040161061090613bf1565b6000831180156124c65750600082115b6124e25760405162461bcd60e51b815260040161061090613d7f565b60006124f6856103e563ffffffff61325c16565b9050600061250a828563ffffffff61325c16565b9050600061253083612524886103e863ffffffff61325c16565b9063ffffffff61329616565b905080828161253b57fe5b04979650505050505050565b606060028251101561256b5760405162461bcd60e51b815260040161061090613e0a565b815167ffffffffffffffff8111801561258357600080fd5b506040519080825280602002602001820160405280156125ad578160200160208202803683370190505b50905082816001835103815181106125c157fe5b60209081029190910101528151600019015b801561265757600080612610878660018603815181106125ef57fe5b602002602001015187868151811061260357fe5b60200260200101516132bb565b9150915061263284848151811061262357fe5b602002602001015183836130b2565b84600185038151811061264157fe5b60209081029190910101525050600019016125d3565b509392505050565b600080600061266e85856131d2565b915091508582826040516020016126869291906139ae565b604051602081830303815290604052805190602001206040516020016126ad929190613a01565b60408051601f1981840301815291905280516020909101209695505050505050565b60005b6001835103811015612943576000808483815181106126ed57fe5b602002602001015185846001018151811061270457fe5b602002602001015191509150600061271c83836131d2565b509050600061274c7f0000000000000000000000000000000000000000000000000000000000000000858561265f565b9050600080600080846001600160a01b0316630902f1ac6040518163ffffffff1660e01b815260040160606040518083038186803b15801561278d57600080fd5b505afa1580156127a1573d6000803e3d6000fd5b505050506040513d601f19601f820116820180604052508101906127c5919061373b565b506001600160701b031691506001600160701b03169150600080876001600160a01b03168a6001600160a01b0316146127ff578284612802565b83835b91509150612836828b6001600160a01b03166370a082318a6040518263ffffffff1660e01b815260040161094d9190613a57565b9550612843868383612495565b945050505050600080856001600160a01b0316886001600160a01b03161461286d57826000612871565b6000835b91509150600060028c51038a10612888578a6128c9565b6128c97f0000000000000000000000000000000000000000000000000000000000000000898e8d600201815181106128bc57fe5b602002602001015161265f565b6040516336cd320560e11b81529091506001600160a01b03871690636d9a640a906128fc90869086908690600401614062565b600060405180830381600087803b15801561291657600080fd5b505af115801561292a573d6000803e3d6000fd5b50506001909b019a506126d29950505050505050505050565b505050565b600061050d83836040518060400160405280601e81526020017f536166654d6174683a207375627472616374696f6e206f766572666c6f770000815250613394565b60006060846001600160a01b031663a9059cbb85856040516024016129b0929190613aea565b6040516020818303038152906040529060e01b6020820180516001600160e01b0383818316178352505050506040516129e991906139e5565b6000604051808303816000865af19150503d8060008114612a26576040519150601f19603f3d011682016040523d82523d6000602084013e612a2b565b606091505b5091509150818015612a55575080511580612a55575080806020019051810190612a55919061371f565b612a715760405162461bcd60e51b815260040161061090613bba565b5050505050565b604080516000808252602082019092526001600160a01b038416908390604051612aa291906139e5565b60006040518083038185875af1925050503d8060008114612adf576040519150601f19603f3d011682016040523d82523d6000602084013e612ae4565b606091505b50509050806129435760405162461bcd60e51b815260040161061090613f7c565b60006060856001600160a01b03166323b872dd868686604051602401612b2d93929190613aac565b6040516020818303038152906040529060e01b6020820180516001600160e01b038381831617835250505050604051612b6691906139e5565b6000604051808303816000865af19150503d8060008114612ba3576040519150601f19603f3d011682016040523d82523d6000602084013e612ba8565b606091505b5091509150818015612bd2575080511580612bd2575080806020019051810190612bd2919061371f565b612bee5760405162461bcd60e51b815260040161061090613f38565b505050505050565b60005b6001835103811015612d7557600080848381518110612c1457fe5b6020026020010151858460010181518110612c2b57fe5b6020026020010151915091506000612c4383836131d2565b5090506000878560010181518110612c5757fe5b60200260200101519050600080836001600160a01b0316866001600160a01b031614612c8557826000612c89565b6000835b91509150600060028a51038810612ca05788612cd4565b612cd47f0000000000000000000000000000000000000000000000000000000000000000878c8b600201815181106128bc57fe5b9050612d017f0000000000000000000000000000000000000000000000000000000000000000888861265f565b6001600160a01b0316636d9a640a8484846040518463ffffffff1660e01b8152600401612d3093929190614062565b600060405180830381600087803b158015612d4a57600080fd5b505af1158015612d5e573d6000803e3d6000fd5b505060019099019850612bf9975050505050505050565b50505050565b6060600282511015612d9f5760405162461bcd60e51b815260040161061090613e0a565b815167ffffffffffffffff81118015612db757600080fd5b50604051908082528060200260200182016040528015612de1578160200160208202803683370190505b5090508281600081518110612df257fe5b60200260200101818152505060005b600183510381101561265757600080612e3787868581518110612e2057fe5b602002602001015187866001018151811061260357fe5b91509150612e59848481518110612e4a57fe5b60200260200101518383612495565b848460010181518110612e6857fe5b60209081029190910101525050600101612e01565b60405163e6a4390560e01b8152600090819081907f00000000000000000000000000000000000000000000000000000000000000006001600160a01b03169063e6a4390590612ed2908c908c90600401613ad0565b60206040518083038186803b158015612eea57600080fd5b505afa158015612efe573d6000803e3d6000fd5b505050506040513d601f19601f82011682018060405250810190612f22919061343a565b6001600160a01b03161415612fd3576040516364e329cb60e11b81526001600160a01b037f0000000000000000000000000000000000000000000000000000000000000000169063c9c6539690612f7f908b908b90600401613ad0565b602060405180830381600087803b158015612f9957600080fd5b505af1158015612fad573d6000803e3d6000fd5b505050506040513d601f19601f82011682018060405250810190612fd1919061343a565b505b6000806130017f00000000000000000000000000000000000000000000000000000000000000008b8b6132bb565b91509150816000148015613013575080155b15613023578793508692506130a5565b6000613030898484613164565b905087811161306457858110156130595760405162461bcd60e51b815260040161061090613e78565b8894509250826130a3565b6000613071898486613164565b90508981111561307d57fe5b8781101561309d5760405162461bcd60e51b815260040161061090613fc0565b94508793505b505b5050965096945050505050565b60008084116130d35760405162461bcd60e51b815260040161061090613c3b565b6000831180156130e35750600082115b6130ff5760405162461bcd60e51b815260040161061090613d7f565b60006131236103e8613117868863ffffffff61325c16565b9063ffffffff61325c16565b9050600061313d6103e5613117868963ffffffff61294816565b905061315a600182848161314d57fe5b049063ffffffff61329616565b9695505050505050565b60008084116131855760405162461bcd60e51b815260040161061090613ef4565b6000831180156131955750600082115b6131b15760405162461bcd60e51b815260040161061090613d7f565b826131c2858463ffffffff61325c16565b816131c957fe5b04949350505050565b600080826001600160a01b0316846001600160a01b031614156132075760405162461bcd60e51b815260040161061090613dc6565b826001600160a01b0316846001600160a01b03161061322757828461322a565b83835b90925090506001600160a01b0382166132555760405162461bcd60e51b815260040161061090613ebd565b9250929050565b60008261326b57506000610510565b8282028284828161327857fe5b041461050d5760405162461bcd60e51b815260040161061090613d3e565b60008282018381101561050d5760405162461bcd60e51b815260040161061090613c86565b60008060006132ca85856131d2565b5090506000806132db88888861265f565b6001600160a01b0316630902f1ac6040518163ffffffff1660e01b815260040160606040518083038186803b15801561331357600080fd5b505afa158015613327573d6000803e3d6000fd5b505050506040513d601f19601f8201168201806040525081019061334b919061373b565b506001600160701b031691506001600160701b03169150826001600160a01b0316876001600160a01b031614613382578082613385565b81815b90999098509650505050505050565b600081848411156133b85760405162461bcd60e51b81526004016106109190613ba7565b505050900390565b803561051081614131565b60008083601f8401126133dc578182fd5b50813567ffffffffffffffff8111156133f3578182fd5b602083019150836020808302850101111561325557600080fd5b803560ff8116811461051057600080fd5b60006020828403121561342f578081fd5b813561050d81614131565b60006020828403121561344b578081fd5b815161050d81614131565b600080600080600080600060e0888a031215613470578283fd5b873561347b81614131565b9650602088013561348b81614131565b955060408801359450606088013593506080880135925060a08801356134b081614131565b8092505060c0880135905092959891949750929550565b60008060008060008060008060008060006101608c8e0312156134e8578384fd5b8b356134f381614131565b9a5060208c013561350381614131565b995060408c0135985060608c0135975060808c0135965060a08c013561352881614131565b955060c08c0135945060e08c013561353f81614149565b935061354f8d6101008e0161340d565b92506101208c013591506101408c013590509295989b509295989b9093969950565b600080600080600080600080610100898b03121561358d578384fd5b883561359881614131565b975060208901356135a881614131565b965060408901359550606089013594506080890135935060a0890135925060c08901356135d481614131565b8092505060e089013590509295985092959890939650565b60008060008060008060c08789031215613604578182fd5b863561360f81614131565b9550602087013594506040870135935060608701359250608087013561363481614131565b8092505060a087013590509295509295509295565b6000806000806000806000806000806101408b8d031215613668578384fd5b8a3561367381614131565b995060208b0135985060408b0135975060608b0135965060808b013561369881614131565b955060a08b0135945060c08b01356136af81614149565b93506136be8c60e08d0161340d565b92506101008b013591506101208b013590509295989b9194979a5092959850565b600080602083850312156136f1578182fd5b823567ffffffffffffffff811115613707578283fd5b613713858286016133cb565b90969095509350505050565b600060208284031215613730578081fd5b815161050d81614149565b60008060006060848603121561374f578081fd5b835161375a81614157565b602085015190935061376b81614157565b604085015190925063ffffffff81168114613784578182fd5b809150509250925092565b6000602082840312156137a0578081fd5b5051919050565b6000806000806000608086880312156137be578283fd5b85359450602086013567ffffffffffffffff8111156137db578384fd5b6137e7888289016133cb565b90955093505060408601356137fb81614131565b949793965091946060013592915050565b6000806040838503121561381e578182fd5b8235915060208084013567ffffffffffffffff8082111561383d578384fd5b81860187601f82011261384e578485fd5b803592508183111561385e578485fd5b838302915061386e8483016140de565b8381528481019082860184840187018b1015613888578788fd5b8794505b858510156138b25761389e8b826133c0565b83526001949094019391860191860161388c565b508096505050505050509250929050565b600080604083850312156138d5578182fd5b505080516020909101519092909150565b60008060008060008060a087890312156138fe578384fd5b8635955060208701359450604087013567ffffffffffffffff811115613922578485fd5b61392e89828a016133cb565b909550935050606087013561394281614131565b80925050608087013590509295509295509295565b60008060006060848603121561396b578081fd5b505081359360208301359350604090920135919050565b6000815180845261399a816020860160208601614105565b601f01601f19169290920160200192915050565b6bffffffffffffffffffffffff19606093841b811682529190921b16601482015260280190565b6000828483379101908152919050565b600082516139f7818460208701614105565b9190910192915050565b6001600160f81b0319815260609290921b6bffffffffffffffffffffffff1916600183015260158201527f0fc5ad8a37d4e6fa0247f3d75fd31093fdcf933707df5728bc1e44545f404988603582015260550190565b6001600160a01b0391909116815260200190565b6001600160a01b0397881681529590961660208601526040850193909352606084019190915260ff16608083015260a082015260c081019190915260e00190565b6001600160a01b039384168152919092166020820152604081019190915260600190565b6001600160a01b0392831681529116602082015260400190565b6001600160a01b03929092168252602082015260400190565b6000602080830181845280855180835260408601915060408482028701019250838701855b82811015613b5657603f19888603018452613b44858351613982565b94509285019290850190600101613b28565b5092979650505050505050565b6020808252825182820181905260009190848201906040850190845b81811015613b9b57835183529284019291840191600101613b7f565b50909695505050505050565b60006020825261050d6020830184613982565b6020808252601f908201527f5472616e7366657248656c7065723a205452414e534645525f4641494c454400604082015260600190565b6020808252602a908201527f5a657461537761704c6962726172793a20494e53554646494349454e545f494e60408201526914155517d05353d5539560b21b606082015260800190565b6020808252602b908201527f5a657461537761704c6962726172793a20494e53554646494349454e545f4f5560408201526a1514155517d05353d5539560aa1b606082015260800190565b6020808252601b908201527f536166654d6174683a206164646974696f6e206f766572666c6f770000000000604082015260600190565b60208082526017908201527f5a65746153776170526f757465723a2045585049524544000000000000000000604082015260600190565b6020808252602a908201527f5a65746153776170526f757465723a20494e53554646494349454e545f4f555460408201526914155517d05353d5539560b21b606082015260800190565b60208082526021908201527f536166654d6174683a206d756c7469706c69636174696f6e206f766572666c6f6040820152607760f81b606082015260800190565b60208082526027908201527f5a657461537761704c6962726172793a20494e53554646494349454e545f4c496040820152665155494449545960c81b606082015260800190565b60208082526024908201527f5a657461537761704c6962726172793a204944454e544943414c5f41444452456040820152635353455360e01b606082015260800190565b6020808252601d908201527f5a657461537761704c6962726172793a20494e56414c49445f50415448000000604082015260600190565b6020808252601c908201527f5a65746153776170526f757465723a20494e56414c49445f5041544800000000604082015260600190565b60208082526025908201527f5a65746153776170526f757465723a20494e53554646494349454e545f425f416040820152641353d5539560da1b606082015260800190565b6020808252601d908201527f5a657461537761704c6962726172793a205a45524f5f41444452455353000000604082015260600190565b60208082526024908201527f5a657461537761704c6962726172793a20494e53554646494349454e545f414d60408201526313d5539560e21b606082015260800190565b60208082526024908201527f5472616e7366657248656c7065723a205452414e534645525f46524f4d5f46416040820152631253115160e21b606082015260800190565b60208082526024908201527f5472616e7366657248656c7065723a205a4554415f5452414e534645525f46416040820152631253115160e21b606082015260800190565b60208082526025908201527f5a65746153776170526f757465723a20494e53554646494349454e545f415f416040820152641353d5539560da1b606082015260800190565b60208082526026908201527f5a65746153776170526f757465723a204558434553534956455f494e5055545f604082015265105353d5539560d21b606082015260800190565b90815260200190565b918252602082015260400190565b92835260208301919091526001600160a01b0316604082015260600190565b9283526020830191909152604082015260600190565b6000808335601e198436030181126140ad578283fd5b8084018035925067ffffffffffffffff8311156140c8578384fd5b6020019250503681900382131561325557600080fd5b60405181810167ffffffffffffffff811182821017156140fd57600080fd5b604052919050565b60005b83811015614120578181015183820152602001614108565b83811115612d755750506000910152565b6001600160a01b038116811461414657600080fd5b50565b801515811461414657600080fd5b6001600160701b038116811461414657600080fdfea264697066735822122071c7be77caa4a8965e326ebb0977ab13ace8d656e59bd69437a568404d70ff3a64736f6c63430006060033",
  "linkReferences": {},
  "deployedLinkReferences": {}
}