{
  "_format": "hh-sol-artifact-1",
  "contractName": "Zetaworld",
  "sourceName": "contracts/ZetaToken.sol",
  "abi": [
    {
      "inputs": [
        {
          "internalType": "address",
          "name": "initialOwner",
          "type": "address"
        }
      ],
      "stateMutability": "nonpayable",
      "type": "constructor"
    },
    {
      "inputs": [
        {
          "internalType": "address",
          "name": "owner",
          "type": "address"
        }
      ],
      "name": "OwnableInvalidOwner",
      "type": "error"
    },
    {
      "inputs": [
        {
          "internalType": "address",
          "name": "account",
          "type": "address"
        }
      ],
      "name": "OwnableUnauthorizedAccount",
      "type": "error"
    },
    {
      "anonymous": false,
      "inputs": [
        {
          "indexed": true,
          "internalType": "address",
          "name": "owner",
          "type": "address"
        },
        {
          "indexed": true,
          "internalType": "address",
          "name": "spender",
          "type": "address"
        },
        {
          "indexed": false,
          "internalType": "uint256",
          "name": "value",
          "type": "uint256"
        }
      ],
      "name": "Approval",
      "type": "event"
    },
    {
      "anonymous": false,
      "inputs": [
        {
          "indexed": true,
          "internalType": "address",
          "name": "account",
          "type": "address"
        },
        {
          "indexed": false,
          "internalType": "uint256",
          "name": "amount",
          "type": "uint256"
        }
      ],
      "name": "Burn",
      "type": "event"
    },
    {
      "anonymous": false,
      "inputs": [
        {
          "indexed": true,
          "internalType": "address",
          "name": "previousOwner",
          "type": "address"
        },
        {
          "indexed": true,
          "internalType": "address",
          "name": "newOwner",
          "type": "address"
        }
      ],
      "name": "OwnershipTransferred",
      "type": "event"
    },
    {
      "anonymous": false,
      "inputs": [
        {
          "indexed": false,
          "internalType": "bool",
          "name": "suspended",
          "type": "bool"
        }
      ],
      "name": "Suspended",
      "type": "event"
    },
    {
      "anonymous": false,
      "inputs": [
        {
          "indexed": true,
          "internalType": "address",
          "name": "from",
          "type": "address"
        },
        {
          "indexed": true,
          "internalType": "address",
          "name": "to",
          "type": "address"
        },
        {
          "indexed": false,
          "internalType": "uint256",
          "name": "value",
          "type": "uint256"
        }
      ],
      "name": "Transfer",
      "type": "event"
    },
    {
      "anonymous": false,
      "inputs": [
        {
          "indexed": false,
          "internalType": "address",
          "name": "account",
          "type": "address"
        },
        {
          "indexed": false,
          "internalType": "bool",
          "name": "isListed",
          "type": "bool"
        }
      ],
      "name": "UpdateBlacklist",
      "type": "event"
    },
    {
      "anonymous": false,
      "inputs": [
        {
          "indexed": true,
          "internalType": "address",
          "name": "operator",
          "type": "address"
        },
        {
          "indexed": false,
          "internalType": "bool",
          "name": "authorized",
          "type": "bool"
        }
      ],
      "name": "UpdateOperator",
      "type": "event"
    },
    {
      "inputs": [
        {
          "internalType": "address",
          "name": "owner",
          "type": "address"
        },
        {
          "internalType": "address",
          "name": "spender",
          "type": "address"
        }
      ],
      "name": "allowance",
      "outputs": [
        {
          "internalType": "uint256",
          "name": "",
          "type": "uint256"
        }
      ],
      "stateMutability": "view",
      "type": "function"
    },
    {
      "inputs": [
        {
          "internalType": "address",
          "name": "spender",
          "type": "address"
        },
        {
          "internalType": "uint256",
          "name": "amount",
          "type": "uint256"
        }
      ],
      "name": "approve",
      "outputs": [
        {
          "internalType": "bool",
          "name": "",
          "type": "bool"
        }
      ],
      "stateMutability": "nonpayable",
      "type": "function"
    },
    {
      "inputs": [
        {
          "internalType": "address",
          "name": "account",
          "type": "address"
        }
      ],
      "name": "balanceOf",
      "outputs": [
        {
          "internalType": "uint256",
          "name": "",
          "type": "uint256"
        }
      ],
      "stateMutability": "view",
      "type": "function"
    },
    {
      "inputs": [
        {
          "internalType": "uint256",
          "name": "amount",
          "type": "uint256"
        }
      ],
      "name": "burn",
      "outputs": [
        {
          "internalType": "bool",
          "name": "",
          "type": "bool"
        }
      ],
      "stateMutability": "nonpayable",
      "type": "function"
    },
    {
      "inputs": [],
      "name": "decimals",
      "outputs": [
        {
          "internalType": "uint8",
          "name": "",
          "type": "uint8"
        }
      ],
      "stateMutability": "view",
      "type": "function"
    },
    {
      "inputs": [
        {
          "internalType": "address",
          "name": "spender",
          "type": "address"
        },
        {
          "internalType": "uint256",
          "name": "subtractedValue",
          "type": "uint256"
        }
      ],
      "name": "decreaseAllowance",
      "outputs": [
        {
          "internalType": "bool",
          "name": "",
          "type": "bool"
        }
      ],
      "stateMutability": "nonpayable",
      "type": "function"
    },
    {
      "inputs": [],
      "name": "getOwner",
      "outputs": [
        {
          "internalType": "address",
          "name": "",
          "type": "address"
        }
      ],
      "stateMutability": "view",
      "type": "function"
    },
    {
      "inputs": [
        {
          "internalType": "address",
          "name": "spender",
          "type": "address"
        },
        {
          "internalType": "uint256",
          "name": "addedValue",
          "type": "uint256"
        }
      ],
      "name": "increaseAllowance",
      "outputs": [
        {
          "internalType": "bool",
          "name": "",
          "type": "bool"
        }
      ],
      "stateMutability": "nonpayable",
      "type": "function"
    },
    {
      "inputs": [
        {
          "internalType": "address",
          "name": "account",
          "type": "address"
        }
      ],
      "name": "isBlacklisted",
      "outputs": [
        {
          "internalType": "bool",
          "name": "",
          "type": "bool"
        }
      ],
      "stateMutability": "view",
      "type": "function"
    },
    {
      "inputs": [],
      "name": "isSuspended",
      "outputs": [
        {
          "internalType": "bool",
          "name": "",
          "type": "bool"
        }
      ],
      "stateMutability": "view",
      "type": "function"
    },
    {
      "inputs": [],
      "name": "name",
      "outputs": [
        {
          "internalType": "string",
          "name": "",
          "type": "string"
        }
      ],
      "stateMutability": "view",
      "type": "function"
    },
    {
      "inputs": [],
      "name": "owner",
      "outputs": [
        {
          "internalType": "address",
          "name": "",
          "type": "address"
        }
      ],
      "stateMutability": "view",
      "type": "function"
    },
    {
      "inputs": [],
      "name": "renounceOwnership",
      "outputs": [],
      "stateMutability": "nonpayable",
      "type": "function"
    },
    {
      "inputs": [
        {
          "internalType": "bool",
          "name": "suspend_",
          "type": "bool"
        }
      ],
      "name": "suspend",
      "outputs": [],
      "stateMutability": "nonpayable",
      "type": "function"
    },
    {
      "inputs": [],
      "name": "symbol",
      "outputs": [
        {
          "internalType": "string",
          "name": "",
          "type": "string"
        }
      ],
      "stateMutability": "view",
      "type": "function"
    },
    {
      "inputs": [],
      "name": "totalSupply",
      "outputs": [
        {
          "internalType": "uint256",
          "name": "",
          "type": "uint256"
        }
      ],
      "stateMutability": "view",
      "type": "function"
    },
    {
      "inputs": [
        {
          "internalType": "address",
          "name": "recipient",
          "type": "address"
        },
        {
          "internalType": "uint256",
          "name": "amount",
          "type": "uint256"
        }
      ],
      "name": "transfer",
      "outputs": [
        {
          "internalType": "bool",
          "name": "",
          "type": "bool"
        }
      ],
      "stateMutability": "nonpayable",
      "type": "function"
    },
    {
      "inputs": [
        {
          "internalType": "address",
          "name": "sender",
          "type": "address"
        },
        {
          "internalType": "address",
          "name": "recipient",
          "type": "address"
        },
        {
          "internalType": "uint256",
          "name": "amount",
          "type": "uint256"
        }
      ],
      "name": "transferFrom",
      "outputs": [
        {
          "internalType": "bool",
          "name": "",
          "type": "bool"
        }
      ],
      "stateMutability": "nonpayable",
      "type": "function"
    },
    {
      "inputs": [
        {
          "internalType": "address",
          "name": "newOwner",
          "type": "address"
        }
      ],
      "name": "transferOwnership",
      "outputs": [],
      "stateMutability": "nonpayable",
      "type": "function"
    },
    {
      "inputs": [
        {
          "internalType": "address",
          "name": "account",
          "type": "address"
        },
        {
          "internalType": "bool",
          "name": "isListed",
          "type": "bool"
        }
      ],
      "name": "updateBlacklist",
      "outputs": [],
      "stateMutability": "nonpayable",
      "type": "function"
    },
    {
      "inputs": [
        {
          "internalType": "address",
          "name": "operator",
          "type": "address"
        },
        {
          "internalType": "bool",
          "name": "authorized",
          "type": "bool"
        }
      ],
      "name": "updateOperator",
      "outputs": [],
      "stateMutability": "nonpayable",
      "type": "function"
    }
  ],
  "bytecode": "0x60806040523480156200001157600080fd5b50604051620014ef380380620014ef83398101604081905262000034916200013d565b806200004081620000ed565b506040805180820190915260098082526816995d185ddbdc9b1960ba1b6020830152906200006f908262000214565b506040805180820190915260038152625a545760e81b602082015260089062000099908262000214565b506007805460ff19166012908117909155620000b790600a620003f5565b620000c8906402540be40062000406565b60068190556001600160a01b0390911660009081526002602052604090205562000420565b600080546001600160a01b038381166001600160a01b0319831681178455604051919092169283917f8be0079c531659141344cd1fd0a4f28419497f9722a3daafe3b4186f6b6457e09190a35050565b6000602082840312156200015057600080fd5b81516001600160a01b03811681146200016857600080fd5b9392505050565b634e487b7160e01b600052604160045260246000fd5b600181811c908216806200019a57607f821691505b602082108103620001bb57634e487b7160e01b600052602260045260246000fd5b50919050565b601f8211156200020f57600081815260208120601f850160051c81016020861015620001ea5750805b601f850160051c820191505b818110156200020b57828155600101620001f6565b5050505b505050565b81516001600160401b038111156200023057620002306200016f565b620002488162000241845462000185565b84620001c1565b602080601f831160018114620002805760008415620002675750858301515b600019600386901b1c1916600185901b1785556200020b565b600085815260208120601f198616915b82811015620002b15788860151825594840194600190910190840162000290565b5085821015620002d05787850151600019600388901b60f8161c191681555b5050505050600190811b01905550565b634e487b7160e01b600052601160045260246000fd5b600181815b80851115620003375781600019048211156200031b576200031b620002e0565b808516156200032957918102915b93841c9390800290620002fb565b509250929050565b6000826200035057506001620003ef565b816200035f57506000620003ef565b81600181146200037857600281146200038357620003a3565b6001915050620003ef565b60ff841115620003975762000397620002e0565b50506001821b620003ef565b5060208310610133831016604e8410600b8410161715620003c8575081810a620003ef565b620003d48383620002f6565b8060001904821115620003eb57620003eb620002e0565b0290505b92915050565b60006200016860ff8416836200033f565b8082028115828204841417620003ef57620003ef620002e0565b6110bf80620004306000396000f3fe608060405234801561001057600080fd5b50600436106101375760003560e01c8063715018a6116100b8578063a457c2d71161007c578063a457c2d71461027f578063a9059cbb14610292578063bfd812ec146102a5578063dd62ed3e146102b8578063f2fde38b146102cb578063fe575a87146102de57600080fd5b8063715018a614610226578063893d20e81461022e5780638da5cb5b146102535780639155e0831461026457806395d89b411461027757600080fd5b8063313ce567116100ff578063313ce567146101ad57806339509351146101c257806342966c68146101d55780636d44a3b2146101e857806370a08231146101fd57600080fd5b806306fdde031461013c578063095ea7b31461015a57806318160ddd1461017d5780631d1309351461018f57806323b872dd1461019a575b600080fd5b61014461030a565b6040516101519190610e9b565b60405180910390f35b61016d610168366004610f05565b61039c565b6040519015158152602001610151565b6006545b604051908152602001610151565b60055460ff1661016d565b61016d6101a8366004610f2f565b6103b3565b60075460405160ff9091168152602001610151565b61016d6101d0366004610f05565b6103d7565b61016d6101e3366004610f6b565b610420565b6101fb6101f6366004610f94565b610434565b005b61018161020b366004610fc7565b6001600160a01b031660009081526002602052604090205490565b6101fb610515565b6000546001600160a01b03165b6040516001600160a01b039091168152602001610151565b6000546001600160a01b031661023b565b6101fb610272366004610f94565b610529565b61014461063a565b61016d61028d366004610f05565b610649565b61016d6102a0366004610f05565b6106c4565b6101fb6102b3366004610fe9565b6106d1565b6101816102c6366004611004565b610768565b6101fb6102d9366004610fc7565b610793565b61016d6102ec366004610fc7565b6001600160a01b031660009081526004602052604090205460ff1690565b6060600980546103199061102e565b80601f01602080910402602001604051908101604052809291908181526020018280546103459061102e565b80156103925780601f1061036757610100808354040283529160200191610392565b820191906000526020600020905b81548152906001019060200180831161037557829003601f168201915b5050505050905090565b60006103a93384846107d1565b5060015b92915050565b6000336103c18582856108f6565b6103cc858585610970565b506001949350505050565b3360008181526003602090815260408083206001600160a01b03871684529091528120549091906104169082908690610411908790611068565b6107d1565b5060019392505050565b600061042c3383610c5c565b506001919050565b61043c610e1e565b6001600160a01b0382166104a55760405162461bcd60e51b815260206004820152602560248201527f4f776e61626c653a206f70657261746f7220697320746865207a65726f206164604482015264647265737360d81b60648201526084015b60405180910390fd5b816001600160a01b03167f2ee52be9d342458b3d25e07faada7ff9bc06723b4aa24edb6321ac1316b8a9dd826040516104e2911515815260200190565b60405180910390a26001600160a01b03919091166000908152600160205260409020805460ff1916911515919091179055565b61051d610e1e565b6105276000610e4b565b565b610531610e1e565b6001600160a01b0382166105795760405162461bcd60e51b815260206004820152600f60248201526e696e76616c6964206164647265737360881b604482015260640161049c565b6001600160a01b03821660009081526004602052604090205481151560ff9091161515036105d75760405162461bcd60e51b815260206004820152600b60248201526a1b9bdd0818da185b99d95960aa1b604482015260640161049c565b6001600160a01b038216600081815260046020908152604091829020805460ff19168515159081179091558251938452908301527fca420e94bc11a03f2c0e028ba9f0c041310cf741f51cb07cec103a3d75f9fbfa910160405180910390a15050565b6060600880546103199061102e565b600033816106578286610768565b9050838110156106b75760405162461bcd60e51b815260206004820152602560248201527f45524332303a2064656372656173656420616c6c6f77616e63652062656c6f77604482015264207a65726f60d81b606482015260840161049c565b6103cc82868684036107d1565b60006103a9338484610970565b6106d9610e1e565b60055481151560ff9091161515036107215760405162461bcd60e51b815260206004820152600b60248201526a1b9bdd0818da185b99d95960aa1b604482015260640161049c565b6005805460ff19168215159081179091556040519081527f58e6c20b68c19f4d8dbc6206267af40b288342464b433205bb41e5b65c4016da9060200160405180910390a150565b6001600160a01b03918216600090815260036020908152604080832093909416825291909152205490565b61079b610e1e565b6001600160a01b0381166107c557604051631e4fbdf760e01b81526000600482015260240161049c565b6107ce81610e4b565b50565b6001600160a01b0383166108335760405162461bcd60e51b8152602060048201526024808201527f45524332303a20617070726f76652066726f6d20746865207a65726f206164646044820152637265737360e01b606482015260840161049c565b6001600160a01b0382166108945760405162461bcd60e51b815260206004820152602260248201527f45524332303a20617070726f766520746f20746865207a65726f206164647265604482015261737360f01b606482015260840161049c565b6001600160a01b0383811660008181526003602090815260408083209487168084529482529182902085905590518481527f8c5be1e5ebec7d5bd14f71427d1e84f3dd0314c0f7b2291e5b200ac8c7c3b92591015b60405180910390a3505050565b60006109028484610768565b9050600019811461096a578181101561095d5760405162461bcd60e51b815260206004820152601d60248201527f45524332303a20696e73756666696369656e7420616c6c6f77616e6365000000604482015260640161049c565b61096a84848484036107d1565b50505050565b6001600160a01b0383166109d45760405162461bcd60e51b815260206004820152602560248201527f45524332303a207472616e736665722066726f6d20746865207a65726f206164604482015264647265737360d81b606482015260840161049c565b6001600160a01b038216610a365760405162461bcd60e51b815260206004820152602360248201527f45524332303a207472616e7366657220746f20746865207a65726f206164647260448201526265737360e81b606482015260840161049c565b6001600160a01b03831660009081526004602052604090205460ff1615610a9f5760405162461bcd60e51b815260206004820152601c60248201527f73656e64657220686173206265656e20626c61636b206c697374656400000000604482015260640161049c565b6001600160a01b03821660009081526004602052604090205460ff1615610b085760405162461bcd60e51b815260206004820152601f60248201527f726563697069656e7420686173206265656e20626c61636b206c697374656400604482015260640161049c565b60055460ff1615610b765760405162461bcd60e51b815260206004820152603260248201527f746f6b656e207472616e7366657272696e6720686173206265656e2074656d7060448201527137b930b934b63c9039bab9b832b73232b21760711b606482015260840161049c565b6001600160a01b03831660009081526002602052604090205481811015610bee5760405162461bcd60e51b815260206004820152602660248201527f45524332303a207472616e7366657220616d6f756e7420657863656564732062604482015265616c616e636560d01b606482015260840161049c565b6001600160a01b0380851660008181526002602052604080822086860390559286168082529083902080548601905591517fddf252ad1be2c89b69c2b068fc378daa952ba7f163c4a11628f55a4df523b3ef90610c4e9086815260200190565b60405180910390a350505050565b60008111610ca45760405162461bcd60e51b815260206004820152601560248201527445524332303a20616d6f756e74206973207a65726f60581b604482015260640161049c565b6001600160a01b038216600090815260026020526040902054811115610d0c5760405162461bcd60e51b815260206004820152601b60248201527f45524332303a20696e73756666696369656e742062616c616e63650000000000604482015260640161049c565b6001600160a01b03821660009081526002602052604090205481811015610d805760405162461bcd60e51b815260206004820152602260248201527f45524332303a206275726e20616d6f756e7420657863656564732062616c616e604482015261636560f01b606482015260840161049c565b6001600160a01b038316600081815260026020526040908190208484039055600680548590039055517fcc16f5dbb4873280815c1ee09dbd06736cffcc184412cf7a71a0fdb75d397ca590610dd89085815260200190565b60405180910390a26040518281526000906001600160a01b038516907fddf252ad1be2c89b69c2b068fc378daa952ba7f163c4a11628f55a4df523b3ef906020016108e9565b6000546001600160a01b031633146105275760405163118cdaa760e01b815233600482015260240161049c565b600080546001600160a01b038381166001600160a01b0319831681178455604051919092169283917f8be0079c531659141344cd1fd0a4f28419497f9722a3daafe3b4186f6b6457e09190a35050565b600060208083528351808285015260005b81811015610ec857858101830151858201604001528201610eac565b506000604082860101526040601f19601f8301168501019250505092915050565b80356001600160a01b0381168114610f0057600080fd5b919050565b60008060408385031215610f1857600080fd5b610f2183610ee9565b946020939093013593505050565b600080600060608486031215610f4457600080fd5b610f4d84610ee9565b9250610f5b60208501610ee9565b9150604084013590509250925092565b600060208284031215610f7d57600080fd5b5035919050565b80358015158114610f0057600080fd5b60008060408385031215610fa757600080fd5b610fb083610ee9565b9150610fbe60208401610f84565b90509250929050565b600060208284031215610fd957600080fd5b610fe282610ee9565b9392505050565b600060208284031215610ffb57600080fd5b610fe282610f84565b6000806040838503121561101757600080fd5b61102083610ee9565b9150610fbe60208401610ee9565b600181811c9082168061104257607f821691505b60208210810361106257634e487b7160e01b600052602260045260246000fd5b50919050565b808201808211156103ad57634e487b7160e01b600052601160045260246000fdfea2646970667358221220e6add25e57ee26e926e47daf9e327b2776b2013b87376b717b9b44e54654c93b64736f6c63430008140033",
  "linkReferences": {},
  "deployedLinkReferences": {}
}